:100000000C9479000C94A1000C94A1000C94A10014
:100010000C94A1000C94A1000C94A1000C94A100DC
:100020000C94A1000C94A1000C94A1000C94EE057A
:100030000C94A1000C94A1000C94A1000C94A100BC
:100040000C9480070C94A1000C94A1000C94A100C6
:100050000C94A1000C94A1000C94A1000C94A1009C
:100060000C94A1000C94A100084AD73B3BCE016E32
:1000700084BCBFFDC12F3D6C74319ABD56833DDAFF
:100080003D00C77F11BED9E4BB4C3E916BAAAABE0E
:10009000000000803F00000000240027002A00002C
:1000A000000000250028002B00000000002300268F
:1000B00000290004040404040404040202020202ED
:1000C000020303030303030102040810204080011C
:1000D000020408102001020408102000000007009C
:1000E0000201000003040600000000000000000000
:1000F000E30011241FBECFEFD8E0DEBFCDBF11E07B
:10010000A0E0B1E0ECEEF7E102C005900D92A03066
:10011000B107D9F711E0A0E0B1E001C01D92A3350D
:10012000B107E1F710E0C2EFD0E004C02297FE0172
:100130000E94F00BC03FD107C9F70E94E3080C945E
:10014000F40B0C940000CF93DF93C0E0D1E0CE011C
:100150000E948301CE0160E070E040E050E026E9BB
:1001600030E00E946C05529A5A98DF91CF91089521
:100170000F931F93CF93DF93C0E0D1E0CE0160E0F7
:1001800070E040E050E026E930E004EC19E00E9425
:10019000760560ED77E080E090E00E94EE07CE010A
:1001A00060E070E040E050E022ED30E00E94760533
:1001B00060ED77E080E090E00E94EE07DF91CF9164
:1001C0001F910F9108958F929F92AF92BF92CF92FD
:1001D000DF92EF92FF920F931F9300D00F92EDB733
:1001E000FEB7319683E0ADB7BEB711968C9389E028
:1001F00081838AE0828380E091E040E050E060E724
:1002000073E400E010E020EA32E40F2EF0E0CF2E9D
:10021000F0E0DF2EFCE5EF2EF3E4FF2EF02D0F2EA5
:10022000F0E08F2EF0E09F2EF8E4AF2EF2E4BF2E28
:10023000F02D0E9429010F900F900F901F910F91A8
:10024000FF90EF90DF90CF90BF90AF909F908F90F6
:1002500008952F923F924F925F926F927F928F926A
:100260009F92AF92BF92CF92DF92EF92FF920F9345
:100270001F93DF93CF9300D000D0CDB7DEB73C0102
:1002800018012901039649835A836B837C830E945A
:10029000AC06C30106960E94AC06C30109960E94F3
:1002A000AC0649815A816B817C81F301428B538B6F
:1002B000648B758B268A378A408E518EC28ED38E80
:1002C000E48EF58E868E978EA0A2B1A2898D808352
:1002D0008A8D81838B8D82830F900F900F900F906A
:1002E000CF91DF911F910F91FF90EF90DF90CF9012
:1002F000BF90AF909F908F907F906F905F904F9046
:100300003F902F900895EF92FF920F931F93CF93FA
:10031000DF938C017C01C0E0D0E0F70161917F01A7
:100320002196CE01880F991F8C0F9D1F800F911F62
:1003300070E00E944507C330D10579F7DF91CF9176
:100340001F910F91FF90EF9008952F923F924F923F
:100350005F926F927F928F929F92AF92BF92CF9255
:10036000DF92EF92FF920F931F93DF93CF93CDB75E
:10037000DEB762970FB6F894DEBF0FBECDBF9A8B83
:10038000898B4A015B010D831E832F8338872601E9
:100390003701DC0152966D917D918D919C9155971D
:1003A0002AE33DEC43E95EEB0E94FE0A69837A830F
:1003B0008B839C83E989FA89668D778D80A191A1D1
:1003C0002AE33DEC43E95EE30E94FE0A9B01AC0197
:1003D0006D817E818F8198850E94F208D62EC72E6E
:1003E000382E292EA989BA8956968D919D910D9006
:1003F000BC91A02D8D839E83AF83B887A989BA89CC
:100400005A968D919D910D90BC91A02D89879A87C8
:10041000AB87BC87C501B401A50194010E94FE0A07
:100420007B018C01A6019101652F742F832F922FE0
:10043000D601F1012B2F3A2F4F2F5E2F0E94FE0A7B
:100440009B01AC01C801B7010E94F3087B018C013C
:10045000C301B201A30192010E94FE0A9B01AC01FB
:10046000C801B7010E94F3087B018C016D817E8178
:100470008F8198859B01AC010E94FE0A9B01AC0113
:10048000C801B7010E94F3087B018C0169857A8558
:100490008B859C859B01AC010E94FE0A9B01AC01EF
:1004A000C801B7010E94F2087B018C0159814A8181
:1004B0003B812C81652F742F832F922FDA01B32E6D
:1004C000822E2B2F3A2F482F592F0E94FE0A9B0174
:1004D000AC01C801B7010E94F2087B018C01C30185
:1004E000B201A30192010E94F3089B01AC01C80173
:1004F000B7010E94830969877D878E879F8759810D
:100500004A81652F742F8B2D982DD601F1012B2F49
:100510003A2F4F2F5E2F0E94F208A30192010E94F2
:100520008309F62E072F182F492EB981AA812B2F68
:100530003A2F4B2D582D0E94FE0A9B01AC01B98524
:10054000AD85EE84DF846B2F7A2F8E2D9D2D0E943A
:10055000F308E62ED72EC82EB92E662E772E882EBB
:10056000992E6F2D702F812F942D2F2D302F412FED
:10057000542D0E94FE0A562E372E282E988BC40129
:10058000B30190582E2D3D2D4C2D5B2D0E94FE0A5F
:100590004B015C012889652D732D822D922F2D81B1
:1005A0003E814F8158850E94FE0A2D813E814F81F8
:1005B00058850E94F3089B01AC016D817E818F817B
:1005C00098850E94FE0A9B01AC01C501B4010E94FE
:1005D000F308E62ED72EC82EB92E20E030E0A90170
:1005E0000E947F0987FF07C0E989FA8982A193A148
:1005F000019693A382A36E2D7D2D8C2D9B2D0E94A1
:10060000650B4B015C0159854D853E852F85652F16
:10061000742F832F922F2F2D302F412F542D0E9476
:10062000FE0A9B01AC01B981AA81EB80DC806B2FB3
:100630007A2F8E2D9D2D0E94F208A50194010E9413
:10064000F2084B015C012889652D732D822D922FB4
:1006500020E030E040E85FE30E94F3089B01AC013A
:10066000C501B4010E948309E62ED72EC82EB92EEB
:100670006F2D702F812F942D2E2D3D2D4C2D5B2D08
:100680000E94FE0A9B01AC01B985AD851E850F85D0
:100690006B2F7A2F812F902F0E94F3083B014C0182
:1006A00097FA909497F8909459814A813B812C81D4
:1006B000652F742F832F922F2E2D3D2D4C2D5B2DCA
:1006C0000E94F2089B01AC01C401B3010E9483099E
:1006D0000E94570920E030E044E353E40E94FE0A00
:1006E0002BED3FE049E450E40E948309162F072FC9
:1006F000F82E892E6E2D7D2D8C2D9B2DB981AA81F2
:10070000EB80DC802B2F3A2F4E2D5D2D0E94F30ABB
:1007100018162CF420E030E044E353E403C020E05A
:1007200030E0A901D8016B2F702F8F2D982D0E94DA
:10073000F3087B018C017F2D912F20E030E0A9018F
:100740000E94F30A18166CF46E2D7F2D802F912FC6
:1007500020E030E044EB52E40E94F30A18166CF0FB
:1007600017C06E2D7F2D802F912F20E030E044EBBD
:1007700052EC0E947F0987FF0BC0A989BA89929623
:100780008D919C919397019693969C938E939297BB
:100790006E2D7F2D802F912F62960FB6F894DEBFBD
:1007A0000FBECDBFCF91DF911F910F91FF90EF90C2
:1007B000DF90CF90BF90AF909F908F907F906F9081
:1007C0005F904F903F902F9008952F923F924F92BD
:1007D0005F926F927F928F929F92AF92BF92CF92D1
:1007E000DF92EF92FF920F931F93DF93CF93CDB7DA
:1007F000DEB72C970FB6F894DEBF0FBECDBF5C01FD
:10080000FC0113A212A264857585882777FD809567
:10081000982F0E941E0A3B014C01F50166857785E1
:10082000882777FD8095982F0E941E0A1B012C01B6
:10083000F50160897189882777FD8095982F0E943E
:100840001E0A6B017C01C501B401A3019201810163
:100850000E94A50169837A838B839C83F50164855B
:100860007585882777FD8095982F0E941E0A3B0189
:100870004C01F50166857785882777FD8095982F4F
:100880000E941E0A7B018C01C401B30120E030E00C
:1008900040E05FEB0E94FE0A1B012C01C801B7017A
:1008A00027ED33EB4DE55FE30E94FE0A9B01AC01AF
:1008B000C201B1010E94F3081B012C01C801B7015C
:1008C00020E030E040E05FEB0E94FE0A7B018C01FB
:1008D000C401B30127ED33EB4DE55FE30E94FE0A4F
:1008E0009B01AC01C801B7010E94F2083B014C0119
:1008F000F50160897189882777FD8095982F0E947E
:100900001E0A6B017C01C501B201A10194018301A2
:100910000E94A5016D837E838F839887F50164858E
:100920007585882777FD8095982F0E941E0A3B01C8
:100930004C01F50166857785882777FD8095982F8E
:100940000E941E0A7B018C01C401B30120E030E04B
:1009500040E05FEB0E94FE0A1B012C01C801B701B9
:1009600027ED33EB4DE55FE30E94FE0A9B01AC01EE
:10097000C201B1010E94F2081B012C01C801B7019C
:1009800020E030E040E05FEB0E94FE0A7B018C013A
:10099000C401B30127ED33EB4DE55FE30E94FE0A8E
:1009A0009B01AC01C801B7010E94F3083B014C0157
:1009B000F50160897189882777FD8095982F0E94BD
:1009C0001E0A6B017C01C501B201A10194018301E2
:1009D0000E94A50169877A878B879C87F50182A190
:1009E00093A1009709F05DC03E010894611C711C41
:1009F000CC24DD24F30121913191419151913F01AA
:100A000060E070E084EB92E40E94F20820EA3AE1B0
:100A100047E151E40E94FE0A20E030E842E254E45B
:100A20000E94F308162F072FF82EE92EA801970130
:100A3000652F742F832F922F20E030E842E254E498
:100A40000E947F0987FD17C0A8019701652F742FA9
:100A5000832F922F20E030E046E155E40E94F30A14
:100A6000181664F0A8019701652F742F832F922F19
:100A70000E94EB0905C06AE872E002C060E679E016
:100A800086010F5F1F4FC801880F991F800F911FAC
:100A90008A0D9B1D0E944C0768010330110509F067
:100AA000A9CFF50182A12C960FB6F894DEBF0FBE38
:100AB000CDBFCF91DF911F910F91FF90EF90DF900D
:100AC000CF90BF90AF909F908F907F906F905F90EE
:100AD0004F903F902F900895FC017587648757874A
:100AE0004687318B208B0E94E50308956F927F9299
:100AF0008F929F92AF92BF92CF92DF92EF92FF922E
:100B00000F931F93CF93DF93EC015B016A0179018F
:100B1000C80168EE73E00E94C70B3B01882499244A
:100B20008C859D858A159B052CF401969D878C8765
:100B300020E001C021E08C859D85A816B90624F42B
:100B400001979D878C8720E08E859F858C159D055C
:100B500024F401969F878E8720E08E859F85C81696
:100B6000D90624F401979F878E8720E08889998988
:100B70008E159F0524F40196998B888B20E0888937
:100B80009989E816F90624F40197998B888B02C09D
:100B9000222391F4CE010E94E503882379F487E2B1
:100BA0000131180728F0C401B3010E94EE07B8CF45
:100BB000C8010E941508B4CF80E001C081E0DF9138
:100BC000CF911F910F91FF90EF90DF90CF90BF904A
:100BD000AF909F908F907F906F9008951F920F928B
:100BE0000FB60F9211242F933F934F935F936F9300
:100BF0007F938F939F93AF93BF93EF93FF938091D6
:100C0000490187FF05C010928500109284002BC017
:100C100020914901332727FD30958091240190E0F0
:100C20002817390704F580914901992787FD909588
:100C3000FC01EE0FFF1FE80FF91FEB5DFE4F8081F7
:100C400086FF11C080914901992787FD9095FC018D
:100C5000EE0FFF1FE80FF91FEB5DFE4F80818F73D2
:100C600060E00E94AB08809149018F5F8093490149
:100C700020914901332727FD30958091240190E090
:100C8000281739070CF04EC0809149018C300CF0C8
:100C900049C08091840090918500209149013327BB
:100CA00027FD3095F901EE0FFF1FE20FF31FEB5DFB
:100CB000FE4F21813281820F931F90938900809390
:100CC000880080914901992787FD9095FC01EE0FDE
:100CD000FF1FE80FF91FEB5DFE4F808186FF2BC0E1
:100CE00080914901992787FD9095FC01EE0FFF1F28
:100CF000E80FF91FEB5DFE4F80818F7361E00E946A
:100D0000AB0819C080E49CE905C0809184009091F3
:100D10008500049690938900809388008FEF8093DC
:100D2000490109C080918400909185002CE98434A8
:100D3000920740F3EACFFF91EF91BF91AF919F915E
:100D40008F917F916F915F914F913F912F910F9074
:100D50000FBE0F901F901895FC01809124018C30DC
:100D600090F480838F5F80932401808190E0FC0168
:100D7000EE0FFF1FE80FF91FEB5DFE4F88EB9BE0C6
:100D80009283818308958FEF80830895DF92EF929D
:100D9000FF920F931F93CF93DF93EC01D62E8A011E
:100DA000790188818C3008F064C0862F61E00E9450
:100DB00087084881842F90E0FC01EE0FFF1FE80FA9
:100DC000F91FEB5DFE4F9D2D9F738081807C892BE9
:100DD000808380E292E0801B910B24E030E0B90137
:100DE0000E94DB0B698380E699E08E199F09B901A7
:100DF0000E94DB0B6A83842F6CE00E94BB0B90E0A7
:100E00009C01220F331F280F391F220F331F220F7F
:100E1000331F40E050E0BA01620F731FFB01EE0F79
:100E2000FF1FE60FF71FEB5DFE4F608166FD15C0EB
:100E30004F5F5F4F4C30510571F724C01092800016
:100E400082E0809381001092850010928400B19A14
:100E500080916F00826080936F00888190E0FC0138
:100E6000EE0FFF1FE80FF91FEB5DFE4F80818064DE
:100E700080838881DF91CF911F910F91FF90EF9038
:100E8000DF9008950097D1F2E8CF40E252E020E6EB
:100E900039E00E94C6060895FC0120812C3078F5C7
:100EA0004181552747FD509588E890E0841B950BBC
:100EB000880F991F880F991F6817790784F042815E
:100EC000552747FD509588E592E0841B950B880FC8
:100ED000991F880F991F681779070CF4CB014FB73A
:100EE000F89430E0F901EE0FFF1FE20FF31FEB5D06
:100EF000FE4F0297880F991F928381834FBF0895F9
:100F00001F920F920FB60F9211242F933F938F933E
:100F10009F93AF93BF9380914E0190914F01A09109
:100F20005001B0915101309152010196A11DB11DA6
:100F3000232F2D5F2D3720F02D570196A11DB11DB8
:100F40002093520180934E0190934F01A093500142
:100F5000B093510180914A0190914B01A0914C01B5
:100F6000B0914D010196A11DB11D80934A0190934E
:100F70004B01A0934C01B0934D01BF91AF919F9154
:100F80008F913F912F910F900FBE0F901F9018954A
:100F90009FB7F89420914A0130914B0140914C0148
:100FA00050914D0186B5A89B06C08F3F21F02F5F61
:100FB0003F4F4F4F5F4F9FBF542F432F322F22275A
:100FC000280F311D411D511D82E0220F331F441F88
:100FD000551F8A95D1F7B901CA010895EF92FF9282
:100FE0000F931F93CF93DF937B018C010E94C8075F
:100FF000EB010FC00E94C8076C1B7D0B83E0683EAD
:10100000780738F00894E108F10801091109C8517E
:10101000DC4FE114F1040105110561F7DF91CF9177
:101020001F910F91FF90EF900895019739F0880F6D
:10103000991F880F991F02970197F1F708957894E7
:1010400084B5826084BD84B5816084BD85B58260CD
:1010500085BD85B5816085BDEEE6F0E0808181606B
:101060008083E1E8F0E0108280818260808380816B
:1010700081608083E0E8F0E0808181608083E1EB43
:10108000F0E0808184608083E0EBF0E0808181602B
:101090008083EAE7F0E080818460808380818260E1
:1010A00080838081816080838081806880831092CA
:1010B000C1000895833071F0843028F48130A1F0AC
:1010C000823021F514C08630B1F08730D1F0843001
:1010D000E9F404C0809180008F7703C08091800084
:1010E0008F7D80938000089584B58F7702C084B58A
:1010F0008F7D84BD08958091B0008F778093B0007C
:1011000008958091B0008F7D8093B000089590E0A5
:10111000FC01E953FF4F2491FC01ED54FF4FE49192
:10112000EE23C1F0F0E0EE0FFF1FEB56FF4F85916D
:101130009491DC01662341F49FB7F8948C9120953B
:1011400082238C939FBF08959FB7F8948C91822B34
:101150008C939FBF08950F931F93DF93CF930F92AC
:10116000CDB7DEB7282F30E0F901E552FF4F84916B
:10117000F901E953FF4F14912D543F4FF9010491A8
:101180000023D9F0882321F069830E945A086981DD
:10119000E02FF0E0EE0FFF1FE156FF4F8591949195
:1011A000DC019FB7F894662321F48C91109581237C
:1011B00002C08C91812B8C939FBF0F90CF91DF91B8
:1011C0001F910F910895CF93DF930E941F080E94F3
:1011D000A300C0E0D0E00E94B8002097E1F30E9495
:1011E0000000F9CF5058BB27AA270ED0C2C1B3D1F7
:1011F00030F0B8D120F031F49F3F11F41EF483C1D8
:101200000EF4E095E7FB79C1E92FC4D180F3BA175A
:10121000620773078407950718F071F49EF5DCC127
:101220000EF4E0950B2EBA2FA02D0B01B901900101
:101230000C01CA01A0011124FF27591B99F0593F45
:1012400050F4503E68F11A16F040A22F232F342F8D
:101250004427585FF3CF469537952795A795F040DB
:101260005395C9F77EF41F16BA0B620B730B840BF0
:10127000BAF09150A1F0FF0FBB1F661F771F881FA8
:10128000C2F70EC0BA0F621F731F841F48F4879500
:1012900077956795B795F7959E3F08F0B3CF9395EF
:1012A000880F08F09927EE0F979587950895DF939B
:1012B000DD27B92FBF7740E85FE31616170648070A
:1012C0005B0710F4D92F93D19F938F937F936F93E4
:1012D0003AD2E8E6F0E01AD14CD12F913F914F91EC
:1012E0005F9198D1DD2349F09058A2EA2AED3FE0C2
:1012F00049EC5FE3D0785D2787DFDF913AC1D9D031
:1013000008F481E008950CD034C12CD140F023D1F1
:1013100030F021F45F3F19F0F0C051115EC1F3C00D
:1013200039D198F39923C9F35523B1F3951B550B84
:10133000BB27AA2762177307840738F09F5F5F4FA8
:10134000220F331F441FAA1FA9F333D00E2E3AF0E9
:10135000E0E830D091505040E695001CCAF729D003
:10136000FE2F27D0660F771F881FBB1F2617370752
:101370004807AB07B0E809F0BB0B802DBF01FF2782
:1013800093585F4F2AF09E3F510568F0B6C025C1C3
:101390005F3FECF3983EDCF3869577956795B795BC
:1013A000F7959F5FC9F7880F911D9695879597F9D7
:1013B0000895E1E0660F771F881FBB1F6217730750
:1013C0008407BA0720F0621B730B840BBA0BEE1F65
:1013D00088F7E095089504D06894B111FEC008958F
:1013E000E1D088F09F5790F0B92F9927B751A0F01E
:1013F000D1F0660F771F881F991F1AF0BA95C9F7A9
:1014000012C0B13081F0E8D0B1E00895E5C0672F97
:10141000782F8827B85F39F0B93FCCF38695779558
:101420006795B395D9F73EF4909580957095619541
:101430007F4F8F4F9F4F0895E89409C097FB3EF46C
:1014400090958095709561957F4F8F4F9F4F992311
:10145000A9F0F92F96E9BB279395F695879577958F
:101460006795B795F111F8CFFAF4BB0F11F460FF4F
:101470001BC06F5F7F4F8F4F9F4F16C0882311F0A7
:1014800096E911C0772321F09EE8872F762F05C0BB
:10149000662371F096E8862F70E060E02AF09A9556
:1014A000660F771F881FDAF7880F9695879597F94B
:1014B0000895990F0008550FAA0BE0E8FEEF1616E5
:1014C0001706E807F907C0F012161306E407F50738
:1014D00098F0621B730B840B950B39F40A2661F0AC
:1014E000232B242B252B21F408950A2609F4A1404F
:1014F000A6958FEF811D811D089597F99F6780E85C
:1015000070E060E008959FEF80EC0895DF93CF9343
:101510001F930F93FF92EF92DF927B018C016894EF
:1015200005C0DA2EEF0176D0FE01E894A591259151
:10153000359145915591AEF3EF0166DEFE019701BD
:10154000A801DA9479F7DF90EF90FF900F911F9147
:10155000CF91DF91089500240A94161617061806F5
:101560000906089500240A941216130614060506A7
:101570000895092E0394000C11F4882352F0BB0F38
:1015800040F4BF2B11F460FF04C06F5F7F4F8F4F9B
:101590009F4F089557FD9058440F551F59F05F3FD6
:1015A00071F04795880F97FB991F61F09F3F79F085
:1015B00087950895121613061406551FF2CF469507
:1015C000F1DF08C0161617061806991FF1CF869589
:1015D0007105610508940895E894BB27662777276D
:1015E000CB0197F9089565DF08F48FEF08959B010B
:1015F000AC0160E070E080E89FE385CE0BD0B9CF0E
:10160000AADF28F0AFDF18F0952309F076CF7BCF63
:101610001124E3CFBFDFA0F3959FD1F3950F50E0E6
:10162000551F629FF001729FBB27F00DB11D639F94
:10163000AA27F00DB11DAA1F649F6627B00DA11D3A
:10164000661F829F2227B00DA11D621F739FB00DE0
:10165000A11D621F839FA00D611D221F749F332750
:10166000A00D611D231F849F600D211D822F762FE9
:101670006A2F11249F5750408AF0E1F088234AF0E6
:10168000EE0FFF1FBB1F661F771F881F9150504032
:10169000A9F79E3F510570F030CF9FCF5F3FECF32D
:1016A000983EDCF3869577956795B795F795E7951E
:1016B0009F5FC1F7FE2B880F911D9695879597F92F
:1016C000089511F40EF41FCF41C06CDFD0F39923BD
:1016D000D9F3CEF39F57550B87FF46D00024A0E6E1
:1016E00040EA900180585695979528F4805C660FE3
:1016F000771F881F20F026173707480730F4621B32
:10170000730B840B202931294A2BA6951794079433
:10171000202531254A2758F7660F771F881F20F0AC
:1017200026173707480730F4620B730B840B200D24
:10173000311D411DA09581F7B901842F9158880F63
:101740009695879508959B01AC0158CF9F3F31F046
:10175000915020F4879577956795B795880F911DDF
:101760009695879597F9089591505040660F771F89
:10177000881FD2F70895991B79E004C0991F961726
:1017800008F0961B881F7A95C9F780950895AA1BC3
:10179000BB1B51E107C0AA1FBB1FA617B70710F05C
:1017A000A61BB70B881F991F5A95A9F7809590958E
:1017B000BC01CD01089597FB092E07260AD077FDBD
:1017C00004D0E5DF06D000201AF4709561957F4FB4
:1017D0000895F6F7909581959F4F0895EE0FFF1F9E
:0C17E0000590F491E02D0994F894FFCFDF
:00000001FF
