:100000000C947B000C94A3000C94A3000C94A3000C
:100010000C94A3000C94A3000C94A3000C94A300D4
:100020000C94A3000C94A3000C94A3000C94A300C4
:100030000C94A3000C94A3000C94A3000C94A300B4
:100040000C947C060C94A3000C946A080C949B08F6
:100050000C94A3000C94A3000C94A3000C94A30094
:100060000C9417030C94A300084AD73B3BCE016EB7
:1000700084BCBFFDC12F3D6C74319ABD56833DDAFF
:100080003D00C77F11BED9E4BB4C3E916BAAAABE0E
:10009000000000803F00000000240027002A00002C
:1000A000000000250028002B00000000002300268F
:1000B00000290004040404040404040202020202ED
:1000C000020303030303030102040810204080011C
:1000D000020408102001020408102000000007009C
:1000E0000201000003040600000000000000000000
:1000F00072013F02600911241FBECFEFD8E0DEBFBE
:10010000CDBF11E0A0E0B1E0E6E0FDE102C0059066
:100110000D92A439B107D9F713E0A4E9B1E001C009
:100120001D92A630B107E1F710E0C6EFD0E004C0A1
:100130002297FE010E947D0EC03FD107C9F70E94A1
:100140009D090C94810E0C94000084E991E04EEA24
:1001500057E461E67FE30E94A404BC01009749F0E4
:1001600084E991E00E947206BC0187EE92E00E9451
:10017000070A84E991E060E00E949D04BC010097B9
:1001800049F084E991E00E947206BC0187EE92E09A
:100190000E94070A0895DF93CF9300D000D0CDB717
:1001A000DEB787EE92E040E855E260E070E00E9442
:1001B000E2088EED91E00E940702CE0101960E94B6
:1001C0006D0489819A81AB81BC8180939401909365
:1001D0009501A0939601B09397010E94A5000F90FE
:1001E0000F900F900F90CF91DF910895AF92BF9233
:1001F000CF92DF92EF92FF920F931F93DF93CF93F3
:10020000CDB7DEB72C970FB6F894DEBF0FBECDBFCB
:10021000CE01019664E971E00E94FC05A980BA80D4
:10022000CB80DC80ED80FE800F81188587EE92E028
:10023000B801A70122E030E00E94740B87EE92E043
:1002400060E071E00E94E70987EE92E0B601A50147
:1002500022E030E00E94770BC801B70120E030E0D7
:1002600040E752E40E948B0B7B018C01C601B50173
:1002700020E030E04AEA52E40E948A0B9B01AC0184
:10028000C801B7010E94FE0B21EE3EE245E652E4B2
:100290000E94CC0D0E94BD0C77FF03C068597E4FB1
:1002A00006C081E06936780714F068567140CB01CA
:1002B0002C960FB6F894DEBF0FBECDBFCF91DF9165
:1002C0001F910F91FF90EF90DF90CF90BF90AF9074
:1002D00008950E94F6006AEF70E080E090E00E94CE
:1002E000EA06089584E991E00E946D040895209142
:1002F000B90130E08091B801281B3109C901089586
:100300008091B8019091B901891750F4E82FF0E07D
:10031000E856FE4F208130E08F5F8093B80102C025
:100320002FEF3FEFC9010895E091B8018091B90125
:10033000E81730F4F0E0E856FE4F208130E002C0CC
:100340002FEF3FEFC90108950895CF92DF92EF920A
:10035000FF920F931F93CF93DF936C01CB01EA01C0
:100360002091DD012223B1F0E62EF92E00E010E00D
:100370000DC0D7016D917D01D601ED91FC910190E9
:10038000F081E02DC60109950F5F1F4F0C171D0767
:1003900080F303C0642F0E94E502CE01DF91CF916C
:1003A0001F910F91FF90EF90DF90CF900895DF9312
:1003B000CF930F92CDB7DEB769832091DD01222361
:1003C000D1F02091DC01203240F021E030E0FC014E
:1003D0003383228320E030E015C08091DB01E82FD9
:1003E000F0E0E554FE4F998190838F5F8093DB01AD
:1003F0008093DC0105C0CE01019661E00E94E50218
:1004000021E030E0C9010F90CF91DF910895109263
:10041000B8011092B9011092DB011092DC010E9428
:1004200056020895862F413208F040E268E971E0F3
:100430000E946F021092B8018093B90108950E9442
:100440001202089581E08093DD016093BA01109259
:10045000DB011092DC0108950E9422020895809130
:10046000BA016BEB71E04091DC0121E00E94A50232
:100470001092DB011092DC011092DD0108951092C0
:10048000E1011092E00188EE93E0A0E0B0E08093FB
:10049000E2019093E301A093E401B093E50187E7C3
:1004A00091E09093DF018093DE01089510920E0297
:1004B00082E161E00E94790783E161E00E947907AF
:1004C000E9EBF0E080818E7F808380818D7F808367
:1004D00088E48093B80085E48093BC00089541329D
:1004E00088F590910E029923E1F791E090930E0226
:1004F0009FEF90930D021092EB01942F91509093E7
:10050000EC01880F81608093EA0185EE8093BC0046
:1005100080910E028130E1F38091EB01841710F499
:100520004091EB01EDEEF1E0262F372FD901242F7A
:1005300030E02E0F3F1F02C081918D93E217F30729
:10054000D9F701C040E0842F08954132B0F5909171
:100550000E029923E1F792E090930E029FEF9093A1
:100560000D021092EB014093EC01DB01EDEEF1E0A6
:1005700050E04E0F5F1F02C09D919193E417F50765
:10058000D9F790E0880F991F8093EA0185EE809358
:10059000BC00222321F080910E028230E1F3809191
:1005A0000D028F3F61F080910D02803251F08091F9
:1005B0000D02803341F483E0089581E0089580E0E6
:1005C000089582E0089584E008956132A0F42091B6
:1005D0000E02243091F460933302DC01E6E3F2E092
:1005E00070E06E0F7F1F02C08D918193E617F707B1
:1005F000D9F780E0089581E0089582E00895882386
:1006000011F085EC01C085E88093BC00089585ED6C
:100610008093BC008091BC0084FDFCCF10920E0240
:10062000089585EC8093BC0010920E0208951F92ED
:100630000F920FB60F9211242F933F934F935F9316
:100640006F937F938F939F93AF93BF93EF93FF939A
:100650008091B90090E0887F90708036910509F410
:10066000C2C081369105E4F58832910509F47EC057
:1006700089329105C4F48031910509F472C0813149
:10068000910544F4009709F413C18830910509F0ED
:1006900013C167C08831910509F468C080329105A3
:1006A00009F00AC178C08034910509F48AC0813408
:1006B00091054CF48033910509F46FC0883391059E
:1006C00009F0FAC06EC08035910509F46EC0883516
:1006D000910509F47BC08834910509F0EDC0EAC0AA
:1006E0008839910509F4DAC089399105ECF4883725
:1006F000910509F478C0893791054CF48836910545
:1007000009F471C08037910509F0D6C06CC08838F3
:10071000910509F4C3C08039910509F46AC0803895
:10072000910509F0C9C065C0803B910509F48EC0F0
:10073000813B91054CF4803A910509F46CC0883AEC
:10074000910509F0B9C082C0803C910509F4AAC0A6
:10075000883C910509F4A6C0883B910509F0ACC01E
:100760008AC08091EA018093BB0013C09091EB0195
:100770008091EC01981708F09DC08091EB01E82F63
:10078000F0E0E351FE4F90819093BB008F5F809328
:10079000EB0181E084C080E201C080E380930D0220
:1007A00089C088E380930D024EC08091EB01909147
:1007B000BB00E82FF0E0E351FE4F90838F5F809302
:1007C000EB019091EB018091EC0165C08091EB0110
:1007D0009091BB00E82FF0E0E351FE4F90838F5FD4
:1007E0008093EB0167C083E080930E0210920F02AA
:1007F000D0CF80910F02803208F050C080910F025C
:100800009091BB00E82FF0E0E05FFD4F90838F5F99
:1008100080930F02BECF80910F02803230F4E091BE
:100820000F02F0E0E05FFD4F10820E94070360912D
:100830000F02E0913002F091310280E192E070E02D
:10084000099510920F020E94110336C084E0809334
:100850000E021092320210923302E0913402F091B3
:100860003502099580913302882329F481E0809331
:1008700033021092360280913202E82FF0E0EA5CF7
:10088000FD4F90819093BB008F5F809332029091D7
:10089000320280913302981708F47BCF80E00E94E7
:1008A000FF020AC081E00E94FF0210920E0204C003
:1008B00010920D020E940703FF91EF91BF91AF913B
:1008C0009F918F917F916F915F914F913F912F9168
:1008D0000F900FBE0F901F90189520E030E040E879
:1008E0005FE3FC0120833183428353830895EF92B9
:1008F000FF921F93DF93CF930F92CDB7DEB7162FE2
:100900008EEDE82E81E0F82EC7016EE170E049839C
:100910000E942C02C701612F0E94D701C7014981A3
:10092000642F0E94D701C7010E942F020F90CF9120
:10093000DF911F91FF90EF900895462F62E070E0E5
:1009400050E00E9477040895EF92FF920F931F9357
:10095000CF93DF93EC017A018B01CB01BA012EEA30
:1009600037E441E65FE30E94510C882351F488E4A8
:1009700091EEAAE3BFE388839983AA83BB8340E017
:100980008FC0C801B70126E636E646EA5FE30E945B
:10099000510C882351F48FE195E8ABE6BFE38883DF
:1009A0009983AA83BB8341E07BC0C801B70123E3DD
:1009B00033E343EF5FE30E94510C882351F486EF49
:1009C00098E2ACE9BFE388839983AA83BB8342E0C2
:1009D00067C0C801B70120E030E040E250E40E9467
:1009E000510C882351F48CE59FE8A2ECBFE3888387
:1009F0009983AA83BB8343E053C0C801B70120E0B9
:100A000030E040E850E40E94510C882351F48EEA13
:100A100097E4A1E1B0E488839983AA83BB8344E08F
:100A20003FC0C801B70126E636E646E950E40E9419
:100A3000510C882351F48AE097EDA3E2B0E4888357
:100A40009983AA83BB8345E02BC0C801B70123E388
:100A500033E343EB50E40E94510C882351F485E8C2
:100A60009BEEA1E4B0E488839983AA83BB8346E02C
:100A700017C0C801B7012AE939E941E051E40E94F1
:100A8000510C882351F483E393E3ABE8B0E488830B
:100A90009983AA83BB8347E003C081E090E009C04B
:100AA0004295440F407ECE0161E070E050E00E942C
:100AB0007704DF91CF911F910F91FF90EF900895F0
:100AC0009F92AF92BF92CF92DF92EF92FF920F93DD
:100AD0001F93DF93CF93CDB7DEB7E62E8A01ADB675
:100AE000BEB68EED91E06EE170E00E942C028EEDBC
:100AF00091E06E2D0E94D7018EED91E00E942F02B1
:100B00008EED91E06EE170E00E942C028EED91E09E
:100B10006EE170E0A8010E941F028DB79EB7801B96
:100B2000910B0FB6F8949EBF0FBE8DBFCDB6DEB64B
:100B30000894C11CD11C8EED91E00E9477017C01CC
:100B40008017910781F4992409C08EED91E00E94ED
:100B50008001F601E00FF11F80839394092D10E0CE
:100B60000E151F0594F38EED91E00E942F02C60131
:100B70000FB6F894BEBE0FBEADBECF91DF911F91F0
:100B80000F91FF90EF90DF90CF90BF90AF909F902C
:100B90000895DF93CF9300D000D000D0CDB7DEB75B
:100BA00063E070E046E050E00E946005FC01928145
:100BB00080E0638170E0682B792B948180E045812F
:100BC00050E0482B592B218130E0908180E0282B88
:100BD000392B3A8329835C834B837E836D833A81EF
:100BE0005C817E8190E026960FB6F894DEBF0FBE42
:100BF000CDBFCF91DF9108958F929F92AF92BF9218
:100C0000CF92DF92EF92FF920F931F93DF93CF93D8
:100C1000CDB7DEB72C970FB6F894DEBF0FBECDBFB1
:100C20008C016B01CB010E94C9052F83388749874E
:100C30005A876B877C87DE011196FE01379686E026
:100C400001900D928150E1F78B809C80AD80BE8039
:100C5000F601C080D180E280F38069817A818827A3
:100C600077FD8095982F0E94F00CA70196010E94B5
:100C7000CC0DF8016083718382839383B50188274B
:100C800077FD8095982F0E94F00CA70196010E9495
:100C9000CC0DF8016087718782879387B40188271C
:100CA00077FD8095982F0E94F00CA70196010E9475
:100CB000CC0DF8016483758386839783C8012C96D5
:100CC0000FB6F894DEBF0FBECDBFCF91DF911F915D
:100CD0000F91FF90EF90DF90CF90BF90AF909F90DB
:100CE0008F9008956130710519F422E031E002C05F
:100CF0002FE531E0C90108951F920F920FB60F92B0
:100D000011242F933F938F939F93AF93BF93809121
:100D10005A0290915B02A0915C02B0915D02309109
:100D20005E020196A11DB11D232F2D5F2D3720F0EE
:100D30002D570196A11DB11D20935E0280935A028A
:100D400090935B02A0935C02B0935D028091560287
:100D500090915702A0915802B09159020196A11D9D
:100D6000B11D8093560290935702A0935802B093FE
:100D70005902BF91AF919F918F913F912F910F9009
:100D80000FBE0F901F9018959FB7F89420915602B0
:100D900030915702409158025091590286B5A89B54
:100DA00006C08F3F21F02F5F3F4F4F4F5F4F9FBFD8
:100DB000542F432F322F2227280F311D411D511D43
:100DC00082E0220F331F441F551F8A95D1F7B901C6
:100DD000CA010895EF92FF920F931F93CF93DF9371
:100DE0007B018C010E94C406EB010FC00E94C40667
:100DF0006C1B7D0B83E0683E780738F00894E108AF
:100E0000F10801091109C851DC4FE114F104010591
:100E1000110561F7DF91CF911F910F91FF90EF9036
:100E20000895789484B5826084BD84B5816084BD62
:100E300085B5826085BD85B5816085BDEEE6F0E053
:100E4000808181608083E1E8F0E0108280818260AF
:100E50008083808181608083E0E8F0E08081816030
:100E60008083E1EBF0E0808184608083E0EBF0E060
:100E7000808181608083EAE7F0E080818460808304
:100E800080818260808380818160808380818068AE
:100E900080831092C1000895833071F0843028F46B
:100EA0008130A1F0823021F514C08630B1F0873056
:100EB000D1F08430E9F404C0809180008F7703C0C2
:100EC000809180008F7D80938000089584B58F7716
:100ED00002C084B58F7D84BD08958091B0008F7766
:100EE0008093B00008958091B0008F7D8093B00012
:100EF00008950F931F93DF93CF930F92CDB7DEB773
:100F0000282F30E0F901E552FF4F8491F901E953B0
:100F1000FF4F14912D543F4FF90104910023D9F054
:100F2000882321F069830E944C076981E02FF0E05B
:100F3000EE0FFF1FE156FF4F85919491DC019FB7A3
:100F4000F894662321F48C911095812302C08C9132
:100F5000812B8C939FBF0F90CF91DF911F910F91A9
:100F60000895FC0184859585FC01E05CFF4F20819C
:100F700031818E5B9F4FFC0180819181281B390B51
:100F80002F733070C9010895FC0184859585FC019B
:100F9000E05CFF4F40815181FC01EE5BFF4F2081FF
:100FA00031814217530741F00190F081E02DE80FA5
:100FB000F91F208130E002C02FEF3FEFC9010895F3
:100FC000FC0184859585FC01E05CFF4F40815181E7
:100FD000FC01EE5BFF4F208131814217530771F016
:100FE000A081B181A80FB91F2C91808191810196B8
:100FF0008F7390709183808330E002C02FEF3FEFBA
:10100000C9010895DC011E968D919C911F97FC01EA
:10101000E05CFF4F8E5B9F4F40815181DC012D9141
:101020003C91119742175307B9F708951F93FC019C
:10103000162F26853785D901A05CBF4F8D919C91D5
:10104000019660E470E00E94320ED901AE5BBF4FA2
:101050004D915C91119784179507D1F3D901A05C4C
:10106000BF4F0D90BC91A02DA20FB31F1C93A6855E
:10107000B785A05CBF4F11969C938E93A689B789C4
:101080002C9181E090E0058C02C0880F991F0A9492
:10109000E2F7282B2C9381E090E01F910895FB014B
:1010A000E05CFF4F208131812F5F3F4F2F73307005
:1010B000DB01AE5BBF4F4D915C9111972417350753
:1010C00039F0A081B181A60FB71F8C9331832083A3
:1010D000089508951F920F920FB60F9211242F9327
:1010E0003F934F935F936F937F938F939F93AF93B0
:1010F000BF93EF93FF938091C6006FE572E00E946B
:101100004F08FF91EF91BF91AF919F918F917F9188
:101110006F915F914F913F912F910F900FBE0F9064
:101120001F90189587EE92E00E94B107009711F08A
:101130000E94690808951F920F920FB60F92112412
:101140002F933F935F936F937F938F939F93AF936F
:10115000BF93EF93FF932091E3023091E4028091DB
:10116000E5029091E6022817390731F48091C10019
:101170008F7D8093C10016C0E091E502F091E602F8
:10118000ED55FD4F20818091E5029091E602019698
:1011900060E470E00E94320E9093E6028093E502D4
:1011A0002093C600FF91EF91BF91AF919F918F91D6
:1011B0007F916F915F913F912F910F900FBE0F9094
:1011C0001F901895DF92EF92FF920F931F93CF938A
:1011D000DF93EC017A018B01DD24D394403081EE62
:1011E000580780E0680780E0780749F4DD24EC893F
:1011F000FD89108260E874E88EE190E00FC0EC8910
:10120000FD8981E090E00E8C02C0880F991F0A943E
:10121000E2F7808360E079E08DE390E0A801970138
:101220000E94450E21503040404050405695479511
:101230003795279580E12030380710F0DD20B1F692
:10124000E889F9893083EA89FB892083EE89FF895F
:10125000408181E090E09C010A8C02C0220F331F84
:101260000A94E2F7422B4083EE89FF8940819C017A
:101270000B8C02C0220F331F0A94E2F7422B4083EB
:10128000EE89FF8940819C010C8C02C0220F331F24
:101290000A94E2F7422B4083EE89FF8920810D8C6E
:1012A00002C0880F991F0A94E2F7809582238083F9
:1012B000DF91CF911F910F91FF90EF90DF900895F4
:1012C0001092EA021092E90288EE93E0A0E0B0E00A
:1012D0008093EB029093EC02A093ED02B093EE02A8
:1012E000E9EEF2E087E891E0929382938FE592E055
:1012F0009587848783EA92E09787868785EC90E0DC
:10130000918B808B84EC90E0938B828B80EC90E0CF
:10131000958B848B81EC90E0978B868B86EC90E0AC
:10132000918F808F84E0828F83E0838F87E0848F2A
:1013300085E0858F81E0868F0895CF93DF930E94AB
:1013400011070E94CB00C2E9D8E00E9469012097F2
:10135000E1F30E949208F9CFCF92DF92EF92FF92D1
:101360000F931F93CF93DF936C017B018A01C0E041
:10137000D0E00FC0D7016D917D01D601ED91FC91B8
:101380000190F081E02DC6010995C80FD91F0150C9
:1013900010400115110571F7CE01DF91CF911F911A
:1013A0000F91FF90EF90DF90CF900895DB010D90AB
:1013B0000020E9F7AD0141505040461B570BDC01BE
:1013C000ED91FC910280F381E02D099508950E9432
:1013D000D6090895DC01ED91FC910190F081E02D9A
:1013E000099508950F931F93CF93DF93EC016DE060
:1013F0000E94EA098C01CE016AE00E94EA09080F06
:10140000191FC801DF91CF911F910F9108950F937C
:101410001F93CF93DF93EC010E94D6098C01CE017C
:101420000E94F209080F191FC801DF91CF911F9187
:101430000F9108958F929F92AF92BF92CF92DF92B9
:10144000EF92FF920F931F93DF93CF93CDB7DEB749
:10145000A1970FB6F894DEBF0FBECDBF6C01042F6D
:10146000E52FCB01122F19A2223008F41AE021E255
:10147000E22EF12CEC0EFD1E812E9924AA24BB2411
:1014800003C0022FE32FCA01602F7E2FA501940114
:101490000E94450E129F802D1124081B0894E1081C
:1014A000F1080A3014F4005D01C0095CF701008303
:1014B000211531054105510521F7C601B7010E94EB
:1014C000D609A1960FB6F894DEBF0FBECDBFCF915F
:1014D000DF911F910F91FF90EF90DF90CF90BF9021
:1014E000AF909F908F9008952115310549F4DC014C
:1014F000ED91FC910190F081E02D642F0995089504
:101500000E941A0A0895CF92DF92EF92FF920F93F2
:101510001F93CF93DF93EC017A018B0121153105E5
:1015200041F4E881F9810190F081E02D642F099563
:101530001AC02A303105A9F477FF12C06DE20E946B
:10154000EA096C0144275527BA014E195F09600B5F
:10155000710BCE012AE00E941A0AC80ED91E04C0DF
:101560002AE00E941A0A6C01C601DF91CF911F91F7
:101570000F91FF90EF90DF90CF9008956F927F9240
:101580009F92AF92BF92CF92DF92EF92FF920F9312
:101590001F93CF93DF933C017A018B01C22ECB01C5
:1015A000BA0120E030E0A9010E94510C87FF0AC077
:1015B000C3016DE20E94EA09EC0117FB109517F9CF
:1015C000109502C0C0E0D0E0DD2450E040E030E003
:1015D0002FE311C0DA01F9016B2F742F8F2F922F97
:1015E00020E030E040E251E40E94550C562F472F96
:1015F000382F292FD394DC1468F3C801B701DA011E
:10160000F9012B2F342F4F2F5E2F0E948B0B5B0184
:10161000F82E992E7B2D0E94C20C162FD72EE82E65
:10162000092F0E94EE0C9B01AC016A2D7B2D8F2DA2
:10163000992D0E948A0B962EA72EB82EF92EC30143
:10164000412F5D2D6E2D702F2AE030E00E94740A2C
:10165000C80FD91FCC20B9F1C30161E771E00E9426
:10166000D609C80FD91F2FC0692D7A2D8B2D9F2D1C
:1016700020E030E040E251E40E94CC0DD62EB72E9F
:10168000A82E992E0E94BD0C7B010027F7FC009527
:10169000102FC301B801A7012AE030E00E94830A9D
:1016A000C80FD91FC801B7010E94F00C9B01AC0103
:1016B0006D2D7B2D8A2D992D0E948A0B962EA72E9B
:1016C000B82EF92ECA94CC2079F6CE01DF91CF91B5
:1016D0001F910F91FF90EF90DF90CF90BF90AF9050
:1016E0009F907F906F9008950E94BE0A08950F9377
:1016F0001F93CF93DF93EC010E94BE0A8C01CE01B1
:101700000E94F209080F191FC801DF91CF911F91A4
:101710000F9108955058BB27AA270ED0FCC1EDD1D8
:1017200030F0F2D120F031F49F3F11F41EF4BDC12E
:101730000EF4E095E7FBB3C1E92FFED180F3BA17B1
:10174000620773078407950718F071F49EF516C2B7
:101750000EF4E0950B2EBA2FA02D0B01B9019001CC
:101760000C01CA01A0011124FF27591B99F0593F10
:1017700050F4503E68F11A16F040A22F232F342F58
:101780004427585FF3CF469537952795A795F040A6
:101790005395C9F77EF41F16BA0B620B730B840BBB
:1017A000BAF09150A1F0FF0FBB1F661F771F881F73
:1017B000C2F70EC0BA0F621F731F841F48F48795CB
:1017C00077956795B795F7959E3F08F0B3CF9395BA
:1017D000880F08F09927EE0F9795879508958DD17A
:1017E00058F080E891E009F49EEF8ED128F040E8AF
:1017F00051E059F45EEF09C058C1C0C1E92FE0784B
:101800009BD168F3092E052AC1F32617370748072D
:10181000590738F00E2E07F8E02569F0E025E0645E
:101820000AC0EF6307F8009407FADB01B9019D01D4
:10183000DC01CA01AD01EF9347D06DD10AD05F91B1
:10184000552331F02BED3FE049E450FD49EC63CFE7
:101850000895DF93DD27B92FBF7740E85FE31616C1
:10186000170648075B0710F4D92F8FD19F938F93EA
:101870007F936F93F4D1E8E6F0E01AD14CD12F9129
:101880003F914F915F9194D1DD2349F09058A2EAA6
:101890002AED3FE049EC5FE3D0785D274DDFDF9133
:1018A0003AC1D9D008F481E008950CD034C12CD1CC
:1018B00040F023D130F021F45F3F19F0F0C0511116
:1018C0005EC1F3C039D198F39923C9F35523B1F31D
:1018D000951B550BBB27AA2762177307840738F09F
:1018E0009F5F5F4F220F331F441FAA1FA9F333D0FE
:1018F0000E2E3AF0E0E830D091505040E695001CB2
:10190000CAF729D0FE2F27D0660F771F881FBB1F6D
:10191000261737074807AB07B0E809F0BB0B802D47
:10192000BF01FF2793585F4F2AF09E3F510568F093
:10193000B6C025C15F3FECF3983EDCF38695779502
:101940006795B795F7959F5FC9F7880F911D969595
:10195000879597F90895E1E0660F771F881FBB1FF1
:10196000621773078407BA0720F0621B730B840B9E
:10197000BA0BEE1F88F7E095089504D06894B11172
:10198000FEC00895E1D088F09F5790F0B92F9927B5
:10199000B751A0F0D1F0660F771F881F991F1AF07A
:1019A000BA95C9F712C0B13081F0E8D0B1E008951E
:1019B000E5C0672F782F8827B85F39F0B93FCCF39F
:1019C000869577956795B395D9F73EF49095809570
:1019D000709561957F4F8F4F9F4F0895E89409C090
:1019E00097FB3EF490958095709561957F4F8F4F52
:1019F0009F4F9923A9F0F92F96E9BB279395F69568
:101A0000879577956795B795F111F8CFFAF4BB0FE5
:101A100011F460FF1BC06F5F7F4F8F4F9F4F16C049
:101A2000882311F096E911C0772321F09EE8872FD3
:101A3000762F05C0662371F096E8862F70E060E08F
:101A40002AF09A95660F771F881FDAF7880F969508
:101A5000879597F90895990F0008550FAA0BE0E8AC
:101A6000FEEF16161706E807F907C0F01216130660
:101A7000E407F50798F0621B730B840B950B39F4A0
:101A80000A2661F0232B242B252B21F408950A2606
:101A900009F4A140A6958FEF811D811D089597F946
:101AA0009F6780E870E060E008959FEF80EC089504
:101AB000DF93CF931F930F93FF92EF92DF927B01FF
:101AC0008C01689405C0DA2EEF0172D0FE01E89413
:101AD000A5912591359145915591AEF3EF012CDEFD
:101AE000FE019701A801DA9479F7DF90EF90FF905B
:101AF0000F911F91CF91DF91089500240A9416163B
:101B0000170618060906089500240A9412161306EB
:101B1000140605060895092E0394000C11F4882379
:101B200052F0BB0F40F4BF2B11F460FF04C06F5F95
:101B30007F4F8F4F9F4F089557FD9058440F551F6B
:101B400059F05F3F71F04795880F97FB991F61F03F
:101B50009F3F79F087950895121613061406551FB6
:101B6000F2CF4695F1DF08C0161617061806991F22
:101B7000F1CF86957105610508940895E894BB2717
:101B800066277727CB0197F908959B01AC0160E0A8
:101B900070E080E89FE389CE0BD0BDCFAEDF28F0A8
:101BA000B3DF18F0952309F07ACF7FCF1124E7CF68
:101BB000C3DFA0F3959FD1F3950F50E0551F629FAF
:101BC000F001729FBB27F00DB11D639FAA27F00D96
:101BD000B11DAA1F649F6627B00DA11D661F829FBD
:101BE0002227B00DA11D621F739FB00DA11D621FA2
:101BF000839FA00D611D221F749F3327A00D611DBF
:101C0000231F849F600D211D822F762F6A2F1124A0
:101C10009F5750408AF0E1F088234AF0EE0FFF1FF3
:101C2000BB1F661F771F881F91505040A9F79E3F2A
:101C3000510570F034CFA3CF5F3FECF3983EDCF357
:101C4000869577956795B795F795E7959F5FC1F767
:101C5000FE2B880F911D9695879597F908959B0106
:101C6000AC019ACF97FB092E07260AD077FD04D046
:101C70002ED006D000201AF4709561957F4F0895FC
:101C8000F6F7909581959F4F0895A1E21A2EAA1B11
:101C9000BB1BFD010DC0AA1FBB1FEE1FFF1FA2171C
:101CA000B307E407F50720F0A21BB30BE40BF50B19
:101CB000661F771F881F991F1A9469F760957095A2
:101CC000809590959B01AC01BD01CF010895AA1BA1
:101CD000BB1B51E107C0AA1FBB1FA617B70710F017
:101CE000A61BB70B881F991F5A95A9F78095909549
:101CF000BC01CD010895EE0FFF1F0590F491E02D7A
:061D00000994F894FFCFE6
:101D06002C00456E7465726564207363616C652092
:101D1600776173206E6F742076616C69642C20760F
:101D2600616C69642067617573732076616C756593
:101D360073206172653A20302E38382C20312E33CC
:101D46002C20312E392C20322E352C20342E302CBE
:101D560020342E372C20352E362C20382E310045B7
:101D660072726F72206E6F7420646566696E656448
:101D7600002E0000000000D701A501770180019424
:101D860001A401000000001608AC09B107E007C471
:041D96000702080038
:00000001FF
