:100000000C9464000C948C000C948C000C948C0068
:100010000C948C000C948C000C948C000C948C0030
:100020000C948C000C948C000C948C000C948C0020
:100030000C948C000C948C000C948C000C948C0010
:100040000C94C6060C948C000C94C2080C94F30813
:100050000C948C000C948C000C948C000C948C00F0
:100060000C94D7020C948C000000000024002700A0
:100070002A0000000000250028002B0000000000DE
:1000800023002600290004040404040404040202DA
:100090000202020203030303030301020408102007
:1000A0004080010204081020010204081020000012
:1000B0000007000201000003040600000000000029
:1000C00000003801FF01B80911241FBECFEFD8E0AE
:1000D000DEBFCDBF11E0A0E0B1E0EAEFF6E102C083
:1000E00005900D92AC39B107D9F713E0ACE9B1E056
:1000F00001C01D92A532B107E1F710E0C8ECD0E0D5
:1001000004C02297FE010E94770BC23CD107C9F7B9
:100110000E94F5090C947B0B0C9400008DEF91E08C
:100120000E94CD0186E093E040E056E960E070E097
:100130000E943A0986E093E068E371E00E945F0A5A
:100140008CE991E00E948D0686E093E064E571E021
:100150000E945F0A8CE991E00E94BE06882319F094
:1001600060E071E002C06EE171E086E093E00E9421
:100170005F0A0895CF92DF92EF92FF920F931F9341
:10018000CF93DF938CE991E06BEA71E04DEA51E0A7
:100190002FEA31E001EB11E0F3EBEF2EF1E0FF2E5F
:1001A000E5EBCE2EE1E0DE2E0E941206C6E0D3E0A3
:1001B000CE0162E771E00E943F0A6091AB0170914D
:1001C000AC01CE014AE050E00E94070B08E711E0C5
:1001D000CE01B8010E943F0A6091AD017091AE015D
:1001E000CE014AE050E00E94070BCE01B8010E9408
:1001F0003F0A6091AF017091B001CE014AE050E03A
:100200000E94070BCE01B8010E943F0A6091B10124
:100210007091B201CE014AE050E00E94070BCE017E
:10022000B8010E943F0A6091B3017091B401CE0100
:100230004AE050E00E94070BCE01B8010E943F0A3D
:100240006091B5017091B601CE014AE050E00E9484
:10025000110B68EE73E080E090E00E944207DF91AE
:10026000CF911F910F91FF90EF90DF90CF90089565
:100270008CE991E00E94F80508952091D80130E0C2
:100280008091D701281B3109C90108958091D701B8
:100290009091D801891750F4E82FF0E0E954FE4F0F
:1002A000208130E08F5F8093D70102C02FEF3FEFB6
:1002B000C9010895E091D7018091D801E81730F481
:1002C000F0E0E954FE4F208130E002C02FEF3FEF15
:1002D000C90108950895CF92DF92EF92FF920F9394
:1002E0001F93CF93DF936C01CB01EA012091FC01B6
:1002F0002223B1F0E62EF92E00E010E00DC0D70168
:100300006D917D01D601ED91FC910190F081E02D80
:10031000C60109950F5F1F4F0C171D0780F303C01F
:10032000642F0E94A502CE01DF91CF911F910F9102
:10033000FF90EF90DF90CF900895DF93CF930F92CF
:10034000CDB7DEB769832091FC012223D1F0209143
:10035000FB01203240F021E030E0FC0133832283B6
:1003600020E030E015C08091FA01E82FF0E0E6527D
:10037000FE4F998190838F5F8093FA018093FB01F8
:1003800005C0CE01019661E00E94A50221E030E0A7
:10039000C9010F90CF91DF9108951092D70110926B
:1003A000D8011092FA011092FB010E9416020895E2
:1003B000862F413208F040E267EB71E00E942F0285
:1003C0001092D7018093D801089581E08093FC01B9
:1003D0006093D9011092FA011092FB010895809167
:1003E000D9016AED71E04091FB0121E00E946502B4
:1003F0001092FA011092FB011092FC0108951092E4
:1004000000021092FF0188EE93E0A0E0B0E080933C
:10041000010290930202A0930302B093040280E8C9
:1004200091E09093FE018093FD01089510922D02BA
:1004300082E161E00E94D10783E161E00E94D1077F
:10044000E9EBF0E080818E7F808380818D7F8083E7
:1004500088E48093B80085E48093BC00089541321D
:1004600088F590912D029923E1F791E090932D0268
:100470009FEF90932C0210920A02942F9150909328
:100480000B02880F81608093090285EE8093BC0087
:1004900080912D028130E1F380910A02841710F4DB
:1004A00040910A02ECE0F2E0262F372FD901242FE9
:1004B00030E02E0F3F1F02C081918D93E217F307AA
:1004C000D9F701C040E0842F08954132B0F59091F2
:1004D0002D029923E1F792E090932D029FEF9093E4
:1004E0002C0210920A0240930B02DB01ECE0F2E0D6
:1004F00050E04E0F5F1F02C09D919193E417F507E6
:10050000D9F790E0880F991F8093090285EE8093B8
:10051000BC00222321F080912D028230E1F38091F2
:100520002C028F3F61F080912C02803251F080913B
:100530002C02803341F483E0089581E0089580E047
:10054000089582E0089584E008956132A0F4209136
:100550002D02243091F460935202DC01E5E5F2E0D3
:1005600070E06E0F7F1F02C08D918193E617F70731
:10057000D9F780E0089581E0089582E00895882306
:1005800011F085EC01C085E88093BC00089585EDED
:100590008093BC008091BC0084FDFCCF10922D02A2
:1005A000089585EC8093BC0010922D0208951F924F
:1005B0000F920FB60F9211242F933F934F935F9397
:1005C0006F937F938F939F93AF93BF93EF93FF931B
:1005D0008091B90090E0887F90708036910509F491
:1005E000C2C081369105E4F58832910509F47EC0D8
:1005F00089329105C4F48031910509F472C08131CA
:10060000910544F4009709F413C18830910509F06D
:1006100013C167C08831910509F468C08032910523
:1006200009F00AC178C08034910509F48AC0813488
:1006300091054CF48033910509F46FC0883391051E
:1006400009F0FAC06EC08035910509F46EC0883596
:10065000910509F47BC08834910509F0EDC0EAC02A
:100660008839910509F4DAC089399105ECF48837A5
:10067000910509F478C0893791054CF488369105C5
:1006800009F471C08037910509F0D6C06CC0883874
:10069000910509F4C3C08039910509F46AC0803816
:1006A000910509F0C9C065C0803B910509F48EC071
:1006B000813B91054CF4803A910509F46CC0883A6D
:1006C000910509F0B9C082C0803C910509F4AAC027
:1006D000883C910509F4A6C0883B910509F0ACC09F
:1006E0008AC0809109028093BB0013C090910A02D6
:1006F00080910B02981708F09DC080910A02E82FA4
:10070000F0E0E45FFD4F90819093BB008F5F80939A
:100710000A0281E084C080E201C080E380932C0261
:1007200089C088E380932C024EC080910A02909188
:10073000BB00E82FF0E0E45FFD4F90838F5F809374
:100740000A0290910A0280910B0265C080910A0210
:100750009091BB00E82FF0E0E45FFD4F90838F5F46
:1007600080930A0267C083E080932D0210922E02CC
:10077000D0CF80912E02803208F050C080912E029E
:100780009091BB00E82FF0E0E15DFD4F90838F5F1B
:1007900080932E02BECF80912E02803230F4E09101
:1007A0002E02F0E0E15DFD4F10820E94C7026091D1
:1007B0002E02E0914F02F09150028FE292E070E041
:1007C000099510922E020E94D10236C084E08093D7
:1007D0002D021092510210925202E0915302F091B8
:1007E0005402099580915202882329F481E0809374
:1007F00052021092550280915102E82FF0E0EB5A1C
:10080000FD4F90819093BB008F5F80935102909138
:10081000510280915202981708F47BCF80E00E9429
:10082000BF020AC081E00E94BF0210922D0204C0E4
:1008300010922C020E94C702FF91EF91BF91AF91DD
:100840009F918F917F916F915F914F913F912F91E8
:100850000F900FBE0F901F9018952F923F924F92BE
:100860005F926F927F928F929F92AF92BF92CF9240
:10087000DF92EF92FF920F931F93DF93CF9300D0FD
:1008800000D00F92CDB7DEB7C82E6983F42E3B831C
:100890002A830E940E074B015C01DD24EE242F2CDD
:1008A00033242801662477244BC08DEF91E06C2D12
:1008B0000E94E5018DEF91E069810E949D018DEF1D
:1008C00091E00E94EF018DEF91E06C2D0E94E50117
:1008D000A1014D1951094132510514F040E250E097
:1008E0008DEF91E06C2D0E94D8012E2D332727FD2E
:1008F00030958A819B81280F391F3D832C838DEF92
:1009000091E00E943D01009709F451C001151105C5
:1009100061F00E940E07681979098A099B0964151C
:1009200075058605970508F042C08DEF91E00E949D
:100930004601EC81FD818193FD83EC83E394DFCF5D
:10094000DF1408F4B2CF01151105C1F00E940E07A3
:10095000681979098A099B0920E030E0601771075E
:100960008207930758F02E2D332727FD30958F2DC2
:1009700090E02817390714F4EE24EA948E2D0F9096
:100980000F900F900F900F90CF91DF911F910F91CB
:10099000FF90EF90DF90CF90BF90AF909F908F909F
:1009A0007F906F905F904F903F902F9008958DEFC4
:1009B00091E00E94EF018F2D813208F080E2D80E85
:1009C000BFCF0F931F93FA01890141E09F010E945D
:1009D0002D041F910F910895CF92DF92EF92FF9215
:1009E0000F931F93DF93CF930F92CDB7DEB7C42E33
:1009F000D22E9701AE014F5F5F4F0E94E104882322
:100A000001F14C2D50E04F5F5F4F4D19510921E02E
:100A100030E002C0220F331FDA94E2F72150304059
:100A2000042E02C0220F331F0A94E2F79981922309
:100A3000292F30E002C0359527954A95E2F7F80155
:100A400020830F90CF91DF911F910F91FF90EF9036
:100A5000DF90CF900895CF92DF92FF920F931F9374
:100A6000DF93CF930F92CDB7DEB7582F162F042FF9
:100A7000F22E8DEF91E0652F39830E94E5018DEF15
:100A800091E0612F0E949D0139814F2D532F6A0102
:100A900007C0F60161916F018DEF91E00E949D0109
:100AA0008C2D8F198017A8F38DEF91E00E94EF0134
:100AB00091E0811190E0892F0F90CF91DF911F91EC
:100AC0000F91FF90DF90CF900895DF93CF930F9217
:100AD000CDB7DEB7498341E09E012F5F3F4F0E94B3
:100AE0002B050F90CF91DF910895DF92EF92FF9247
:100AF0000F931F93DF93CF930F92CDB7DEB7F82EEE
:100B0000162FD42EE22E20917A0130917B01AE0176
:100B10004F5F5F4F0E94E104882339F12D2D30E0B3
:100B20002F5F3F4F2E19310981E090E002C0880FFE
:100B3000991FEA94E2F70197022E02C0880F991FCD
:100B40000A94E2F7602F70E002C0660F771F2A95C3
:100B5000E2F7482F4095998149238623482B498302
:100B60008F2D612F0E94650501C080E00F90CF910D
:100B7000DF911F910F91FF90EF90DF900895EF921A
:100B8000FF920F931F93DF93CF930F92CDB7DEB7F2
:100B9000082F162FF42EE22E20917A0130917B013E
:100BA000AE014F5F5F4F0E94E1048981EE2049F062
:100BB00021E030E002C0220F331FFA94E2F7282B25
:100BC00009C021E030E002C0220F331FFA94E2F79F
:100BD000209528232983802F612F422F0E946505AD
:100BE0000F90CF91DF911F910F91FF90EF9008959B
:100BF00028E6FC01208308950F93062FFC018081D5
:100C00006BE144E022E00E9475050F9108950F9377
:100C1000062FFC0180816CE144E022E00E94750512
:100C20000F9108954F925F926F927F928F929F9251
:100C3000AF92BF92CF92DF92EF92FF920F931F93EA
:100C4000CF93DF93EC013B015A01490128019C013C
:100C50002F5F3F4F00917A0110917B0188816BE3F8
:100C60004EE00E942D04398120E08A8190E0822BA1
:100C7000932BF301918380833B8120E08C8190E072
:100C8000822B932BF501918380833D8120E08E811F
:100C900090E0822B932BF40191838083398520E0AF
:100CA0008A8590E0822B932BF201918380833B8590
:100CB00020E08C8590E0822B932BF7019183808339
:100CC0003D8520E08E8590E0822B932BF601918369
:100CD0008083DF91CF911F910F91FF90EF90DF9074
:100CE000CF90BF90AF909F908F907F906F905F90CC
:100CF0004F900895262FFC0180816BE646E00E940C
:100D0000BF0508950F93062FFC0180816BE642E03A
:100D100023E00E9475050F910895CF93DF93EC01B6
:100D200061E00E948206CE0160E00E94FC05CE01D7
:100D300060E00E940706CE0160E00E947A06DF9123
:100D4000CF910895EF92FF920F931F93CF93DF936C
:100D5000EC018C010F5F1F4FE0907A01F0907B0156
:100D6000888165E746E026E00E94EC048981DF91F6
:100D7000CF911F910F91FF90EF9008950E94A206CE
:100D800091E0843309F090E0892F08951F920F922B
:100D90000FB60F9211242F933F938F939F93AF938E
:100DA000BF938091790290917A02A0917B02B091D9
:100DB0007C0230917D020196A11DB11D232F2D5F74
:100DC0002D3720F02D570196A11DB11D20937D02D6
:100DD0008093790290937A02A0937B02B0937C0275
:100DE0008091750290917602A0917702B09178027D
:100DF0000196A11DB11D8093750290937602A09378
:100E00007702B0937802BF91AF919F918F913F91FC
:100E10002F910F900FBE0F901F9018958FB7F894D9
:100E20002091790230917A0240917B0250917C02AC
:100E30008FBFB901CA0108959FB7F8942091750238
:100E400030917602409177025091780286B5A89B46
:100E500006C08F3F21F02F5F3F4F4F4F5F4F9FBF27
:100E6000542F432F322F2227280F311D411D511D92
:100E700082E0220F331F441F551F8A95D1F7B90115
:100E8000CA010895EF92FF920F931F93CF93DF93C0
:100E90007B018C010E941C07EB010FC00E941C0704
:100EA0006C1B7D0B83E0683E780738F00894E108FE
:100EB000F10801091109C851DC4FE114F1040105E1
:100EC000110561F7DF91CF911F910F91FF90EF9086
:100ED0000895789484B5826084BD84B5816084BDB2
:100EE00085B5826085BD85B5816085BDEEE6F0E0A3
:100EF000808181608083E1E8F0E0108280818260FF
:100F00008083808181608083E0E8F0E0808181607F
:100F10008083E1EBF0E0808184608083E0EBF0E0AF
:100F2000808181608083EAE7F0E080818460808353
:100F300080818260808380818160808380818068FD
:100F400080831092C1000895833071F0843028F4BA
:100F50008130A1F0823021F514C08630B1F08730A5
:100F6000D1F08430E9F404C0809180008F7703C011
:100F7000809180008F7D80938000089584B58F7765
:100F800002C084B58F7D84BD08958091B0008F77B5
:100F90008093B00008958091B0008F7D8093B00061
:100FA00008950F931F93DF93CF930F92CDB7DEB7C2
:100FB000282F30E0F901E255FF4F8491F901E65600
:100FC000FF4F14912A573F4FF90104910023D9F0A4
:100FD000882321F069830E94A4076981E02FF0E053
:100FE000EE0FFF1FEE58FF4F85919491DC019FB7E4
:100FF000F894662321F48C911095812302C08C9182
:10100000812B8C939FBF0F90CF91DF911F910F91F8
:101010000895FC0184859585FC01E05CFF4F2081EB
:1010200031818E5B9F4FFC0180819181281B390BA0
:101030002F733070C9010895FC0184859585FC01EA
:10104000E05CFF4F40815181FC01EE5BFF4F20814E
:1010500031814217530741F00190F081E02DE80FF4
:10106000F91F208130E002C02FEF3FEFC901089542
:10107000FC0184859585FC01E05CFF4F4081518136
:10108000FC01EE5BFF4F208131814217530771F065
:10109000A081B181A80FB91F2C9180819181019607
:1010A0008F7390709183808330E002C02FEF3FEF09
:1010B000C9010895DC011E968D919C911F97FC013A
:1010C000E05CFF4F8E5B9F4F40815181DC012D9191
:1010D0003C91119742175307B9F708951F93FC01EC
:1010E000162F26853785D901A05CBF4F8D919C9125
:1010F000019660E470E00E942C0BD901AE5BBF4FFB
:101100004D915C91119784179507D1F3D901A05C9B
:10111000BF4F0D90BC91A02DA20FB31F1C93A685AD
:10112000B785A05CBF4F11969C938E93A689B78913
:101130002C9181E090E0058C02C0880F991F0A94E1
:10114000E2F7282B2C9381E090E01F910895FB019A
:10115000E05CFF4F208131812F5F3F4F2F73307054
:10116000DB01AE5BBF4F4D915C91119724173507A2
:1011700039F0A081B181A60FB71F8C9331832083F2
:10118000089508951F920F920FB60F9211242F9376
:101190003F934F935F936F937F938F939F93AF93FF
:1011A000BF93EF93FF938091C6006EE772E00E94B9
:1011B000A708FF91EF91BF91AF919F918F917F9180
:1011C0006F915F914F913F912F910F900FBE0F90B4
:1011D0001F90189586E093E00E940908009711F08F
:1011E0000E94C10808951F920F920FB60F9211240A
:1011F0002F933F935F936F937F938F939F93AF93BF
:10120000BF93EF93FF9320910203309103038091EA
:101210000403909105032817390731F48091C10028
:101220008F7D8093C10016C0E0910403F091050307
:10123000EE53FD4F208180910403909105030196A8
:1012400060E470E00E942C0B9093050380930403EC
:101250002093C600FF91EF91BF91AF919F918F9125
:101260007F916F915F913F912F910F900FBE0F90E3
:101270001F901895DF92EF92FF920F931F93CF93D9
:10128000DF93EC017A018B01DD24D394403081EEB1
:10129000580780E0680780E0780749F4DD24EC898E
:1012A000FD89108260E874E88EE190E00FC0EC895F
:1012B000FD8981E090E00E8C02C0880F991F0A948E
:1012C000E2F7808360E079E08DE390E0A801970188
:1012D0000E943F0B2150304040405040569547956A
:1012E0003795279580E12030380710F0DD20B1F6E2
:1012F000E889F9893083EA89FB892083EE89FF89AF
:10130000408181E090E09C010A8C02C0220F331FD3
:101310000A94E2F7422B4083EE89FF8940819C01C9
:101320000B8C02C0220F331F0A94E2F7422B40833A
:10133000EE89FF8940819C010C8C02C0220F331F73
:101340000A94E2F7422B4083EE89FF8920810D8CBD
:1013500002C0880F991F0A94E2F780958223808348
:10136000DF91CF911F910F91FF90EF90DF90089543
:10137000109209031092080388EE93E0A0E0B0E019
:1013800080930A0390930B03A0930C03B0930D0377
:10139000E8E0F3E080E991E0929382938EE792E0B7
:1013A0009587848782EC92E09787868785EC90E02A
:1013B000918B808B84EC90E0938B828B80EC90E01F
:1013C000958B848B81EC90E0978B868B86EC90E0FC
:1013D000918F808F84E0828F83E0838F87E0848F7A
:1013E00085E0858F81E0868F0895CF93DF930E94FB
:1013F00069070E948E00CAEED8E00E94BA002097CA
:10140000E1F30E94EA08F9CFCF92DF92EF92FF92C8
:101410000F931F93CF93DF936C017B018A01C0E090
:10142000D0E00FC0D7016D917D01D601ED91FC9107
:101430000190F081E02DC6010995C80FD91F015018
:1014400010400115110571F7CE01DF91CF911F9169
:101450000F91FF90EF90DF90CF900895DB010D90FA
:101460000020E9F7AD0141505040461B570BDC010D
:10147000ED91FC910280F381E02D099508950E9481
:101480002E0A0895DC01ED91FC910190F081E02D90
:10149000099508950F931F93CF93DF93EC016DE0AF
:1014A0000E94420A8C01CE016AE00E94420A080FA3
:1014B000191FC801DF91CF911F910F9108950F93CC
:1014C0001F93CF93DF93EC010E942E0A8C01CE0173
:1014D0000E944A0A080F191FC801DF91CF911F917E
:1014E0000F9108958F929F92AF92BF92CF92DF9209
:1014F000EF92FF920F931F93DF93CF93CDB7DEB799
:10150000A1970FB6F894DEBF0FBECDBF6C01042FBC
:10151000E52FCB01122F19A2223008F41AE021E2A4
:10152000E22EF12CEC0EFD1E812E9924AA24BB2460
:1015300003C0022FE32FCA01602F7E2FA501940163
:101540000E943F0B129F802D1124081B0894E10874
:10155000F1080A3014F4005D01C0095CF701008352
:10156000211531054105510521F7C601B7010E943A
:101570002E0AA1960FB6F894DEBF0FBECDBFCF9155
:10158000DF911F910F91FF90EF90DF90CF90BF9070
:10159000AF909F908F900895CF92DF92EF92FF923D
:1015A0000F931F93CF93DF93EC017A018B012115E9
:1015B000310541F4E881F9810190F081E02D642F3B
:1015C00009951AC02A303105A9F477FF12C06DE2DF
:1015D0000E94420A6C0144275527BA014E195F093F
:1015E000600B710BCE012AE00E94720AC80ED91E50
:1015F00004C02AE00E94720A6C01C601DF91CF91FB
:101600001F910F91FF90EF90DF90CF9008959A0176
:10161000FB01AF01662757FD6095762F0E94CC0A2B
:1016200008950F931F93CF93DF93EC019A01CB01A1
:10163000AC01662757FD6095762FCE010E94CC0A3B
:101640008C01CE010E944A0A080F191FC801DF91C0
:10165000CF911F910F91089597FB092E07260AD06D
:1016600077FD04D02ED006D000201AF47095619535
:101670007F4F0895F6F7909581959F4F0895A1E2C9
:101680001A2EAA1BBB1BFD010DC0AA1FBB1FEE1FFC
:10169000FF1FA217B307E407F50720F0A21BB30B47
:1016A000E40BF50B661F771F881F991F1A9469F7C3
:1016B00060957095809590959B01AC01BD01CF011F
:1016C0000895AA1BBB1B51E107C0AA1FBB1FA61789
:1016D000B70710F0A61BB70B881F991F5A95A9F7DB
:1016E00080959095BC01CD010895EE0FFF1F0590E8
:0A16F000F491E02D0994F894FFCF67
:1016FA004D50553630353020636F6E6E65637469B0
:10170A006F6E207375636365737366756C004D50F5
:10171A00553630353020636F6E6E656374696F6E4F
:10172A00206661696C656400496E697469616C69F7
:10173A007A696E6720493243206465766963657306
:10174A002E2E2E0054657374696E6720646576695F
:10175A00636520636F6E6E656374696F6E732E2E98
:10176A002E00612F673A09000900E8030000000013
:10177A009D016B013D0146015A016A01000000000A
:0C178A006E08040A090838081C085A08F8
:00000001FF
