:100000000C9464000C948C000C948C000C948C0068
:100010000C948C000C948C000C948C000C940F01AC
:100020000C948C000C948C000C948C000C94910219
:100030000C948C000C948C000C948C000C948C0010
:100040000C9494080C9492000C94590A0C948A0A0B
:100050000C948C000C948C000C948C000C948C00F0
:100060000C94E1050C948C00000000002400270093
:100070002A0000000000250028002B0000000000DE
:1000800023002600290004040404040404040202DA
:100090000202020203030303030301020408102007
:1000A0004080010204081020010204081020000012
:1000B0000007000201000003040600000000000029
:1000C000000084023F054F0B11241FBECFEFD8E084
:1000D000DEBFCDBF11E0A0E0B1E0ECE1FAE102C08B
:1000E00005900D92A039B107D9F713E0A0E9B1E06E
:1000F00001C01D92AB36B107E1F710E0C8ECD0E0CB
:1001000004C02297FE010E94080DC23CD107C9F726
:100110000E948C0B0C940C0D0C9400008CB5806824
:100120008CBD08951F920F920FB60F9211242F933A
:100130003F938F939F93AF93BF93EF93FF938091E0
:100140009C01813009F056C0E091D6018EB5AE2FEA
:10015000B0E0A655BE4F8C93EF5FE093D60180913F
:10016000AE01813061F58091AF01813041F5809120
:10017000B001813021F58091B101813001F51092FB
:10018000D6018091AA018F3B21F192E090939C01CE
:100190008093D10180939D013091AB0120E080914B
:1001A000AC0190E0822B932B9093D3018093D201EA
:1001B0008091AD018093D4011092D5010AC0E53041
:1001C00008F1F0E0E755FE4F80818130D9F01092C0
:1001D000D6011092AA011092AB011092AC011092BC
:1001E000AD011092AE011092AF011092B0011092C9
:1001F000B10108C0823031F48EB58F3619F481E038
:1002000080939C01FF91EF91BF91AF919F918F914E
:100210003F912F910F900FBE0F901F9018951F9236
:100220000F920FB60F9211248F939F938091C80164
:100230009091C90101969093C9018093C8018536B8
:10024000910520F01092C9011092C8019F918F91E1
:100250000F900FBE0F901F901895089580E991E0C0
:100260004EEA57E461E67FE30E946E07BC01009707
:1002700049F080E991E00E942A08BC018CE493E0F7
:100280000E94F30B80E991E060E00E946707BC01E7
:10029000009749F080E991E00E942A08BC018CE4B3
:1002A00093E00E94F30B0895FF920F931F93DF9347
:1002B000CF9300D000D0CDB7DEB7F8948AE080931A
:1002C000B300E0EBF0E080818260808382E0809385
:1002D0007000E1EBF0E080818460808378948CE4AE
:1002E00093E040E052EC61E070E00E94D10A83E4C8
:1002F00092E00E941705CE0101960E94370789817E
:100300009A81AB81BC818093900190939101A093DD
:100310009201B09393010E942E018EE091E09093A0
:10032000950180939401109297011092960110927A
:1003300098011092990110929A01FF24F394F0927F
:100340009B0184E090E09093A4018093A30187E057
:1003500090E09093A6018093A50188E28093A70185
:100360008CE061E00E9444098CB580648CBD1092E1
:10037000B2011092B3010E948E0085E061E00E94FC
:10038000440986E061E00E94440987E061E00E9440
:10039000440988E061E00E94440981E061E00E9434
:1003A000440982E060E00E94440984E060E00E9429
:1003B000440985E061E00E94680986E061E00E94EE
:1003C000680987E061E00E94680988E061E00E94B6
:1003D000680985E060E070E00E94340886E060E033
:1003E00070E00E9434080BEC11E0C80163E070E09B
:1003F0000E94E803C80164E670E00E9423040EEC4A
:1004000011E0C80169E070E00E94E803C80164E6F9
:1004100070E00E9423041092B4011092B501109272
:10042000B6011092B7011092B8011092B901109262
:10043000BA011092BB011092BC011092BD01109242
:10044000BE011092BF011092C0011092C101109222
:10045000C2011092C3011092C4011092C501109202
:10046000C6011092C7011EBC1092CA011092A901C8
:100470001092A8011092C9011092C8011092D101E6
:100480001092D3011092D2011092D5011092D40192
:100490001092D6011092AA011092AB011092AC01F9
:1004A0001092AD011092AE011092AF011092B00106
:1004B0001092B101F0929C0110929D01F0929E0168
:1004C0001092A00110929F011092A2011092A1011E
:1004D00085E068E770E00E94340886E068E770E035
:1004E0000E94340887E060E00E94680988E061E0CB
:1004F0000E9468090F900F900F900F90CF91DF919D
:100500001F910F91FF90089580E991E00E943707B5
:100510008BEC91E00E944F038EEC91E00E944F0320
:1005200008951F920F920FB60F9211242F933F93AD
:100530004F935F936F937F938F939F93AF93BF93EB
:10054000EF93FF938091FC0187FF05C01092850017
:10055000109284002BC02091FC01332727FD309599
:100560008091D70190E02817390704F58091FC01AC
:10057000992787FD9095FC01EE0FFF1FE80FF91FEB
:10058000E852FE4F808186FF11C08091FC019927BF
:1005900087FD9095FC01EE0FFF1FE80FF91FE85251
:1005A000FE4F80818F7360E00E9468098091FC019A
:1005B0008F5F8093FC012091FC01332727FD30954C
:1005C0008091D70190E0281739070CF04EC0809138
:1005D000FC018C300CF049C0809184009091850022
:1005E0002091FC01332727FD3095F901EE0FFF1F05
:1005F000E20FF31FE852FE4F21813281820F931FD9
:1006000090938900809388008091FC01992787FD51
:100610009095FC01EE0FFF1FE80FF91FE852FE4F07
:10062000808186FF2BC08091FC01992787FD9095E2
:10063000FC01EE0FFF1FE80FF91FE852FE4F80810B
:100640008F7361E00E94680919C080E49CE905C0CD
:100650008091840090918500049690938900809306
:1006600088008FEF8093FC0109C0809184009091F5
:1006700085002CE98434920740F3EACFFF91EF9193
:10068000BF91AF919F918F917F916F915F914F91AA
:100690003F912F910F900FBE0F901F901895FC0166
:1006A0008091D7018C3090F480838F5F8093D70145
:1006B000808190E0FC01EE0FFF1FE80FF91FE85268
:1006C000FE4F88EB9BE09283818308958FEF8083B8
:1006D0000895DF92EF92FF920F931F93CF93DF93D2
:1006E000EC01D62E8A01790188818C3008F064C033
:1006F000862F61E00E9444094881842F90E0FC012C
:10070000EE0FFF1FE80FF91FE852FE4F9D2D9F735C
:100710008081807C892B808380E292E0801B910B1A
:1007200024E030E0B9010E94A20C698380E699E0E0
:100730008E199F09B9010E94A20C6A83842F6CE074
:100740000E94960C90E09C01220F331F280F391F46
:10075000220F331F220F331F40E050E0BA01620F17
:10076000731FFB01EE0FFF1FE60FF71FE852FE4F4E
:10077000608166FD15C04F5F5F4F4C30510571F7CA
:1007800024C01092800082E0809381001092850046
:1007900010928400B19A80916F00826080936F0004
:1007A000888190E0FC01EE0FFF1FE80FF91FE8526F
:1007B000FE4F8081806480838881DF91CF911F917B
:1007C0000F91FF90EF90DF9008950097D1F2E8CF5E
:1007D00040E252E020E639E00E9469030895FC01FE
:1007E00020812C3078F54181552747FD509588E8C8
:1007F00090E0841B950B880F991F880F991F68172D
:10080000790784F04281552747FD509588E592E0AD
:10081000841B950B880F991F880F991F68177907FC
:100820000CF4CB014FB7F89430E0F901EE0FFF1F45
:10083000E20FF31FE852FE4F0297880F991F928331
:1008400081834FBF0895AF92BF92CF92DF92EF9214
:10085000FF920F931F93CF93DF93EC0182E06032FE
:1008600078070CF046C077FD04C0653B710524F4A1
:1008700005C060E070E002C064EB70E000D000D022
:10088000882777FD8095982F4981552747FD5095FA
:1008900028E830E0241B350B220F331F220F331FB3
:1008A0005901CC24B7FCC094DC2C4A81552747FD64
:1008B000509528E532E0241B350B220F331F220F01
:1008C000331F442737FD4095542FEDB7FEB72183E2
:1008D00032834383548320E030E0A901B4EBEB2E54
:1008E000F12C012D112D0E94060C0F900F900F90EE
:1008F0000F90CE010E94EF03DF91CF911F910F91D6
:10090000FF90EF90DF90CF90BF90AF90089520912F
:100910001E0230E080911D02281B3109C901089593
:1009200080911D0290911E02891750F4E82FF0E08B
:10093000E350FE4F208130E08F5F80931D0202C0A4
:100940002FEF3FEFC9010895E0911D0280911E0233
:10095000E81730F4F0E0E350FE4F208130E002C0B1
:100960002FEF3FEFC90108950895CF92DF92EF92E4
:10097000FF920F931F93CF93DF936C01CB01EA019A
:10098000209142022223B1F0E62EF92E00E010E081
:100990000DC0D7016D917D01D601ED91FC910190C3
:1009A000F081E02DC60109950F5F1F4F0C171D0741
:1009B00080F303C0642F0E94AF05CE01DF91CF9179
:1009C0001F910F91FF90EF90DF90CF900895DF93EC
:1009D000CF930F92CDB7DEB76983209142022223D5
:1009E000D1F020914102203240F021E030E0FC01C2
:1009F0003383228320E030E015C080914002E82F4D
:100A0000F0E0E05EFD4F998190838F5F809340021C
:100A10008093410205C0CE01019661E00E94AF05BE
:100A200021E030E0C9010F90CF91DF91089510923D
:100A30001D0210921E0210924002109241020E946A
:100A40005605089581E08093420260931F02109240
:100A500040021092410208950E942205089580915B
:100A60001F0260E272E04091410221E00E946F05A6
:100A70001092400210924102109242020895109288
:100A800046021092450288EE93E0A0E0B0E0809329
:100A9000470290934802A0934902B0934A0283E729
:100AA00091E0909344028093430208951092730260
:100AB00082E161E00E94680983E161E00E946809C7
:100AC000E9EBF0E080818E7F808380818D7F808361
:100AD00088E48093B80085E48093BC000895413297
:100AE000B0F5909173029923E1F792E0909373022D
:100AF0009FEF909372021092500240935102DB01DB
:100B0000E2E5F2E050E04E0F5F1F02C09D9191932D
:100B1000E417F507D9F790E0880F991F80934F02EB
:100B200085EE8093BC00222321F0809173028230F5
:100B3000E1F3809172028F3F61F080917202803206
:100B400051F080917202803341F483E0089581E096
:100B5000089580E0089582E0089584E00895613268
:100B6000A0F420917302243091F460939802DC0188
:100B7000EBE9F2E070E06E0F7F1F02C08D91819370
:100B8000E617F707D9F780E0089581E0089582E03D
:100B90000895882311F085EC01C085E88093BC009E
:100BA000089585ED8093BC008091BC0084FDFCCF4E
:100BB00010927302089585EC8093BC00109273022A
:100BC00008951F920F920FB60F9211242F933F9307
:100BD0004F935F936F937F938F939F93AF93BF9345
:100BE000EF93FF938091B90090E0887F90708036FA
:100BF000910509F4C2C081369105E4F5883291056A
:100C000009F47EC089329105C4F48031910509F45C
:100C100072C08131910544F4009709F413C1883002
:100C2000910509F013C167C08831910509F468C0C6
:100C30008032910509F00AC178C08034910509F429
:100C40008AC0813491054CF48033910509F46FC05A
:100C50008833910509F0FAC06EC08035910509F41A
:100C60006EC08835910509F47BC08834910509F080
:100C7000EDC0EAC08839910509F4DAC089399105D7
:100C8000ECF48837910509F478C0893791054CF464
:100C90008836910509F471C08037910509F0D6C0F6
:100CA0006CC08838910509F4C3C08039910509F4F6
:100CB0006AC08038910509F0C9C065C0803B9105C4
:100CC00009F48EC0813B91054CF4803A910509F4FA
:100CD0006CC0883A910509F0B9C082C0803C91058A
:100CE00009F4AAC0883C910509F4A6C0883B910587
:100CF00009F0ACC08AC080914F028093BB0013C042
:100D00009091500280915102981708F09DC08091F7
:100D10005002E82FF0E0EE5AFD4F90819093BB0017
:100D20008F5F8093500281E084C080E201C080E345
:100D30008093720289C088E3809372024EC08091D2
:100D400050029091BB00E82FF0E0EE5AFD4F9083E7
:100D50008F5F80935002909150028091510265C044
:100D6000809150029091BB00E82FF0E0EE5AFD4FC9
:100D700090838F5F8093500267C083E080937302FB
:100D800010927402D0CF80917402803208F050C06B
:100D9000809174029091BB00E82FF0E0EB58FD4F7A
:100DA00090838F5F80937402BECF809174028032F3
:100DB00030F4E0917402F0E0EB58FD4F10820E9495
:100DC000D10560917402E0919502F091960285E759
:100DD00092E070E00995109274020E94DB0536C023
:100DE00084E0809373021092970210929802E0912F
:100DF0009902F0919A02099580919802882329F42A
:100E000081E08093980210929B0280919702E82FD4
:100E1000F0E0E556FD4F90819093BB008F5F80938B
:100E200097029091970280919802981708F47BCFCF
:100E300080E00E94C9050AC081E00E94C9051092A5
:100E4000730204C0109272020E94D105FF91EF91CB
:100E5000BF91AF919F918F917F916F915F914F91D2
:100E60003F912F910F900FBE0F901F90189520E08B
:100E700030E040E85FE3FC01208331834283538309
:100E80000895EF92FF921F93DF93CF930F92CDB708
:100E9000DEB7162F83E4E82E82E0F82EC7016EE15C
:100EA00070E049830E942C05C701612F0E94E7046E
:100EB000C7014981642F0E94E704C7010E942F05E2
:100EC0000F90CF91DF911F91FF90EF900895462FE3
:100ED00062E070E050E00E9441070895EF92FF92B7
:100EE0000F931F93CF93DF93EC017A018B01CB011A
:100EF000BA012EEA37E441E65FE30E944F0C8823F3
:100F000051F488E491EEAAE3BFE388839983AA832E
:100F1000BB8340E08FC0C801B70126E636E646EA4B
:100F20005FE30E944F0C882351F48FE195E8ABE614
:100F3000BFE388839983AA83BB8341E07BC0C80158
:100F4000B70123E333E343EF5FE30E944F0C8823B1
:100F500051F486EF98E2ACE9BFE388839983AA83D2
:100F6000BB8342E067C0C801B70120E030E040E247
:100F700050E40E944F0C882351F48CE59FE8A2ECCA
:100F8000BFE388839983AA83BB8343E053C0C8012E
:100F9000B70120E030E040E850E40E944F0C882385
:100FA00051F48EEA97E4A1E1B0E488839983AA839F
:100FB000BB8344E03FC0C801B70126E636E646E9F8
:100FC00050E40E944F0C882351F48AE097EDA3E28D
:100FD000B0E488839983AA83BB8345E02BC0C80112
:100FE000B70123E333E343EB50E40E944F0C882323
:100FF00051F485E89BEEA1E4B0E488839983AA8349
:10100000BB8346E017C0C801B7012AE939E941E0CE
:1010100051E40E944F0C882351F483E393E3ABE83F
:10102000B0E488839983AA83BB8347E003C081E04F
:1010300090E009C04295440F407ECE0161E070E02F
:1010400050E00E944107DF91CF911F910F91FF90D7
:10105000EF9008956130710519F420E031E002C08D
:101060002DE531E0C90108951F93CF93DF93182F29
:10107000EB0161E00E944409209709F44AC0CF3F88
:10108000D10509F449C0E12FF0E0E255FF4FE491AA
:10109000E330C1F0E43028F4E13051F0E230B1F552
:1010A0000CC0E63019F1E73049F1E43079F514C0AD
:1010B00084B5806884BDC7BD33C084B5806284BDFB
:1010C000C8BD2EC080918000806880938000D0933E
:1010D0008900C093880024C0809180008062809342
:1010E0008000D0938B00C0938A001AC08091B0001A
:1010F00080688093B000C093B30012C08091B000AC
:1011000080628093B000C093B4000AC0C038D1059B
:101110001CF4812F60E002C0812F61E00E94680909
:10112000DF91CF911F9108951F920F920FB60F92EA
:1011300011242F933F938F939F93AF93BF938091ED
:10114000BF029091C002A091C102B091C202309141
:10115000C3020196A11DB11D232F2D5F2D3720F055
:101160002D570196A11DB11D2093C3028093BF028C
:101170009093C002A093C102B093C2028091BB02BF
:101180009091BC02A091BD02B091BE020196A11D3A
:10119000B11D8093BB029093BC02A093BD02B0939B
:1011A000BE02BF91AF919F918F913F912F910F9070
:1011B0000FBE0F901F901895789484B5826084BDFF
:1011C00084B5816084BD85B5826085BD85B581604B
:1011D00085BDEEE6F0E0808181608083E1E8F0E0AB
:1011E0001082808182608083808181608083E0E8DA
:1011F000F0E0808181608083E1EBF0E080818460B9
:101200008083E0EBF0E0808181608083EAE7F0E0BA
:10121000808184608083808182608083808181601E
:1012200080838081806880831092C100089583301C
:1012300071F0843028F48130A1F0823021F514C09F
:101240008630B1F08730D1F08430E9F404C0809169
:1012500080008F7703C0809180008F7D8093800015
:10126000089584B58F7702C084B58F7D84BD0895BD
:101270008091B0008F778093B00008958091B00086
:101280008F7D8093B000089590E0FC01E656FF4FFB
:101290002491FC01EA57FF4FE491EE23C1F0F0E006
:1012A000EE0FFF1FE859FF4F85919491DC016623F3
:1012B00041F49FB7F8948C91209582238C939FBF23
:1012C00008959FB7F8948C91822B8C939FBF0895BB
:1012D0000F931F93DF93CF930F92CDB7DEB7282FD5
:1012E00030E0F901E255FF4F8491F901E656FF4FD6
:1012F00014912A573F4FF90104910023D9F0882314
:1013000021F069830E9417096981E02FF0E0EE0F58
:10131000FF1FEE58FF4F85919491DC019FB7F89421
:10132000662321F48C911095812302C08C91812B2E
:101330008C939FBF0F90CF91DF911F910F910895D4
:10134000FC0184859585FC01E05CFF4F20813181A3
:101350008E5B9F4FFC0180819181281B390B2F737D
:101360003070C9010895FC0184859585FC01E05C1D
:10137000FF4F40815181FC01EE5BFF4F20813181A5
:101380004217530741F00190F081E02DE80FF91F5B
:10139000208130E002C02FEF3FEFC9010895FC012A
:1013A00084859585FC01E05CFF4F40815181FC0103
:1013B000EE5BFF4F208131814217530771F0A0810E
:1013C000B181A80FB91F2C918081918101968F73F3
:1013D00090709183808330E002C02FEF3FEFC9010E
:1013E0000895DC011E968D919C911F97FC01E05C95
:1013F000FF4F8E5B9F4F40815181DC012D913C91CD
:10140000119742175307B9F708951F93FC01162F40
:1014100026853785D901A05CBF4F8D919C9101969F
:1014200060E470E00E94A20CD901AE5BBF4F4D9109
:101430005C91119784179507D1F3D901A05CBF4F38
:101440000D90BC91A02DA20FB31F1C93A685B7854C
:10145000A05CBF4F11969C938E93A689B7892C915F
:1014600081E090E0058C02C0880F991F0A94E2F792
:10147000282B2C9381E090E01F910895FB01E05C04
:10148000FF4F208131812F5F3F4F2F733070DB0181
:10149000AE5BBF4F4D915C9111972417350739F022
:1014A000A081B181A60FB71F8C933183208308954B
:1014B00008951F920F920FB60F9211242F933F930E
:1014C0004F935F936F937F938F939F93AF93BF934C
:1014D000EF93FF938091C60064EC72E00E943E0A95
:1014E000FF91EF91BF91AF919F918F917F916F91FC
:1014F0005F914F913F912F910F900FBE0F901F90D2
:1015000018958CE493E00E94A009009711F00E94C6
:10151000580A08951F920F920FB60F9211242F931D
:101520003F935F936F937F938F939F93AF93BF93FB
:10153000EF93FF93209148033091490380914A0330
:1015400090914B032817390731F48091C1008F7DAA
:101550008093C10016C0E0914A03F0914B03E85F0D
:10156000FC4F208180914A0390914B03019660E4E7
:1015700070E00E94A20C90934B0380934A03209347
:10158000C600FF91EF91BF91AF919F918F917F9195
:101590006F915F913F912F910F900FBE0F901F9011
:1015A0001895DF92EF92FF920F931F93CF93DF93E3
:1015B000EC017A018B01DD24D394403081EE580791
:1015C00080E0680780E0780749F4DD24EC89FD8934
:1015D000108260E874E88EE190E00FC0EC89FD892C
:1015E00081E090E00E8C02C0880F991F0A94E2F708
:1015F000808360E079E08DE390E0A80197010E948C
:10160000B50C215030404040504056954795379595
:10161000279580E12030380710F0DD20B1F6E88909
:10162000F9893083EA89FB892083EE89FF8940812B
:1016300081E090E09C010A8C02C0220F331F0A94C3
:10164000E2F7422B4083EE89FF8940819C010B8C9D
:1016500002C0220F331F0A94E2F7422B4083EE8927
:10166000FF8940819C010C8C02C0220F331F0A9419
:10167000E2F7422B4083EE89FF8920810D8C02C066
:10168000880F991F0A94E2F7809582238083DF9167
:10169000CF911F910F91FF90EF90DF9008951092DE
:1016A0004F0310924E0388EE93E0A0E0B0E08093E9
:1016B000500390935103A0935203B0935303EEE46D
:1016C000F3E083E891E09293829384EC92E0958733
:1016D000848788E093E09787868785EC90E0918BFC
:1016E000808B84EC90E0938B828B80EC90E0958BE8
:1016F000848B81EC90E0978B868B86EC90E0918FC9
:10170000808F84E0828F83E0838F87E0848F85E001
:10171000858F81E0868F0895CF93DF930E94DC0848
:101720000E945401C1E8DAE00E942D012097E1F304
:101730000E94810AF9CFCF92DF92EF92FF920F932E
:101740001F93CF93DF936C017B018A01C0E0D0E04F
:101750000FC0D7016D917D01D601ED91FC910190F3
:10176000F081E02DC6010995C80FD91F0150104026
:101770000115110571F7CE01DF91CF911F910F91E6
:10178000FF90EF90DF90CF900895DB010D90002047
:10179000E9F7AD0141505040461B570BDC01ED917C
:1017A000FC910280F381E02D09950895DC01ED9113
:1017B000FC910190F081E02D099508950F931F93FE
:1017C000CF93DF93EC016DE00E94D60B8C01CE012C
:1017D0006AE00E94D60B080F191FC801DF91CF9154
:1017E0001F910F9108950F931F93CF93DF93EC01F7
:1017F0000E94C50B8C01CE010E94DE0B080F191F41
:10180000C801DF91CF911F910F9108952F923F92C0
:101810004F925F926F927F928F929F92AF92BF9200
:10182000CF92DF92EF92FF920F931F93DF93CF93AC
:10183000CDB7DEB73B014C0119012A016D897E89C4
:101840008F89988D6A197B098C099D09621A730A20
:10185000840A950AA40193010E94770CE218F30808
:1018600004091509A80197010E94D70C2A0D3B1DF8
:101870004C1D5D1DB901CA01CF91DF911F910F91E0
:10188000FF90EF90DF90CF90BF90AF909F908F90A0
:101890007F906F905F904F903F902F90089503D06E
:1018A00008F481E00895990F0008550FAA0BE0E8AD
:1018B000FEEF16161706E807F907C0F01216130612
:1018C000E407F50798F0621B730B840B950B39F452
:1018D0000A2661F0232B242B252B21F408950A26B8
:1018E00009F4A140A6958FEF811D811D0895629F87
:1018F000D001739FF001829FE00DF11D649FE00D08
:10190000F11D929FF00D839FF00D749FF00D659F68
:10191000F00D9927729FB00DE11DF91F639FB00D67
:10192000E11DF91FBD01CF0111240895991B79E034
:1019300004C0991F961708F0961B881F7A95C9F75F
:101940008095089597FB092E07260AD077FD04D0CD
:1019500049D006D000201AF4709561957F4F089504
:10196000F6F7909581959F4F0895A1E21A2EAA1B34
:10197000BB1BFD010DC0AA1FBB1FEE1FFF1FA2173F
:10198000B307E407F50720F0A21BB30BE40BF50B3C
:10199000661F771F881F991F1A9469F760957095C5
:1019A000809590959B01AC01BD01CF01089597FBF7
:1019B000092E05260ED057FD04D0D7DF0AD0001C13
:1019C00038F450954095309521953F4F4F4F5F4FDC
:1019D0000895F6F790958095709561957F4F8F4F9C
:1019E0009F4F0895AA1BBB1B51E107C0AA1FBB1F35
:1019F000A617B70710F0A61BB70B881F991F5A959B
:101A0000A9F780959095BC01CD010895EE0FFF1FB9
:0C1A10000590F491E02D0994F894FFCFAC
:101A1C00456E7465726564207363616C65207761D3
:101A2C0073206E6F742076616C69642C2076616C07
:101A3C0069642067617573732076616C75657320BA
:101A4C006172653A20302E38382C20312E332C2000
:101A5C00312E392C20322E352C20342E302C2034A3
:101A6C002E372C20352E362C20382E310045727214
:101A7C006F72206E6F7420646566696E6564000019
:101A8C00000000E704B50487049004A404B4040027
:101A9C00000000050A9B0BA009CF09B309F109004E
:00000001FF
