:100000000C9461000C9473000C9473000C947300B6
:100010000C9473000C9473000C9473000C94AF0058
:100020000C9473000C9473000C9473000C94730084
:100030000C9473000C9473000C9473000C94730074
:100040000C9433010C949A000C9473000C9473007C
:100050000C9473000C9473000C9473000C94730054
:100060000C9473000C94730000000000240027001F
:100070002A0000000000250028002B0000000000DE
:1000800023002600290004040404040404040202DA
:100090000202020203030303030301020408102007
:1000A0004080010204081020010204081020000012
:1000B0000007000201000003040600000000000029
:1000C000000011241FBECFEFD8E0DEBFCDBF11E08E
:1000D000A0E0B1E001C01D92A631B107E1F70E9496
:1000E00024010C94B6010C9400008CB580688CBD82
:1000F0000895F8948AE08093B300E0EBF0E080810B
:100100008260808382E080937000E1EBF0E0808188
:100110008460808378948CE061E00E9400018CB55B
:1001200080648CBD10920801109209010E94750034
:100130001EBC08951F920F920FB60F9211248F9339
:100140008EB58D3029F480930C018EE08EBD01C0F8
:100150001EBC8F910F900FBE0F901F9018951F928D
:100160000F920FB60F9211242F938F939F938DE0D0
:100170008EBD809100019091010101969093010143
:100180008093000120910B012F5F20930B012091A0
:100190000B01253110F010920B0120910B0122234D
:1001A00011F410920A0120910B012A3019F421E078
:1001B00020930A018536910520F0109201011092DA
:1001C00000019F918F912F910F900FBE0F901F9064
:1001D000189580910901882391F0E0910801F0E0E1
:1001E000EE5FFE4F108280910401843011F48DE0A7
:1001F00001C083E08EBD109208011092090108959C
:1002000090E0FC01E656FF4F2491FC01EA57FF4FB6
:10021000E491EE23C1F0F0E0EE0FFF1FE859FF4F2D
:1002200085919491DC01662341F49FB7F8948C91F9
:10023000209582238C939FBF08959FB7F8948C914B
:10024000822B8C939FBF0895CF93DF930E947B01F5
:100250000E947900C0E0D0E00E94E9002097E1F31D
:100260000E940000F9CF1F920F920FB60F92112437
:100270002F933F938F939F93AF93BF9380911101DF
:1002800090911201A0911301B091140130911501C8
:100290000196A11DB11D232F2D5F2D3720F02D5765
:1002A0000196A11DB11D209315018093110190931A
:1002B0001201A0931301B093140180910D0190914C
:1002C0000E01A0910F01B09110010196A11DB11D69
:1002D00080930D0190930E01A0930F01B093100134
:1002E000BF91AF919F918F913F912F910F900FBE32
:1002F0000F901F901895789484B5826084BD84B562
:10030000816084BD85B5826085BD85B5816085BD10
:10031000EEE6F0E0808181608083E1E8F0E0108229
:10032000808182608083808181608083E0E8F0E06A
:10033000808181608083E1EBF0E080818460808354
:10034000E0EBF0E0808181608083EAE7F0E080818B
:1003500084608083808182608083808181608083EB
:100360008081806880831092C1000895F894FFCF47
:00000001FF
