:100000000C947B000C94A3000C94A3000C94A3000C
:100010000C94A3000C94A3000C94A3000C94D300A4
:100020000C94A3000C94A3000C94A3000C9420083F
:100030000C94A3000C94A3000C94A3000C94A300B4
:100040000C94F50E0C94AD000C9431110C946211CB
:100050000C94A3000C94A3000C94A3000C94A30094
:100060000C94300B0C94A300084AD73B3BCE016E96
:1000700084BCBFFDC12F3D6C74319ABD56833DDAFF
:100080003D00C77F11BED9E4BB4C3E916BAAAABE0E
:10009000000000803F00000000240027002A00002C
:1000A000000000250028002B00000000002300268F
:1000B00000290004040404040404040202020202ED
:1000C000020303030303030102040810204080011C
:1000D000020408102001020408102000000007009C
:1000E0000201000003040600000000000000000000
:1000F0001308580A271211241FBECFEFD8E0DEBF25
:10010000CDBF11E0A0E0B1E0E4EBFCE202C005905D
:100110000D92A039B107D9F713E0A0E9B1E001C011
:100120001D92A136B107E1F710E0C6EFD0E004C0A0
:100130002297FE010E945416C03FD107C9F70E94C2
:1001400064120C9458160C9400008CB580688CBD19
:1001500008958CB58F778CBD08951F920F920FB6BE
:100160000F9211248F939F93EF93FF938EB59091ED
:10017000AB01963078F49091AB01E92FF0E0EB55AC
:10018000FE4F80839F5F9093AB018F3619F481E01F
:100190008093AC01FF91EF919F918F910F900FBED3
:1001A0000F901F9018951F920F920FB60F92112467
:1001B0008F939F938091C2019091C3010196909378
:1001C000C3018093C2018536910520F01092C301CE
:1001D0001092C2019F918F910F900FBE0F901F90B0
:1001E00018951092AC011092A5011092A6011092E0
:1001F000A7011092A8011092A9011092AA011092D1
:10020000AD011092AE011092AF011092B0011092A8
:10021000B1011092B2011092B3011092B401109288
:10022000AB0185E060E070E00E94950E86E060E042
:1002300070E00E94950E0E94A50080E00895682F4E
:10024000813A18F4833018F003C060EA01C063E01B
:1002500087EC91E070E00E942C091092AC011092A2
:10026000A5011092A6011092A7011092A801109268
:10027000A9011092AA011092AD011092AE01109244
:10028000AF011092B0011092B1011092B201109220
:10029000B3011092B4011092AB010E94F1000895D5
:1002A000682F853108F064E18AEC91E070E00E94EB
:1002B0002C091092AC011092A5011092A601109287
:1002C000A7011092A8011092A9011092AA01109200
:1002D000AD011092AE011092AF011092B0011092D8
:1002E000B1011092B2011092B3011092B4011092B8
:1002F000AB010E94F100089582E00E944E1020910F
:10030000B50130E082179307C1F082E00E944E10E1
:100310008093B5018091AD019091AE01A091AF01A4
:10032000B091B001C796A11DB11D8093AD0190930E
:10033000AE01A093AF01B093B00184E00E944E10D3
:100340002091B60130E082179307C1F084E00E944B
:100350004E108093B6018091B1019091B201A091AD
:10036000B301B091B401C796A11DB11D8093B10135
:100370009093B201A093B301B093B40108953F925A
:100380004F925F926F927F928F929F92AF92BF92A5
:10039000CF92DF92EF92FF920F931F93CF93DF9351
:1003A000582E492E362E0E947C01A090AD01B090AF
:1003B000AE01C090AF01D090B00167E3E62EF12C02
:1003C000012D112DC601B501A80197010E9401164A
:1003D0002093C5016090B1017090B2018090B3018B
:1003E0009090B401C401B301A80197010E940116C5
:1003F0002093C601252D342DC901880F991F43E094
:10040000220F331F4A95E1F7820F931FA0E0B0E05F
:10041000A816B906CA06DB06D0F4681679068A065D
:100420009B06A8F4C32DD0E0BE016A50704085E061
:100430000E94950E86E0BE010E94950E87E060E066
:100440000E94161088E060E00E94161024C00E94EE
:10045000A5001092AC011092A5011092A601109275
:10046000A7011092A8011092A9011092AA0110925E
:10047000AD011092AE011092AF011092B001109236
:10048000B1011092B2011092B3011092B401109216
:10049000AB010E94F10060E070E0CB01DF91CF91F1
:1004A0001F910F91FF90EF90DF90CF90BF90AF9092
:1004B0009F908F907F906F905F904F903F900895A6
:1004C0003F924F925F926F927F928F929F92AF92E4
:1004D000BF92CF92DF92EF92FF920F931F93CF9331
:1004E000DF93582E492E362E0E947C01A090AD013C
:1004F000B090AE01C090AF01D090B001F7E3EF2E05
:10050000F12C012D112DC601B501A80197010E9402
:1005100001162093C5016090B1017090B2018090E6
:10052000B3019090B401C401B301A80197010E94E6
:1005300001162093C601252D342DC901880F991F5E
:1005400073E0220F331F7A95E1F7820F931FA0E02B
:10055000B0E0A816B906CA06DB06D0F4681679061C
:100560008A069B06A8F4C32DD0E0BE016A507040F5
:1005700085E00E94950E86E0BE010E94950E87E000
:1005800061E00E94161088E061E00E94161024C00D
:100590000E94A5001092AC011092A5011092A60134
:1005A0001092A7011092A8011092A9011092AA011D
:1005B0001092AD011092AE011092AF011092B001F5
:1005C0001092B1011092B2011092B3011092B401D5
:1005D0001092AB010E94F10060E070E0CB01DF916E
:1005E000CF911F910F91FF90EF90DF90CF90BF9030
:1005F000AF909F908F907F906F905F904F903F90C3
:10060000089582E00E944E102091B50130E08217DB
:100610009307C1F082E00E944E108093B501809153
:10062000AD019091AE01A091AF01B091B0010596DE
:10063000A11DB11D8093AD019093AE01A093AF01B8
:10064000B093B00184E00E944E102091B60130E0DA
:1006500082179307C1F084E00E944E108093B60188
:100660008091B1019091B201A091B301B091B40118
:100670000596A11DB11D8093B1019093B201A09385
:10068000B301B093B40108952F923F924F925F92BD
:100690006F927F928F929F92AF92BF92CF92DF9292
:1006A000EF92FF920F931F93DF93CF930F92CDB7EB
:1006B000DEB77B018C0149830E9401036090AD018C
:1006C0007090AE018090AF019090B001A5E0AA2E8D
:1006D000B12CC12CD12CC401B301A60195010E94FB
:1006E00001162093C5012090B1013090B2014090D5
:1006F000B3015090B401C201B101A60195010E945D
:1007000001162093C6016E147F0480069106C0F482
:100710002E143F044006510698F485E0698170E08C
:100720000E94950E86E0698170E00E94950E87E038
:1007300060E00E94161088E061E00E94161048C038
:1007400087E061E00E94161088E060E00E941610C9
:1007500083EDE816F1040105110528F062E870E068
:1007600080E090E00FC0E9E1EE16F104010511050B
:1007700028F46FE070E080E090E004C068EC70E086
:1007800080E090E00E94630F0E94A5001092AC01EF
:100790001092A5011092A6011092A7011092A80133
:1007A0001092A9011092AA011092AD011092AE010F
:1007B0001092AF011092B0011092B1011092B201EB
:1007C0001092B3011092B4011092AB010E94F1009B
:1007D00060E070E0CB010F90CF91DF911F910F91FE
:1007E000FF90EF90DF90CF90BF90AF909F908F9051
:1007F0007F906F905F904F903F902F9008952F9231
:100800003F924F925F926F927F928F929F92AF92A0
:10081000BF92CF92DF92EF92FF920F931F93DF93DD
:10082000CF930F92CDB7DEB77B018C0149830E9435
:1008300001036090AD017090AE018090AF01909087
:10084000B001B5E0AB2EB12CC12CD12CC401B30149
:10085000A60195010E9401162093C5012090B101C7
:100860003090B2014090B3015090B401C201B10187
:10087000A60195010E9401162093C6016E147F0403
:1008800080069106C0F42E143F044006510698F4E9
:1008900085E0698170E00E94950E86E0698170E0D4
:1008A0000E94950E87E061E00E94161088E060E0EB
:1008B0000E94161048C087E060E00E94161088E091
:1008C00061E00E94161083EDE816F10401051105A0
:1008D00028F062E870E080E090E00FC0E9E1EE16F9
:1008E000F1040105110528F46FE070E080E090E06C
:1008F00004C068EC70E080E090E00E94630F0E940A
:10090000A5001092AC011092A5011092A6011092C0
:10091000A7011092A8011092A9011092AA011092A9
:10092000AD011092AE011092AF011092B001109281
:10093000B1011092B2011092B3011092B401109261
:10094000AB010E94F10060E070E0CB010F90CF910D
:10095000DF911F910F91FF90EF90DF90CF90BF90AC
:10096000AF909F908F907F906F905F904F903F904F
:100970002F90089582E00E944E102091BF0130E038
:1009800082179307C1F082E00E944E108093BF014E
:100990008091B7019091B801A091B901B091BA01CD
:1009A0000196A11DB11D8093B7019093B801A0934A
:1009B000B901B093BA0184E00E944E102091C001A9
:1009C00030E082179307C1F084E00E944E108093BC
:1009D000C0018091BB019091BC01A091BD01B0917B
:1009E000BE010196A11DB11D8093BB019093BC0176
:1009F000A093BD01B093BE01089580E991E04EEA55
:100A000057E461E67FE30E94BD0CBC01009749F00A
:100A100080E991E00E948B0EBC0182E493E00E9489
:100A2000CB1280E991E060E00E94B60CBC01009717
:100A300049F080E991E00E948B0EBC0182E493E0D2
:100A40000E94CB1208951F93DF93CF9300D000D064
:100A5000CDB7DEB7F8948AE08093B300E0EBF0E026
:100A600080818260808382E080937000E1EBF0E01F
:100A7000808184608083789482E493E040E052EC4B
:100A800061E070E00E94A91189E392E00E94200ACF
:100A9000CE0101960E94860C89819A81AB81BC812E
:100AA0008093900190939101A0939201B093930150
:100AB0000E94FD048EE091E090939701809396014F
:100AC000109299011092980110929A0110929B0134
:100AD00010929C0111E010939D0184E090E09093AE
:100AE0009F0180939E0187E090E09093A101809305
:100AF000A00188E28093A2018CE061E00E94F20FE5
:100B00008CB580648CBD1092AB011092AC010E9438
:100B1000A50085E061E00E94F20F86E061E00E949E
:100B2000F20F87E061E00E94F20F88E061E00E942E
:100B3000F20F81E061E00E94F20F82E060E00E942B
:100B4000F20F84E060E00E94F20F85E061E00E9415
:100B5000161086E061E00E94161087E061E00E94B6
:100B6000161088E061E00E94161085E060E070E0F9
:100B70000E94950E86E060E070E00E94950E109253
:100B8000AD011092AE011092AF011092B00110921F
:100B9000B1011092B2011092B3011092B4011092FF
:100BA000B5011092B6011092B7011092B8011092DF
:100BB000B9011092BA011092BB011092BC011092BF
:100BC000BD011092BE011092BF011092C00110939E
:100BD000C1011EBC1092C4011092A4011092A30185
:100BE0001092C3011092C2010F900F900F900F90BE
:100BF000CF91DF911F910895DF93CF93CDB7DEB7EB
:100C00002C970FB6F894DEBF0FBECDBFCE01019674
:100C100060E971E00E94150E6D817E818F8198855B
:100C200020E030E040EF52E40E94281329813A810D
:100C30004B815C810E949B1321EE3EE245E652E42B
:100C40000E9469150E945A1477FF03C068597E4FAD
:100C500006C081E06936780714F068567140CB0110
:100C60002C960FB6F894DEBF0FBECDBFCF91DF91AB
:100C700008959C016817790710F028593E4F261BEC
:100C8000370BC9010895680F791F81E0683678072E
:100C900010F068567140CB0108959C0168177907E0
:100CA00010F028593E4F261B370BC9010895CF92EB
:100CB000DF92EF92FF920F931F93CF93DF937C010C
:100CC0008B01EA01CA01860F971F21E0893692073E
:100CD0002CF49B01241B350B37FF10C0C801BE014B
:100CE0000E944306E816F90680F0C801BE010E9482
:100CF0004D0641E08E159F0558F407C0E816F90629
:100D000034F441E02E153F051CF440E001C041E001
:100D1000842FDF91CF911F910F91FF90EF90DF9083
:100D2000CF900895EF92FF920F931F93CF93DF938D
:100D30000E94FC058C018093940110939501E09032
:100D40009601F090970140919E0150919F01B7014B
:100D50000E945706882309F461C04091A001509178
:100D6000A101C801B7010E945706882321F0809194
:100D70009C0180939B0181E080939D0180919B0168
:100D80008F3118F0815080939B01C801B7010E94F8
:100D90003906EC01C701B8010E9439062091C20151
:100DA0003091C301C817D907B0F422333105B0F030
:100DB00060919B0185E070E00E94950E60919B011F
:100DC00086E070E00E94950E87E061E00E941610B8
:100DD00088E060E020C02233310558F485E060E00F
:100DE00070E00E94950E86E060E070E00E94950E33
:100DF00052C060919B0185E070E00E94950E609169
:100E00009B0186E070E00E94950E87E060E00E9402
:100E1000161088E061E00E9416103DC080919D018F
:100E2000882349F080919B018F3128F09091A20195
:100E3000891B80939B0110929D0185E060E070E02A
:100E40000E94950E86E060E070E00E94950E109280
:100E5000A5011092A6011092A7011092A80110926C
:100E6000A9011092AA011092AD011092AE01109248
:100E7000AF011092B0011092B1011092B201109224
:100E8000B3011092B4011092AB011092A401109220
:100E9000A3010E94F100DF91CF911F910F91FF906C
:100EA000EF9008958091AC01882309F4A3C080914C
:100EB000A6018D3129F40E94A9000E94F100AAC068
:100EC0008132B1F41EBC1092B7011092B801109299
:100ED000B9011092BA011092BB011092BC0110929C
:100EE000BD011092BE011092BF011092C00192C0CC
:100EF000813099F41EBC0E94A9007091A70160E0A6
:100F00008091A801680F711D882777FD8095982F23
:100F10004091A9010E94FF037DC0823099F41EBC5C
:100F20000E94A9007091A70160E08091A801680F5C
:100F3000711D882777FD8095982F4091A9010E9407
:100F4000440368C0833049F41EBC0E94A90080E3BA
:100F500095E767E80E9460025DC0843079F41EBCAA
:100F60000E94A9009091A70180E02091A801820F22
:100F7000911D6091A9010E94BF014CC0853041F4D0
:100F80001EBC0E94A9008091A7010E94500142C08E
:100F9000863041F41EBC0E94A9008091A7010E94E6
:100FA0001F0138C08730B1F18830A1F1893091F14B
:100FB0008A3081F18B30B1F41EBC9091A70180E0A2
:100FC0002091A801820F911D909397018093960123
:100FD0008091A90180939C0180939B0181E0809383
:100FE0009A0118C08C30B1F41EBC0E94F10010921E
:100FF0009A0110C01092AD011092AE011092AF0193
:101000001092B0011092B1011092B2011092B3018E
:101010001092B4010E94BA0480919A01882311F0C1
:101020000E949206089580E991E00E94860C87EC68
:1010300091E00E94DE088AEC91E00E94DE080895AB
:101040001F920F920FB60F9211242F933F934F933D
:101050005F936F937F938F939F93AF93BF93EF9320
:10106000FF938091F20187FF05C0109285001092D6
:1010700084002BC02091F201332727FD3095809109
:10108000CD0190E02817390704F58091F2019927E6
:1010900087FD9095FC01EE0FFF1FE80FF91FE2534B
:1010A000FE4F808186FF11C08091F201992787FD54
:1010B0009095FC01EE0FFF1FE80FF91FE253FE4F62
:1010C00080818F7360E00E9416108091F2018F5F23
:1010D0008093F2012091F201332727FD3095809112
:1010E000CD0190E0281739070CF04EC08091F20135
:1010F0008C300CF049C08091840090918500209143
:10110000F201332727FD3095F901EE0FFF1FE20FA3
:10111000F31FE253FE4F21813281820F931F909380
:101120008900809388008091F201992787FD90952E
:10113000FC01EE0FFF1FE80FF91FE253FE4F808105
:1011400086FF2BC08091F201992787FD9095FC01C5
:10115000EE0FFF1FE80FF91FE253FE4F80818F73E0
:1011600061E00E94161019C080E49CE905C08091DE
:101170008400909185000496909389008093880064
:101180008FEF8093F20109C08091840090918500D7
:101190002CE98434920740F3EACFFF91EF91BF919D
:1011A000AF919F918F917F916F915F914F913F91FF
:1011B0002F910F900FBE0F901F901895FC018091FA
:1011C000CD018C3090F480838F5F8093CD0180813E
:1011D00090E0FC01EE0FFF1FE80FF91FE253FE4FF6
:1011E00088EB9BE09283818308958FEF808308953D
:1011F000FC0120812C3078F54181552747FD509521
:1012000088E890E0841B950B880F991F880F991F21
:101210006817790784F04281552747FD509588E586
:1012200092E0841B950B880F991F880F991F6817F0
:1012300079070CF4CB014FB7F89430E0F901EE0FC9
:10124000FF1FE20FF31FE253FE4F0297880F991F13
:10125000928381834FBF0895AF92BF92CF92DF9266
:10126000EF92FF920F931F93CF93DF93EC0182E0F5
:10127000603278070CF046C077FD04C0653B71050D
:1012800024F405C060E070E002C064EB70E000D0C0
:1012900000D0882777FD8095982F4981552747FDF5
:1012A000509528E830E0241B350B220F331F220F06
:1012B000331F5901CC24B7FCC094DC2C4A8155273C
:1012C00047FD509528E532E0241B350B220F331FD4
:1012D000220F331F442737FD4095542FEDB7FEB73B
:1012E000218332834383548320E030E0A901B4EBAF
:1012F000EB2EF12C012D112D0E94DE120F900F907C
:101300000F900F90CE010E94F808DF91CF911F91AE
:101310000F91FF90EF90DF90CF90BF90AF90089526
:101320002091140230E080911302281B3109C90179
:1013300008958091130290911402891750F4E82FB8
:10134000F0E0ED50FE4F208130E08F5F809313027C
:1013500002C02FEF3FEFC9010895E0911302809181
:101360001402E81730F4F0E0ED50FE4F208130E039
:1013700002C02FEF3FEFC90108950895CF92DF9289
:10138000EF92FF920F931F93CF93DF936C01CB01EA
:10139000EA01209138022223B1F0E62EF92E00E076
:1013A00010E00DC0D7016D917D01D601ED91FC914A
:1013B0000190F081E02DC60109950F5F1F4F0C17BA
:1013C0001D0780F303C0642F0E94FE0ACE01DF9147
:1013D000CF911F910F91FF90EF90DF90CF900895E4
:1013E000DF93CF930F92CDB7DEB769832091380298
:1013F0002223D1F020913702203240F021E030E06A
:10140000FC013383228320E030E015C08091360256
:10141000E82FF0E0EA5EFD4F998190838F5F809323
:1014200036028093370205C0CE01019661E00E942A
:10143000FE0A21E030E0C9010F90CF91DF910895BD
:101440001092130210921402109236021092370278
:101450000E946F0A0895862F413208F040E263EF40
:1014600071E00E94880A109213028093140208957A
:101470000E942B0A089581E0809338026093150240
:10148000109236021092370208950E943B0A089586
:101490008091150266E172E04091370221E00E94DE
:1014A000BE0A109236021092370210923802089546
:1014B00010923C0210923B0288EE93E0A0E0B0E074
:1014C00080933D0290933E02A0933F02B09340026E
:1014D00083E791E090933A02809339020895109245
:1014E000690282E161E00E94161083E161E00E94DE
:1014F0001610E9EBF0E080818E7F808380818D7F04
:10150000808388E48093B80085E48093BC000895CC
:10151000413288F5909169029923E1F791E0909327
:1015200069029FEF9093680210924602942F9150A7
:1015300090934702880F81608093450285EE8093E7
:10154000BC00809169028130E1F3809146028417EA
:1015500010F440914602E8E4F2E0262F372FD9013B
:10156000242F30E02E0F3F1F02C081918D93E21790
:10157000F307D9F701C040E0842F08954132B0F558
:10158000909169029923E1F792E0909369029FEFAD
:10159000909368021092460240934702DB01E8E410
:1015A000F2E050E04E0F5F1F02C09D919193E4174F
:1015B000F507D9F790E0880F991F8093450285EED3
:1015C0008093BC00222321F0809169028230E1F3F4
:1015D000809168028F3F61F080916802803251F003
:1015E00080916802803341F483E0089581E008959A
:1015F00080E0089582E0089584E008956132A0F4C7
:1016000020916902243091F460938E02DC01E1E9BB
:10161000F2E070E06E0F7F1F02C08D918193E6179C
:10162000F707D9F780E0089581E0089582E00895F2
:10163000882311F085EC01C085E88093BC000895F3
:1016400085ED8093BC008091BC0084FDFCCF10929E
:101650006902089585EC8093BC0010926902089598
:101660001F920F920FB60F9211242F933F934F9317
:101670005F936F937F938F939F93AF93BF93EF93FA
:10168000FF938091B90090E0887F9070803691053B
:1016900009F4C2C081369105E4F58832910509F458
:1016A0007EC089329105C4F48031910509F472C07D
:1016B0008131910544F4009709F413C188309105F4
:1016C00009F013C167C08831910509F468C0803200
:1016D000910509F00AC178C08034910509F48AC0E7
:1016E000813491054CF48033910509F46FC088333F
:1016F000910509F0FAC06EC08035910509F46EC0FD
:101700008835910509F47BC08834910509F0EDC056
:10171000EAC08839910509F4DAC089399105ECF4F9
:101720008837910509F478C0893791054CF48836DB
:10173000910509F471C08037910509F0D6C06CC0DD
:101740008838910509F4C3C08039910509F46AC04D
:101750008038910509F0C9C065C0803B910509F446
:101760008EC0813B91054CF4803A910509F46CC020
:10177000883A910509F0B9C082C0803C910509F40E
:10178000AAC0883C910509F4A6C0883B910509F0E0
:10179000ACC08AC0809145028093BB0013C0909179
:1017A000460280914702981708F09DC0809146023A
:1017B000E82FF0E0E85BFD4F90819093BB008F5FD6
:1017C0008093460281E084C080E201C080E3809380
:1017D000680289C088E3809368024EC08091460207
:1017E0009091BB00E82FF0E0E85BFD4F90838F5FA6
:1017F00080934602909146028091470265C0809195
:1018000046029091BB00E82FF0E0E85BFD4F90832B
:101810008F5F8093460267C083E0809369021092D5
:101820006A02D0CF80916A02803208F050C0809165
:101830006A029091BB00E82FF0E0E559FD4F9083DC
:101840008F5F80936A02BECF80916A02803230F44B
:10185000E0916A02F0E0E559FD4F10820E94200BF2
:1018600060916A02E0918B02F0918C028BE692E02B
:1018700070E0099510926A020E942A0B36C084E03B
:101880008093690210928D0210928E02E0918F0275
:10189000F0919002099580918E02882329F481E0CD
:1018A00080938E021092910280918D02E82FF0E0D9
:1018B000EF56FD4F90819093BB008F5F80938D0218
:1018C00090918D0280918E02981708F47BCF80E072
:1018D0000E94180B0AC081E00E94180B1092690246
:1018E00004C0109268020E94200BFF91EF91BF91FB
:1018F000AF919F918F917F916F915F914F913F91A8
:101900002F910F900FBE0F901F90189520E030E0A0
:1019100040E85FE3FC0120833183428353830895D1
:10192000EF92FF921F93DF93CF930F92CDB7DEB765
:10193000162F89E3E82E82E0F82EC7016EE170E0F1
:1019400049830E94450AC701612F0E94F009C7011F
:101950004981642F0E94F009C7010E94480A0F9034
:10196000CF91DF911F91FF90EF900895462F62E095
:1019700070E050E00E94900C0895EF92FF920F9358
:101980001F93CF93DF93EC017A018B01CB01BA0156
:101990002EEA37E441E65FE30E94EE13882351F418
:1019A00088E491EEAAE3BFE388839983AA83BB838B
:1019B00040E08FC0C801B70126E636E646EA5FE39D
:1019C0000E94EE13882351F48FE195E8ABE6BFE364
:1019D00088839983AA83BB8341E07BC0C801B70198
:1019E00023E333E343EF5FE30E94EE13882351F4D4
:1019F00086EF98E2ACE9BFE388839983AA83BB832F
:101A000042E067C0C801B70120E030E040E250E4A6
:101A10000E94EE13882351F48CE59FE8A2ECBFE30B
:101A200088839983AA83BB8343E053C0C801B7016D
:101A300020E030E040E850E40E94EE13882351F4A7
:101A40008EEA97E4A1E1B0E488839983AA83BB83FB
:101A500044E03FC0C801B70126E636E646E950E457
:101A60000E94EE13882351F48AE097EDA3E2B0E4DC
:101A700088839983AA83BB8345E02BC0C801B70143
:101A800023E333E343EB50E40E94EE13882351F445
:101A900085E89BEEA1E4B0E488839983AA83BB83A5
:101AA00046E017C0C801B7012AE939E941E051E42D
:101AB0000E94EE13882351F483E393E3ABE8B0E490
:101AC00088839983AA83BB8347E003C081E090E0C9
:101AD00009C04295440F407ECE0161E070E050E0C5
:101AE0000E94900CDF91CF911F910F91FF90EF908A
:101AF00008959F92AF92BF92CF92DF92EF92FF92A2
:101B00000F931F93DF93CF93CDB7DEB7E62E8A01F5
:101B1000ADB6BEB689E392E06EE170E00E94450A80
:101B200089E392E06E2D0E94F00989E392E00E9421
:101B3000480A89E392E06EE170E00E94450A89E379
:101B400092E06EE170E0A8010E94380A8DB79EB75E
:101B5000801B910B0FB6F8949EBF0FBE8DBFCDB604
:101B6000DEB60894C11CD11C89E392E00E94900962
:101B70007C018017910781F4992409C089E392E0E0
:101B80000E949909F601E00FF11F80839394092DBB
:101B900010E00E151F0594F389E392E00E94480AB5
:101BA000C6010FB6F894BEBE0FBEADBECF91DF9199
:101BB0001F910F91FF90EF90DF90CF90BF90AF906B
:101BC0009F900895DF93CF9300D000D000D0CDB781
:101BD000DEB763E070E046E050E00E94790DFC0162
:101BE000928180E0638170E0682B792B948180E0A2
:101BF000458150E0482B592B218130E0908180E0D5
:101C0000282B392B3A8329835C834B837E836D8316
:101C10003A815C817E8190E026960FB6F894DEBF13
:101C20000FBECDBFCF91DF9108958F929F92AF925B
:101C3000BF92CF92DF92EF92FF920F931F93DF93A9
:101C4000CF93CDB7DEB72C970FB6F894DEBF0FBE9B
:101C5000CDBF8C016B01CB010E94E20D2F83388731
:101C600049875A876B877C87DE011196FE0137967C
:101C700086E001900D928150E1F78B809C80AD80D1
:101C8000BE80F601C080D180E280F38069817A81D4
:101C9000882777FD8095982F0E948D14A7019601C3
:101CA0000E946915F8016083718382839383B50173
:101CB000882777FD8095982F0E948D14A7019601A3
:101CC0000E946915F8016087718782879387B40144
:101CD000882777FD8095982F0E948D14A701960183
:101CE0000E946915F8016483758386839783C80110
:101CF0002C960FB6F894DEBF0FBECDBFCF91DF910B
:101D00001F910F91FF90EF90DF90CF90BF90AF9019
:101D10009F908F9008956130710519F420E031E0B3
:101D200002C02DE531E0C90108951F93CF93DF93E1
:101D3000182FEB0161E00E94F20F209709F44AC0CE
:101D4000CF3FD10509F449C0E12FF0E0E552FF4F44
:101D5000E491E330C1F0E43028F4E13051F0E230B6
:101D6000B1F50CC0E63019F1E73049F1E43079F50E
:101D700014C084B5806884BDC7BD33C084B580629B
:101D800084BDC8BD2EC08091800080688093800093
:101D9000D0938900C093880024C080918000806225
:101DA00080938000D0938B00C0938A001AC08091EA
:101DB000B00080688093B000C093B30012C08091DF
:101DC000B00080628093B000C093B4000AC0C038F5
:101DD000D1051CF4812F60E002C0812F61E00E94D8
:101DE0001610DF91CF911F9108951F920F920FB699
:101DF0000F9211242F933F938F939F93AF93BF9391
:101E00008091B5029091B602A091B702B091B8024C
:101E10003091B9020196A11DB11D232F2D5F2D37E1
:101E200020F02D570196A11DB11D2093B90280937A
:101E3000B5029093B602A093B702B093B802809116
:101E4000B1029091B202A091B302B091B402019696
:101E5000A11DB11D8093B1029093B202A093B30271
:101E6000B093B402BF91AF919F918F913F912F9109
:101E70000F900FBE0F901F9018959FB7F894209168
:101E8000B1023091B2024091B3025091B40286B5D2
:101E9000A89B06C08F3F21F02F5F3F4F4F4F5F4FF2
:101EA0009FBF542F432F322F2227280F311D411D52
:101EB000511D82E0220F331F441F551F8A95D1F711
:101EC000B901CA010895EF92FF920F931F93CF9328
:101ED000DF937B018C010E943D0FEB010FC00E943C
:101EE0003D0F6C1B7D0B83E0683E780738F008944B
:101EF000E108F10801091109C851DC4FE114F104AE
:101F00000105110561F7DF91CF911F910F91FF90AE
:101F1000EF900895789484B5826084BD84B5816023
:101F200084BD85B5826085BD85B5816085BDEEE6E1
:101F3000F0E0808181608083E1E8F0E010828081C0
:101F400082608083808181608083E0E8F0E080812E
:101F500081608083E1EBF0E0808184608083E0EB4E
:101F6000F0E0808181608083EAE7F0E08081846036
:101F70008083808182608083808181608083808192
:101F8000806880831092C1000895833071F084309E
:101F900028F48130A1F0823021F514C08630B1F0F0
:101FA0008730D1F08430E9F404C0809180008F77CD
:101FB00003C0809180008F7D80938000089584B558
:101FC0008F7702C084B58F7D84BD08958091B00065
:101FD0008F778093B00008958091B0008F7D8093BB
:101FE000B000089590E0FC01E953FF4F2491FC01FB
:101FF000ED54FF4FE491EE23C1F0F0E0EE0FFF1F30
:10200000EB56FF4F85919491DC01662341F49FB715
:10201000F8948C91209582238C939FBF08959FB74D
:10202000F8948C91822B8C939FBF08950F931F93EC
:10203000DF93CF930F92CDB7DEB7282F30E0F901B1
:10204000E552FF4F8491F901E953FF4F14912D544C
:102050003F4FF90104910023D9F0882321F06983CF
:102060000E94C50F6981E02FF0E0EE0FFF1FE156DF
:10207000FF4F85919491DC019FB7F894662321F47A
:102080008C911095812302C08C91812B8C939FBFE2
:102090000F90CF91DF911F910F9108950F931F9390
:1020A000282F30E0F901E552FF4F8491F901E953FF
:1020B000FF4F04912D543F4FF9011491112391F0DA
:1020C000882311F00E94C50FE12FF0E0EE0FFF1FF3
:1020D000E755FF4F85919491DC018C91802321E09D
:1020E00030E011F420E030E0C9011F910F91089514
:1020F000FC0184859585FC01E05CFF4F20813181E6
:102100008E5B9F4FFC0180819181281B390B2F73BF
:102110003070C9010895FC0184859585FC01E05C5F
:10212000FF4F40815181FC01EE5BFF4F20813181E7
:102130004217530741F00190F081E02DE80FF91F9D
:10214000208130E002C02FEF3FEFC9010895FC016C
:1021500084859585FC01E05CFF4F40815181FC0145
:10216000EE5BFF4F208131814217530771F0A08150
:10217000B181A80FB91F2C918081918101968F7335
:1021800090709183808330E002C02FEF3FEFC90150
:102190000895DC011E968D919C911F97FC01E05CD7
:1021A000FF4F8E5B9F4F40815181DC012D913C910F
:1021B000119742175307B9F708951F93FC01162F83
:1021C00026853785D901A05CBF4F8D919C910196E2
:1021D00060E470E00E94EE15D901AE5BBF4F4D91F7
:1021E0005C91119784179507D1F3D901A05CBF4F7B
:1021F0000D90BC91A02DA20FB31F1C93A685B7858F
:10220000A05CBF4F11969C938E93A689B7892C91A1
:1022100081E090E0058C02C0880F991F0A94E2F7D4
:10222000282B2C9381E090E01F910895FB01E05C46
:10223000FF4F208131812F5F3F4F2F733070DB01C3
:10224000AE5BBF4F4D915C9111972417350739F064
:10225000A081B181A60FB71F8C933183208308958D
:1022600008951F920F920FB60F9211242F933F9350
:102270004F935F936F937F938F939F93AF93BF938E
:10228000EF93FF938091C6006AEB72E00E941611F3
:10229000FF91EF91BF91AF919F918F917F916F913E
:1022A0005F914F913F912F910F900FBE0F901F9014
:1022B000189582E493E00E947810009711F00E9434
:1022C000301108951F920F920FB60F9211242F9381
:1022D0003F935F936F937F938F939F93AF93BF933E
:1022E000EF93FF9320913E0330913F038091400391
:1022F000909141032817390731F48091C1008F7DF7
:102300008093C10016C0E0914003F0914103E25078
:10231000FD4F20818091400390914103019660E43C
:1023200070E00E94EE159093410380934003209348
:10233000C600FF91EF91BF91AF919F918F917F91D7
:102340006F915F913F912F910F900FBE0F901F9053
:102350001895DF92EF92FF920F931F93CF93DF9325
:10236000EC017A018B01DD24D394403081EE5807D3
:1023700080E0680780E0780749F4DD24EC89FD8976
:10238000108260E874E88EE190E00FC0EC89FD896E
:1023900081E090E00E8C02C0880F991F0A94E2F74A
:1023A000808360E079E08DE390E0A80197010E94CE
:1023B0000116215030404040504056954795379582
:1023C000279580E12030380710F0DD20B1F6E8894C
:1023D000F9893083EA89FB892083EE89FF8940816E
:1023E00081E090E09C010A8C02C0220F331F0A9406
:1023F000E2F7422B4083EE89FF8940819C010B8CE0
:1024000002C0220F331F0A94E2F7422B4083EE8969
:10241000FF8940819C010C8C02C0220F331F0A945B
:10242000E2F7422B4083EE89FF8920810D8C02C0A8
:10243000880F991F0A94E2F7809582238083DF91A9
:10244000CF911F910F91FF90EF90DF900895109220
:1024500045031092440388EE93E0A0E0B0E080933F
:10246000460390934703A0934803B0934903E4E4E1
:10247000F3E083E891E0929382938AEB92E0958770
:1024800084878EEF92E09787868785EC90E0918B2A
:10249000808B84EC90E0938B828B80EC90E0958B2A
:1024A000848B81EC90E0978B868B86EC90E0918F0B
:1024B000808F84E0828F83E0838F87E0848F85E044
:1024C000858F81E0868F0895CF93DF930E948A0FD6
:1024D0000E942305C9E5D1E10E9452072097E1F34C
:1024E0000E945911F9CFCF92DF92EF92FF920F9392
:1024F0001F93CF93DF936C017B018A01C0E0D0E092
:102500000FC0D7016D917D01D601ED91FC91019035
:10251000F081E02DC6010995C80FD91F0150104068
:102520000115110571F7CE01DF91CF911F910F9128
:10253000FF90EF90DF90CF900895DB010D90002089
:10254000E9F7AD0141505040461B570BDC01ED91BE
:10255000FC910280F381E02D09950895DC01ED9155
:10256000FC910190F081E02D099508950F931F9340
:10257000CF93DF93EC016DE00E94AE128C01CE018F
:102580006AE00E94AE12080F191FC801DF91CF91B7
:102590001F910F9108950F931F93CF93DF93EC0139
:1025A0000E949D128C01CE010E94B612080F191FC5
:1025B000C801DF91CF911F910F9108952F923F9203
:1025C0004F925F926F927F928F929F92AF92BF9243
:1025D000CF92DF92EF92FF920F931F93DF93CF93EF
:1025E000CDB7DEB73B014C0119012A016D897E8907
:1025F0008F89988D6A197B098C099D09621A730A63
:10260000840A950AA40193010E94CF15E218F308E9
:1026100004091509A80197010E9423162A0D3B1DE4
:102620004C1D5D1DB901CA01CF91DF911F910F9122
:10263000FF90EF90DF90CF90BF90AF909F908F90E2
:102640007F906F905F904F903F902F9008955058DB
:10265000BB27AA270ED0FCC1EDD130F0F2D120F07B
:1026600031F49F3F11F41EF4BDC10EF4E095E7FB79
:10267000B3C1E92FFED180F3BA176207730784074D
:10268000950718F071F49EF516C20EF4E0950B2E26
:10269000BA2FA02D0B01B90190010C01CA01A001B4
:1026A0001124FF27591B99F0593F50F4503E68F10F
:1026B0001A16F040A22F232F342F4427585FF3CF50
:1026C000469537952795A795F0405395C9F77EF421
:1026D0001F16BA0B620B730B840BBAF09150A1F06A
:1026E000FF0FBB1F661F771F881FC2F70EC0BA0FF0
:1026F000621F731F841F48F4879577956795B79578
:10270000F7959E3F08F0B3CF9395880F08F099276F
:10271000EE0F9795879508958DD158F080E891E058
:1027200009F49EEF8ED128F040E851E059F45EEFB5
:1027300009C058C1C0C1E92FE0789BD168F3092EC8
:10274000052AC1F3261737074807590738F00E2E18
:1027500007F8E02569F0E025E0640AC0EF6307F8B8
:10276000009407FADB01B9019D01DC01CA01AD014A
:10277000EF9347D06DD10AD05F91552331F02BED07
:102780003FE049E450FD49EC63CF0895DF93DD2736
:10279000B92FBF7740E85FE31616170648075B07B7
:1027A00010F4D92F8FD19F938F937F936F93F4D190
:1027B000E8E6F0E01AD14CD12F913F914F915F9113
:1027C00094D1DD2349F09058A2EA2AED3FE049EC8C
:1027D0005FE3D0785D274DDFDF913AC1D9D008F4AF
:1027E00081E008950CD034C12CD140F023D130F0D9
:1027F00021F45F3F19F0F0C051115EC1F3C039D12F
:1028000098F39923C9F35523B1F3951B550BBB27B7
:10281000AA2762177307840738F09F5F5F4F220F64
:10282000331F441FAA1FA9F333D00E2E3AF0E0E85D
:1028300030D091505040E695001CCAF729D0FE2FA9
:1028400027D0660F771F881FBB1F2617370748073B
:10285000AB07B0E809F0BB0B802DBF01FF279358F1
:102860005F4F2AF09E3F510568F0B6C025C15F3F1B
:10287000ECF3983EDCF3869577956795B795F795D9
:102880009F5FC9F7880F911D9695879597F90895D1
:10289000E1E0660F771F881FBB1F6217730784076D
:1028A000BA0720F0621B730B840BBA0BEE1F88F77C
:1028B000E095089504D06894B111FEC00895E1D068
:1028C00088F09F5790F0B92F9927B751A0F0D1F019
:1028D000660F771F881F991F1AF0BA95C9F712C0A3
:1028E000B13081F0E8D0B1E00895E5C0672F782FCE
:1028F0008827B85F39F0B93FCCF38695779567950F
:10290000B395D9F73EF490958095709561957F4F7A
:102910008F4F9F4F0895E89409C097FB3EF4909520
:102920008095709561957F4F8F4F9F4F9923A9F0A8
:10293000F92F96E9BB279395F69587957795679537
:10294000B795F111F8CFFAF4BB0F11F460FF1BC07B
:102950006F5F7F4F8F4F9F4F16C0882311F096E90E
:1029600011C0772321F09EE8872F762F05C06623BC
:1029700071F096E8862F70E060E02AF09A95660F75
:10298000771F881FDAF7880F9695879597F908952E
:10299000990F0008550FAA0BE0E8FEEF1616170670
:1029A000E807F907C0F012161306E407F50798F0D8
:1029B000621B730B840B950B39F40A2661F0232BF1
:1029C000242B252B21F408950A2609F4A140A6956D
:1029D0008FEF811D811D089597F99F6780E870E052
:1029E00060E008959FEF80EC0895DF93CF931F93ED
:1029F0000F93FF92EF92DF927B018C01689405C0E8
:102A0000DA2EEF0172D0FE01E894A591259135915F
:102A100045915591AEF3EF012CDEFE019701A8011F
:102A2000DA9479F7DF90EF90FF900F911F91CF919B
:102A3000DF91089500240A94161617061806090651
:102A4000089500240A941216130614060506089524
:102A5000092E0394000C11F4882352F0BB0F40F4AC
:102A6000BF2B11F460FF04C06F5F7F4F8F4F9F4FEC
:102A7000089557FD9058440F551F59F05F3F71F06E
:102A80004795880F97FB991F61F09F3F79F08795D5
:102A90000895121613061406551FF2CF4695F1DF5E
:102AA00008C0161617061806991FF1CF86957105EE
:102AB000610508940895E894BB2766277727CB0122
:102AC00097F908959B01AC0160E070E080E89FE316
:102AD00089CE0BD0BDCFAEDF28F0B3DF18F0952341
:102AE00009F07ACF7FCF1124E7CFC3DFA0F3959F02
:102AF000D1F3950F50E0551F629FF001729FBB27E5
:102B0000F00DB11D639FAA27F00DB11DAA1F649F90
:102B10006627B00DA11D661F829F2227B00DA11D43
:102B2000621F739FB00DA11D621F839FA00D611DC9
:102B3000221F749F3327A00D611D231F849F600DEA
:102B4000211D822F762F6A2F11249F5750408AF023
:102B5000E1F088234AF0EE0FFF1FBB1F661F771FAF
:102B6000881F91505040A9F79E3F510570F034CF17
:102B7000A3CF5F3FECF3983EDCF38695779567959E
:102B8000B795F795E7959F5FC1F7FE2B880F911DCD
:102B90009695879597F908959B01AC019ACF629F0E
:102BA000D001739FF001829FE00DF11D649FE00D45
:102BB000F11D929FF00D839FF00D749FF00D659FA6
:102BC000F00D9927729FB00DE11DF91F639FB00DA5
:102BD000E11DF91FBD01CF011124089597FB092EB6
:102BE00007260AD077FD04D049D006D000201AF479
:102BF000709561957F4F0895F6F7909581959F4F59
:102C00000895A1E21A2EAA1BBB1BFD010DC0AA1F2D
:102C1000BB1FEE1FFF1FA217B307E407F50720F045
:102C2000A21BB30BE40BF50B661F771F881F991FC0
:102C30001A9469F760957095809590959B01AC0109
:102C4000BD01CF01089597FB092E05260ED057FD33
:102C500004D0D7DF0AD0001C38F450954095309549
:102C600021953F4F4F4F5F4F0895F6F79095809510
:102C7000709561957F4F8F4F9F4F0895AA1BBB1B87
:102C800051E107C0AA1FBB1FA617B70710F0A61B6C
:102C9000B70B881F991F5A95A9F780959095BC018D
:102CA000CD010895EE0FFF1F0590F491E02D0994DA
:042CB000F894FFCFC6
:102CB400456E7465726564207363616C6520776129
:102CC40073206E6F742076616C69642C2076616C5D
:102CD40069642067617573732076616C7565732010
:102CE4006172653A20302E38382C20312E332C2056
:102CF400312E392C20322E352C20342E302C2034F9
:102D04002E372C20352E362C20382E310045727269
:102D14006F72206E6F7420646566696E656400006E
:102D2400000000F009BE0990099909AD09BD090028
:102D3400000000DD1073127810A7108B10C910006A
:00000001FF
