:100000000C947B000C94A3000C94A3000C94A3000C
:100010000C94A3000C94A3000C94A3000C94060170
:100020000C94A3000C94A3000C94A3000C94E7067A
:100030000C94A3000C94A3000C94A3000C94A300B4
:100040000C94BC0D0C94AD000C94F80F0C9429107A
:100050000C94A3000C94A3000C94A3000C94A30094
:100060000C94F7090C94A300084AD73B3BCE016ED1
:1000700084BCBFFDC12F3D6C74319ABD56833DDAFF
:100080003D00C77F11BED9E4BB4C3E916BAAAABE0E
:10009000000000803F00000000240027002A00002C
:1000A000000000250028002B00000000002300268F
:1000B00000290004040404040404040202020202ED
:1000C000020303030303030102040810204080011C
:1000D000020408102001020408102000000007009C
:1000E0000201000003040600000000000000000000
:1000F000DA061F09EE1011241FBECFEFD8E0DEBFD5
:10010000CDBF11E0A0E0B1E0E2E4FAE202C0059068
:100110000D92A039B107D9F713E0A0E9B1E001C011
:100120001D92A436B107E1F710E0C6EFD0E004C09D
:100130002297FE010E941B15C03FD107C9F70E94FC
:100140002B110C941F150C9400008CB580688CBD8D
:1001500008958CB58F778CBD08951F920F920FB6BE
:100160000F9211242F933F938F939F93EF93FF93BD
:100170008091CF019EB5E82FF0E0EB55FE4F9083C4
:100180008F5F8093CF018091A9018130A1F580918B
:10019000AA01813081F58091AB01813061F58091B8
:1001A000AC01813041F51092CF018091A50180937F
:1001B000CA013091A60120E08091A70190E0822B36
:1001C000932B9093CC018093CB018091A8018093D5
:1001D000CD011092CE011092A5011092A6011092AD
:1001E000A7011092A8011092A9011092AA011092E1
:1001F000AB011092AC01FF91EF919F918F913F91D4
:100200002F910F900FBE0F901F9018951F920F9275
:100210000FB60F9211248F939F938091C1019091FB
:10022000C20101969093C2018093C1018536910568
:1002300020F01092C2011092C1019F918F910F90F6
:100240000FBE0F901F9018951092CA011092AD0129
:100250001092AE011092AF011092B0011092B10154
:100260001092B2011092B3011092B40185E060E0E7
:1002700070E00E945C0D86E060E070E00E945C0D22
:1002800080E00895682F813A18F4833018F003C095
:1002900060EA01C063E084EC91E070E00E94F30743
:1002A0001092CA011092AD011092AE011092AF01EE
:1002B0001092B0011092B1011092B2011092B301EC
:1002C0001092B4010895682F853108F064E187EC3D
:1002D00091E070E00E94F3071092CA011092AD0104
:1002E0001092AE011092AF011092B0011092B101C4
:1002F0001092B2011092B3011092B401089582E0FD
:100300000E94150F2091B50130E082179307C1F0CC
:1003100082E00E94150F8093B5018091AD0190910C
:10032000AE01A091AF01B091B001C796A11DB11D62
:100330008093AD019093AE01A093AF01B093B00153
:1003400084E00E94150F2091B60130E082179307D8
:10035000C1F084E00E94150F8093B6018091B10135
:100360009091B201A091B301B091B401C796A11DC3
:10037000B11D8093B1019093B201A093B301B093EA
:10038000B40108950F931F93DF93CF9300D00F9282
:10039000CDB7DEB769838A839B830E947F018A8100
:1003A000282F9B81392FC901880F991F43E0220F05
:1003B000331F4A95E1F7820F931FA0E0B0E0209130
:1003C000AD013091AE014091AF015091B001698112
:1003D000281739074A075B0710F52091B1013091C2
:1003E000B2014091B3015091B401281739074A076F
:1003F0005B07A8F4062F10E0B8016A50704085E052
:100400000E945C0D86E0B8010E945C0D87E060E010
:100410000E94DD0E88E060E00E94DD0E1CC085E0D9
:1004200060E070E00E945C0D86E060E070E00E9499
:100430005C0D1092CA011092AD011092AE011092A3
:10044000AF011092B0011092B1011092B20110925E
:10045000B3011092B40160E070E0CB010F900F90F7
:100460000F90CF91DF911F910F9108950F931F93DC
:10047000DF93CF9300D00F92CDB7DEB769838A8325
:100480009B830E947F018A81282F9B81392FC9017C
:10049000880F991F63E0220F331F6A95E1F7820FDF
:1004A000931FA0E0B0E02091AD013091AE014091EA
:1004B000AF015091B0016981281739074A075B07DE
:1004C00010F52091B1013091B2014091B3015091EA
:1004D000B401281739074A075B07A8F4062F10E074
:1004E000B8016A50704085E00E945C0D86E0B8015A
:1004F0000E945C0D87E061E00E94DD0E88E061E013
:100500000E94DD0E1CC085E060E070E00E945C0D82
:1005100086E060E070E00E945C0D1092CA011092CB
:10052000AD011092AE011092AF011092B001109285
:10053000B1011092B2011092B3011092B40160E0C7
:1005400070E0CB010F900F900F90CF91DF911F9132
:100550000F91089582E00E94150F2091B50130E0BF
:1005600082179307C1F082E00E94150F8093B501B6
:100570008091AD019091AE01A091AF01B091B00119
:100580000596A11DB11D8093AD019093AE01A0937E
:10059000AF01B093B00184E00E94150F2091B60125
:1005A00030E082179307C1F084E00E94150F80931A
:1005B000B6018091B1019091B201A091B301B091C7
:1005C000B4010596A11DB11D8093B1019093B201B4
:1005D000A093B301B093B4010895DF92EF92FF921C
:1005E0000F931F937B018C01D42E0E94AA0280914D
:1005F000AD019091AE01A091AF01B091B0018E1507
:100600009F05A007B10700F58091B1019091B2015B
:10061000A091B301B091B4018E159F05A007B10759
:1006200098F485E06D2D70E00E945C0D86E06D2DE4
:1006300070E00E945C0D87E060E00E94DD0E88E0C3
:1006400061E00E94DD0E40C087E061E00E94DD0EA7
:1006500088E060E00E94DD0E83EDE816F1040105FC
:10066000110528F062E870E080E090E00FC089E1B9
:10067000E816F1040105110528F46FE070E080E050
:1006800090E004C068EC70E080E090E00E942A0EE8
:1006900085E060E070E00E945C0D86E060E070E064
:1006A0000E945C0D1092CA011092AD011092AE0131
:1006B0001092AF011092B0011092B1011092B201EC
:1006C0001092B3011092B40160E070E0CB011F9171
:1006D0000F91FF90EF90DF900895DF92EF92FF92DD
:1006E0000F931F937B018C01D42E0E94AA0280914C
:1006F000AD019091AE01A091AF01B091B0018E1506
:100700009F05A007B10700F58091B1019091B2015A
:10071000A091B301B091B4018E159F05A007B10758
:1007200098F485E06D2D70E00E945C0D86E06D2DE3
:1007300070E00E945C0D87E061E00E94DD0E88E0C1
:1007400060E00E94DD0E40C087E060E00E94DD0EA8
:1007500088E061E00E94DD0E83EDE816F1040105FA
:10076000110528F062E870E080E090E00FC089E1B8
:10077000E816F1040105110528F46FE070E080E04F
:1007800090E004C068EC70E080E090E00E942A0EE7
:1007900085E060E070E00E945C0D86E060E070E063
:1007A0000E945C0D1092CA011092AD011092AE0130
:1007B0001092AF011092B0011092B1011092B201EB
:1007C0001092B3011092B40160E070E0CB011F9170
:1007D0000F91FF90EF90DF90089582E00E94150F37
:1007E0002091BF0130E082179307C1F082E00E94A0
:1007F000150F8093BF018091B7019091B801A0912E
:10080000B901B091BA010196A11DB11D8093B70144
:100810009093B801A093B901B093BA0184E00E940B
:10082000150F2091C00130E082179307C1F084E0DA
:100830000E94150F8093C0018091BB019091BC0173
:10084000A091BD01B091BE010196A11DB11D809383
:10085000BB019093BC01A093BD01B093BE0108956C
:1008600080E991E04EEA57E461E67FE30E94840B61
:10087000BC01009749F080E991E00E94520DBC0153
:1008800085E493E00E94921180E991E060E00E948B
:100890007D0BBC01009749F080E991E00E94520D68
:1008A000BC0185E493E00E9492110895DF93CF93F9
:1008B00000D000D0CDB7DEB7F8948AE08093B300C3
:1008C000E0EBF0E080818260808382E080937000C2
:1008D000E1EBF0E0808184608083789485E493E0AC
:1008E00040E052EC61E070E00E9470108CE392E016
:1008F0000E94E708CE0101960E944D0B89819A81E2
:10090000AB81BC818093900190939101A09392015F
:10091000B09393010E9430048EE091E09093970190
:1009200080939601109299011092980110929A0169
:1009300010929B0110929C0181E080939D0184E0C4
:1009400090E090939F0180939E0187E090E09093C8
:10095000A1018093A00188E28093A2018CE061E074
:100960000E94B90E8CB580648CBD1092AB011092C0
:10097000AC010E94A50085E061E00E94B90E86E00E
:1009800061E00E94B90E87E061E00E94B90E88E044
:1009900061E00E94B90E81E061E00E94B90E82E040
:1009A00060E00E94B90E84E060E00E94B90E85E02C
:1009B00061E00E94DD0E86E061E00E94DD0E87E0CE
:1009C00061E00E94DD0E88E061E00E94DD0E85E0BE
:1009D00060E070E00E945C0D86E060E070E00E94E4
:1009E0005C0D1092AD011092AE011092AF01109209
:1009F000B0011092B1011092B2011092B3011092A5
:100A0000B4011092B5011092B6011092B701109284
:100A1000B8011092B9011092BA011092BB01109264
:100A2000BC011092BD011092BE011092BF01109244
:100A3000C0011EBC1092C3011092A4011092A30128
:100A40001092C2011092C1011092CA011092CC0101
:100A50001092CB011092CE011092CD011092CF01D5
:100A60001092A5011092A6011092A7011092A80160
:100A70001092A9011092AA011092AB011092AC0140
:100A80000F900F900F900F90CF91DF910895DF930B
:100A9000CF93CDB7DEB72C970FB6F894DEBF0FBE5D
:100AA000CDBFCE01019660E971E00E94DC0C6D8142
:100AB0007E818F81988520E030E040EF52E40E94F3
:100AC000EF1129813A814B815C810E94621221EEF3
:100AD0003EE245E652E40E9430140E94211377FF63
:100AE00003C068597E4F06C081E06936780714F06C
:100AF00068567140CB012C960FB6F894DEBF0FBE3E
:100B0000CDBFCF91DF9108959C016817790710F050
:100B100028593E4F261B370BC9010895680F791FCE
:100B200081E06836780710F068567140CB0108956F
:100B30009C016817790710F028593E4F261B370B88
:100B4000C9010895CF92DF92EF92FF920F931F9306
:100B5000CF93DF937C018B01EA01CA01860F971FB7
:100B600021E0893692072CF49B01241B350B37FFBB
:100B700010C0C801BE010E948E05E816F90680F07B
:100B8000C801BE010E94980541E08E159F0558F4EA
:100B900007C0E816F90634F441E02E153F051CF4B1
:100BA00040E001C041E0842FDF91CF911F910F9170
:100BB000FF90EF90DF90CF900895EF92FF920F9308
:100BC0001F93CF93DF930E9447058C01809394017C
:100BD00010939501E0909601F090970140919E014D
:100BE00050919F01B7010E94A2058823F1F1C8012D
:100BF000B7010E948405EC01C701B8010E94840579
:100C00002091C1013091C201C817D907B0F4223335
:100C1000310558F160919B0185E070E00E945C0D08
:100C200060919B0186E070E00E945C0D87E061E0CE
:100C30000E94DD0E88E060E015C022333105A8F087
:100C400060919B0185E070E00E945C0D60919B01CA
:100C500086E070E00E945C0D87E060E00E94DD0E9F
:100C600088E061E00E94DD0E0AC085E060E070E08F
:100C70000E945C0D86E060E070E00E945C0DDF91F8
:100C8000CF911F910F91FF90EF9008958091CA012D
:100C90008D3129F40E94A9000E94240182C0813272
:100CA000B1F41EBC1092B7011092B8011092B901B4
:100CB0001092BA011092BB011092BC011092BD01BA
:100CC0001092BE011092BF011092C0016AC0813023
:100CD00059F46091CB017091CC0180E090E040919B
:100CE000CD010E946D035DC0823059F46091CB014B
:100CF0007091CC0180E090E04091CD010E94ED0226
:100D000050C0833049F48091CB019091CC01609127
:100D1000CD010E94360245C0843049F48091CB0158
:100D20009091CC016091CD010E94C2013AC0853002
:100D300029F48091CB010E94630133C0863029F4ED
:100D40008091CB010E9442012CC0873051F1883044
:100D500041F1893031F18A3021F18B3091F4809169
:100D6000CB019091CC019093970180939601809153
:100D7000CD0180939C0180939B0181E080939A0137
:100D800010C08C3071F48091CB019091CC01909384
:100D900097018093960110929C0110929B011092F2
:100DA0009A010E94ED0380919A01882311F00E941C
:100DB000DD05089580E991E00E944D0B84EC91E0FF
:100DC0000E94A50787EC91E00E94A50708951F9255
:100DD0000F920FB60F9211242F933F934F935F936F
:100DE0006F937F938F939F93AF93BF93EF93FF93F3
:100DF0008091F50187FF05C0109285001092840054
:100E00002BC02091F501332727FD30958091D0012B
:100E100090E02817390704F58091F501992787FD9F
:100E20009095FC01EE0FFF1FE80FF91FEF52FE4FE8
:100E3000808186FF11C08091F501992787FD9095EB
:100E4000FC01EE0FFF1FE80FF91FEF52FE4F8081EC
:100E50008F7360E00E94DD0E8091F5018F5F8093BB
:100E6000F5012091F501332727FD30958091D001C0
:100E700090E0281739070CF04EC08091F5018C30B6
:100E80000CF049C080918400909185002091F5017B
:100E9000332727FD3095F901EE0FFF1FE20FF31FF7
:100EA000EF52FE4F21813281820F931F9093890070
:100EB000809388008091F501992787FD9095FC012A
:100EC000EE0FFF1FE80FF91FEF52FE4F808186FFE4
:100ED0002BC08091F501992787FD9095FC01EE0FBD
:100EE000FF1FE80FF91FEF52FE4F80818F7361E003
:100EF0000E94DD0E19C080E49CE905C08091840049
:100F000090918500049690938900809388008FEFDC
:100F10008093F50109C080918400909185002CE9AF
:100F20008434920740F3EACFFF91EF91BF91AF91E4
:100F30009F918F917F916F915F914F913F912F91F1
:100F40000F900FBE0F901F901895FC018091D0015B
:100F50008C3090F480838F5F8093D001808190E00B
:100F6000FC01EE0FFF1FE80FF91FEF52FE4F88EB59
:100F70009BE09283818308958FEF80830895FC0125
:100F800020812C3078F54181552747FD509588E820
:100F900090E0841B950B880F991F880F991F681785
:100FA000790784F04281552747FD509588E592E006
:100FB000841B950B880F991F880F991F6817790755
:100FC0000CF4CB014FB7F89430E0F901EE0FFF1F9E
:100FD000E20FF31FEF52FE4F0297880F991F928383
:100FE00081834FBF0895AF92BF92CF92DF92EF926D
:100FF000FF920F931F93CF93DF93EC0182E0603257
:1010000078070CF046C077FD04C0653B710524F4F9
:1010100005C060E070E002C064EB70E000D000D07A
:10102000882777FD8095982F4981552747FD509552
:1010300028E830E0241B350B220F331F220F331F0B
:101040005901CC24B7FCC094DC2C4A81552747FDBC
:10105000509528E532E0241B350B220F331F220F59
:10106000331F442737FD4095542FEDB7FEB721833A
:1010700032834383548320E030E0A901B4EBEB2EAC
:10108000F12C012D112D0E94A5110F900F900F90A2
:101090000F90CE010E94BF07DF91CF911F910F915A
:1010A000FF90EF90DF90CF90BF90AF900895209188
:1010B000170230E080911602281B3109C9010895FA
:1010C0008091160290911702891750F4E82FF0E0F2
:1010D000EA50FE4F208130E08F5F8093160202C0FD
:1010E0002FEF3FEFC9010895E0911602809117029A
:1010F000E81730F4F0E0EA50FE4F208130E002C003
:101100002FEF3FEFC90108950895CF92DF92EF923C
:10111000FF920F931F93CF93DF936C01CB01EA01F2
:1011200020913B022223B1F0E62EF92E00E010E0E0
:101130000DC0D7016D917D01D601ED91FC9101901B
:10114000F081E02DC60109950F5F1F4F0C171D0799
:1011500080F303C0642F0E94C509CE01DF91CF91B7
:101160001F910F91FF90EF90DF90CF900895DF9344
:10117000CF930F92CDB7DEB7698320913B02222334
:10118000D1F020913A02203240F021E030E0FC0121
:101190003383228320E030E015C080913902E82FAC
:1011A000F0E0E75EFD4F998190838F5F8093390275
:1011B00080933A0205C0CE01019661E00E94C50904
:1011C00021E030E0C9010F90CF91DF910895109296
:1011D0001602109217021092390210923A020E94DF
:1011E00036090895862F413208F040E266EF71E03B
:1011F0000E944F09109216028093170208950E94D0
:10120000F208089581E080933B02609318021092E7
:10121000390210923A0208950E94020908958091BD
:10122000180269E172E040913A0221E00E948509CA
:101230001092390210923A0210923B0208951092D5
:101240003F0210923E0288EE93E0A0E0B0E080936F
:10125000400290934102A0934202B093430283E77D
:1012600091E090933D0280933C02089510926C02AD
:1012700082E161E00E94DD0E83E161E00E94DD0E0B
:10128000E9EBF0E080818E7F808380818D7F808399
:1012900088E48093B80085E48093BC0008954132CF
:1012A00088F590916C029923E1F791E090936C029C
:1012B0009FEF90936B0210924902942F915090935C
:1012C0004A02880F81608093480285EE8093BC00BB
:1012D00080916C028130E1F380914902841710F40F
:1012E00040914902EBE4F2E0262F372FD901242F59
:1012F00030E02E0F3F1F02C081918D93E217F3075C
:10130000D9F701C040E0842F08954132B0F59091A3
:101310006C029923E1F792E090936C029FEF909317
:101320006B021092490240934A02DB01EBE4F2E0C7
:1013300050E04E0F5F1F02C09D919193E417F50797
:10134000D9F790E0880F991F8093480285EE80932B
:10135000BC00222321F080916C028230E1F3809165
:101360006B028F3F61F080916B02803251F080916F
:101370006B02803341F483E0089581E0089580E0BA
:10138000089582E0089584E008956132A0F42091E8
:101390006C02243091F460939102DC01E4E9F2E004
:1013A00070E06E0F7F1F02C08D918193E617F707E3
:1013B000D9F780E0089581E0089582E008958823B8
:1013C00011F085EC01C085E88093BC00089585ED9F
:1013D0008093BC008091BC0084FDFCCF10926C0215
:1013E000089585EC8093BC0010926C0208951F92C2
:1013F0000F920FB60F9211242F933F934F935F9349
:101400006F937F938F939F93AF93BF93EF93FF93CC
:101410008091B90090E0887F90708036910509F442
:10142000C2C081369105E4F58832910509F47EC089
:1014300089329105C4F48031910509F472C081317B
:10144000910544F4009709F413C18830910509F01F
:1014500013C167C08831910509F468C080329105D5
:1014600009F00AC178C08034910509F48AC081343A
:1014700091054CF48033910509F46FC088339105D0
:1014800009F0FAC06EC08035910509F46EC0883548
:10149000910509F47BC08834910509F0EDC0EAC0DC
:1014A0008839910509F4DAC089399105ECF4883757
:1014B000910509F478C0893791054CF48836910577
:1014C00009F471C08037910509F0D6C06CC0883826
:1014D000910509F4C3C08039910509F46AC08038C8
:1014E000910509F0C9C065C0803B910509F48EC023
:1014F000813B91054CF4803A910509F46CC0883A1F
:10150000910509F0B9C082C0803C910509F4AAC0D8
:10151000883C910509F4A6C0883B910509F0ACC050
:101520008AC0809148028093BB0013C09091490209
:1015300080914A02981708F09DC080914902E82FD7
:10154000F0E0E55BFD4F90819093BB008F5F80934F
:10155000490281E084C080E201C080E380936B0295
:1015600089C088E380936B024EC0809149029091BC
:10157000BB00E82FF0E0E55BFD4F90838F5F809329
:1015800049029091490280914A0265C080914902C6
:101590009091BB00E82FF0E0E55BFD4F90838F5FFB
:1015A0008093490267C083E080936C0210926D02C1
:1015B000D0CF80916D02803208F050C080916D02D2
:1015C0009091BB00E82FF0E0E259FD4F90838F5FD0
:1015D00080936D02BECF80916D02803230F4E09135
:1015E0006D02F0E0E259FD4F10820E94E709609120
:1015F0006D02E0918E02F0918F028EE692E070E033
:10160000099510926D020E94F10936C084E0809322
:101610006C021092900210929102E0919202F0916D
:101620009302099580919102882329F481E08093A7
:1016300091021092940280919002E82FF0E0EC5613
:10164000FD4F90819093BB008F5F809390029091AB
:10165000900280919102981708F47BCF80E00E945D
:10166000DF090AC081E00E94DF0910926C0204C009
:1016700010926B020E94E709FF91EF91BF91AF9129
:101680009F918F917F916F915F914F913F912F919A
:101690000F900FBE0F901F90189520E030E040E8AB
:1016A0005FE3FC0120833183428353830895EF92EB
:1016B000FF921F93DF93CF930F92CDB7DEB7162F14
:1016C0008CE3E82E82E0F82EC7016EE170E04983DA
:1016D0000E940C09C701612F0E94B708C701498108
:1016E000642F0E94B708C7010E940F090F90CF9185
:1016F000DF911F91FF90EF900895462F62E070E018
:1017000050E00E94570B0895EF92FF920F931F93A2
:10171000CF93DF93EC017A018B01CB01BA012EEA62
:1017200037E441E65FE30E94B512882351F488E470
:1017300091EEAAE3BFE388839983AA83BB8340E049
:101740008FC0C801B70126E636E646EA5FE30E948D
:10175000B512882351F48FE195E8ABE6BFE38883A7
:101760009983AA83BB8341E07BC0C801B70123E30F
:1017700033E343EF5FE30E94B512882351F486EF11
:1017800098E2ACE9BFE388839983AA83BB8342E0F4
:1017900067C0C801B70120E030E040E250E40E9499
:1017A000B512882351F48CE59FE8A2ECBFE388834F
:1017B0009983AA83BB8343E053C0C801B70120E0EB
:1017C00030E040E850E40E94B512882351F48EEADC
:1017D00097E4A1E1B0E488839983AA83BB8344E0C2
:1017E0003FC0C801B70126E636E646E950E40E944C
:1017F000B512882351F48AE097EDA3E2B0E4888320
:101800009983AA83BB8345E02BC0C801B70123E3BA
:1018100033E343EB50E40E94B512882351F485E88A
:101820009BEEA1E4B0E488839983AA83BB8346E05E
:1018300017C0C801B7012AE939E941E051E40E9423
:10184000B512882351F483E393E3ABE8B0E48883D3
:101850009983AA83BB8347E003C081E090E009C07D
:101860004295440F407ECE0161E070E050E00E945E
:10187000570BDF91CF911F910F91FF90EF9008953B
:101880009F92AF92BF92CF92DF92EF92FF920F930F
:101890001F93DF93CF93CDB7DEB7E62E8A01ADB6A7
:1018A000BEB68CE392E06EE170E00E940C098CE31E
:1018B00092E06E2D0E94B7088CE392E00E940F091F
:1018C0008CE392E06EE170E00E940C098CE392E000
:1018D0006EE170E0A8010E94FF088DB79EB7801BE3
:1018E000910B0FB6F8949EBF0FBE8DBFCDB6DEB67E
:1018F0000894C11CD11C8CE392E00E9457087C0123
:101900008017910781F4992409C08CE392E00E942A
:101910006008F601E00FF11F80839394092D10E019
:101920000E151F0594F38CE392E00E940F09C60187
:101930000FB6F894BEBE0FBEADBECF91DF911F9122
:101940000F91FF90EF90DF90CF90BF90AF909F905E
:101950000895DF93CF9300D000D000D0CDB7DEB78D
:1019600063E070E046E050E00E94400CFC01928190
:1019700080E0638170E0682B792B948180E0458161
:1019800050E0482B592B218130E0908180E0282BBA
:10199000392B3A8329835C834B837E836D833A8121
:1019A0005C817E8190E026960FB6F894DEBF0FBE74
:1019B000CDBFCF91DF9108958F929F92AF92BF924A
:1019C000CF92DF92EF92FF920F931F93DF93CF930B
:1019D000CDB7DEB72C970FB6F894DEBF0FBECDBFE4
:1019E0008C016B01CB010E94A90C2F83388749879A
:1019F0005A876B877C87DE011196FE01379686E059
:101A000001900D928150E1F78B809C80AD80BE806B
:101A1000F601C080D180E280F38069817A818827D5
:101A200077FD8095982F0E945413A70196010E947C
:101A30003014F8016083718382839383B501882712
:101A400077FD8095982F0E945413A70196010E945C
:101A50003014F8016087718782879387B4018827E3
:101A600077FD8095982F0E945413A70196010E943C
:101A70003014F8016483758386839783C8012C969C
:101A80000FB6F894DEBF0FBECDBFCF91DF911F918F
:101A90000F91FF90EF90DF90CF90BF90AF909F900D
:101AA0008F9008956130710519F420E031E002C093
:101AB0002DE531E0C90108951F93CF93DF93182FCF
:101AC000EB0161E00E94B90E209709F44AC0CF3FB4
:101AD000D10509F449C0E12FF0E0E552FF4FE49150
:101AE000E330C1F0E43028F4E13051F0E230B1F5F8
:101AF0000CC0E63019F1E73049F1E43079F514C053
:101B000084B5806884BDC7BD33C084B5806284BDA0
:101B1000C8BD2EC080918000806880938000D093E3
:101B20008900C093880024C08091800080628093E7
:101B30008000D0938B00C0938A001AC08091B000BF
:101B400080688093B000C093B30012C08091B00051
:101B500080628093B000C093B4000AC0C038D10541
:101B60001CF4812F60E002C0812F61E00E94DD0E35
:101B7000DF91CF911F9108951F920F920FB60F9290
:101B800011242F933F938F939F93AF93BF93809193
:101B9000B8029091B902A091BA02B091BB02309103
:101BA000BC020196A11DB11D232F2D5F2D3720F002
:101BB0002D570196A11DB11D2093BC028093B80240
:101BC0009093B902A093BA02B093BB028091B40281
:101BD0009091B502A091B602B091B7020196A11DF5
:101BE000B11D8093B4029093B502A093B602B09356
:101BF000B702BF91AF919F918F913F912F910F901D
:101C00000FBE0F901F9018959FB7F8942091B402C3
:101C10003091B5024091B6025091B70286B5A89BAB
:101C200006C08F3F21F02F5F3F4F4F4F5F4F9FBF49
:101C3000542F432F322F2227280F311D411D511DB4
:101C400082E0220F331F441F551F8A95D1F7B90137
:101C5000CA010895EF92FF920F931F93CF93DF93E2
:101C60007B018C010E94040EEB010FC00E94040E48
:101C70006C1B7D0B83E0683E780738F00894E10820
:101C8000F10801091109C851DC4FE114F104010503
:101C9000110561F7DF91CF911F910F91FF90EF90A8
:101CA0000895789484B5826084BD84B5816084BDD4
:101CB00085B5826085BD85B5816085BDEEE6F0E0C5
:101CC000808181608083E1E8F0E010828081826021
:101CD0008083808181608083E0E8F0E080818160A2
:101CE0008083E1EBF0E0808184608083E0EBF0E0D2
:101CF000808181608083EAE7F0E080818460808376
:101D0000808182608083808181608083808180681F
:101D100080831092C1000895833071F0843028F4DC
:101D20008130A1F0823021F514C08630B1F08730C7
:101D3000D1F08430E9F404C0809180008F7703C033
:101D4000809180008F7D80938000089584B58F7787
:101D500002C084B58F7D84BD08958091B0008F77D7
:101D60008093B00008958091B0008F7D8093B00083
:101D7000089590E0FC01E953FF4F2491FC01ED54DC
:101D8000FF4FE491EE23C1F0F0E0EE0FFF1FEB56A2
:101D9000FF4F85919491DC01662341F49FB7F8943D
:101DA0008C91209582238C939FBF08959FB7F894C0
:101DB0008C91822B8C939FBF08950F931F93DF9379
:101DC000CF930F92CDB7DEB7282F30E0F901E5525F
:101DD000FF4F8491F901E953FF4F14912D543F4F68
:101DE000F90104910023D9F0882321F069830E942E
:101DF0008C0E6981E02FF0E0EE0FFF1FE156FF4FE0
:101E000085919491DC019FB7F894662321F48C911D
:101E10001095812302C08C91812B8C939FBF0F90D2
:101E2000CF91DF911F910F9108950F931F93282F4A
:101E300030E0F901E552FF4F8491F901E953FF4F7A
:101E400004912D543F4FF9011491112391F08823EF
:101E500011F00E948C0EE12FF0E0EE0FFF1FE7550E
:101E6000FF4F85919491DC018C91802321E030E03B
:101E700011F420E030E0C9011F910F910895FC0199
:101E800084859585FC01E05CFF4F208131818E5B6C
:101E90009F4FFC0180819181281B390B2F7330707B
:101EA000C9010895FC0184859585FC01E05CFF4F24
:101EB00040815181FC01EE5BFF4F2081318142174F
:101EC000530741F00190F081E02DE80FF91F2081C8
:101ED00030E002C02FEF3FEFC9010895FC01848577
:101EE0009585FC01E05CFF4F40815181FC01EE5B78
:101EF000FF4F208131814217530771F0A081B181DA
:101F0000A80FB91F2C918081918101968F739070D9
:101F10009183808330E002C02FEF3FEFC901089525
:101F2000DC011E968D919C911F97FC01E05CFF4F98
:101F30008E5B9F4F40815181DC012D913C91119727
:101F400042175307B9F708951F93FC01162F2685F2
:101F50003785D901A05CBF4F8D919C91019660E4BB
:101F600070E00E94B514D901AE5BBF4F4D915C91FA
:101F7000119784179507D1F3D901A05CBF4F0D903D
:101F8000BC91A02DA20FB31F1C93A685B785A05CA2
:101F9000BF4F11969C938E93A689B7892C9181E0AF
:101FA00090E0058C02C0880F991F0A94E2F7282B55
:101FB0002C9381E090E01F910895FB01E05CFF4FBE
:101FC000208131812F5F3F4F2F733070DB01AE5B7B
:101FD000BF4F4D915C9111972417350739F0A081BF
:101FE000B181A60FB71F8C93318320830895089584
:101FF0001F920F920FB60F9211242F933F934F937E
:102000005F936F937F938F939F93AF93BF93EF9360
:10201000FF938091C6006DEB72E00E94DD0FFF918F
:10202000EF91BF91AF919F918F917F916F915F9150
:102030004F913F912F910F900FBE0F901F901895C9
:1020400085E493E00E943F0F009711F00E94F70F84
:1020500008951F920F920FB60F9211242F933F9362
:102060005F936F937F938F939F93AF93BF93EF9300
:10207000FF9320914103309142038091430390915B
:1020800044032817390731F48091C1008F7D809374
:10209000C10016C0E0914303F0914403EF5FFC4F91
:1020A00020818091430390914403019660E470E0A5
:1020B0000E94B51490934403809343032093C60079
:1020C000FF91EF91BF91AF919F918F917F916F9110
:1020D0005F913F912F910F900FBE0F901F90189519
:1020E000DF92EF92FF920F931F93CF93DF93EC0158
:1020F0007A018B01DD24D394403081EE580780E0D3
:10210000680780E0780749F4DD24EC89FD891082B6
:1021100060E874E88EE190E00FC0EC89FD8981E011
:1021200090E00E8C02C0880F991F0A94E2F780831A
:1021300060E079E08DE390E0A80197010E94C81467
:10214000215030404040504056954795379527954F
:1021500080E12030380710F0DD20B1F6E889F989F8
:102160003083EA89FB892083EE89FF89408181E001
:1021700090E09C010A8C02C0220F331F0A94E2F700
:10218000422B4083EE89FF8940819C010B8C02C069
:10219000220F331F0A94E2F7422B4083EE89FF8916
:1021A00040819C010C8C02C0220F331F0A94E2F77D
:1021B000422B4083EE89FF8920810D8C02C0880F5D
:1021C000991F0A94E2F7809582238083DF91CF9153
:1021D0001F910F91FF90EF90DF90089510924803A8
:1021E0001092470388EE93E0A0E0B0E080934903AB
:1021F00090934A03A0934B03B0934C03E7E4F3E0BE
:1022000083E891E0929382938DEB92E095878487A7
:1022100081E093E09787868785EC90E0918B808BB7
:1022200084EC90E0938B828B80EC90E0958B848B98
:1022300081EC90E0978B868B86EC90E0918F808F7D
:1022400084E0828F83E0838F87E0848F85E0858FB1
:1022500081E0868F0895CF93DF930E94510E0E94F4
:102260005604C0E2D0E10E9446062097E1F30E94A6
:102270002010F9CFCF92DF92EF92FF920F931F932E
:10228000CF93DF936C017B018A01C0E0D0E00FC0E7
:10229000D7016D917D01D601ED91FC910190F08106
:1022A000E02DC6010995C80FD91F01501040011536
:1022B000110571F7CE01DF91CF911F910F91FF9022
:1022C000EF90DF90CF900895DB010D900020E9F7AB
:1022D000AD0141505040461B570BDC01ED91FC9184
:1022E0000280F381E02D09950895DC01ED91FC91C8
:1022F0000190F081E02D099508950F931F93CF93DE
:10230000DF93EC016DE00E9475118C01CE016AE053
:102310000E947511080F191FC801DF91CF911F91FD
:102320000F9108950F931F93CF93DF93EC010E94B9
:1023300064118C01CE010E947D11080F191FC80184
:10234000DF91CF911F910F9108952F923F924F925D
:102350005F926F927F928F929F92AF92BF92CF9235
:10236000DF92EF92FF920F931F93DF93CF93CDB73E
:10237000DEB73B014C0119012A016D897E898F89E5
:10238000988D6A197B098C099D09621A730A840A5F
:10239000950AA40193010E949614E218F308040917
:1023A0001509A80197010E94EA142A0D3B1D4C1D36
:1023B0005D1DB901CA01CF91DF911F910F91FF906F
:1023C000EF90DF90CF90BF90AF909F908F907F90D5
:1023D0006F905F904F903F902F9008955058BB277B
:1023E000AA270ED0FCC1EDD130F0F2D120F031F4AB
:1023F0009F3F11F41EF4BDC10EF4E095E7FBB3C19D
:10240000E92FFED180F3BA17620773078407950797
:1024100018F071F49EF516C20EF4E0950B2EBA2F4B
:10242000A02D0B01B90190010C01CA01A0011124DA
:10243000FF27591B99F0593F50F4503E68F11A1686
:10244000F040A22F232F342F4427585FF3CF469517
:1024500037952795A795F0405395C9F77EF41F1639
:10246000BA0B620B730B840BBAF09150A1F0FF0F03
:10247000BB1F661F771F881FC2F70EC0BA0F621FEF
:10248000731F841F48F4879577956795B795F795DF
:102490009E3F08F0B3CF9395880F08F09927EE0F71
:1024A0009795879508958DD158F080E891E009F4CB
:1024B0009EEF8ED128F040E851E059F45EEF09C05C
:1024C00058C1C0C1E92FE0789BD168F3092E052AD5
:1024D000C1F3261737074807590738F00E2E07F8BB
:1024E000E02569F0E025E0640AC0EF6307F8009496
:1024F00007FADB01B9019D01DC01CA01AD01EF93CF
:1025000047D06DD10AD05F91552331F02BED3FE0DC
:1025100049E450FD49EC63CF0895DF93DD27B92FDF
:10252000BF7740E85FE31616170648075B0710F40D
:10253000D92F8FD19F938F937F936F93F4D1E8E638
:10254000F0E01AD14CD12F913F914F915F9194D1EE
:10255000DD2349F09058A2EA2AED3FE049EC5FE321
:10256000D0785D274DDFDF913AC1D9D008F481E002
:1025700008950CD034C12CD140F023D130F021F497
:102580005F3F19F0F0C051115EC1F3C039D198F32B
:102590009923C9F35523B1F3951B550BBB27AA27E4
:1025A00062177307840738F09F5F5F4F220F331F56
:1025B000441FAA1FA9F333D00E2E3AF0E0E830D022
:1025C00091505040E695001CCAF729D0FE2F27D025
:1025D000660F771F881FBB1F261737074807AB07F3
:1025E000B0E809F0BB0B802DBF01FF2793585F4F68
:1025F0002AF09E3F510568F0B6C025C15F3FECF35D
:10260000983EDCF3869577956795B795F7959F5F2C
:10261000C9F7880F911D9695879597F90895E1E080
:10262000660F771F881FBB1F621773078407BA07DF
:1026300020F0621B730B840BBA0BEE1F88F7E0953A
:10264000089504D06894B111FEC00895E1D088F0D7
:102650009F5790F0B92F9927B751A0F0D1F0660F8E
:10266000771F881F991F1AF0BA95C9F712C0B130A9
:1026700081F0E8D0B1E00895E5C0672F782F882772
:10268000B85F39F0B93FCCF3869577956795B395E8
:10269000D9F73EF490958095709561957F4F8F4F57
:1026A0009F4F0895E89409C097FB3EF4909580955C
:1026B000709561957F4F8F4F9F4F9923A9F0F92F08
:1026C00096E9BB279395F695879577956795B79586
:1026D000F111F8CFFAF4BB0F11F460FF1BC06F5F6C
:1026E0007F4F8F4F9F4F16C0882311F096E911C07E
:1026F000772321F09EE8872F762F05C0662371F09F
:1027000096E8862F70E060E02AF09A95660F771FB2
:10271000881FDAF7880F9695879597F90895990F8E
:102720000008550FAA0BE0E8FEEF16161706E8079B
:10273000F907C0F012161306E407F50798F0621BBC
:10274000730B840B950B39F40A2661F0232B242B91
:10275000252B21F408950A2609F4A140A6958FEFB0
:10276000811D811D089597F99F6780E870E060E002
:1027700008959FEF80EC0895DF93CF931F930F93FD
:10278000FF92EF92DF927B018C01689405C0DA2EF4
:10279000EF0172D0FE01E894A59125913591459104
:1027A0005591AEF3EF012CDEFE019701A801DA94FA
:1027B00079F7DF90EF90FF900F911F91CF91DF910C
:1027C000089500240A941616170618060906089597
:1027D00000240A9412161306140605060895092EFD
:1027E0000394000C11F4882352F0BB0F40F4BF2B6C
:1027F00011F460FF04C06F5F7F4F8F4F9F4F0895AC
:1028000057FD9058440F551F59F05F3F71F04795A1
:10281000880F97FB991F61F09F3F79F08795089586
:10282000121613061406551FF2CF4695F1DF08C0A5
:10283000161617061806991FF1CF869571056105C2
:1028400008940895E894BB2766277727CB0197F96A
:1028500008959B01AC0160E070E080E89FE389CEC1
:102860000BD0BDCFAEDF28F0B3DF18F0952309F011
:102870007ACF7FCF1124E7CFC3DFA0F3959FD1F3A9
:10288000950F50E0551F629FF001729FBB27F00D1E
:10289000B11D639FAA27F00DB11DAA1F649F662773
:1028A000B00DA11D661F829F2227B00DA11D621FC2
:1028B000739FB00DA11D621F839FA00D611D221F7C
:1028C000749F3327A00D611D231F849F600D211D60
:1028D000822F762F6A2F11249F5750408AF0E1F003
:1028E00088234AF0EE0FFF1FBB1F661F771F881F4C
:1028F00091505040A9F79E3F510570F034CFA3CFBF
:102900005F3FECF3983EDCF3869577956795B79536
:10291000F795E7959F5FC1F7FE2B880F911D969560
:10292000879597F908959B01AC019ACF629FD001DA
:10293000739FF001829FE00DF11D649FE00DF11D7A
:10294000929FF00D839FF00D749FF00D659FF00D29
:102950009927729FB00DE11DF91F639FB00DE11D16
:10296000F91FBD01CF011124089597FB092E0726F9
:102970000AD077FD04D049D006D000201AF4709513
:1029800061957F4F0895F6F7909581959F4F089533
:10299000A1E21A2EAA1BBB1BFD010DC0AA1FBB1F63
:1029A000EE1FFF1FA217B307E407F50720F0A21BD5
:1029B000B30BE40BF50B661F771F881F991F1A9442
:1029C00069F760957095809590959B01AC01BD016C
:1029D000CF01089597FB092E05260ED057FD04D090
:1029E000D7DF0AD0001C38F45095409530952195DA
:1029F0003F4F4F4F5F4F0895F6F790958095709534
:102A000061957F4F8F4F9F4F0895AA1BBB1B51E1CC
:102A100007C0AA1FBB1FA617B70710F0A61BB70B4E
:102A2000881F991F5A95A9F780959095BC01CD01F3
:102A30000895EE0FFF1F0590F491E02D0994F8948E
:022A4000FFCFC6
:102A4200456E7465726564207363616C652077619D
:102A520073206E6F742076616C69642C2076616CD1
:102A620069642067617573732076616C7565732084
:102A72006172653A20302E38382C20312E332C20CA
:102A8200312E392C20322E352C20342E302C20346D
:102A92002E372C20352E362C20382E3100457272DE
:102AA2006F72206E6F7420646566696E65640000E3
:102AB200000000B7088508570860087408840800F9
:102AC200000000A40F3A113F0F6E0F520F900F003B
:00000001FF
