:100000000C947B000C94A3000C94A3000C94A3000C
:100010000C94A3000C94A3000C94A3000C9417015F
:100020000C94A3000C94A3000C94A3000C9405075B
:100030000C94A3000C94A3000C94A3000C94A300B4
:100040000C94DA0D0C94AD000C9416100C9447101F
:100050000C94A3000C94A3000C94A3000C94A30094
:100060000C94150A0C94A300084AD73B3BCE016EB2
:1000700084BCBFFDC12F3D6C74319ABD56833DDAFF
:100080003D00C77F11BED9E4BB4C3E916BAAAABE0E
:10009000000000803F00000000240027002A00002C
:1000A000000000250028002B00000000002300268F
:1000B00000290004040404040404040202020202ED
:1000C000020303030303030102040810204080011C
:1000D000020408102001020408102000000007009C
:1000E0000201000003040600000000000000000000
:1000F000F8063D090C1111241FBECFEFD8E0DEBF7A
:10010000CDBF11E0A0E0B1E0EEE7FAE202C0059059
:100110000D92A039B107D9F713E0A0E9B1E001C011
:100120001D92A636B107E1F710E0C6EFD0E004C09B
:100130002297FE010E943915C03FD107C9F70E94DE
:1001400049110C943D150C9400008CB580688CBD51
:1001500008958CB58F778CBD08951F920F920FB6BE
:100160000F9211242F933F938F939F93AF93BF933D
:10017000EF93FF93E091D1018EB5AE2FB0E0AB5578
:10018000BE4F8C93EF5FE093D1018091A901813044
:1001900039F58091AA01813019F58091AB01813048
:1001A000F9F48091AC018130D9F41092D1018091A1
:1001B000A5018F3BF9F08093CC013091A60120E09E
:1001C0008091A70190E0822B932B9093CE01809396
:1001D000CD018091A8018093CF011092D0010AC077
:1001E000E530C0F0F0E0EC55FE4F8081813091F0B9
:1001F0001092D1011092A5011092A6011092A701B0
:100200001092A8011092A9011092AA011092AB01BC
:100210001092AC01FF91EF91BF91AF919F918F919F
:100220003F912F910F900FBE0F901F9018951F9226
:100230000F920FB60F9211248F939F938091C30159
:100240009091C40101969093C4018093C3018536B7
:10025000910520F01092C4011092C3019F918F91DB
:100260000F900FBE0F901F9018951092CC01109216
:10027000AF011092B0011092B1011092B201109230
:10028000B3011092B4011092B5011092B60185E04D
:1002900060E070E00E947A0D86E060E070E00E940D
:1002A0007A0D80E00895682F813A18F4833018F0B1
:1002B00003C060EA01C063E086EC91E070E00E9458
:1002C00011081092CC011092AF011092B00110925F
:1002D000B1011092B2011092B3011092B4011092C8
:1002E000B5011092B6010895682F853108F064E1D8
:1002F00089EC91E070E00E9411081092CC011092FC
:10030000AF011092B0011092B1011092B20110929F
:10031000B3011092B4011092B5011092B601089584
:1003200082E00E94330F2091B70130E082179307DB
:10033000C1F082E00E94330F8093B7018091AF013A
:100340009091B001A091B101B091B201C796A11DE9
:10035000B11D8093AF019093B001A093B101B09310
:10036000B20184E00E94330F2091B80130E082177F
:100370009307C1F084E00E94330F8093B80180910D
:10038000B3019091B401A091B501B091B601C796A7
:10039000A11DB11D8093B3019093B401A093B50149
:1003A000B093B60108950F931F93DF93CF9300D0BE
:1003B0000F92CDB7DEB769838A839B830E94900139
:1003C0008A81282F9B81392FC901880F991F43E00B
:1003D000220F331F4A95E1F7820F931FA0E0B0E090
:1003E0002091AF013091B0014091B1015091B20123
:1003F0006981281739074A075B0710F52091B30177
:100400003091B4014091B5015091B60128173907D8
:100410004A075B07A8F4062F10E0B8016A50704045
:1004200085E00E947A0D86E0B8010E947A0D87E08F
:1004300060E00E94FB0E88E060E00E94FB0E1CC0A2
:1004400085E060E070E00E947A0D86E060E070E098
:100450000E947A0D1092CC011092AF011092B0015F
:100460001092B1011092B2011092B3011092B40136
:100470001092B5011092B60160E070E0CB010F90D0
:100480000F900F90CF91DF911F910F9108950F93CF
:100490001F93DF93CF9300D00F92CDB7DEB7698360
:1004A0008A839B830E9490018A81282F9B81392F08
:1004B000C901880F991F63E0220F331F6A95E1F786
:1004C000820F931FA0E0B0E02091AF013091B00106
:1004D0004091B1015091B2016981281739074A074B
:1004E0005B0710F52091B3013091B4014091B50143
:1004F0005091B601281739074A075B07A8F4062F61
:1005000010E0B8016A50704085E00E947A0D86E0E4
:10051000B8010E947A0D87E061E00E94FB0E88E03E
:1005200061E00E94FB0E1CC085E060E070E00E946C
:100530007A0D86E060E070E00E947A0D1092CC01A6
:100540001092AF011092B0011092B1011092B2015D
:100550001092B3011092B4011092B5011092B6013D
:1005600060E070E0CB010F900F900F90CF91DF9182
:100570001F910F91089582E00E94330F2091B701DF
:1005800030E082179307C1F082E00E94330F80931E
:10059000B7018091AF019091B001A091B101B091EC
:1005A000B2010596A11DB11D8093AF019093B001DA
:1005B000A093B101B093B20184E00E94330F209167
:1005C000B80130E082179307C1F084E00E94330F36
:1005D0008093B8018091B3019091B401A091B501CD
:1005E000B091B6010596A11DB11D8093B301909302
:1005F000B401A093B501B093B6010895DF92EF92D4
:10060000FF920F931F937B018C01D42E0E94BB029B
:100610008091AF019091B001A091B101B091B20170
:100620008E159F05A007B10700F58091B301909149
:10063000B401A091B501B091B6018E159F05A00738
:10064000B10798F485E06D2D70E00E947A0D86E088
:100650006D2D70E00E947A0D87E060E00E94FB0E35
:1006600088E061E00E94FB0E40C087E061E00E94EC
:10067000FB0E88E060E00E94FB0E83EDE816F104BB
:100680000105110528F062E870E080E090E00FC0FD
:1006900089E1E816F1040105110528F46FE070E026
:1006A00080E090E004C068EC70E080E090E00E94A0
:1006B000480E85E060E070E00E947A0D86E060E020
:1006C00070E00E947A0D1092CC011092AF0110924E
:1006D000B0011092B1011092B2011092B3011092C8
:1006E000B4011092B5011092B60160E070E0CB0148
:1006F0001F910F91FF90EF90DF900895DF92EF929E
:10070000FF920F931F937B018C01D42E0E94BB029A
:100710008091AF019091B001A091B101B091B2016F
:100720008E159F05A007B10700F58091B301909148
:10073000B401A091B501B091B6018E159F05A00737
:10074000B10798F485E06D2D70E00E947A0D86E087
:100750006D2D70E00E947A0D87E061E00E94FB0E33
:1007600088E060E00E94FB0E40C087E060E00E94ED
:10077000FB0E88E061E00E94FB0E83EDE816F104B9
:100780000105110528F062E870E080E090E00FC0FC
:1007900089E1E816F1040105110528F46FE070E025
:1007A00080E090E004C068EC70E080E090E00E949F
:1007B000480E85E060E070E00E947A0D86E060E01F
:1007C00070E00E947A0D1092CC011092AF0110924D
:1007D000B0011092B1011092B2011092B3011092C7
:1007E000B4011092B5011092B60160E070E0CB0147
:1007F0001F910F91FF90EF90DF90089582E00E948B
:10080000330F2091C10130E082179307C1F082E0DD
:100810000E94330F8093C1018091B9019091BA0178
:10082000A091BB01B091BC010196A11DB11D8093A7
:10083000B9019093BA01A093BB01B093BC0184E0CD
:100840000E94330F2091C20130E082179307C1F05C
:1008500084E00E94330F8093C2018091BD0190918A
:10086000BE01A091BF01B091C0010196A11DB11DB3
:100870008093BD019093BE01A093BF01B093C001CE
:10088000089580E991E04EEA57E461E67FE30E9433
:10089000A20BBC01009749F080E991E00E94700D25
:1008A000BC0187E493E00E94B01180E991E060E030
:1008B0000E949B0BBC01009749F080E991E00E94E7
:1008C000700DBC0187E493E00E94B0110895DF939E
:1008D000CF9300D000D0CDB7DEB7F8948AE08093F4
:1008E000B300E0EBF0E080818260808382E080935F
:1008F0007000E1EBF0E0808184608083789487E48D
:1009000093E040E052EC61E070E00E948E108EE3D4
:1009100092E00E940509CE0101960E946B0B89812D
:100920009A81AB81BC818093900190939101A093B7
:100930009201B09393010E9441048EE091E0909364
:10094000970180939601109299011092980110924C
:100950009A0110929B0110929C0181E080939D016D
:1009600084E090E090939F0180939E0187E090E067
:100970009093A1018093A00188E28093A2018CE072
:1009800061E00E94D70E8CB580648CBD1092AD01E1
:100990001092AE010E94A50085E061E00E94D70E92
:1009A00086E061E00E94D70E87E061E00E94D70EEA
:1009B00088E061E00E94D70E81E061E00E94D70EDE
:1009C00082E060E00E94D70E84E060E00E94D70ED3
:1009D00085E061E00E94FB0E86E061E00E94FB0E74
:1009E00087E061E00E94FB0E88E061E00E94FB0E60
:1009F00085E060E070E00E947A0D86E060E070E0E3
:100A00000E947A0D1092AF011092B0011092B101C4
:100A10001092B2011092B3011092B4011092B5017C
:100A20001092B6011092B7011092B8011092B9015C
:100A30001092BA011092BB011092BC011092BD013C
:100A40001092BE011092BF011092C0011092C1011C
:100A50001092C2011EBC1092C5011092A401109206
:100A6000A3011092C4011092C3011092CC01109204
:100A7000CE011092CD011092D0011092CF011092B0
:100A8000D1011092A5011092A6011092A701109217
:100A9000A8011092A9011092AA011092AB01109224
:100AA000AC010F900F900F900F90CF91DF910895B0
:100AB000DF93CF93CDB7DEB72C970FB6F894DEBF98
:100AC0000FBECDBFCE01019660E971E00E94FA0C25
:100AD0006D817E818F81988520E030E040EF52E487
:100AE0000E940D1229813A814B815C810E94801203
:100AF00021EE3EE245E652E40E944E140E943F136E
:100B000077FF03C068597E4F06C081E069367807D9
:100B100014F068567140CB012C960FB6F894DEBFE6
:100B20000FBECDBFCF91DF9108959C016817790763
:100B300010F028593E4F261B370BC9010895680F46
:100B4000791F81E06836780710F068567140CB0154
:100B500008959C016817790710F028593E4F261B0D
:100B6000370BC9010895CF92DF92EF92FF920F9356
:100B70001F93CF93DF937C018B01EA01CA01860F9B
:100B8000971F21E0893692072CF49B01241B350B1B
:100B900037FF10C0C801BE010E949F05E816F90684
:100BA00080F0C801BE010E94A90541E08E159F0595
:100BB00058F407C0E816F90634F441E02E153F0555
:100BC0001CF440E001C041E0842FDF91CF911F91E0
:100BD0000F91FF90EF90DF90CF900895EF92FF92EA
:100BE0000F931F93CF93DF930E9458058C0180933E
:100BF000940110939501E0909601F0909701409137
:100C00009E0150919F01B7010E94B3058823F1F125
:100C1000C801B7010E949505EC01C701B8010E9407
:100C200095052091C3013091C401C817D907B0F4CC
:100C30002233310558F160919B0185E070E00E94FC
:100C40007A0D60919B0186E070E00E947A0D87E04A
:100C500061E00E94FB0E88E060E015C022333105A0
:100C6000A8F060919B0185E070E00E947A0D609190
:100C70009B0186E070E00E947A0D87E060E00E94B0
:100C8000FB0E88E061E00E94FB0E0AC085E060E098
:100C900070E00E947A0D86E060E070E00E947A0DBC
:100CA000DF91CF911F910F91FF90EF900895809168
:100CB000CC018D3129F40E94A9000E9435018FC01A
:100CC0008132A9F41092B9011092BA011092BB01BD
:100CD0001092BC011092BD011092BE011092BF0192
:100CE0001092C0011092C1011092C20178C08130EF
:100CF00059F46091CD017091CE0180E090E0409177
:100D0000CF010E947E036BC0823069F48CE08EBDFF
:100D10006091CD017091CE0180E090E04091CF01D3
:100D20000E94FE025CC0833059F48DE08EBD80913C
:100D3000CD019091CE016091CF010E9447024FC03A
:100D4000843059F48EE08EBD8091CD019091CE011A
:100D50006091CF010E94D30142C0853039F48FE009
:100D60008EBD8091CD010E94740139C0863039F466
:100D700080E18EBD8091CD010E94530130C087304B
:100D800071F1883061F1893051F18A3041F18B3055
:100D9000A1F48FE68EBD8091CD019091CE0190930C
:100DA0009701809396018091CF0180939C0180935D
:100DB0009B0181E080939A0112C08C3081F480E71E
:100DC0008EBD8091CD019091CE019093970180933B
:100DD000960110929C0110929B0110929A010E9420
:100DE000FE0380919A01882311F00E94EE05089578
:100DF00080E991E00E946B0B86EC91E00E94C307B2
:100E000089EC91E00E94C30708951F920F920FB6DC
:100E10000F9211242F933F934F935F936F937F9380
:100E20008F939F93AF93BF93EF93FF938091F701BD
:100E300087FF05C010928500109284002BC020917E
:100E4000F701332727FD30958091D20190E02817D4
:100E5000390704F58091F701992787FD9095FC01EA
:100E6000EE0FFF1FE80FF91FED52FE4F808186FF46
:100E700011C08091F701992787FD9095FC01EE0F35
:100E8000FF1FE80FF91FED52FE4F80818F7360E066
:100E90000E94FB0E8091F7018F5F8093F7012091F4
:100EA000F701332727FD30958091D20190E0281774
:100EB00039070CF04EC08091F7018C300CF049C01E
:100EC00080918400909185002091F701332727FDC0
:100ED0003095F901EE0FFF1FE20FF31FED52FE4FA9
:100EE00021813281820F931F909389008093880023
:100EF0008091F701992787FD9095FC01EE0FFF1F68
:100F0000E80FF91FED52FE4F808186FF2BC08091C4
:100F1000F701992787FD9095FC01EE0FFF1FE80F61
:100F2000F91FED52FE4F80818F7361E00E94FB0E2E
:100F300019C080E49CE905C08091840090918500EF
:100F4000049690938900809388008FEF8093F70137
:100F500009C080918400909185002CE98434920727
:100F600040F3EACFFF91EF91BF91AF919F918F91A5
:100F70007F916F915F914F913F912F910F900FBE95
:100F80000F901F901895FC018091D2018C3090F445
:100F900080838F5F8093D201808190E0FC01EE0F0F
:100FA000FF1FE80FF91FED52FE4F88EB9BE0928385
:100FB000818308958FEF80830895FC0120812C3078
:100FC00078F54181552747FD509588E890E0841BCE
:100FD000950B880F991F880F991F6817790784F060
:100FE0004281552747FD509588E592E0841B950B7B
:100FF000880F991F880F991F681779070CF4CB0188
:101000004FB7F89430E0F901EE0FFF1FE20FF31F26
:10101000ED52FE4F0297880F991F928381834FBF35
:101020000895AF92BF92CF92DF92EF92FF920F930B
:101030001F93CF93DF93EC0182E0603278070CF0CE
:1010400046C077FD04C0653B710524F405C060E02F
:1010500070E002C064EB70E000D000D0882777FD1C
:101060008095982F4981552747FD509528E830E015
:10107000241B350B220F331F220F331F5901CC24A1
:10108000B7FCC094DC2C4A81552747FD509528E5D4
:1010900032E0241B350B220F331F220F331F44274E
:1010A00037FD4095542FEDB7FEB72183328343833C
:1010B000548320E030E0A901B4EBEB2EF12C012D9C
:1010C000112D0E94C3110F900F900F900F90CE0121
:1010D0000E94DD07DF91CF911F910F91FF90EF905C
:1010E000DF90CF90BF90AF9008952091190230E02B
:1010F00080911802281B3109C901089580911802B6
:1011000090911902891750F4E82FF0E0E850FE4F53
:10111000208130E08F5F8093180202C02FEF3FEFF5
:10112000C9010895E091180280911902E81730F47E
:10113000F0E0E850FE4F208130E002C02FEF3FEF9B
:10114000C90108950895CF92DF92EF92FF920F9315
:101150001F93CF93DF936C01CB01EA0120913D02F5
:101160002223B1F0E62EF92E00E010E00DC0D701E9
:101170006D917D01D601ED91FC910190F081E02D02
:10118000C60109950F5F1F4F0C171D0780F303C0A1
:10119000642F0E94E309CE01DF91CF911F910F913F
:1011A000FF90EF90DF90CF900895DF93CF930F9251
:1011B000CDB7DEB7698320913D022223D1F0209183
:1011C0003C02203240F021E030E0FC0133832283F6
:1011D00020E030E015C080913B02E82FF0E0E55EB2
:1011E000FD4F998190838F5F80933B0280933C02F7
:1011F00005C0CE01019661E00E94E30921E030E0E4
:10120000C9010F90CF91DF910895109218021092AA
:10121000190210923B0210923C020E945409089558
:10122000862F413208F040E268EF71E00E946D09BC
:10123000109218028093190208950E9410090895CF
:1012400081E080933D0260931A0210923B0210925B
:101250003C0208950E942009089580911A026BE1D2
:1012600072E040913C0221E00E94A30910923B02EF
:1012700010923C0210923D02089510924102109289
:10128000400288EE93E0A0E0B0E0809342029093A9
:101290004302A0934402B093450283E791E0909308
:1012A0003F0280933E02089510926E0282E161E057
:1012B0000E94FB0E83E161E00E94FB0EE9EBF0E08F
:1012C00080818E7F808380818D7F808388E480937E
:1012D000B80085E48093BC000895413288F5909170
:1012E0006E029923E1F791E090936E029FEF909345
:1012F0006D0210924B02942F915090934C02880FE4
:10130000816080934A0285EE8093BC0080916E02DA
:101310008130E1F380914B02841710F440914B022D
:10132000EDE4F2E0262F372FD901242F30E02E0FE5
:101330003F1F02C081918D93E217F307D9F701C0D7
:1013400040E0842F08954132B0F590916E029923C8
:10135000E1F792E090936E029FEF90936D021092EE
:101360004B0240934C02DB01EDE4F2E050E04E0F03
:101370005F1F02C09D919193E417F507D9F790E0A4
:10138000880F991F80934A0285EE8093BC00222328
:1013900021F080916E028230E1F380916D028F3FE7
:1013A00061F080916D02803251F080916D02803346
:1013B00041F483E0089581E0089580E0089582E09B
:1013C000089584E008956132A0F420916E022430E3
:1013D00091F460939302DC01E6E9F2E070E06E0FB5
:1013E0007F1F02C08D918193E617F707D9F780E040
:1013F000089581E0089582E00895882311F085EC36
:1014000001C085E88093BC00089585ED8093BC0001
:101410008091BC0084FDFCCF10926E02089585EC93
:101420008093BC0010926E0208951F920F920FB627
:101430000F9211242F933F934F935F936F937F935A
:101440008F939F93AF93BF93EF93FF938091B900D6
:1014500090E0887F90708036910509F4C2C0813693
:101460009105E4F58832910509F47EC08932910531
:10147000C4F48031910509F472C08131910544F4BE
:10148000009709F413C18830910509F013C167C0B2
:101490008831910509F468C08032910509F00AC1CC
:1014A00078C08034910509F48AC0813491054CF4E8
:1014B0008033910509F46FC08833910509F0FAC0B3
:1014C0006EC08035910509F46EC08835910509F428
:1014D0007BC08834910509F0EDC0EAC088399105D8
:1014E00009F4DAC089399105ECF48837910509F4DB
:1014F00078C0893791054CF48836910509F471C09C
:101500008037910509F0D6C06CC08838910509F480
:10151000C3C08039910509F46AC08038910509F08B
:10152000C9C065C0803B910509F48EC0813B91051F
:101530004CF4803A910509F46CC0883A910509F0A1
:10154000B9C082C0803C910509F4AAC0883C9105CD
:1015500009F4A6C0883B910509F0ACC08AC080910F
:101560004A028093BB0013C090914B0280914C02C1
:10157000981708F09DC080914B02E82FF0E0E35BE4
:10158000FD4F90819093BB008F5F80934B0281E071
:1015900084C080E201C080E380936D0289C088E34B
:1015A00080936D024EC080914B029091BB00E82F5A
:1015B000F0E0E35BFD4F90838F5F80934B0290914F
:1015C0004B0280914C0265C080914B029091BB0010
:1015D000E82FF0E0E35BFD4F90838F5F80934B0239
:1015E00067C083E080936E0210926F02D0CF80912B
:1015F0006F02803208F050C080916F029091BB0062
:10160000E82FF0E0E059FD4F90838F5F80936F02E9
:10161000BECF80916F02803230F4E0916F02F0E033
:10162000E059FD4F10820E94050A60916F02E0911F
:101630009002F091910280E792E070E0099510929B
:101640006F020E940F0A36C084E080936E021092EF
:10165000920210929302E0919402F0919502099502
:1016600080919302882329F481E080939302109261
:10167000960280919202E82FF0E0EA56FD4F9081A9
:101680009093BB008F5F8093920290919202809121
:101690009302981708F47BCF80E00E94FD090AC0EE
:1016A00081E00E94FD0910926E0204C010926D024A
:1016B0000E94050AFF91EF91BF91AF919F918F9189
:1016C0007F916F915F914F913F912F910F900FBE3E
:1016D0000F901F90189520E030E040E85FE3FC0198
:1016E00020833183428353830895EF92FF921F93A7
:1016F000DF93CF930F92CDB7DEB7162F8EE3E82E90
:1017000082E0F82EC7016EE170E049830E942A0949
:10171000C701612F0E94D508C7014981642F0E942B
:10172000D508C7010E942D090F90CF91DF911F911D
:10173000FF90EF900895462F62E070E050E00E9425
:10174000750B0895EF92FF920F931F93CF93DF9342
:10175000EC017A018B01CB01BA012EEA37E441E6B4
:101760005FE30E94D312882351F488E491EEAAE348
:10177000BFE388839983AA83BB8340E08FC0C801FD
:10178000B70126E636E646EA5FE30E94D3128823D5
:1017900051F48FE195E8ABE6BFE388839983AA8390
:1017A000BB8341E07BC0C801B70123E333E343EFD0
:1017B0005FE30E94D312882351F486EF98E2ACE9EC
:1017C000BFE388839983AA83BB8342E067C0C801D3
:1017D000B70120E030E040E250E40E94D3128823B9
:1017E00051F48CE59FE8A2ECBFE388839983AA8338
:1017F000BB8343E053C0C801B70120E030E040E8BC
:1018000050E40E94D312882351F48EEA97E4A1E1B8
:10181000B0E488839983AA83BB8344E03FC0C801B6
:10182000B70126E636E646E950E40E94D312882343
:1018300051F48AE097EDA3E2B0E488839983AA8308
:10184000BB8345E02BC0C801B70123E333E343EB7F
:1018500050E40E94D312882351F485E89BEEA1E462
:10186000B0E488839983AA83BB8346E017C0C8018C
:10187000B7012AE939E941E051E40E94D3128823F3
:1018800051F483E393E3ABE8B0E488839983AA83BC
:10189000BB8347E003C081E090E009C04295440F5C
:1018A000407ECE0161E070E050E00E94750BDF9158
:1018B000CF911F910F91FF90EF9008959F92AF925B
:1018C000BF92CF92DF92EF92FF920F931F93DF931D
:1018D000CF93CDB7DEB7E62E8A01ADB6BEB68EE3A6
:1018E00092E06EE170E00E942A098EE392E06E2D94
:1018F0000E94D5088EE392E00E942D098EE392E0CB
:101900006EE170E00E942A098EE392E06EE170E0E1
:10191000A8010E941D098DB79EB7801B910B0FB6C1
:10192000F8949EBF0FBE8DBFCDB6DEB60894C11C25
:10193000D11C8EE392E00E9475087C01801791070C
:1019400081F4992409C08EE392E00E947E08F6019A
:10195000E00FF11F80839394092D10E00E151F05F1
:1019600094F38EE392E00E942D09C6010FB6F8941D
:10197000BEBE0FBEADBECF91DF911F910F91FF9004
:10198000EF90DF90CF90BF90AF909F900895DF933E
:10199000CF9300D000D000D0CDB7DEB763E070E0C9
:1019A00046E050E00E945E0CFC01928180E0638181
:1019B00070E0682B792B948180E0458150E0482BC2
:1019C000592B218130E0908180E0282B392B3A83FC
:1019D00029835C834B837E836D833A815C817E8126
:1019E00090E026960FB6F894DEBF0FBECDBFCF9124
:1019F000DF9108958F929F92AF92BF92CF92DF9224
:101A0000EF92FF920F931F93DF93CF93CDB7DEB783
:101A10002C970FB6F894DEBF0FBECDBF8C016B01C3
:101A2000CB010E94C70C2F83388749875A876B8761
:101A30007C87DE011196FE01379686E001900D92BB
:101A40008150E1F78B809C80AD80BE80F601C08024
:101A5000D180E280F38069817A81882777FD809543
:101A6000982F0E947213A70196010E944E14F8014C
:101A70006083718382839383B501882777FD809586
:101A8000982F0E947213A70196010E944E14F8012C
:101A90006087718782879387B401882777FD809557
:101AA000982F0E947213A70196010E944E14F8010C
:101AB0006483758386839783C8012C960FB6F89448
:101AC000DEBF0FBECDBFCF91DF911F910F91FF9071
:101AD000EF90DF90CF90BF90AF909F908F90089540
:101AE0006130710519F420E031E002C02DE531E0EC
:101AF000C90108951F93CF93DF93182FEB0161E085
:101B00000E94D70E209709F44AC0CF3FD10509F4AF
:101B100049C0E12FF0E0E552FF4FE491E330C1F01E
:101B2000E43028F4E13051F0E230B1F50CC0E63099
:101B300019F1E73049F1E43079F514C084B58068D3
:101B400084BDC7BD33C084B5806284BDC8BD2EC00E
:101B500080918000806880938000D0938900C0933A
:101B6000880024C080918000806280938000D093A0
:101B70008B00C0938A001AC08091B0008068809367
:101B8000B000C093B30012C08091B0008062809317
:101B9000B000C093B4000AC0C038D1051CF4812F36
:101BA00060E002C0812F61E00E94FB0EDF91CF91C7
:101BB0001F9108951F920F920FB60F9211242F9329
:101BC0003F938F939F93AF93BF938091BA0290916D
:101BD000BB02A091BC02B091BD023091BE02019641
:101BE000A11DB11D232F2D5F2D3720F02D570196FC
:101BF000A11DB11D2093BE028093BA029093BB0237
:101C0000A093BC02B093BD028091B6029091B7023E
:101C1000A091B802B091B9020196A11DB11D8093A7
:101C2000B6029093B702A093B802B093B902BF91E5
:101C3000AF919F918F913F912F910F900FBE0F9079
:101C40001F9018959FB7F8942091B6023091B70273
:101C50004091B8025091B90286B5A89B06C08F3F4B
:101C600021F02F5F3F4F4F4F5F4F9FBF542F432FA8
:101C7000322F2227280F311D411D511D82E0220FD6
:101C8000331F441F551F8A95D1F7B901CA01089522
:101C9000EF92FF920F931F93CF93DF937B018C0101
:101CA0000E94220EEB010FC00E94220E6C1B7D0BC6
:101CB00083E0683E780738F00894E108F1080109EC
:101CC0001109C851DC4FE114F1040105110561F758
:101CD000DF91CF911F910F91FF90EF90089578942D
:101CE00084B5826084BD84B5816084BD85B5826021
:101CF00085BD85B5816085BDEEE6F0E080818160BF
:101D00008083E1E8F0E010828081826080838081BE
:101D100081608083E0E8F0E0808181608083E1EB96
:101D2000F0E0808184608083E0EBF0E0808181607E
:101D30008083EAE7F0E08081846080838081826034
:101D4000808380818160808380818068808310921D
:101D5000C1000895833071F0843028F48130A1F0FF
:101D6000823021F514C08630B1F08730D1F0843054
:101D7000E9F404C0809180008F7703C080918000D7
:101D80008F7D80938000089584B58F7702C084B5DD
:101D90008F7D84BD08958091B0008F778093B000CF
:101DA00008958091B0008F7D8093B000089590E0F9
:101DB000FC01E953FF4F2491FC01ED54FF4FE491E6
:101DC000EE23C1F0F0E0EE0FFF1FEB56FF4F8591C1
:101DD0009491DC01662341F49FB7F8948C9120958F
:101DE00082238C939FBF08959FB7F8948C91822B88
:101DF0008C939FBF08950F931F93DF93CF930F9200
:101E0000CDB7DEB7282F30E0F901E552FF4F8491BE
:101E1000F901E953FF4F14912D543F4FF9010491FB
:101E20000023D9F0882321F069830E94AA0E6981DA
:101E3000E02FF0E0EE0FFF1FE156FF4F85919491E8
:101E4000DC019FB7F894662321F48C9110958123CF
:101E500002C08C91812B8C939FBF0F90CF91DF910B
:101E60001F910F9108950F931F93282F30E0F901D0
:101E7000E552FF4F8491F901E953FF4F04912D542E
:101E80003F4FF9011491112391F0882311F00E9422
:101E9000AA0EE12FF0E0EE0FFF1FE755FF4F8591EF
:101EA0009491DC018C91802321E030E011F420E05A
:101EB00030E0C9011F910F910895FC01848595853B
:101EC000FC01E05CFF4F208131818E5B9F4FFC0164
:101ED00080819181281B390B2F733070C9010895BF
:101EE000FC0184859585FC01E05CFF4F40815181B8
:101EF000FC01EE5BFF4F208131814217530741F017
:101F00000190F081E02DE80FF91F208130E002C040
:101F10002FEF3FEFC9010895FC0184859585FC01F1
:101F2000E05CFF4F40815181FC01EE5BFF4F20815F
:101F300031814217530771F0A081B181A80FB91FF9
:101F40002C918081918101968F7390709183808311
:101F500030E002C02FEF3FEFC9010895DC011E966B
:101F60008D919C911F97FC01E05CFF4F8E5B9F4F12
:101F700040815181DC012D913C911197421753070B
:101F8000B9F708951F93FC01162F26853785D901CF
:101F9000A05CBF4F8D919C91019660E470E00E941F
:101FA000D314D901AE5BBF4F4D915C91119784174B
:101FB0009507D1F3D901A05CBF4F0D90BC91A02D26
:101FC000A20FB31F1C93A685B785A05CBF4F1196C7
:101FD0009C938E93A689B7892C9181E090E0058C23
:101FE00002C0880F991F0A94E2F7282B2C9381E0F6
:101FF00090E01F910895FB01E05CFF4F208131814B
:102000002F5F3F4F2F733070DB01AE5BBF4F4D91A1
:102010005C9111972417350739F0A081B181A60F83
:10202000B71F8C9331832083089508951F920F92D8
:102030000FB60F9211242F933F934F935F936F939B
:102040007F938F939F93AF93BF93EF93FF93809171
:10205000C6006FEB72E00E94FB0FFF91EF91BF9102
:10206000AF919F918F917F916F915F914F913F9130
:102070002F910F900FBE0F901F90189587E493E05B
:102080000E945D0F009711F00E94151008951F9295
:102090000F920FB60F9211242F933F935F936F937C
:1020A0007F938F939F93AF93BF93EF93FF93209171
:1020B00043033091440380914503909146032817D0
:1020C000390731F48091C1008F7D8093C10016C023
:1020D000E0914503F0914603ED5FFC4F2081809134
:1020E000450390914603019660E470E00E94D3148A
:1020F00090934603809345032093C600FF91EF9190
:10210000BF91AF919F918F917F916F915F913F911F
:102110002F910F900FBE0F901F901895DF92EF92A6
:10212000FF920F931F93CF93DF93EC017A018B0102
:10213000DD24D394403081EE580780E0680780E0CA
:10214000780749F4DD24EC89FD89108260E874E8A1
:102150008EE190E00FC0EC89FD8981E090E00E8C6B
:1021600002C0880F991F0A94E2F7808360E079E04B
:102170008DE390E0A80197010E94E61421503040C1
:1021800040405040569547953795279580E120303F
:10219000380710F0DD20B1F6E889F9893083EA8943
:1021A000FB892083EE89FF89408181E090E09C01DA
:1021B0000A8C02C0220F331F0A94E2F7422B40839D
:1021C000EE89FF8940819C010B8C02C0220F331FD6
:1021D0000A94E2F7422B4083EE89FF8940819C01FB
:1021E0000C8C02C0220F331F0A94E2F7422B40836B
:1021F000EE89FF8920810D8C02C0880F991F0A94F7
:10220000E2F7809582238083DF91CF911F910F9118
:10221000FF90EF90DF90089510924A0310924903C7
:1022200088EE93E0A0E0B0E080934B0390934C03E2
:10223000A0934D03B0934E03E9E4F3E083E891E00B
:10224000929382938FEB92E09587848783E093E06B
:102250009787868785EC90E0918B808B84EC90E06B
:10226000938B828B80EC90E0958B848B81EC90E05B
:10227000978B868B86EC90E0918F808F84E0828FA5
:1022800083E0838F87E0848F85E0858F81E0868F70
:102290000895CF93DF930E946F0E0E946704CEE3F0
:1022A000D0E10E9457062097E1F30E943E10F9CF3B
:1022B000CF92DF92EF92FF920F931F93CF93DF9312
:1022C0006C017B018A01C0E0D0E00FC0D7016D91A5
:1022D0007D01D601ED91FC910190F081E02DC601C8
:1022E0000995C80FD91F015010400115110571F74C
:1022F000CE01DF91CF911F910F91FF90EF90DF9072
:10230000CF900895DB010D900020E9F7AD01415019
:102310005040461B570BDC01ED91FC910280F3818C
:10232000E02D09950895DC01ED91FC910190F0817B
:10233000E02D099508950F931F93CF93DF93EC0140
:102340006DE00E9493118C01CE016AE00E9493110E
:10235000080F191FC801DF91CF911F910F910895A8
:102360000F931F93CF93DF93EC010E9482118C0196
:10237000CE010E949B11080F191FC801DF91CF9158
:102380001F910F9108952F923F924F925F926F92FB
:102390007F928F929F92AF92BF92CF92DF92EF92F5
:1023A000FF920F931F93DF93CF93CDB7DEB73B011F
:1023B0004C0119012A016D897E898F89988D6A19CE
:1023C0007B098C099D09621A730A840A950AA40183
:1023D00093010E94B414E218F30804091509A80136
:1023E00097010E9408152A0D3B1D4C1D5D1DB9016A
:1023F000CA01CF91DF911F910F91FF90EF90DF9075
:10240000CF90BF90AF909F908F907F906F905F9094
:102410004F903F902F9008955058BB27AA270ED079
:10242000FCC1EDD130F0F2D120F031F49F3F11F436
:102430001EF4BDC10EF4E095E7FBB3C1E92FFED158
:1024400080F3BA17620773078407950718F071F4D1
:102450009EF516C20EF4E0950B2EBA2FA02D0B019F
:10246000B90190010C01CA01A0011124FF27591BD9
:1024700099F0593F50F4503E68F11A16F040A22FDF
:10248000232F342F4427585FF3CF46953795279550
:10249000A795F0405395C9F77EF41F16BA0B620B4F
:1024A000730B840BBAF09150A1F0FF0FBB1F661F96
:1024B000771F881FC2F70EC0BA0F621F731F841FD9
:1024C00048F4879577956795B795F7959E3F08F0FF
:1024D000B3CF9395880F08F09927EE0F97958795BE
:1024E00008958DD158F080E891E009F49EEF8ED1E7
:1024F00028F040E851E059F45EEF09C058C1C0C16E
:10250000E92FE0789BD168F3092E052AC1F326173D
:1025100037074807590738F00E2E07F8E02569F00D
:10252000E025E0640AC0EF6307F8009407FADB01D6
:10253000B9019D01DC01CA01AD01EF9347D06DD116
:102540000AD05F91552331F02BED3FE049E450FD77
:1025500049EC63CF0895DF93DD27B92FBF7740E8BB
:102560005FE31616170648075B0710F4D92F8FD1C3
:102570009F938F937F936F93F4D1E8E6F0E01AD1A5
:102580004CD12F913F914F915F9194D1DD2349F030
:102590009058A2EA2AED3FE049EC5FE3D0785D274E
:1025A0004DDFDF913AC1D9D008F481E008950CD015
:1025B00034C12CD140F023D130F021F45F3F19F029
:1025C000F0C051115EC1F3C039D198F39923C9F31A
:1025D0005523B1F3951B550BBB27AA276217730729
:1025E000840738F09F5F5F4F220F331F441FAA1FDD
:1025F000A9F333D00E2E3AF0E0E830D0915050409D
:10260000E695001CCAF729D0FE2F27D0660F771F4A
:10261000881FBB1F261737074807AB07B0E809F02C
:10262000BB0B802DBF01FF2793585F4F2AF09E3FC1
:10263000510568F0B6C025C15F3FECF3983EDCF36E
:10264000869577956795B795F7959F5FC9F7880F3A
:10265000911D9695879597F90895E1E0660F771F8C
:10266000881FBB1F621773078407BA0720F0621B1D
:10267000730B840BBA0BEE1F88F7E095089504D016
:102680006894B111FEC00895E1D088F09F5790F092
:10269000B92F9927B751A0F0D1F0660F771F881F87
:1026A000991F1AF0BA95C9F712C0B13081F0E8D07D
:1026B000B1E00895E5C0672F782F8827B85F39F01B
:1026C000B93FCCF3869577956795B395D9F73EF4E6
:1026D00090958095709561957F4F8F4F9F4F08958E
:1026E000E89409C097FB3EF49095809570956195AC
:1026F0007F4F8F4F9F4F9923A9F0F92F96E9BB2762
:102700009395F695879577956795B795F111F8CFDD
:10271000FAF4BB0F11F460FF1BC06F5F7F4F8F4F48
:102720009F4F16C0882311F096E911C0772321F03E
:102730009EE8872F762F05C0662371F096E8862FD6
:1027400070E060E02AF09A95660F771F881FDAF72D
:10275000880F9695879597F90895990F0008550F5A
:10276000AA0BE0E8FEEF16161706E807F907C0F017
:1027700012161306E407F50798F0621B730B840B1F
:10278000950B39F40A2661F0232B242B252B21F4F9
:1027900008950A2609F4A140A6958FEF811D811D99
:1027A000089597F99F6780E870E060E008959FEFD3
:1027B00080EC0895DF93CF931F930F93FF92EF92D6
:1027C000DF927B018C01689405C0DA2EEF0172D094
:1027D000FE01E894A5912591359145915591AEF36F
:1027E000EF012CDEFE019701A801DA9479F7DF9062
:1027F000EF90FF900F911F91CF91DF9108950024EA
:102800000A941616170618060906089500240A9455
:1028100012161306140605060895092E0394000CDB
:1028200011F4882352F0BB0F40F4BF2B11F460FF6A
:1028300004C06F5F7F4F8F4F9F4F089557FD905893
:10284000440F551F59F05F3F71F04795880F97FB74
:10285000991F61F09F3F79F087950895121613062E
:102860001406551FF2CF4695F1DF08C0161617065D
:102870001806991FF1CF8695710561050894089592
:10288000E894BB2766277727CB0197F908959B012A
:10289000AC0160E070E080E89FE389CE0BD0BDCF53
:1028A000AEDF28F0B3DF18F0952309F07ACF7FCFA1
:1028B0001124E7CFC3DFA0F3959FD1F3950F50E02C
:1028C000551F629FF001729FBB27F00DB11D639FE2
:1028D000AA27F00DB11DAA1F649F6627B00DA11D88
:1028E000661F829F2227B00DA11D621F739FB00D2E
:1028F000A11D621F839FA00D611D221F749F33279E
:10290000A00D611D231F849F600D211D822F762F36
:102910006A2F11249F5750408AF0E1F088234AF033
:10292000EE0FFF1FBB1F661F771F881F915050407F
:10293000A9F79E3F510570F034CFA3CF5F3FECF372
:10294000983EDCF3869577956795B795F795E7956B
:102950009F5FC1F7FE2B880F911D9695879597F97C
:1029600008959B01AC019ACF629FD001739FF00143
:10297000829FE00DF11D649FE00DF11D929FF00D0F
:10298000839FF00D749FF00D659FF00D9927729F46
:10299000B00DE11DF91F639FB00DE11DF91FBD01D1
:1029A000CF011124089597FB092E07260AD077FD41
:1029B00004D049D006D000201AF4709561957F4F5D
:1029C0000895F6F7909581959F4F0895A1E21A2EEC
:1029D000AA1BBB1BFD010DC0AA1FBB1FEE1FFF1FC3
:1029E000A217B307E407F50720F0A21BB30BE40B13
:1029F000F50B661F771F881F991F1A9469F760955A
:102A00007095809590959B01AC01BD01CF01089513
:102A100097FB092E05260ED057FD04D0D7DF0AD02C
:102A2000001C38F450954095309521953F4F4F4FFD
:102A30005F4F0895F6F790958095709561957F4F5B
:102A40008F4F9F4F0895AA1BBB1B51E107C0AA1FC0
:102A5000BB1FA617B70710F0A61BB70B881F991F3F
:102A60005A95A9F780959095BC01CD010895EE0F78
:0E2A7000FF1F0590F491E02D0994F894FFCF1C
:102A7E00456E7465726564207363616C6520776161
:102A8E0073206E6F742076616C69642C2076616C95
:102A9E0069642067617573732076616C7565732048
:102AAE006172653A20302E38382C20312E332C208E
:102ABE00312E392C20322E352C20342E302C203431
:102ACE002E372C20352E362C20382E3100457272A2
:102ADE006F72206E6F7420646566696E65640000A7
:102AEE00000000D508A30875087E089208A2080009
:102AFE00000000C20F58115D0F8C0F700FAE0F004B
:00000001FF
