:100000000C9463000C948B000C948B000C948B006C
:100010000C948B000C948B000C948B000C948B0034
:100020000C948B000C948B000C948B000C94260683
:100030000C948B000C948B000C948B000C948B0014
:100040000C947C080C942A010C94B80A0C94E90ACC
:100050000C948B000C948B000C948B000C948B00F4
:100060000C948B000C948B000000000024002700EF
:100070002A0000000000250028002B0000000000DE
:1000800023002600290004040404040404040202DA
:100090000202020203030303030301020408102007
:1000A0004080010204081020010204081020000012
:1000B0000007000201000003040600000000000029
:1000C00000001D06AE0B11241FBECFEFD8E0DEBF2F
:1000D000CDBF11E0A0E0B1E0E8E0FAE102C0059098
:1000E0000D92A031B107D9F712E0A0E1B1E001C053
:1000F0001D92AC30B107E1F710E0C6ECD0E004C0CF
:100100002297FE010E94FE0CC23CD107C9F70E9453
:10011000EB0B0C94020D0C9400008CB580688CBD28
:1001200008958CB58F778CBD0895CF93DF938DEEB6
:1001300091E040E052EC61E070E00E94300B8CE016
:1001400061E00E9479098CB580648CBD1092160123
:10015000109217010E948D0085E061E00E947909EC
:1001600086E061E00E94790987E061E00E947909F8
:1001700088E061E00E94790981E061E00E947909EC
:1001800082E060E00E94790984E060E00E947909E1
:1001900085E061E00E949D0986E061E00E949D0982
:1001A00087E061E00E949D0988E061E00E949D096E
:1001B00085E060E070E00E941C0886E060E070E08E
:1001C0000E941C08C0E3D1E0CE0163E070E00E9411
:1001D0007D07CE0165E070E00E94B807C3E3D1E07F
:1001E000CE0169E070E00E947D07CE0164E170E01D
:1001F0000E94B807109218011092190110921A016A
:1002000010921B0110921C0110921D0110921E01F0
:1002100010921F01109220011092210110922201D0
:1002200010922301109224011092250110922601B0
:1002300010922701109228011092290110922A0190
:1002400010922B0181E080932C0110922D01DF91FF
:10025000CF9108951F920F920FB60F9211248F9392
:100260009F93EF93FF938EB590911601963080F493
:1002700090911601E92FF0E0E05FFE4F80839F5FD1
:10028000909316018F3631F481E08093170102C0FC
:1002900010921601FF91EF919F918F910F900FBED9
:1002A0000F901F9018951092170110921001109244
:1002B0001101109212011092130110921401109268
:1002C00015011EBC109218011092190110921A010A
:1002D00010921B0110921C0110921D0110921E0120
:1002E00010921F011092160185E060E070E00E94FC
:1002F0001C0886E060E070E00E941C080E948D00EF
:1003000080E00895682F813A18F4833018F003C014
:1003100060EA01C063E080E391E070E00E94B8070A
:1003200010921701109210011092110110921201F7
:100330001092130110921401109215011EBC10921C
:1003400018011092190110921A0110921B011092BB
:100350001C0110921D0110921E0110921F0110929B
:1003600016010E9453010895682F853108F064E159
:1003700083E391E070E00E94B80710921701109299
:10038000100110921101109212011092130110929B
:100390001401109215011EBC10921801109219013F
:1003A00010921A0110921B0110921C0110921D0153
:1003B00010921E0110921F01109216010E9453010B
:1003C000089582E00E94D5092091200130E0821733
:1003D0009307C1F082E00E94D509809320018091AB
:1003E000180190911901A0911A01B0911B01C796B3
:1003F000A11DB11D8093180190931901A0931A01BA
:10040000B0931B0184E00E94D5092091210130E0C6
:1004100082179307C1F084E00E94D50980932101DF
:1004200080911C0190911D01A0911E01B0911F01AE
:10043000C796A11DB11D80931C0190931D01A0932F
:100440001E01B0931F0108953F924F925F926F92E9
:100450007F928F929F92AF92BF92CF92DF92EF9254
:10046000FF920F931F93CF93DF93582E492E362E72
:100470000E94E101A0901801B0901901C0901A01EA
:10048000D0901B0167E3E62EF12C012D112DC60142
:10049000B501A80197010E94AB0C20932E0160903A
:1004A0001C0170901D0180901E0190901F01C401DD
:1004B000B301A80197010E94AB0C20932F01252DB9
:1004C000342DC901880F991F43E0220F331F4A952D
:1004D000E1F7820F931FA0E0B0E0A816B906CA06A4
:1004E000DB06D0F4681679068A069B06A8F4C32DAD
:1004F000D0E0BE016A50704085E00E941C0886E092
:10050000BE010E941C0887E060E00E949D0988E00F
:1005100060E00E949D0925C00E948D001092170185
:1005200010921001109211011092120110921301F9
:1005300010921401109215011EBC10921801109215
:10054000190110921A0110921B0110921C011092B5
:100550001D0110921E0110921F01109216010E949F
:10056000530160E070E0CB01DF91CF911F910F91BB
:10057000FF90EF90DF90CF90BF90AF909F908F90C3
:100580007F906F905F904F903F9008953F924F9271
:100590005F926F927F928F929F92AF92BF92CF9213
:1005A000DF92EF92FF920F931F93CF93DF93582E1A
:1005B000492E362E0E94E101A0901801B090190139
:1005C000C0901A01D0901B01F7E3EF2EF12C012D02
:1005D000112DC601B501A80197010E94AB0C209313
:1005E0002E0160901C0170901D0180901E01909062
:1005F0001F01C401B301A80197010E94AB0C209315
:100600002F01252D342DC901880F991F73E0220F6A
:10061000331F7A95E1F7820F931FA0E0B0E0A81690
:10062000B906CA06DB06D0F4681679068A069B0668
:10063000A8F4C32DD0E0BE016450704085E00E9454
:100640001C0886E0BE010E941C0887E061E00E9451
:100650009D0988E061E00E949D0925C00E948D00EF
:1006600010921701109210011092110110921201B4
:100670001092130110921401109215011EBC1092D9
:1006800018011092190110921A0110921B01109278
:100690001C0110921D0110921E0110921F01109258
:1006A00016010E94530160E070E0CB01DF91CF9111
:1006B0001F910F91FF90EF90DF90CF90BF90AF9080
:1006C0009F908F907F906F905F904F903F90089594
:1006D00082E00E94D5092091200130E08217930723
:1006E000C1F082E00E94D509809320018091180119
:1006F00090911901A0911A01B0911B010596A11DBD
:10070000B11D8093180190931901A0931A01B09321
:100710001B0184E00E94D5092091210130E082175D
:100720009307C1F084E00E94D50980932101809154
:100730001C0190911D01A0911E01B0911F01059611
:10074000A11DB11D80931C0190931D01A0931E015A
:10075000B0931F0108952F923F924F925F926F9234
:100760007F928F929F92AF92BF92CF92DF92EF9241
:10077000FF920F931F93DF93CF930F92CDB7DEB706
:100780007B018C0149830E9468036090180170907E
:10079000190180901A0190901B01A5E0AA2EB12C9E
:1007A000C12CD12CC401B301A60195010E94AB0C50
:1007B00020932E0120901C0130901D0140901E01BD
:1007C00050901F01C201B101A60195010E94AB0C1E
:1007D00020932F016E147F0480069106C0F42E141E
:1007E0003F044006510698F485E0698170E00E945C
:1007F0001C0886E0698170E00E941C0887E060E0C8
:100800000E949D0988E061E00E949D0949C087E03F
:1008100061E00E949D0988E060E00E949D0983EDEF
:10082000E816F1040105110528F062E870E080E0A7
:1008300090E00FC0E9E1EE16F1040105110528F47E
:100840006FE070E080E090E004C068EC70E080E071
:1008500090E00E94EA080E948D0010921701109209
:1008600010011092110110921201109213011092B6
:100870001401109215011EBC10921801109219015A
:1008800010921A0110921B0110921C0110921D016E
:1008900010921E0110921F01109216010E94530126
:1008A00060E070E0CB010F90CF91DF911F910F912D
:1008B000FF90EF90DF90CF90BF90AF909F908F9080
:1008C0007F906F905F904F903F902F9008952F9260
:1008D0003F924F925F926F927F928F929F92AF92D0
:1008E000BF92CF92DF92EF92FF920F931F93DF930D
:1008F000CF930F92CDB7DEB77B018C0149830E9465
:100900006803609018017090190180901A0190900E
:100910001B01B5E0AB2EB12CC12CD12CC401B3010D
:10092000A60195010E94AB0C20932E0120901C0182
:1009300030901D0140901E0150901F01C201B10175
:10094000A60195010E94AB0C20932F016E147F0429
:1009500080069106C0F42E143F044006510698F418
:1009600085E0698170E00E941C0886E0698170E082
:100970000E941C0887E061E00E949D0988E060E019
:100980000E949D0949C087E060E00E949D0988E0BF
:1009900061E00E949D0983EDE816F104010511054F
:1009A00028F062E870E080E090E00FC0E9E1EE1628
:1009B000F1040105110528F46FE070E080E090E09B
:1009C00004C068EC70E080E090E00E94EA080E94B9
:1009D0008D001092170110921001109211011092C7
:1009E00012011092130110921401109215011EBCF5
:1009F000109218011092190110921A0110921B0105
:100A000010921C0110921D0110921E0110921F01E4
:100A1000109216010E94530160E070E0CB010F902C
:100A2000CF91DF911F910F91FF90EF90DF90CF90CA
:100A3000BF90AF909F908F907F906F905F904F90FE
:100A40003F902F90089582E00E94D50920912A01BD
:100A500030E082179307C1F082E00E94D5098093AD
:100A60002A018091220190912301A0912401B0914B
:100A700025010196A11DB11D8093220190932301B0
:100A8000A0932401B093250184E00E94D509209110
:100A90002B0130E082179307C1F084E00E94D50952
:100AA00080932B018091260190912701A09128012C
:100AB000B09129010196A11DB11D8093260190934B
:100AC0002701A0932801B09329010895809117016F
:100AD000882309F49FC0809111018D3119F40E947F
:100AE000910095C08132C9F40E94910010922201B8
:100AF00010922301109224011092250110922601D8
:100B000010922701109228011092290110922A01B7
:100B100010922B010E948D008DC0813091F40E94B3
:100B200091007091120160E080911301680F711DB6
:100B3000882777FD8095982F409114010E946704C3
:100B400079C0823091F40E9491007091120160E0AE
:100B500080911301680F711D882777FD8095982F6C
:100B6000409114010E94AB0365C0833071F40E9470
:100B700091009091120180E020911301820F911D4C
:100B8000609114010E94C60255C0843071F40E9425
:100B900091009091120180E020911301820F911D2C
:100BA000609114010E94240245C0853039F40E94EE
:100BB0009100809112010E94B4013CC0863039F44A
:100BC0000E949100809112010E94820133C08730FF
:100BD00019F480912E0119C0883019F480912F01E9
:100BE00014C0893019F4809122010FC08A3019F4A1
:100BF000809126010AC08B3041F08C3031F08D306D
:100C000021F08E3011F08F3011F48EBD13C00E9490
:100C1000530110C0109218011092190110921A017C
:100C200010921B0110921C0110921D0110921E01C6
:100C300010921F010E942305089580E391E00E9415
:100C4000E40683E391E00E94E40608951F920F9268
:100C50000FB60F9211242F933F934F935F936F938F
:100C60007F938F939F93AF93BF93EF93FF93809165
:100C70005B0187FF05C010928500109284002BC095
:100C800020915B01332727FD30958091360190E05C
:100C90002817390704F580915B01992787FD909506
:100CA000FC01EE0FFF1FE80FF91FE95CFE4F80818A
:100CB00086FF11C080915B01992787FD9095FC010B
:100CC000EE0FFF1FE80FF91FE95CFE4F80818F7365
:100CD00060E00E949D0980915B018F5F80935B01C2
:100CE00020915B01332727FD30958091360190E0FC
:100CF000281739070CF04EC080915B018C300CF046
:100D000049C0809184009091850020915B01332738
:100D100027FD3095F901EE0FFF1FE20FF31FE95C8D
:100D2000FE4F21813281820F931F9093890080931F
:100D3000880080915B01992787FD9095FC01EE0F5B
:100D4000FF1FE80FF91FE95CFE4F808186FF2BC073
:100D500080915B01992787FD9095FC01EE0FFF1FA5
:100D6000E80FF91FE95CFE4F80818F7361E00E94FC
:100D70009D0919C080E49CE905C080918400909190
:100D80008500049690938900809388008FEF80936C
:100D90005B0109C080918400909185002CE9843426
:100DA000920740F3EACFFF91EF91BF91AF919F91EE
:100DB0008F917F916F915F914F913F912F910F9004
:100DC0000FBE0F901F901895FC01809136018C305A
:100DD00090F480838F5F80933601808190E0FC01E6
:100DE000EE0FFF1FE80FF91FE95CFE4F88EB9BE059
:100DF0009283818308958FEF80830895DF92EF922D
:100E0000FF920F931F93CF93DF93EC01D62E8A01AD
:100E1000790188818C3008F064C0862F61E00E94DF
:100E200079094881842F90E0FC01EE0FFF1FE80F45
:100E3000F91FE95CFE4F9D2D9F738081807C892B7B
:100E4000808380E292E0801B910B24E030E0B901C6
:100E50000E94980C698380E699E08E199F09B90178
:100E60000E94980C6A83842F6CE00E948C0C90E0A6
:100E70009C01220F331F280F391F220F331F220F0F
:100E8000331F40E050E0BA01620F731FFB01EE0F09
:100E9000FF1FE60FF71FE95CFE4F608166FD15C07E
:100EA0004F5F5F4F4C30510571F724C010928000A6
:100EB00082E0809381001092850010928400B19AA4
:100EC00080916F00826080936F00888190E0FC01C8
:100ED000EE0FFF1FE80FF91FE95CFE4F8081806471
:100EE00080838881DF91CF911F910F91FF90EF90C8
:100EF000DF9008950097D1F2E8CF40E252E020E67B
:100F000039E00E94FE060895FC0120812C3078F51E
:100F10004181552747FD509588E890E0841B950B4B
:100F2000880F991F880F991F6817790784F04281ED
:100F3000552747FD509588E592E0841B950B880F57
:100F4000991F880F991F681779070CF4CB014FB7C9
:100F5000F89430E0F901EE0FFF1FE20FF31FE95C98
:100F6000FE4F0297880F991F928381834FBF089588
:100F7000AF92BF92CF92DF92EF92FF920F931F93A7
:100F8000CF93DF93EC0182E0603278070CF046C02B
:100F900077FD04C0653B710524F405C060E070E096
:100FA00002C064EB70E000D000D0882777FD809508
:100FB000982F4981552747FD509528E830E0241B9C
:100FC000350B220F331F220F331F5901CC24B7FCDE
:100FD000C094DC2C4A81552747FD509528E532E026
:100FE000241B350B220F331F220F331F442737FDDD
:100FF0004095542FEDB7FEB721833283438354834A
:1010000020E030E0A901B4EBEB2EF12C012D112DE5
:101010000E94240C0F900F900F900F90CE010E9411
:101020008407DF91CF911F910F91FF90EF90DF9098
:10103000CF90BF90AF9008951F93CF93DF93182F59
:10104000EB0161E00E947909209709F44AC0CF3F83
:10105000D10509F449C0E12FF0E0E255FF4FE491DA
:10106000E330C1F0E43028F4E13051F0E230B1F582
:101070000CC0E63019F1E73049F1E43079F514C0DD
:1010800084B5806884BDC7BD33C084B5806284BD2B
:10109000C8BD2EC080918000806880938000D0936E
:1010A0008900C093880024C0809180008062809372
:1010B0008000D0938B00C0938A001AC08091B0004A
:1010C00080688093B000C093B30012C08091B000DC
:1010D00080628093B000C093B4000AC0C038D105CC
:1010E0001CF4812F60E002C0812F61E00E949D0905
:1010F000DF91CF911F9108951F920F920FB60F921B
:1011000011242F933F938F939F93AF93BF9380911D
:10111000600190916101A0916201B09163013091F1
:1011200064010196A11DB11D232F2D5F2D3720F0E5
:101130002D570196A11DB11D20936401809360017C
:1011400090936101A0936201B093630180915C016F
:1011500090915D01A0915E01B0915F010196A11D8A
:10116000B11D80935C0190935D01A0935E01B093EB
:101170005F01BF91AF919F918F913F912F910F9000
:101180000FBE0F901F9018959FB7F89420915C01A7
:1011900030915D0140915E0150915F0186B5A89B41
:1011A00006C08F3F21F02F5F3F4F4F4F5F4F9FBFD4
:1011B000542F432F322F2227280F311D411D511D3F
:1011C00082E0220F331F441F551F8A95D1F7B901C2
:1011D000CA010895EF92FF920F931F93CF93DF936D
:1011E0007B018C010E94C408EB010FC00E94C4085F
:1011F0006C1B7D0B83E0683E780738F00894E108AB
:10120000F10801091109C851DC4FE114F10401058D
:10121000110561F7DF91CF911F910F91FF90EF9032
:101220000895789484B5826084BD84B5816084BD5E
:1012300085B5826085BD85B5816085BDEEE6F0E04F
:10124000808181608083E1E8F0E0108280818260AB
:101250008083808181608083E0E8F0E0808181602C
:101260008083E1EBF0E0808184608083E0EBF0E05C
:10127000808181608083EAE7F0E080818460808300
:1012800080818260808380818160808380818068AA
:1012900080831092C1000895833071F0843028F467
:1012A0008130A1F0823021F514C08630B1F0873052
:1012B000D1F08430E9F404C0809180008F7703C0BE
:1012C000809180008F7D80938000089584B58F7712
:1012D00002C084B58F7D84BD08958091B0008F7762
:1012E0008093B00008958091B0008F7D8093B0000E
:1012F000089590E0FC01E656FF4F2491FC01EA5767
:10130000FF4FE491EE23C1F0F0E0EE0FFF1FE8592C
:10131000FF4F85919491DC01662341F49FB7F894C7
:101320008C91209582238C939FBF08959FB7F8944A
:101330008C91822B8C939FBF08950F931F93DF9303
:10134000CF930F92CDB7DEB7282F30E0F901E255E9
:10135000FF4F8491F901E656FF4F14912A573F4FF2
:10136000F90104910023D9F0882321F069830E94B8
:101370004C096981E02FF0E0EE0FFF1FEE58FF4FA0
:1013800085919491DC019FB7F894662321F48C91A8
:101390001095812302C08C91812B8C939FBF0F905D
:1013A000CF91DF911F910F9108950F931F93282FD5
:1013B00030E0F901E255FF4F8491F901E656FF4F05
:1013C00004912A573F4FF9011491112391F088237A
:1013D00011F00E944C09E12FF0E0EE0FFF1FE458DE
:1013E000FF4F85919491DC018C91802321E030E0C6
:1013F00011F420E030E0C9011F910F910895FC0124
:1014000084859585FC01E05CFF4F208131818E5BF6
:101410009F4FFC0180819181281B390B2F73307005
:10142000C9010895FC0184859585FC01E05CFF4FAE
:1014300040815181FC01EE5BFF4F208131814217D9
:10144000530741F00190F081E02DE80FF91F208152
:1014500030E002C02FEF3FEFC9010895FC01848501
:101460009585FC01E05CFF4F40815181FC01EE5B02
:10147000FF4F208131814217530771F0A081B18164
:10148000A80FB91F2C918081918101968F73907064
:101490009183808330E002C02FEF3FEFC9010895B0
:1014A000DC011E968D919C911F97FC01E05CFF4F23
:1014B0008E5B9F4F40815181DC012D913C911197B2
:1014C00042175307B9F708951F93FC01162F26857D
:1014D0003785D901A05CBF4F8D919C91019660E446
:1014E00070E00E94980CD901AE5BBF4F4D915C91AA
:1014F000119784179507D1F3D901A05CBF4F0D90C8
:10150000BC91A02DA20FB31F1C93A685B785A05C2C
:10151000BF4F11969C938E93A689B7892C9181E039
:1015200090E0058C02C0880F991F0A94E2F7282BDF
:101530002C9381E090E01F910895FB01E05CFF4F48
:10154000208131812F5F3F4F2F733070DB01AE5B05
:10155000BF4F4D915C9111972417350739F0A08149
:10156000B181A60FB71F8C9331832083089508950E
:101570001F920F920FB60F9211242F933F934F9308
:101580005F936F937F938F939F93AF93BF93EF93EB
:10159000FF938091C60065E671E00E949D0AFF916D
:1015A000EF91BF91AF919F918F917F916F915F91DB
:1015B0004F913F912F910F900FBE0F901F90189554
:1015C0008DEE91E00E94FF09009711F00E94B70A8A
:1015D00008951F920F920FB60F9211242F933F93ED
:1015E0005F936F937F938F939F93AF93BF93EF938B
:1015F000FF932091E9013091EA018091EB019091F4
:10160000EC012817390731F48091C1008F7D809358
:10161000C10016C0E091EB01F091EC01E755FE4FDF
:1016200020818091EB019091EC01019660E470E0E3
:101630000E94980C9093EC018093EB012093C600DC
:10164000FF91EF91BF91AF919F918F917F916F919A
:101650005F913F912F910F900FBE0F901F901895A3
:10166000DF92EF92FF920F931F93CF93DF93EC01E2
:101670007A018B01DD24D394403081EE580780E05D
:10168000680780E0780749F4DD24EC89FD89108241
:1016900060E874E88EE190E00FC0EC89FD8981E09C
:1016A00090E00E8C02C0880F991F0A94E2F78083A5
:1016B00060E079E08DE390E0A80197010E94AB0C17
:1016C00021503040404050405695479537952795DA
:1016D00080E12030380710F0DD20B1F6E889F98983
:1016E0003083EA89FB892083EE89FF89408181E08C
:1016F00090E09C010A8C02C0220F331F0A94E2F78B
:10170000422B4083EE89FF8940819C010B8C02C0F3
:10171000220F331F0A94E2F7422B4083EE89FF89A0
:1017200040819C010C8C02C0220F331F0A94E2F707
:10173000422B4083EE89FF8920810D8C02C0880FE7
:10174000991F0A94E2F7809582238083DF91CF91DD
:101750001F910F91FF90EF90DF9008951092F0018C
:101760001092EF0188EE93E0A0E0B0E08093F101E9
:101770009093F201A093F301B093F401EFEEF1E046
:1017800084E091E09293829385E691E09587848747
:1017900089EA91E09787868785EC90E0918B808B32
:1017A00084EC90E0938B828B80EC90E0958B848B23
:1017B00081EC90E0978B868B86EC90E0918F808F08
:1017C00084E0828F83E0838F87E0848F85E0858F3C
:1017D00081E0868F0895CF93DF930E9411090E94C4
:1017E0009500C0EEDAE00E9466052097E1F30E94C2
:1017F000E00AF9CFCF92DF92EF92FF920F931F93FF
:10180000CF93DF936C017B018A01C0E0D0E00FC071
:10181000D7016D917D01D601ED91FC910190F08190
:10182000E02DC6010995C80FD91F015010400115C0
:10183000110571F7CE01DF91CF911F910F91FF90AC
:10184000EF90DF90CF9008952F923F924F925F924A
:101850006F927F928F929F92AF92BF92CF92DF92C0
:10186000EF92FF920F931F93DF93CF93CDB7DEB725
:101870003B014C0119012A016D897E898F89988D60
:101880006A197B098C099D09621A730A840A950AF0
:10189000A40193010E946D0CE218F30804091509D4
:1018A000A80197010E94CD0C2A0D3B1D4C1D5D1D0A
:1018B000B901CA01CF91DF911F910F91FF90EF9075
:1018C000DF90CF90BF90AF909F908F907F906F9060
:1018D0005F904F903F902F900895629FD001739F2B
:1018E000F001829FE00DF11D649FE00DF11D929FBC
:1018F000F00D839FF00D749FF00D659FF00D9927FB
:10190000729FB00DE11DF91F639FB00DE11DF91F1E
:10191000BD01CF0111240895991B79E004C0991FDE
:10192000961708F0961B881F7A95C9F78095089539
:1019300097FB092E07260AD077FD04D049D006D0A0
:1019400000201AF4709561957F4F0895F6F79095F1
:1019500081959F4F0895A1E21A2EAA1BBB1BFD0182
:101960000DC0AA1FBB1FEE1FFF1FA217B307E4077E
:10197000F50720F0A21BB30BE40BF50B661F771FD6
:10198000881F991F1A9469F76095709580959095B6
:101990009B01AC01BD01CF01089597FB092E0526DF
:1019A0000ED057FD04D0D7DF0AD0001C38F4509574
:1019B0004095309521953F4F4F4F5F4F0895F6F773
:1019C00090958095709561957F4F8F4F9F4F0895AB
:1019D000AA1BBB1B51E107C0AA1FBB1FA617B70755
:1019E00010F0A61BB70B881F991F5A95A9F7809571
:1019F0009095BC01CD010895EE0FFF1F0590F49165
:081A0000E02D0994F894FFCFDA
:101A080000000000640AFA0BFF092E0A120A500AA5
:00000001FF
