:100000000C947A000C94A2000C94A2000C94A20010
:100010000C94A2000C94A2000C94A2000C948B01EE
:100020000C94A2000C94A2000C94A2000C94440224
:100030000C94A2000C94A2000C94A2000C94A200B8
:100040000C94CA0A0C9445010C94A2000C94A200D2
:100050000C94A2000C94A2000C94A2000C94A20098
:100060000C94AF040C94A200084AD73B3BCE016E1F
:1000700084BCBFFDC12F3D6C74319ABD56833DDAFF
:100080003D00C77F11BED9E4BB4C3E916BAAAABE0E
:10009000000000803F00000000240027002A00002C
:1000A000000000250028002B00000000002300268F
:1000B00000290004040404040404040202020202ED
:1000C000020303030303030102040810204080011C
:1000D000020408102001020408102000000007009C
:1000E0000201000003040600000000000000000000
:1000F000F201660411241FBECFEFD8E0DEBFCDBFF2
:1001000011E0A0E0B1E0E0E8FEE102C005900D9250
:10011000A031B107D9F712E0A0E1B1E001C01D9212
:10012000A536B107E1F710E0C4EFD0E004C0229794
:10013000FE010E943A0FC03FD107C9F70E942D0C63
:100140000C943E0F0C9400008CB580688CBD089513
:10015000CF93DF93C2E5D1E0CE010E945F06CE01CE
:1001600060E070E040E050E026E930E00E94480A9C
:10017000529A5A9810927801F8948AE08093B300CA
:10018000E0EBF0E080818260808382E08093700009
:10019000E1EBF0E080818460808378948CE061E022
:1001A0000E94D10B8CB580648CBD109224011092FA
:1001B00025010E94A400109226011092270110929E
:1001C00028011092290110922A0110922B011092FD
:1001D0002C0110922D0110922E0110922F011092DD
:1001E00030011092310110923201109233011092BD
:1001F000340110923501109236011092370110929D
:1002000038011092390110923E0110921B01109298
:100210001A0110923A0110923C0110923B01109287
:100220003D011092480110924A011092490110922A
:100230004C0110924B0110924D0110921C01109232
:100240001D0110921E0110921F011092200181E0E9
:10025000809313011092140181E090E09093770154
:1002600080937601109216011092150110921801D8
:1002700010921701109219011092100110921201A0
:1002800010921101DF91CF9108951F920F920FB636
:100290000F9211248F938EB58F3F21F481E08093CC
:1002A0004E0133C080914E01882349F081E0809354
:1002B0004F0110924E018EB580931C0126C0809193
:1002C0004F01882349F081E08093500110924F0143
:1002D0008EB580931D0119C080915001882349F08B
:1002E00081E080935101109250018EB580931E01E0
:1002F0000CC080915101882341F0109251018EB5BC
:1003000080931F0181E0809319018F910F900FBEA0
:100310000F901F9018951F920F920FB60F921124F5
:100320002F938F939F9380913A018F5F80933A012F
:10033000853610F010923A0180913D01882351F0EA
:1003400080913B0190913C01019690933C018093F8
:100350003B0104C010923C0110923B0180913B0193
:1003600090913C0127E0813D920720F010923C01E2
:1003700010923B019F918F912F910F900FBE0F9084
:100380001F9018950F931F9380911901882339F1BD
:1003900080911C01809348018831B1F460911D0166
:1003A00070E06A55704040911E0150E04A5550403F
:1003B00020911F0182E591E030E008EE13E00E94F9
:1003C000520A1092480109C08A3139F480911D0106
:1003D000882311F05A9A01C05A98109219011F915E
:1003E0000F9108958F929F92AF92BF92CF92DF921A
:1003F000EF92FF920F931F938FE391E00E9402030D
:1004000082E491E00E94020385E491E00E940203ED
:1004100000D00F92EDB7FEB7319683E0ADB7BEB70F
:1004200011968C9389E0818385E0828382E591E057
:1004300040E050E060E773E400E010E020EA32E4DE
:100440000F2EF0E0CF2EF0E0DF2EFCE5EF2EF3E4F0
:10045000FF2EF02D0F2EF0E08F2EF0E09F2EF8E40F
:10046000AF2EF2E4BF2EF02D0E9405060F900F90E4
:100470000F901F910F91FF90EF90DF90CF90BF9062
:10048000AF909F908F9008951F920F920FB60F928A
:1004900011242F933F934F935F936F937F938F9389
:1004A0009F93AF93BF93EF93FF9380919E0187FF3C
:1004B00005C010928500109284002BC020919E01EF
:1004C000332727FD30958091790190E0281739076F
:1004D00004F580919E01992787FD9095FC01EE0F10
:1004E000FF1FE80FF91FE658FE4F808186FF11C0FD
:1004F00080919E01992787FD9095FC01EE0FFF1FCB
:10050000E80FF91FE658FE4F80818F7360E00E946C
:10051000F50B80919E018F5F80939E0120919E013B
:10052000332727FD30958091790190E0281739070E
:100530000CF04EC080919E018C300CF049C080912F
:1005400084009091850020919E01332727FD3095EE
:10055000F901EE0FFF1FE20FF31FE658FE4F218156
:100560003281820F931F909389008093880080913D
:100570009E01992787FD9095FC01EE0FFF1FE80F64
:10058000F91FE658FE4F808186FF2BC080919E01A7
:10059000992787FD9095FC01EE0FFF1FE80FF91FCB
:1005A000E658FE4F80818F7361E00E94F50B19C001
:1005B00080E49CE905C080918400909185000496B8
:1005C00090938900809388008FEF80939E0109C0EB
:1005D00080918400909185002CE98434920740F347
:1005E000EACFFF91EF91BF91AF919F918F917F9152
:1005F0006F915F914F913F912F910F900FBE0F9090
:100600001F901895FC01809179018C3090F48083C3
:100610008F5F80937901808190E0FC01EE0FFF1FD6
:10062000E80FF91FE658FE4F88EB9BE09283818329
:1006300008958FEF80830895DF92EF92FF920F93DA
:100640001F93CF93DF93EC01D62E8A017901888125
:100650008C3008F064C0862F61E00E94D10B488185
:10066000842F90E0FC01EE0FFF1FE80FF91FE65802
:10067000FE4F9D2D9F738081807C892B808380E23B
:1006800092E0801B910B24E030E0B9010E94250F1D
:10069000698380E699E08E199F09B9010E94250FB0
:1006A0006A83842F6CE00E94050F90E09C01220F6A
:1006B000331F280F391F220F331F220F331F40E033
:1006C00050E0BA01620F731FFB01EE0FFF1FE60F30
:1006D000F71FE658FE4F608166FD15C04F5F5F4F04
:1006E0004C30510571F724C01092800082E0809355
:1006F00081001092850010928400B19A80916F0061
:10070000826080936F00888190E0FC01EE0FFF1FF4
:10071000E80FF91FE658FE4F80818064808388814E
:10072000DF91CF911F910F91FF90EF90DF9008958F
:100730000097D1F2E8CF40E252E020E639E00E9493
:100740001C030895FC0120812C3078F54181552748
:1007500047FD509588E890E0841B950B880F991F02
:10076000880F991F6817790784F04281552747FD44
:10077000509588E592E0841B950B880F991F880F90
:10078000991F681779070CF4CB014FB7F89430E044
:10079000F901EE0FFF1FE20FF31FE658FE4F02971D
:1007A000880F991F928381834FBF08952091C001C4
:1007B00030E08091BF01281B3109C9010895809163
:1007C000BF019091C001891750F4E82FF0E0E15685
:1007D000FE4F208130E08F5F8093BF0102C02FEF7A
:1007E0003FEFC9010895E091BF018091C001E81772
:1007F00030F4F0E0E156FE4F208130E002C02FEFF0
:100800003FEFC90108950895CF92DF92EF92FF92D2
:100810000F931F93CF93DF936C01CB01EA012091DB
:10082000E3012223B1F0E62EF92E00E010E00DC026
:10083000D7016D917D01D601ED91FC910190F08180
:10084000E02DC60109950F5F1F4F0C171D0780F3A0
:1008500003C0642F0E947D04CE01DF91CF911F91D0
:100860000F91FF90EF90DF90CF900895DF93CF939B
:100870000F92CDB7DEB769832091E3012223D1F037
:100880002091E201203240F021E030E0FC0133838E
:10089000228320E030E015C08091E101E82FF0E0F4
:1008A000EF53FE4F998190838F5F8093E101809396
:1008B000E20105C0CE01019661E00E947D0421E0C5
:1008C00030E0C9010F90CF91DF9108951092E701B8
:1008D0001092E60188EE93E0A0E0B0E08093E8019A
:1008E0009093E901A093EA01B093EB0184E091E0D9
:1008F0009093E5018093E40108956132A0F4209182
:100900001402243091F460933902DC01ECE3F2E04C
:1009100070E06E0F7F1F02C08D918193E617F7077D
:10092000D9F780E0089581E0089582E00895882352
:1009300011F085EC01C085E88093BC00089585ED39
:100940008093BC008091BC0084FDFCCF1092140207
:10095000089585EC8093BC001092140208951F92B4
:100960000F920FB60F9211242F933F934F935F93E3
:100970006F937F938F939F93AF93BF93EF93FF9367
:100980008091B90090E0887F90708036910509F4DD
:10099000C2C081369105E4F58832910509F47EC024
:1009A00089329105C4F48031910509F472C0813116
:1009B000910544F4009709F413C18830910509F0BA
:1009C00013C167C08831910509F468C08032910570
:1009D00009F00AC178C08034910509F48AC08134D5
:1009E00091054CF48033910509F46FC0883391056B
:1009F00009F0FAC06EC08035910509F46EC08835E3
:100A0000910509F47BC08834910509F0EDC0EAC076
:100A10008839910509F4DAC089399105ECF48837F1
:100A2000910509F478C0893791054CF48836910511
:100A300009F471C08037910509F0D6C06CC08838C0
:100A4000910509F4C3C08039910509F46AC0803862
:100A5000910509F0C9C065C0803B910509F48EC0BD
:100A6000813B91054CF4803A910509F46CC0883AB9
:100A7000910509F0B9C082C0803C910509F4AAC073
:100A8000883C910509F4A6C0883B910509F0ACC0EB
:100A90008AC08091F0018093BB0013C09091F10156
:100AA0008091F201981708F09DC08091F101E82F24
:100AB000F0E0ED50FE4F90819093BB008F5F8093EC
:100AC000F10181E084C080E201C080E380931302E1
:100AD00089C088E3809313024EC08091F101909108
:100AE000BB00E82FF0E0ED50FE4F90838F5F8093C6
:100AF000F1019091F1018091F20165C08091F101C5
:100B00009091BB00E82FF0E0ED50FE4F90838F5F97
:100B10008093F10167C083E0809314021092150264
:100B2000D0CF80911502803208F050C0809115021C
:100B30009091BB00E82FF0E0EA5EFD4F90838F5F5D
:100B400080931502BECF80911502803230F4E0917F
:100B50001502F0E0EA5EFD4F10820E949F04609152
:100B60001502E0913602F091370286E192E070E0E2
:100B70000995109215020E94A90436C084E0809362
:100B800014021092380210923902E0913A02F09168
:100B90003B02099580913902882329F481E08093F2
:100BA000390210923C0280913802E82FF0E0E45CB8
:100BB000FD4F90819093BB008F5F8093380290919E
:100BC000380280913902981708F47BCF80E00E94A8
:100BD00097040AC081E00E9497041092140204C096
:100BE000109213020E949F04FF91EF91BF91AF9169
:100BF0009F918F917F916F915F914F913F912F9135
:100C00000F900FBE0F901F9018952F923F924F920A
:100C10005F926F927F928F929F92AF92BF92CF928C
:100C2000DF92EF92FF920F931F93DF93CF9300D049
:100C300000D0CDB7DEB73C011801290103964983E6
:100C40005A836B837C830E940203C30106960E9431
:100C50000203C30109960E94020349815A816B81F4
:100C60007C81F301428B538B648B758B268A378A88
:100C7000408E518EC28ED38EE48EF58E868E978EE8
:100C8000A0A2B1A2898D80838A8D81838B8D82837E
:100C90000F900F900F900F90CF91DF911F910F91B8
:100CA000FF90EF90DF90CF90BF90AF909F908F908C
:100CB0007F906F905F904F903F902F900895EF92AC
:100CC000FF920F931F93CF93DF938C017C01C0E0C1
:100CD000D0E0F70161917F012196CE01880F991F25
:100CE0008C0F9D1F800F911F70E00E949B03C330EB
:100CF000D10579F7DF91CF911F910F91FF90EF9080
:100D000008952F923F924F925F926F927F928F92AF
:100D10009F92AF92BF92CF92DF92EF92FF920F938A
:100D20001F93DF93CF93CDB7DEB762970FB6F894DA
:100D3000DEBF0FBECDBF9A8B898B4A015B010D834D
:100D40001E832F83388726013701DC0152966D916F
:100D50007D918D919C9155972AE33DEC43E95EEBA3
:100D60000E94480E69837A838B839C83E989FA8980
:100D7000668D778D80A191A12AE33DEC43E95EE386
:100D80000E94480E9B01AC016D817E818F81988508
:100D90000E943C0CD62EC72E382E292EA989BA893E
:100DA00056968D919D910D90BC91A02D8D839E8323
:100DB000AF83B887A989BA895A968D919D910D9074
:100DC000BC91A02D89879A87AB87BC87C501B401E8
:100DD000A50194010E94480E7B018C01A60191019E
:100DE000652F742F832F922FD601F1012B2F3A2FCD
:100DF0004F2F5E2F0E94480E9B01AC01C801B70126
:100E00000E943D0C7B018C01C301B201A301920140
:100E10000E94480E9B01AC01C801B7010E943D0C25
:100E20007B018C016D817E818F8198859B01AC0156
:100E30000E94480E9B01AC01C801B7010E943D0C05
:100E40007B018C0169857A858B859C859B01AC0132
:100E50000E94480E9B01AC01C801B7010E943C0CE6
:100E60007B018C0159814A813B812C81652F742F34
:100E7000832F922FDA01B32E822E2B2F3A2F482F59
:100E8000592F0E94480E9B01AC01C801B7010E9476
:100E90003C0C7B018C01C301B201A30192010E94B1
:100EA0003D0C9B01AC01C801B7010E94CD0C6987C4
:100EB0007D878E879F8759814A81652F742F8B2D5F
:100EC000982DD601F1012B2F3A2F4F2F5E2F0E9424
:100ED0003C0CA30192010E94CD0CF62E072F182F77
:100EE000492EB981AA812B2F3A2F4B2D582D0E94C4
:100EF000480E9B01AC01B985AD85EE84DF846B2F74
:100F00007A2F8E2D9D2D0E943D0CE62ED72EC82EB9
:100F1000B92E662E772E882E992E6F2D702F812F49
:100F2000942D2F2D302F412F542D0E94480E562ED8
:100F3000372E282E988BC401B30190582E2D3D2DAD
:100F40004C2D5B2D0E94480E4B015C012889652DBC
:100F5000732D822D922F2D813E814F8158850E94C5
:100F6000480E2D813E814F8158850E943D0C9B018A
:100F7000AC016D817E818F8198850E94480E9B0116
:100F8000AC01C501B4010E943D0CE62ED72EC82E3F
:100F9000B92E20E030E0A9010E94C90C87FF07C0EC
:100FA000E989FA8982A193A1019693A382A36E2D68
:100FB0007D2D8C2D9B2D0E94AF0E4B015C01598520
:100FC0004D853E852F85652F742F832F922F2F2DD2
:100FD000302F412F542D0E94480E9B01AC01B98146
:100FE000AA81EB80DC806B2F7A2F8E2D9D2D0E94A5
:100FF0003C0CA50194010E943C0C4B015C0128892A
:10100000652D732D822D922F20E030E040E85FE3C4
:101010000E943D0C9B01AC01C501B4010E94CD0CA6
:10102000E62ED72EC82EB92E6F2D702F812F942D1E
:101030002E2D3D2D4C2D5B2D0E94480E9B01AC01A9
:10104000B985AD851E850F856B2F7A2F812F902F47
:101050000E943D0C3B014C0197FA909497F89094B4
:1010600059814A813B812C81652F742F832F922FC8
:101070002E2D3D2D4C2D5B2D0E943C0C9B01AC0177
:10108000C401B3010E94CD0C0E94A10C20E030E00D
:1010900044E353E40E94480E2BED3FE049E450E462
:1010A0000E94CD0C162F072FF82E892E6E2D7D2D28
:1010B0008C2D9B2DB981AA81EB80DC802B2F3A2FC0
:1010C0004E2D5D2D0E943D0E18162CF420E030E0D0
:1010D00044E353E403C020E030E0A901D8016B2FC2
:1010E000702F8F2D982D0E943D0C7B018C017F2D40
:1010F000912F20E030E0A9010E943D0E18166CF4FB
:101100006E2D7F2D802F912F20E030E044EB52E4B4
:101110000E943D0E18166CF017C06E2D7F2D802F8B
:10112000912F20E030E044EB52EC0E94C90C87FF85
:101130000BC0A989BA8992968D919C91939701963B
:1011400093969C938E9392976E2D7F2D802F912F47
:1011500062960FB6F894DEBF0FBECDBFCF91DF9180
:101160001F910F91FF90EF90DF90CF90BF90AF90C5
:101170009F908F907F906F905F904F903F902F90B7
:1011800008952F923F924F925F926F927F928F922B
:101190009F92AF92BF92CF92DF92EF92FF920F9306
:1011A0001F93DF93CF93CDB7DEB72C970FB6F8948C
:1011B000DEBF0FBECDBF5C01FC0113A212A264858D
:1011C0007585882777FD8095982F0E94680D3B01D3
:1011D0004C01F50166857785882777FD8095982FE6
:1011E0000E94680D1B012C01F50160897189882717
:1011F00077FD8095982F0E94680D6B017C01C501D9
:10120000B401A301920181010E94810669837A835E
:101210008B839C83F50164857585882777FD809590
:10122000982F0E94680D3B014C01F501668577857A
:10123000882777FD8095982F0E94680D7B018C018F
:10124000C401B30120E030E040E05FEB0E94480EB3
:101250001B012C01C801B70127ED33EB4DE55FE31E
:101260000E94480E9B01AC01C201B1010E943D0CDD
:101270001B012C01C801B70120E030E040E05FEB2A
:101280000E94480E7B018C01C401B30127ED33EBB2
:101290004DE55FE30E94480E9B01AC01C801B70118
:1012A0000E943C0C3B014C01F50160897189882743
:1012B00077FD8095982F0E94680D6B017C01C50118
:1012C000B201A101940183010E9481066D837E8396
:1012D0008F839887F50164857585882777FD8095CC
:1012E000982F0E94680D3B014C01F50166857785BA
:1012F000882777FD8095982F0E94680D7B018C01CF
:10130000C401B30120E030E040E05FEB0E94480EF2
:101310001B012C01C801B70127ED33EB4DE55FE35D
:101320000E94480E9B01AC01C201B1010E943C0C1D
:101330001B012C01C801B70120E030E040E05FEB69
:101340000E94480E7B018C01C401B30127ED33EBF1
:101350004DE55FE30E94480E9B01AC01C801B70157
:101360000E943D0C3B014C01F50160897189882781
:1013700077FD8095982F0E94680D6B017C01C50157
:10138000B201A101940183010E94810669877A87D5
:101390008B879C87F50182A193A1009709F05DC01E
:1013A0003E010894611C711CCC24DD24F3012191C1
:1013B0003191419151913F0160E070E084EB92E402
:1013C0000E943C0C20EA3AE147E151E40E94480EB9
:1013D00020E030E842E254E40E943D0C162F072F33
:1013E000F82EE92EA8019701652F742F832F922FD5
:1013F00020E030E842E254E40E94C90C87FD17C0A7
:10140000A8019701652F742F832F922F20E030E0E1
:1014100046E155E40E943D0E181664F0A8019701BC
:10142000652F742F832F922F0E94350D05C06AE817
:1014300072E002C060E679E086010F5F1F4FC801CD
:10144000880F991F800F911F8A0D9B1D0E94A20378
:1014500068010330110509F0A9CFF50182A12C968E
:101460000FB6F894DEBF0FBECDBFCF91DF911F91B5
:101470000F91FF90EF90DF90CF90BF90AF909F9033
:101480008F907F906F905F904F903F902F90089536
:10149000FC017587648757874687318B208B0E94B4
:1014A000C10808956F927F928F929F92AF92BF92E0
:1014B000CF92DF92EF92FF920F931F93CF93DF9320
:1014C000EC015B016A017901C80168EE73E00E94DA
:1014D000110F3B01882499248C859D858A159B05D5
:1014E0002CF401969D878C8720E001C021E08C853B
:1014F0009D85A816B90624F401979D878C8720E066
:101500008E859F858C159D0524F401969F878E8777
:1015100020E08E859F85C816D90624F401979F8701
:101520008E8720E0888999898E159F0524F401967D
:10153000998B888B20E088899989E816F90624F42C
:101540000197998B888B02C0222391F4CE010E94CF
:10155000C108882379F487E20131180728F0C40113
:10156000B3010E94380BB8CFC8010E945F0BB4CF03
:1015700080E001C081E0DF91CF911F910F91FF903A
:10158000EF90DF90CF90BF90AF909F908F907F9023
:101590006F9008951F920F920FB60F9211242F9300
:1015A0003F938F939F93AF93BF93809160029091ED
:1015B0006102A0916202B0916302309164020196CF
:1015C000A11DB11D232F2D5F2D3720F02D57019622
:1015D000A11DB11D2093640280936002909361026B
:1015E000A0936202B093630280915C0290915D02CD
:1015F000A0915E02B0915F020196A11DB11D809382
:101600005C0290935D02A0935E02B0935F02BF9173
:10161000AF919F918F913F912F910F900FBE0F909F
:101620001F9018959FB7F89420915C0230915D024D
:1016300040915E0250915F0286B5A89B06C08F3F25
:1016400021F02F5F3F4F4F4F5F4F9FBF542F432FCE
:10165000322F2227280F311D411D511D82E0220FFC
:10166000331F441F551F8A95D1F7B901CA01089548
:10167000EF92FF920F931F93CF93DF937B018C0127
:101680000E94120BEB010FC00E94120B6C1B7D0B12
:1016900083E0683E780738F00894E108F108010912
:1016A0001109C851DC4FE114F1040105110561F77E
:1016B000DF91CF911F910F91FF90EF9008950197C7
:1016C00039F0880F991F880F991F02970197F1F73A
:1016D0000895789484B5826084BD84B5816084BDAA
:1016E00085B5826085BD85B5816085BDEEE6F0E09B
:1016F000808181608083E1E8F0E0108280818260F7
:101700008083808181608083E0E8F0E08081816077
:101710008083E1EBF0E0808184608083E0EBF0E0A7
:10172000808181608083EAE7F0E08081846080834B
:1017300080818260808380818160808380818068F5
:1017400080831092C1000895833071F0843028F4B2
:101750008130A1F0823021F514C08630B1F087309D
:10176000D1F08430E9F404C0809180008F7703C009
:10177000809180008F7D80938000089584B58F775D
:1017800002C084B58F7D84BD08958091B0008F77AD
:101790008093B00008958091B0008F7D8093B00059
:1017A000089590E0FC01E953FF4F2491FC01ED54B2
:1017B000FF4FE491EE23C1F0F0E0EE0FFF1FEB5678
:1017C000FF4F85919491DC01662341F49FB7F89413
:1017D0008C91209582238C939FBF08959FB7F89496
:1017E0008C91822B8C939FBF08950F931F93DF934F
:1017F000CF930F92CDB7DEB7282F30E0F901E55235
:10180000FF4F8491F901E953FF4F14912D543F4F3D
:10181000F90104910023D9F0882321F069830E9403
:10182000A40B6981E02FF0E0EE0FFF1FE156FF4FA0
:1018300085919491DC019FB7F894662321F48C91F3
:101840001095812302C08C91812B8C939FBF0F90A8
:10185000CF91DF911F910F910895CF93DF930E9455
:10186000690B0E94A800C0E0D0E00E94C20120974E
:10187000E1F30E940000F9CF5058BB27AA270ED0F1
:10188000C2C1B3D130F0B8D120F031F49F3F11F490
:101890001EF483C10EF4E095E7FB79C1E92FC4D1B2
:1018A00080F3BA17620773078407950718F071F47D
:1018B0009EF5DCC10EF4E0950B2EBA2FA02D0B0186
:1018C000B90190010C01CA01A0011124FF27591B85
:1018D00099F0593F50F4503E68F11A16F040A22F8B
:1018E000232F342F4427585FF3CF469537952795FC
:1018F000A795F0405395C9F77EF41F16BA0B620BFB
:10190000730B840BBAF09150A1F0FF0FBB1F661F41
:10191000771F881FC2F70EC0BA0F621F731F841F84
:1019200048F4879577956795B795F7959E3F08F0AA
:10193000B3CF9395880F08F09927EE0F9795879569
:101940000895DF93DD27B92FBF7740E85FE31616D0
:10195000170648075B0710F4D92F93D19F938F93F5
:101960007F936F933AD2E8E6F0E01AD14CD12F91F1
:101970003F914F915F9198D1DD2349F09058A2EAB1
:101980002AED3FE049EC5FE3D0785D2787DFDF9108
:101990003AC1D9D008F481E008950CD034C12CD1DB
:1019A00040F023D130F021F45F3F19F0F0C0511125
:1019B0005EC1F3C039D198F39923C9F35523B1F32C
:1019C000951B550BBB27AA2762177307840738F0AE
:1019D0009F5F5F4F220F331F441FAA1FA9F333D00D
:1019E0000E2E3AF0E0E830D091505040E695001CC1
:1019F000CAF729D0FE2F27D0660F771F881FBB1F7D
:101A0000261737074807AB07B0E809F0BB0B802D56
:101A1000BF01FF2793585F4F2AF09E3F510568F0A2
:101A2000B6C025C15F3FECF3983EDCF38695779511
:101A30006795B795F7959F5FC9F7880F911D9695A4
:101A4000879597F90895E1E0660F771F881FBB1F00
:101A5000621773078407BA0720F0621B730B840BAD
:101A6000BA0BEE1F88F7E095089504D06894B11181
:101A7000FEC00895E1D088F09F5790F0B92F9927C4
:101A8000B751A0F0D1F0660F771F881F991F1AF089
:101A9000BA95C9F712C0B13081F0E8D0B1E008952D
:101AA000E5C0672F782F8827B85F39F0B93FCCF3AE
:101AB000869577956795B395D9F73EF4909580957F
:101AC000709561957F4F8F4F9F4F0895E89409C09F
:101AD00097FB3EF490958095709561957F4F8F4F61
:101AE0009F4F9923A9F0F92F96E9BB279395F69577
:101AF000879577956795B795F111F8CFFAF4BB0FF5
:101B000011F460FF1BC06F5F7F4F8F4F9F4F16C058
:101B1000882311F096E911C0772321F09EE8872FE2
:101B2000762F05C0662371F096E8862F70E060E09E
:101B30002AF09A95660F771F881FDAF7880F969517
:101B4000879597F90895990F0008550FAA0BE0E8BB
:101B5000FEEF16161706E807F907C0F0121613066F
:101B6000E407F50798F0621B730B840B950B39F4AF
:101B70000A2661F0232B242B252B21F408950A2615
:101B800009F4A140A6958FEF811D811D089597F955
:101B90009F6780E870E060E008959FEF80EC089513
:101BA000DF93CF931F930F93FF92EF92DF927B010E
:101BB0008C01689405C0DA2EEF0176D0FE01E8941E
:101BC000A5912591359145915591AEF3EF0166DED2
:101BD000FE019701A801DA9479F7DF90EF90FF906A
:101BE0000F911F91CF91DF91089500240A9416164A
:101BF000170618060906089500240A9412161306FB
:101C0000140605060895092E0394000C11F4882388
:101C100052F0BB0F40F4BF2B11F460FF04C06F5FA4
:101C20007F4F8F4F9F4F089557FD9058440F551F7A
:101C300059F05F3F71F04795880F97FB991F61F04E
:101C40009F3F79F087950895121613061406551FC5
:101C5000F2CF4695F1DF08C0161617061806991F31
:101C6000F1CF86957105610508940895E894BB2726
:101C700066277727CB0197F9089565DF08F48FEF82
:101C800008959B01AC0160E070E080E89FE385CEA1
:101C90000BD0B9CFAADF28F0AFDF18F0952309F0F9
:101CA00076CF7BCF1124E3CFBFDFA0F3959FD1F395
:101CB000950F50E0551F629FF001729FBB27F00DFA
:101CC000B11D639FAA27F00DB11DAA1F649F66274F
:101CD000B00DA11D661F829F2227B00DA11D621F9E
:101CE000739FB00DA11D621F839FA00D611D221F58
:101CF000749F3327A00D611D231F849F600D211D3C
:101D0000822F762F6A2F11249F5750408AF0E1F0DE
:101D100088234AF0EE0FFF1FBB1F661F771F881F27
:101D200091505040A9F79E3F510570F030CF9FCFA2
:101D30005F3FECF3983EDCF3869577956795B79512
:101D4000F795E7959F5FC1F7FE2B880F911D96953C
:101D5000879597F9089511F40EF41FCF41C06CDFF9
:101D6000D0F39923D9F3CEF39F57550B87FF46D075
:101D70000024A0E640EA900180585695979528F4F3
:101D8000805C660F771F881F20F0261737074807EB
:101D900030F4621B730B840B202931294A2BA69542
:101DA00017940794202531254A2758F7660F771F87
:101DB000881F20F026173707480730F4620B730B93
:101DC000840B200D311D411DA09581F7B901842F91
:101DD0009158880F9695879508959B01AC0158CF2F
:101DE0009F3F31F0915020F4879577956795B7958F
:101DF000880F911D9695879597F9089591505040B9
:101E0000660F771F881FD2F70895991B79E004C0E9
:101E1000991F961708F0961B881F7A95C9F7809529
:101E20000895AA1BBB1B51E107C0AA1FBB1FA61721
:101E3000B70710F0A61BB70B881F991F5A95A9F773
:101E400080959095BC01CD01089597FB092E07263A
:101E50000AD077FD04D0E5DF06D000201AF4709593
:101E600061957F4F0895F6F7909581959F4F08955E
:101E7000EE0FFF1F0590F491E02D0994F894FFCF29
:101E80000000000036040404D603DF03F303030458
:04000005008001195D
:00000001FF
