:100000000C947A000C94A2000C94A2000C94A20010
:100010000C94A2000C94A2000C94A2000C941D035A
:100020000C94A2000C94A2000C94A2000C94CD039A
:100030000C94A2000C94A2000C94A2000C94A200B8
:100040000C94530C0C9449010C94A2000C94A20043
:100050000C94A2000C94A2000C94A2000C94A20098
:100060000C9438060C94A200084AD73B3BCE016E94
:1000700084BCBFFDC12F3D6C74319ABD56833DDAFF
:100080003D00C77F11BED9E4BB4C3E916BAAAABE0E
:10009000000000803F00000000240027002A00002C
:1000A000000000250028002B00000000002300268F
:1000B00000290004040404040404040202020202ED
:1000C000020303030303030102040810204080011C
:1000D000020408102001020408102000000007009C
:1000E0000201000003040600000000000000000000
:1000F0007B03EF0511241FBECFEFD8E0DEBFCDBFDD
:1001000011E0A0E0B1E0E2E9F1E202C005900D9259
:10011000A431B107D9F712E0A4E1B1E001C01D920A
:10012000A337B107E1F710E0C4EFD0E004C0229795
:10013000FE010E94C310C03FD107C9F70E94B60D4F
:100140000C94C7100C9400008CB580688CBD089589
:10015000CF93DF93CEE5D1E0CE010E94E807CE0138
:1001600060E070E040E050E026E930E00E94D10B12
:10017000529A5A9810928601F8948AE08093B300BC
:10018000E0EBF0E080818260808382E08093700009
:10019000E1EBF0E080818460808378948CE061E022
:1001A0000E945A0D8CB580648CBD1092270110926C
:1001B00028010E94A4001092290110922A01109295
:1001C0002B0110922C0110922D0110922E011092F1
:1001D0002F011092300110923101109232011092D1
:1001E00033011092340110923501109236011092B1
:1001F0003701109238011092390110923A01109291
:100200003B0110923C011092410110921E0110928C
:100210001D0110923D0110923F0110923E0110927B
:10022000400110924B0110924D0110924C0110921E
:100230004F0110924E011092500110921F01109226
:10024000200110922101109222011092230110929C
:100250002401109225011092260181E0809317015C
:100260001092180181E090E09093830180938201C5
:1002700010921A011092190110921C0110921B0188
:10028000109214011092160110921501DF91CF9176
:1002900008951F920F920FB60F9211242F933F9340
:1002A0004F938F939F9380910001882309F47BC023
:1002B0008EB5823031F483E08EBD81E080931801E9
:1002C00009C08EB5843069F485E08EBD82E08093EC
:1002D000180181E0809351011092000110925D019C
:1002E000A2C18EB5863021F487E08EBD83E031C097
:1002F0008EB5883061F481E08EBD94E09093180152
:10030000809351011092000180935D018CC18EB5E4
:100310008A3021F48BE08EBD85E0D9CF8EB58C304C
:1003200021F48DE08EBD86E0D2CF8EB58E3021F4E3
:100330008FE08EBD87E0CBCF8EB5803121F481E197
:100340008EBD88E0C4CF8EB5823139F483E18EBD95
:1003500089E08093180181E0D3CF8EB5843121F4F8
:1003600085E18EBD8AE0B3CF8EB5863121F487E179
:100370008EBD8BE0ACCF8EB5883121F489E18EBD86
:100380008CE0A5CF8EB58A3121F48BE18EBD8DE056
:100390009ECF8EB58C3121F48DE18EBD8EE097CF4E
:1003A000109218019BCF80915101882309F448C015
:1003B00081E08093520110925101809118018130A7
:1003C00009F431C1823009F42EC1833011F0843038
:1003D00039F48EB590E090935A018093590123C16E
:1003E000853031F0863021F0873011F0883039F4D3
:1003F0008EB590E090935C0180935B0114C18930CD
:1004000019F480911B0153C08A3029F4809159015D
:1004100090915A014CC08B3009F405C18C3049F4DD
:100420008EB590E080589040909383018093820134
:10043000FAC08D3009F0F7C08EB580938601F3C005
:1004400080915201882309F443C01092520181E047
:100450008093530180911801813009F4E4C0823007
:1004600009F4E1C0833011F0843039F48EB590E0A6
:100470009093560180935501D6C0853031F0863077
:1004800021F0873011F0883039F48EB590E09093E8
:10049000580180935701C7C0893019F48091190120
:1004A00006C08A3031F480915501909156018EBD7D
:1004B000BAC08B3009F4B7C08C3009F0B4C08EB527
:1004C00090E0805890409093850180938401ABC068
:1004D000809153018823B1F080911801893061F037
:1004E0009EB590934E0110924F018C3029F48EB539
:1004F00080930101109202011092530181E08093D8
:10050000540191C080915401882309F48CC0109249
:10051000540181E08093000140911801413009F4B9
:100520007DC0423009F47AC0433011F04430B9F450
:100530008091590190915A012091550130915601B5
:10054000982F8827820F931F90934D0180934C0121
:1005500087E890E090934F0180934E015FC0453053
:1005600091F480915B0190915C0120915701309151
:100570005801982F8827820F931F90934D018093E5
:100580004C0185E042C0463089F480915B01909136
:100590005C012091570130915801982F8827820FD4
:1005A000931F90934D0180934C0138C0473091F4D4
:1005B00080915B0190915C0120915701309158012D
:1005C000982F8827820F931F90934D0180934C01A1
:1005D00089E01BC0483091F480915B0190915C01EF
:1005E0002091570130915801982F8827820F931F2F
:1005F00090934D0180934C0187E007C0493099F0FA
:100600004A3089F04B3021F488E080934B010BC0D5
:100610004C3021F04D3011F04E3019F440934B0125
:1006200002C010924B019F918F914F913F912F915A
:100630000F900FBE0F901F9018951F920F920FB63C
:100640000F9211242F938F939F9380913D018F5F81
:1006500080933D01853610F010923D01809140015C
:10066000882351F080913E0190913F010196909333
:100670003F0180933E0104C010923F0110923E0161
:1006800080913E0190913F0127E0813D920720F04B
:1006900010923F0110923E019F918F912F910F90E8
:1006A0000FBE0F901F9018950F931F9380914B01D1
:1006B0008C30A9F460918201709183014091840192
:1006C0005091850120910101309102018EE591E068
:1006D00008EE13E00E94DB0B10924B0109C08D3035
:1006E00039F480918601882311F05A9A01C05A98F2
:1006F0001F910F9108958F929F92AF92BF92CF92C8
:10070000DF92EF92FF920F931F9382E491E00E9499
:100710008B0485E491E00E948B0488E491E00E94C0
:100720008B0400D00F92EDB7FEB7319683E0ADB7E2
:10073000BEB711968C9389E0818385E082838EE534
:1007400091E040E050E060E773E400E010E020EA70
:1007500032E40F2EF0E0CF2EF0E0DF2EFCE5EF2E9E
:10076000F3E4FF2EF02D0F2EF0E08F2EF0E09F2E01
:10077000F8E4AF2EF2E4BF2EF02D0E948E070F900A
:100780000F900F901F910F91FF90EF90DF90CF90FF
:10079000BF90AF909F908F9008951F920F920FB6C9
:1007A0000F9211242F933F934F935F936F937F93F7
:1007B0008F939F93AF93BF93EF93FF938091AC017F
:1007C00087FF05C010928500109284002BC02091F5
:1007D000AC01332727FD30958091870190E02817E1
:1007E000390704F58091AC01992787FD9095FC01AC
:1007F000EE0FFF1FE80FF91FE857FE4F808186FFBD
:1008000011C08091AC01992787FD9095FC01EE0FF6
:10081000FF1FE80FF91FE857FE4F80818F7360E0DC
:100820000E947E0D8091AC018F5F8093AC0120917E
:10083000AC01332727FD30958091870190E0281780
:1008400039070CF04EC08091AC018C300CF049C0DF
:1008500080918400909185002091AC01332727FD81
:100860003095F901EE0FFF1FE20FF31FE857FE4F1F
:1008700021813281820F931F909389008093880099
:100880008091AC01992787FD9095FC01EE0FFF1F29
:10089000E80FF91FE857FE4F808186FF2BC080913B
:1008A000AC01992787FD9095FC01EE0FFF1FE80F23
:1008B000F91FE857FE4F80818F7361E00E947E0D23
:1008C00019C080E49CE905C0809184009091850066
:1008D000049690938900809388008FEF8093AC01F9
:1008E00009C080918400909185002CE9843492079E
:1008F00040F3EACFFF91EF91BF91AF919F918F911C
:100900007F916F915F914F913F912F910F900FBE0B
:100910000F901F901895FC01809187018C3090F406
:1009200080838F5F80938701808190E0FC01EE0FD0
:10093000FF1FE80FF91FE857FE4F88EB9BE09283FB
:10094000818308958FEF80830895DF92EF92FF9265
:100950000F931F93CF93DF93EC01D62E8A01790179
:1009600088818C3008F064C0862F61E00E945A0DA7
:100970004881842F90E0FC01EE0FFF1FE80FF91F64
:10098000E857FE4F9D2D9F738081807C892B80834B
:1009900080E292E0801B910B24E030E0B9010E94DC
:1009A000AE10698380E699E08E199F09B9010E9413
:1009B000AE106A83842F6CE00E948E1090E09C0140
:1009C000220F331F280F391F220F331F220F331F0F
:1009D00040E050E0BA01620F731FFB01EE0FFF1FF2
:1009E000E60FF71FE857FE4F608166FD15C04F5FA9
:1009F0005F4F4C30510571F724C01092800082E0A7
:100A0000809381001092850010928400B19A8091A9
:100A10006F00826080936F00888190E0FC01EE0F90
:100A2000FF1FE80FF91FE857FE4F80818064808325
:100A30008881DF91CF911F910F91FF90EF90DF9010
:100A400008950097D1F2E8CF40E252E020E639E085
:100A50000E94A5040895FC0120812C3078F5418185
:100A6000552747FD509588E890E0841B950B880F2B
:100A7000991F880F991F6817790784F042815527BD
:100A800047FD509588E592E0841B950B880F991FD0
:100A9000880F991F681779070CF4CB014FB7F894AA
:100AA00030E0F901EE0FFF1FE20FF31FE857FE4F92
:100AB0000297880F991F928381834FBF08952091D9
:100AC000CE0130E08091CD01281B3109C901089584
:100AD0008091CD019091CE01891750F4E82FF0E07C
:100AE000E355FE4F208130E08F5F8093CD0102C03F
:100AF0002FEF3FEFC9010895E091CD018091CE0124
:100B0000E81730F4F0E0E355FE4F208130E002C0FA
:100B10002FEF3FEFC90108950895CF92DF92EF9232
:100B2000FF920F931F93CF93DF936C01CB01EA01E8
:100B30002091F1012223B1F0E62EF92E00E010E021
:100B40000DC0D7016D917D01D601ED91FC91019011
:100B5000F081E02DC60109950F5F1F4F0C171D078F
:100B600080F303C0642F0E940606CE01DF91CF916F
:100B70001F910F91FF90EF90DF90CF900895DF933A
:100B8000CF930F92CDB7DEB769832091F101222375
:100B9000D1F02091F001203240F021E030E0FC0162
:100BA0003383228320E030E015C08091EF01E82FED
:100BB000F0E0E153FE4F998190838F5F8093EF01C6
:100BC0008093F00105C0CE01019661E00E94060607
:100BD00021E030E0C9010F90CF91DF91089510928C
:100BE000F5011092F40188EE93E0A0E0B0E080936C
:100BF000F6019093F701A093F801B093F90187E013
:100C000091E09093F3018093F20108956132A0F492
:100C100020912202243091F460934702DC01EAE43F
:100C2000F2E070E06E0F7F1F02C08D918193E61796
:100C3000F707D9F780E0089581E0089582E00895EC
:100C4000882311F085EC01C085E88093BC000895ED
:100C500085ED8093BC008091BC0084FDFCCF109298
:100C60002202089585EC8093BC0010922202089520
:100C70001F920F920FB60F9211242F933F934F9311
:100C80005F936F937F938F939F93AF93BF93EF93F4
:100C9000FF938091B90090E0887F90708036910535
:100CA00009F4C2C081369105E4F58832910509F452
:100CB0007EC089329105C4F48031910509F472C077
:100CC0008131910544F4009709F413C188309105EE
:100CD00009F013C167C08831910509F468C08032FA
:100CE000910509F00AC178C08034910509F48AC0E1
:100CF000813491054CF48033910509F46FC0883339
:100D0000910509F0FAC06EC08035910509F46EC0F6
:100D10008835910509F47BC08834910509F0EDC050
:100D2000EAC08839910509F4DAC089399105ECF4F3
:100D30008837910509F478C0893791054CF48836D5
:100D4000910509F471C08037910509F0D6C06CC0D7
:100D50008838910509F4C3C08039910509F46AC047
:100D60008038910509F0C9C065C0803B910509F440
:100D70008EC0813B91054CF4803A910509F46CC01A
:100D8000883A910509F0B9C082C0803C910509F408
:100D9000AAC0883C910509F4A6C0883B910509F0DA
:100DA000ACC08AC08091FE018093BB0013C09091BB
:100DB000FF0180910002981708F09DC08091FF010B
:100DC000E82FF0E0EF5FFD4F90819093BB008F5FC5
:100DD0008093FF0181E084C080E201C080E38093C2
:100DE000210289C088E3809321024EC08091FF01D7
:100DF0009091BB00E82FF0E0EF5FFD4F90838F5F95
:100E00008093FF019091FF018091000265C0809165
:100E1000FF019091BB00E82FF0E0EF5FFD4F908362
:100E20008F5F8093FF0167C083E08093220210925E
:100E30002302D0CF80912302803208F050C08091ED
:100E400023029091BB00E82FF0E0EC5DFD4F908312
:100E50008F5F80932302BECF80912302803230F4D3
:100E6000E0912302F0E0EC5DFD4F10820E94280625
:100E700060912302E0914402F091450284E292E005
:100E800070E00995109223020E94320636C084E079
:100E9000809322021092460210924702E09148028B
:100EA000F0914902099580914702882329F481E055
:100EB0008093470210924A0280914602E82FF0E0A8
:100EC000E65BFD4F90819093BB008F5F809346025D
:100ED0009091460280914702981708F47BCF80E0FA
:100EE0000E9420060AC081E00E9420061092220281
:100EF00004C0109221020E942806FF91EF91BF9139
:100F0000AF919F918F917F916F915F914F913F91A1
:100F10002F910F900FBE0F901F9018952F923F9218
:100F20004F925F926F927F928F929F92AF92BF92F9
:100F3000CF92DF92EF92FF920F931F93DF93CF93A5
:100F400000D000D0CDB7DEB73C01180129010396CF
:100F500049835A836B837C830E948B04C30106966A
:100F60000E948B04C30109960E948B0449815A8117
:100F70006B817C81F301428B538B648B758B268A4A
:100F8000378A408E518EC28ED38EE48EF58E868E39
:100F9000978EA0A2B1A2898D80838A8D81838B8D4B
:100FA00082830F900F900F900F90CF91DF911F9140
:100FB0000F91FF90EF90DF90CF90BF90AF909F90F8
:100FC0008F907F906F905F904F903F902F900895FB
:100FD000EF92FF920F931F93CF93DF938C017C01CD
:100FE000C0E0D0E0F70161917F012196CE01880F2A
:100FF000991F8C0F9D1F800F911F70E00E94240588
:10100000C330D10579F7DF91CF911F910F91FF90F8
:10101000EF9008952F923F924F925F926F927F923E
:101020008F929F92AF92BF92CF92DF92EF92FF92F8
:101030000F931F93DF93CF93CDB7DEB762970FB6B1
:10104000F894DEBF0FBECDBF9A8B898B4A015B013E
:101050000D831E832F83388726013701DC015296CA
:101060006D917D918D919C9155972AE33DEC43E9DB
:101070005EEB0E94D10F69837A838B839C83E9891D
:10108000FA89668D778D80A191A12AE33DEC43E931
:101090005EE30E94D10F9B01AC016D817E818F8147
:1010A00098850E94C50DD62EC72E382E292EA989C7
:1010B000BA8956968D919D910D90BC91A02D8D83EE
:1010C0009E83AF83B887A989BA895A968D919D91DD
:1010D0000D90BC91A02D89879A87AB87BC87C501ED
:1010E000B401A50194010E94D10F7B018C01A601DE
:1010F0009101652F742F832F922FD601F1012B2F91
:101100003A2F4F2F5E2F0E94D10F9B01AC01C801D7
:10111000B7010E94C60D7B018C01C301B201A3017E
:1011200092010E94D10F9B01AC01C801B7010E943E
:10113000C60D7B018C016D817E818F8198859B011D
:10114000AC010E94D10F9B01AC01C801B7010E9404
:10115000C60D7B018C0169857A858B859C859B01F9
:10116000AC010E94D10F9B01AC01C801B7010E94E4
:10117000C50D7B018C0159814A813B812C81652FF2
:10118000742F832F922FDA01B32E822E2B2F3A2F1A
:10119000482F592F0E94D10F9B01AC01C801B70104
:1011A0000E94C50D7B018C01C301B201A301920114
:1011B0000E94C60D9B01AC01C801B7010E94560EEA
:1011C00069877D878E879F8759814A81652F742F14
:1011D0008B2D982DD601F1012B2F3A2F4F2F5E2FFB
:1011E0000E94C50DA30192010E94560EF62E072FF4
:1011F000182F492EB981AA812B2F3A2F4B2D582D0C
:101200000E94D10F9B01AC01B985AD85EE84DF84CE
:101210006B2F7A2F8E2D9D2D0E94C60DE62ED72E78
:10122000C82EB92E662E772E882E992E6F2D702FF0
:10123000812F942D2F2D302F412F542D0E94D10F0F
:10124000562E372E282E988BC401B30190582E2D80
:101250003D2D4C2D5B2D0E94D10F4B015C01288947
:10126000652D732D822D922F2D813E814F815885C2
:101270000E94D10F2D813E814F8158850E94C60D5D
:101280009B01AC016D817E818F8198850E94D10F79
:101290009B01AC01C501B4010E94C60DE62ED72EFC
:1012A000C82EB92E20E030E0A9010E94520E87FF1F
:1012B00007C0E989FA8982A193A1019693A382A329
:1012C0006E2D7D2D8C2D9B2D0E9438104B015C01C5
:1012D00059854D853E852F85652F742F832F922F3D
:1012E0002F2D302F412F542D0E94D10F9B01AC0187
:1012F000B981AA81EB80DC806B2F7A2F8E2D9D2DFA
:101300000E94C50DA50194010E94C50D4B015C0111
:101310002889652D732D822D922F20E030E040E842
:101320005FE30E94C60D9B01AC01C501B4010E94A0
:10133000560EE62ED72EC82EB92E6F2D702F812F68
:10134000942D2E2D3D2D4C2D5B2D0E94D10F9B01F8
:10135000AC01B985AD851E850F856B2F7A2F812F46
:10136000902F0E94C60D3B014C0197FA909497F87C
:10137000909459814A813B812C81652F742F832F52
:10138000922F2E2D3D2D4C2D5B2D0E94C50D9B01C6
:10139000AC01C401B3010E94560E0E942A0E20E047
:1013A00030E044E353E40E94D10F2BED3FE049E4E9
:1013B00050E40E94560E162F072FF82E892E6E2D00
:1013C0007D2D8C2D9B2DB981AA81EB80DC802B2F6C
:1013D0003A2F4E2D5D2D0E94C60F18162CF420E0DA
:1013E00030E044E353E403C020E030E0A901D80139
:1013F0006B2F702F8F2D982D0E94C60D7B018C01B5
:101400007F2D912F20E030E0A9010E94C60F181611
:101410006CF46E2D7F2D802F912F20E030E044EB77
:1014200052E40E94C60F18166CF017C06E2D7F2D67
:10143000802F912F20E030E044EB52EC0E94520EBE
:1014400087FF0BC0A989BA8992968D919C91939739
:10145000019693969C938E9392976E2D7F2D802F5D
:10146000912F62960FB6F894DEBF0FBECDBFCF911D
:10147000DF911F910F91FF90EF90DF90CF90BF9081
:10148000AF909F908F907F906F905F904F903F9024
:101490002F9008952F923F924F925F926F927F927A
:1014A0008F929F92AF92BF92CF92DF92EF92FF9274
:1014B0000F931F93DF93CF93CDB7DEB72C970FB663
:1014C000F894DEBF0FBECDBF5C01FC0113A212A2D7
:1014D00064857585882777FD8095982F0E94F10E89
:1014E0003B014C01F50166857785882777FD80955E
:1014F000982F0E94F10E1B012C01F5016089718962
:10150000882777FD8095982F0E94F10E6B017C0152
:10151000C501B401A301920181010E940A086983F7
:101520007A838B839C83F50164857585882777FD95
:101530008095982F0E94F10E3B014C01F5016685C4
:101540007785882777FD8095982F0E94F10E7B0183
:101550008C01C401B30120E030E040E05FEB0E9469
:10156000D10F1B012C01C801B70127ED33EB4DE56D
:101570005FE30E94D10F9B01AC01C201B1010E9447
:10158000C60D1B012C01C801B70120E030E040E08E
:101590005FEB0E94D10F7B018C01C401B30127EDE9
:1015A00033EB4DE55FE30E94D10F9B01AC01C80115
:1015B000B7010E94C50D3B014C01F501608971899D
:1015C000882777FD8095982F0E94F10E6B017C0192
:1015D000C501B201A101940183010E940A086D8333
:1015E0007E838F839887F50164857585882777FDCD
:1015F0008095982F0E94F10E3B014C01F501668504
:101600007785882777FD8095982F0E94F10E7B01C2
:101610008C01C401B30120E030E040E05FEB0E94A8
:10162000D10F1B012C01C801B70127ED33EB4DE5AC
:101630005FE30E94D10F9B01AC01C201B1010E9486
:10164000C50D1B012C01C801B70120E030E040E0CE
:101650005FEB0E94D10F7B018C01C401B30127ED28
:1016600033EB4DE55FE30E94D10F9B01AC01C80154
:10167000B7010E94C60D3B014C01F50160897189DB
:10168000882777FD8095982F0E94F10E6B017C01D1
:10169000C501B201A101940183010E940A08698772
:1016A0007A878B879C87F50182A193A1009709F027
:1016B0005DC03E010894611C711CCC24DD24F30143
:1016C00021913191419151913F0160E070E084EBB3
:1016D00092E40E94C50D20EA3AE147E151E40E94FC
:1016E000D10F20E030E842E254E40E94C60D162FEC
:1016F000072FF82EE92EA8019701652F742F832F4D
:10170000922F20E030E842E254E40E94520E87FD1E
:1017100017C0A8019701652F742F832F922F20E007
:1017200030E046E155E40E94C60F181664F0A801A7
:101730009701652F742F832F922F0E94BE0E05C034
:101740006AE872E002C060E679E086010F5F1F4F31
:10175000C801880F991F800F911F8A0D9B1D0E9441
:101760002B0568010330110509F0A9CFF50182A10D
:101770002C960FB6F894DEBF0FBECDBFCF91DF9190
:101780001F910F91FF90EF90DF90CF90BF90AF909F
:101790009F908F907F906F905F904F903F902F9091
:1017A0000895FC017587648757874687318B208BA6
:1017B0000E944A0A08956F927F928F929F92AF92F1
:1017C000BF92CF92DF92EF92FF920F931F93CF932E
:1017D000DF93EC015B016A017901C80168EE73E0F7
:1017E0000E949A103B01882499248C859D858A1536
:1017F0009B052CF401969D878C8720E001C021E099
:101800008C859D85A816B90624F401979D878C8741
:1018100020E08E859F858C159D0524F401969F8779
:101820008E8720E08E859F85C816D90624F40197FF
:101830009F878E8720E0888999898E159F0524F4DB
:101840000196998B888B20E088899989E816F9069A
:1018500024F40197998B888B02C0222391F4CE0146
:101860000E944A0A882379F487E20131180728F098
:10187000C401B3010E94C10CB8CFC8010E94E80C9A
:10188000B4CF80E001C081E0DF91CF911F910F9133
:10189000FF90EF90DF90CF90BF90AF909F908F9090
:1018A0007F906F9008951F920F920FB60F921124A0
:1018B0002F933F938F939F93AF93BF9380916E022B
:1018C00090916F02A0917002B091710230917202FA
:1018D0000196A11DB11D232F2D5F2D3720F02D570F
:1018E0000196A11DB11D2093720280936E02909308
:1018F0006F02A0937002B093710280916A0290917E
:101900006B02A0916C02B0916D020196A11DB11DF8
:1019100080936A0290936B02A0936C02B0936D0265
:10192000BF91AF919F918F913F912F910F900FBEDB
:101930000F901F9018959FB7F89420916A023091EC
:101940006B0240916C0250916D0286B5A89B06C057
:101950008F3F21F02F5F3F4F4F4F5F4F9FBF542F5F
:10196000432F322F2227280F311D411D511D82E0A8
:10197000220F331F441F551F8A95D1F7B901CA01A1
:101980000895EF92FF920F931F93CF93DF937B0104
:101990008C010E949B0CEB010FC00E949B0C6C1BE6
:1019A0007D0B83E0683E780738F00894E108F10881
:1019B00001091109C851DC4FE114F10401051105B9
:1019C00061F7DF91CF911F910F91FF90EF900895F4
:1019D000019739F0880F991F880F991F0297019777
:1019E000F1F70895789484B5826084BD84B58160F0
:1019F00084BD85B5826085BD85B5816085BDEEE617
:101A0000F0E0808181608083E1E8F0E010828081F5
:101A100082608083808181608083E0E8F0E0808163
:101A200081608083E1EBF0E0808184608083E0EB83
:101A3000F0E0808181608083EAE7F0E0808184606B
:101A400080838081826080838081816080838081C7
:101A5000806880831092C1000895833071F08430D3
:101A600028F48130A1F0823021F514C08630B1F025
:101A70008730D1F08430E9F404C0809180008F7702
:101A800003C0809180008F7D80938000089584B58D
:101A90008F7702C084B58F7D84BD08958091B0009A
:101AA0008F778093B00008958091B0008F7D8093F0
:101AB000B000089590E0FC01E953FF4F2491FC0130
:101AC000ED54FF4FE491EE23C1F0F0E0EE0FFF1F65
:101AD000EB56FF4F85919491DC01662341F49FB74B
:101AE000F8948C91209582238C939FBF08959FB783
:101AF000F8948C91822B8C939FBF08950F931F9322
:101B0000DF93CF930F92CDB7DEB7282F30E0F901E6
:101B1000E552FF4F8491F901E953FF4F14912D5481
:101B20003F4FF90104910023D9F0882321F0698304
:101B30000E942D0D6981E02FF0E0EE0FFF1FE156AE
:101B4000FF4F85919491DC019FB7F894662321F4AF
:101B50008C911095812302C08C91812B8C939FBF17
:101B60000F90CF91DF911F910F910895CF93DF9345
:101B70000E94F20C0E94A800C0E0D0E00E94540332
:101B80002097E1F30E940000F9CF5058BB27AA2705
:101B90000ED0C2C1B3D130F0B8D120F031F49F3FA4
:101BA00011F41EF483C10EF4E095E7FB79C1E92F2F
:101BB000C4D180F3BA17620773078407950718F03A
:101BC00071F49EF5DCC10EF4E0950B2EBA2FA02D1A
:101BD0000B01B90190010C01CA01A0011124FF27DA
:101BE000591B99F0593F50F4503E68F11A16F040D5
:101BF000A22F232F342F4427585FF3CF46953795D4
:101C00002795A795F0405395C9F77EF41F16BA0B98
:101C1000620B730B840BBAF09150A1F0FF0FBB1F46
:101C2000661F771F881FC2F70EC0BA0F621F731F8F
:101C3000841F48F4879577956795B795F7959E3FEC
:101C400008F0B3CF9395880F08F09927EE0F97957A
:101C500087950895DF93DD27B92FBF7740E85FE3CD
:101C60001616170648075B0710F4D92F93D19F93D8
:101C70008F937F936F933AD2E8E6F0E01AD14CD17C
:101C80002F913F914F915F9198D1DD2349F090586A
:101C9000A2EA2AED3FE049EC5FE3D0785D2787DFD9
:101CA000DF913AC1D9D008F481E008950CD034C155
:101CB0002CD140F023D130F021F45F3F19F0F0C077
:101CC00051115EC1F3C039D198F39923C9F355235B
:101CD000B1F3951B550BBB27AA276217730784071F
:101CE00038F09F5F5F4F220F331F441FAA1FA9F3D5
:101CF00033D00E2E3AF0E0E830D091505040E695C7
:101D0000001CCAF729D0FE2F27D0660F771F881F27
:101D1000BB1F261737074807AB07B0E809F0BB0B16
:101D2000802DBF01FF2793585F4F2AF09E3F51053A
:101D300068F0B6C025C15F3FECF3983EDCF38695B2
:101D400077956795B795F7959F5FC9F7880F911DB0
:101D50009695879597F90895E1E0660F771F881F9C
:101D6000BB1F621773078407BA0720F0621B730B4F
:101D7000840BBA0BEE1F88F7E095089504D06894A1
:101D8000B111FEC00895E1D088F09F5790F0B92FAF
:101D90009927B751A0F0D1F0660F771F881F991FC0
:101DA0001AF0BA95C9F712C0B13081F0E8D0B1E0AD
:101DB0000895E5C0672F782F8827B85F39F0B93FBD
:101DC000CCF3869577956795B395D9F73EF49095C2
:101DD0008095709561957F4F8F4F9F4F0895E89440
:101DE00009C097FB3EF490958095709561957F4F63
:101DF0008F4F9F4F9923A9F0F92F96E9BB27939511
:101E0000F695879577956795B795F111F8CFFAF420
:101E1000BB0F11F460FF1BC06F5F7F4F8F4F9F4F51
:101E200016C0882311F096E911C0772321F09EE8AF
:101E3000872F762F05C0662371F096E8862F70E015
:101E400060E02AF09A95660F771F881FDAF7880FEF
:101E50009695879597F90895990F0008550FAA0B45
:101E6000E0E8FEEF16161706E807F907C0F01216AD
:101E70001306E407F50798F0621B730B840B950BB0
:101E800039F40A2661F0232B242B252B21F4089505
:101E90000A2609F4A140A6958FEF811D811D0895A2
:101EA00097F99F6780E870E060E008959FEF80EC0D
:101EB0000895DF93CF931F930F93FF92EF92DF92DA
:101EC0007B018C01689405C0DA2EEF0176D0FE010B
:101ED000E894A5912591359145915591AEF3EF0187
:101EE00066DEFE019701A801DA9479F7DF90EF90A2
:101EF000FF900F911F91CF91DF91089500240A94D4
:101F00001616170618060906089500240A941216D4
:101F10001306140605060895092E0394000C11F407
:101F2000882352F0BB0F40F4BF2B11F460FF04C0B4
:101F30006F5F7F4F8F4F9F4F089557FD9058440F0D
:101F4000551F59F05F3F71F04795880F97FB991F18
:101F500061F09F3F79F087950895121613061406D5
:101F6000551FF2CF4695F1DF08C016161706180662
:101F7000991FF1CF86957105610508940895E8943D
:101F8000BB2766277727CB0197F9089565DF08F40B
:101F90008FEF08959B01AC0160E070E080E89FE363
:101FA00085CE0BD0B9CFAADF28F0AFDF18F095238C
:101FB00009F076CF7BCF1124E3CFBFDFA0F3959F4D
:101FC000D1F3950F50E0551F629FF001729FBB2720
:101FD000F00DB11D639FAA27F00DB11DAA1F649FCC
:101FE0006627B00DA11D661F829F2227B00DA11D7F
:101FF000621F739FB00DA11D621F839FA00D611D05
:10200000221F749F3327A00D611D231F849F600D25
:10201000211D822F762F6A2F11249F5750408AF05E
:10202000E1F088234AF0EE0FFF1FBB1F661F771FEA
:10203000881F91505040A9F79E3F510570F030CF56
:102040009FCF5F3FECF3983EDCF3869577956795DD
:10205000B795F795E7959F5FC1F7FE2B880F911D08
:102060009695879597F9089511F40EF41FCF41C006
:102070006CDFD0F39923D9F3CEF39F57550B87FF2D
:1020800046D00024A0E640EA9001805856959795E6
:1020900028F4805C660F771F881F20F0261737070B
:1020A000480730F4621B730B840B202931294A2B1B
:1020B000A69517940794202531254A2758F7660FCF
:1020C000771F881F20F026173707480730F4620B68
:1020D000730B840B200D311D411DA09581F7B901B3
:1020E000842F9158880F9695879508959B01AC0190
:1020F00058CF9F3F31F0915020F4879577956795A1
:10210000B795880F911D9695879597F908959150E9
:102110005040660F771F881FD2F70895991B79E00A
:1021200004C0991F961708F0961B881F7A95C9F767
:1021300080950895AA1BBB1B51E107C0AA1FBB1FB6
:10214000A617B70710F0A61BB70B881F991F5A9543
:10215000A9F780959095BC01CD01089597FB092EB4
:1021600007260AD077FD04D0E5DF06D000201AF458
:10217000709561957F4F0895F6F7909581959F4FE3
:102180000895EE0FFF1F0590F491E02D0994F89447
:02219000FFCF7F
:1021920001960000000000BF058D055F0568057C03
:0421A200058C0500A3
:00000001FF
