:100000000C947B000C94A3000C94A3000C94A3000C
:100010000C94A3000C94A3000C94A3000C94520223
:100020000C94A3000C94A3000C94A3000C94B409AA
:100030000C94A3000C94A3000C94A3000C94A300B4
:100040000C940F110C94A9000C944B130C947C137A
:100050000C94A3000C94A3000C94A3000C94A30094
:100060000C944A0D0C94A300084AD73B3BCE016E7A
:1000700084BCBFFDC12F3D6C74319ABD56833DDAFF
:100080003D00C77F11BED9E4BB4C3E916BAAAABE0E
:10009000000000803F00000000240027002A00002C
:1000A000000000250028002B00000000002300268F
:1000B00000290004040404040404040202020202ED
:1000C000020303030303030102040810204080011C
:1000D000020408102001020408102000000007009C
:1000E0000201000003040600000000000000000000
:1000F000A309720C411411241FBECFEFD8E0DEBF5C
:10010000CDBF11E0A0E0B1E0E0E0F1E302C0059076
:100110000D92A039B107D9F713E0A0E9B1E001C011
:100120001D92A238B107E1F710E0C6EFD0E004C09D
:100130002297FE010E947A18C03FD107C9F70E949A
:100140007E140C947E180C9400008CB580688CBDD5
:1001500008951F920F920FB60F9211242F933F9381
:100160004F938F939F9380916F01882309F47BC0F5
:100170008EB5823031F483E08EBD81E08093A201A0
:1001800009C08EB5843069F485E08EBD82E080932D
:10019000A20181E08093E10110926F011092ED01C4
:1001A00077C18EB5863021F487E08EBD83E031C003
:1001B0008EB5883061F481E08EBD94E09093A20109
:1001C0008093E10110926F018093ED0161C18EB5C2
:1001D0008A3021F48BE08EBD85E0D9CF8EB58C308E
:1001E00021F48DE08EBD86E0D2CF8EB58E3021F425
:1001F0008FE08EBD87E0CBCF8EB5803121F481E1D9
:100200008EBD88E0C4CF8EB5823139F483E18EBDD6
:1002100089E08093A20181E0D3CF8EB5843121F4AF
:1002200085E18EBD8AE0B3CF8EB5863121F487E1BA
:100230008EBD8BE0ACCF8EB5883121F489E18EBDC7
:100240008CE0A5CF8EB58A3121F48BE18EBD8DE097
:100250009ECF8EB58C3121F48DE18EBD8EE097CF8F
:100260001092A2019BCF8091E1018823A1F181E04E
:100270008093E2011092E1018091A201813009F4A2
:1002800007C1823009F404C1833011F0843039F49D
:100290008EB590E09093EA018093E901F9C0853032
:1002A00031F0863021F0873011F0883039F48EB586
:1002B00090E09093EC018093EB01EAC0893019F44F
:1002C0008091A6013FC08A3009F0E2C08091E90127
:1002D0009091EA0137C08091E2018823A9F1109240
:1002E000E20181E08093E3018091A201813009F471
:1002F000CFC0823009F4CCC0833011F0843039F49F
:100300008EB590E09093E6018093E501C1C0853001
:1003100031F0863021F0873011F0883039F48EB515
:1003200090E09093E8018093E701B2C0893019F41E
:100330008091A40107C08A3009F0AAC08091E5012C
:100340009091E6018EBDA4C08091E301882379F0ED
:100350008091A201893029F08EB58093DE01109240
:10036000DF011092E30181E08093E40191C080916C
:10037000E401882309F48CC01092E40181E08093A9
:100380006F014091A201413009F47DC0423009F46F
:100390007AC0433011F04430B9F48091E901909172
:1003A000EA012091E5013091E601982F8827820F1C
:1003B000931F9093DD018093DC0187E890E0909398
:1003C000DF018093DE015FC0453091F48091EB0145
:1003D0009091EC012091E7013091E801982F882756
:1003E000820F931F9093DD018093DC0185E042C072
:1003F000463089F48091EB019091EC012091E70166
:100400003091E801982F8827820F931F9093DD0188
:100410008093DC0138C0473091F48091EB019091DA
:10042000EC012091E7013091E801982F8827820F95
:10043000931F9093DD018093DC0189E01BC048305D
:1004400091F48091EB019091EC012091E7013091C2
:10045000E801982F8827820F931F9093DD018093E6
:10046000DC0187E007C0493099F04A3089F04B3011
:1004700021F488E08093DB010BC04C3021F04D303B
:1004800011F04E3019F44093DB0102C01092DB01F1
:100490009F918F914F913F912F910F900FBE0F9091
:1004A0001F9018951F920F920FB60F9211242F9341
:1004B0008F939F938091CD018F5F8093CD0185367F
:1004C00010F01092CD018091D001882351F08091DD
:1004D000CE019091CF0101969093CF018093CE01F0
:1004E00004C01092CF011092CE018091CE01909164
:1004F000CF0127E0813D920720F01092CF011092AA
:10050000CE019F918F912F910F900FBE0F901F9052
:1005100018951F93182F873918F4833018F003C0EB
:1005200016E901C013E082ED91E063E070E00E9403
:100530000B0B82ED91E0612F70E00E94460B109250
:10054000DB011092B9011092BA011092BB01109216
:10055000BC011092BD011092BE011092BF01109219
:10056000C0011F9108951F93CF93DF93182FC5EDFE
:10057000D1E0CE0169E070E00E940B0BCE01612F4B
:1005800070E00E94460B1092DB011092B9011092AC
:10059000BA011092BB011092BC011092BD011092E1
:1005A000BE011092BF011092C001DF91CF911F9147
:1005B00008951F93182F8CB58F7B8CBD88ED91E02B
:1005C0006AE070E00E940B0B88ED91E0612F70E013
:1005D0000E94460B8091D001882319F481E080931A
:1005E000D0018091CE019091CF0122E08D3B920706
:1005F00028F18CE061E00E940C128CB580648CBD07
:100600001092B7011092B8010E94A5001092DB0170
:100610001092B9011092BA011092BB011092BC0164
:100620001092BD011092BE011092BF011092C00144
:100630001092CF011092CE011092D0011F91089517
:1006400082E00E9468122091C10130E08217930776
:10065000C1F082E00E9468128093C1018091B901CB
:100660009091BA01A091BB01B091BC01C796A11DA8
:10067000B11D8093B9019093BA01A093BB01B093CF
:10068000BC0184E00E9468122091C20130E0821710
:100690009307C1F084E00E9468128093C2018091A8
:1006A000BD019091BE01A091BF01B091C001C7965C
:1006B000A11DB11D8093BD019093BE01A093BF0108
:1006C000B093C001089582E00E9468122091C10198
:1006D00030E082179307C1F082E00E946812809395
:1006E000C1018091B9019091BA01A091BB01B09173
:1006F000BC010596A11DB11D8093B9019093BA016B
:10070000A093BB01B093BC0184E00E9468122091C9
:10071000C20130E082179307C1F084E00E946812A2
:100720008093C2018091BD019091BE01A091BF0153
:10073000B091C0010596A11DB11D8093BD0190939C
:10074000BE01A093BF01B093C0010895DF92EF9264
:10075000FF920F931F937B018C01D42E0E946303A1
:100760008091B9019091BA01A091BB01B091BC01F7
:100770008E159F05A007B10700F58091BD019091EE
:10078000BE01A091BF01B091C0018E159F05A007C9
:10079000B10798F485E06D2D70E00E94AF1086E0FF
:1007A0006D2D70E00E94AF1087E060E00E94301273
:1007B00088E061E00E94301240C087E061E00E9462
:1007C000301288E060E00E94301283EDE816F104F8
:1007D0000105110528F062E870E080E090E00FC0AC
:1007E00089E1E816F1040105110528F46FE070E0D5
:1007F00080E090E004C068EC70E080E090E00E944F
:100800007D1185E060E070E00E94AF1086E060E05E
:1008100070E00E94AF101092DB011092B9011092AB
:10082000BA011092BB011092BC011092BD0110924E
:10083000BE011092BF011092C00160E070E0CB01D8
:100840001F910F91FF90EF90DF900895DF92EF924C
:10085000FF920F931F937B018C01D42E0E946303A0
:100860008091B9019091BA01A091BB01B091BC01F6
:100870008E159F05A007B10700F58091BD019091ED
:10088000BE01A091BF01B091C0018E159F05A007C8
:10089000B10798F485E06D2D70E00E94AF1086E0FE
:1008A0006D2D70E00E94AF1087E061E00E94301271
:1008B00088E060E00E94301240C087E060E00E9463
:1008C000301288E061E00E94301283EDE816F104F6
:1008D0000105110528F062E870E080E090E00FC0AB
:1008E00089E1E816F1040105110528F46FE070E0D4
:1008F00080E090E004C068EC70E080E090E00E944E
:100900007D1185E060E070E00E94AF1086E060E05D
:1009100070E00E94AF101092DB011092B9011092AA
:10092000BA011092BB011092BC011092BD0110924D
:10093000BE011092BF011092C00160E070E0CB01D7
:100940001F910F91FF90EF90DF90089582E00E9439
:1009500068122091CB0130E082179307C1F082E04A
:100960000E9468128093CB018091C3019091C401D1
:10097000A091C501B091C6010196A11DB11D809342
:10098000C3019093C401A093C501B093C60184E054
:100990000E9468122091CC0130E082179307C1F0C9
:1009A00084E00E9468128093CC018091C7019091ED
:1009B000C801A091C901B091CA010196A11DB11D44
:1009C0008093C7019093C801A093C901B093CA0155
:1009D000089580E991E04EEA57E461E67FE30E94E2
:1009E000D70EBC01009749F080E991E00E94A51064
:1009F000BC0183E693E00E94E51480E991E060E0A9
:100A00000E94D00EBC01009749F080E991E00E945D
:100A1000A510BC0183E693E00E94E51408951F939E
:100A2000DF93CF9300D000D0CDB7DEB7F8948AE043
:100A30008093B300E0EBF0E080818260808382E00D
:100A400080937000E1EBF0E0808184608083789493
:100A500083E693E040E052EC61E070E00E94C31353
:100A60008AE592E00E943A0CCE0101960E94A00E07
:100A700089819A81AB81BC8180939001909391018F
:100A8000A0939201B09393010E94E9048EE091E05B
:100A900090939A018093990110929C0110929B016E
:100AA00010929D0110929E0110929F0111E01093EF
:100AB000A00184E090E09093A9018093A80187E0D1
:100AC00090E09093AB018093AA0188E28093AC01FF
:100AD0008CE061E00E940C128CB580648CBD109299
:100AE000B7011092B8010E94A50085E061E00E9464
:100AF0000C1286E061E00E940C1287E061E00E9427
:100B00000C1288E061E00E940C1281E061E00E941A
:100B10000C1282E060E00E940C1284E060E00E940F
:100B20000C1285E061E00E94301286E061E00E94D4
:100B3000301287E061E00E94301288E061E00E949C
:100B4000301285E060E070E00E94AF1086E060E067
:100B500070E00E94AF101092B9011092BA01109289
:100B6000BB011092BC011092BD011092BE01109207
:100B7000BF011092C0011092C1011092C2011092E7
:100B8000C3011092C4011092C5011092C6011092C7
:100B9000C7011092C8011092C9011092CA011092A7
:100BA000CB011092CC011092D1011092AE011092A3
:100BB000AD011092CD011092CF011092CE01109292
:100BC000D0011092DB011092DD011092DC01109235
:100BD000DF011092DE011092E0011092AF0110923D
:100BE000B0011092B1011092B2011092B3011092B3
:100BF000B4011092B5011092B6011093A1011092A8
:100C0000A2011093A3011092A5011092A4011092C9
:100C1000A7011092A60110929601109298011092CD
:100C200097010F900F900F900F90CF91DF911F9130
:100C30000895EF92FF920F931F93DF93CF93CDB759
:100C4000DEB72C970FB6F894DEBF0FBECDBFCE0136
:100C5000019660E971E00E942F106D817E818F8185
:100C6000988520E030E04AE253E40E94421520E0FB
:100C700030E044ED52E40E94831720E030E048EC7D
:100C800052E40E940C167B018C0169817A818B8170
:100C90009C8120E030E048EC52E40E9441159B0129
:100CA000AC01C801B7010E94B51521EE3EE245E650
:100CB00052E40E9483170E94741677FF03C068599C
:100CC0007E4F06C081E06936780714F0685671409F
:100CD000CB012C960FB6F894DEBF0FBECDBFCF91DF
:100CE000DF911F910F91FF90EF9008959C0168177D
:100CF000790710F028593E4F261B370BC90108957C
:100D0000680F791F81E06836780710F068567140E7
:100D1000CB0108959C016817790710F028593E4FC0
:100D2000261B370BC9010895CF92DF92EF92FF92F5
:100D30000F931F93CF93DF937C018B01EA01CA01CC
:100D4000860F971F21E0893692072CF49B01241B04
:100D5000350B37FF10C0C801BE010E948006E8169F
:100D6000F90680F0C801BE010E948A0641E08E1596
:100D70009F0558F407C0E816F90634F441E02E1533
:100D80003F051CF440E001C041E0842FDF91CF918A
:100D90001F910F91FF90EF90DF90CF900895AF9249
:100DA000BF92CF92DF92EF92FF920F931F93CF9358
:100DB000DF93B82EA92E062F0E9420030E94190649
:100DC0007C0180939401F092950110E0C09097010E
:100DD000D0909801B60142E050E00E94940688232A
:100DE00009F45AC0C701B6010E947606EC01C6019B
:100DF000B7010E947606C817D90720F5C801880FE9
:100E0000991F9801E3E0220F331FEA95E1F7820F63
:100E1000931F6DE070E00E941418E62EE7017E013A
:100E2000F72EE7010E151F0508F4E8012DE030E06C
:100E3000029FC001039F900D129F900D11246AE044
:100E400070E023C02DE030E0029FC001039F900DB1
:100E5000129F900D11246AE070E00E941418E62E93
:100E6000E7017E01F72EE7010E151F0508F4E801E2
:100E7000C801880F991F980163E0220F331F6A95FC
:100E8000E1F7820F931F6DE070E00E9414180617BF
:100E9000170720F4B80102C0B801EB012B2D3A2D41
:100EA000C901880F991F43E0220F331F4A95E1F7CC
:100EB000820F931FA0E0B0E02091B9013091BA01F8
:100EC0004091BB015091BC01281739074A075B07C5
:100ED000E8F42091BD013091BE014091BF015091D5
:100EE000C001281739074A075B0780F485E00E9494
:100EF000AF1086E0BE010E94AF1087E060E00E9464
:100F0000301288E060E00E9430121CC085E060E092
:100F100070E00E94AF1086E060E070E00E94AF10C9
:100F20001092DB011092B9011092BA011092BB012C
:100F30001092BC011092BD011092BE011092BF012F
:100F40001092C00160E070E0CB01DF91CF911F9162
:100F50000F91FF90EF90DF90CF90BF90AF900895EA
:100F6000AF92BF92CF92DF92EF92FF920F931F93B7
:100F7000CF93DF93B82EA92E062F0E9420030E9444
:100F800019067C0180939401F092950110E0C090C5
:100F90009701D0909801B60142E050E00E9494067B
:100FA000882309F455C0C701B6010E947606EC01FA
:100FB000C601B7010E947606C817D90708F5C8010F
:100FC000880F991F9801E3E0220F331FEA95E1F79C
:100FD000820F931F6DE070E00E941418262F372FA8
:100FE0000217130708F498014DE050E0049FC00178
:100FF000059F900D149F900D11246AE070E020C0B1
:101000002DE030E0029FC001039F900D129F900DD4
:1010100011246AE070E00E941418262F372F02175F
:10102000130708F49801C801880F991FA80163E00D
:10103000440F551F6A95E1F7840F951F6DE070E02E
:101040000E941418EB010617170720F4E80102C0EC
:10105000E8019E014B2D5A2DCA01880F991FA3E06C
:10106000440F551FAA95E1F7840F951FA0E0B0E04B
:101070004091B9015091BA016091BB017091BC01DE
:10108000481759076A077B07F0F44091BD0150915A
:10109000BE016091BF017091C001481759076A07EE
:1010A0007B0788F485E0B9010E94AF1086E0BE019D
:1010B0000E94AF1087E061E00E94301288E061E09A
:1010C0000E9430121FC085E060E070E00E94AF1007
:1010D00086E060E070E00E94AF101092DB01109299
:1010E000B9011092BA011092BB011092BC0110928A
:1010F000BD011092BE011092BF011092C00181E0AB
:101100008093960160E070E0CB01DF91CF911F9159
:101110000F91FF90EF90DF90CF90BF90AF90089528
:10112000EF92FF920F931F93CF93DF930E941906C4
:101130008C018093940110939501E0909901F090B7
:101140009A014091A8015091A901B7010E9494060B
:101150008823D1F1C801B7010E947606EC01C701CE
:10116000B8010E9476062091CD01C817D907A8F4CE
:10117000223350F160919E0185E070E00E94AF1033
:1011800060919E0186E070E00E94AF1087E061E010
:101190000E94301288E060E014C02233A8F0609111
:1011A0009E0185E070E00E94AF1060919E0186E094
:1011B00070E00E94AF1087E060E00E94301288E08B
:1011C00061E00E9430120AC085E060E070E00E9499
:1011D000AF1086E060E070E00E94AF10DF91CF9129
:1011E0001F910F91FF90EF9008958091ED0188235A
:1011F000A1F00E941906909395018093940160E0FC
:1012000071E00E9414189093A5018093A40170933B
:10121000A7016093A6011092ED018091DB0181305E
:1012200059F46091DC017091DD0180E090E0409123
:10123000DE010E9426047EC0823059F46091DC01F8
:101240007091DD0180E090E04091DE010E94A603F4
:1012500071C08330A9F480919601882331F00E94F7
:1012600019069093980180939701109296018091AE
:10127000DC019091DD016091DE010E94B0075AC04F
:101280008430A9F480919601882331F00E941906D8
:101290009093980180939701109296018091DC01C0
:1012A0009091DD016091DE010E94CF0643C0853040
:1012B00029F48091DC010E94B3023CC0863029F4FD
:1012C0008091DC010E94890235C0873091F48091C1
:1012D000DC019091DD0190939A01809399018091B6
:1012E000DE0180939F0180939E0181E080939D01A8
:1012F00021C08830C9F48091DC019091DD01909388
:101300009A018093990110929F0110929E0185E0AD
:1013100060E070E00E94AF1086E060E070E00E9444
:10132000AF1010929D0106C0893021F48091DC013C
:101330000E94D9020E94A60480919D01882311F089
:101340000E949008089580E991E00E94A00E82ED2D
:1013500091E00E94720A85ED91E00E94720A88ED88
:1013600091E00E94720A08951F920F920FB60F9299
:1013700011242F933F934F935F936F937F938F939A
:101380009F93AF93BF93EF93FF938091130287FFD7
:1013900005C010928500109284002BC0209113028A
:1013A000332727FD30958091EE0190E0281739070B
:1013B00004F580911302992787FD9095FC01EE0FAB
:1013C000FF1FE80FF91FE151FE4F808186FF11C01A
:1013D00080911302992787FD9095FC01EE0FFF1F66
:1013E000E80FF91FE151FE4F80818F7360E00E948A
:1013F0003012809113028F5F8093130220911302A9
:10140000332727FD30958091EE0190E028173907AA
:101410000CF04EC0809113028C300CF049C08091CA
:1014200084009091850020911302332727FD309589
:10143000F901EE0FFF1FE20FF31FE151FE4F218173
:101440003281820F931F909389008093880080914E
:101450001302992787FD9095FC01EE0FFF1FE80FFF
:10146000F91FE151FE4F808186FF2BC0809113024E
:10147000992787FD9095FC01EE0FFF1FE80FF91FDC
:10148000E151FE4F80818F7361E00E94301219C0DC
:1014900080E49CE905C080918400909185000496C9
:1014A00090938900809388008FEF8093130209C086
:1014B00080918400909185002CE98434920740F358
:1014C000EACFFF91EF91BF91AF919F918F917F9163
:1014D0006F915F914F913F912F910F900FBE0F90A1
:1014E0001F901895FC018091EE018C3090F4808360
:1014F0008F5F8093EE01808190E0FC01EE0FFF1F73
:10150000E80FF91FE151FE4F88EB9BE09283818346
:1015100008958FEF80830895DF92EF92FF920F93EB
:101520001F93CF93DF93EC01D62E8A017901888136
:101530008C3008F064C0862F61E00E940C12488154
:10154000842F90E0FC01EE0FFF1FE80FF91FE1511F
:10155000FE4F9D2D9F738081807C892B808380E24C
:1015600092E0801B910B24E030E0B9010E94141836
:10157000698380E699E08E199F09B9010E941418C9
:101580006A83842F6CE00E94081890E09C01220F6F
:10159000331F280F391F220F331F220F331F40E044
:1015A00050E0BA01620F731FFB01EE0FFF1FE60F41
:1015B000F71FE151FE4F608166FD15C04F5F5F4F21
:1015C0004C30510571F724C01092800082E0809366
:1015D00081001092850010928400B19A80916F0072
:1015E000826080936F00888190E0FC01EE0FFF1F06
:1015F000E80FF91FE151FE4F80818064808388816C
:10160000DF91CF911F910F91FF90EF90DF900895A0
:101610000097D1F2E8CF40E252E020E639E00E94A4
:101620008C0A0895FC0120812C3078F541815527E2
:1016300047FD509588E890E0841B950B880F991F13
:10164000880F991F6817790784F04281552747FD55
:10165000509588E592E0841B950B880F991F880FA1
:10166000991F681779070CF4CB014FB7F89430E055
:10167000F901EE0FFF1FE20FF31FE151FE4F02973A
:10168000880F991F928381834FBF0895AF92BF92B5
:10169000CF92DF92EF92FF920F931F93CF93DF933E
:1016A000EC0182E0603278070CF046C077FD04C0A0
:1016B000653B710524F405C060E070E002C064EB96
:1016C00070E000D000D0882777FD8095982F498161
:1016D000552747FD509528E830E0241B350B220F95
:1016E000331F220F331F5901CC24B7FCC094DC2CCC
:1016F0004A81552747FD509528E532E0241B350BDC
:10170000220F331F220F331F442737FD4095542FDC
:10171000EDB7FEB7218332834383548320E030E06A
:10172000A901B4EBEB2EF12C012D112D0E94F81420
:101730000F900F900F900F90CE010E94120BDF912F
:10174000CF911F910F91FF90EF90DF90CF90BF90BE
:10175000AF9008952091350230E080913402281B2B
:101760003109C90108958091340290913502891799
:1017700050F4E82FF0E0EC5EFD4F208130E08F5F09
:101780008093340202C02FEF3FEFC9010895E0912A
:10179000340280913502E81730F4F0E0EC5EFD4F42
:1017A000208130E002C02FEF3FEFC9010895089576
:1017B000CF92DF92EF92FF920F931F93CF93DF931D
:1017C0006C01CB01EA01209159022223B1F0E62EEF
:1017D000F92E00E010E00DC0D7016D917D01D6011A
:1017E000ED91FC910190F081E02DC60109950F5F0C
:1017F0001F4F0C171D0780F303C0642F0E94180DA4
:10180000CE01DF91CF911F910F91FF90EF90DF906C
:10181000CF900895DF93CF930F92CDB7DEB7698352
:10182000209159022223D1F020915802203240F019
:1018300021E030E0FC013383228320E030E015C05A
:1018400080915702E82FF0E0E95CFD4F9981908389
:101850008F5F809357028093580205C0CE01019696
:1018600061E00E94180D21E030E0C9010F90CF9196
:10187000DF910895109234021092350210925702AF
:10188000109258020E94890C0895862F413208F068
:1018900040E264E172E00E94A20C10923402809354
:1018A000350208950E94450C089581E08093590205
:1018B00060933602109257021092580208950E94C7
:1018C000550C08958091360267E372E0409158020A
:1018D00021E00E94D80C10925702109258021092E8
:1018E0005902089510925D0210925C0288EE93E016
:1018F000A0E0B0E080935E0290935F02A09360024C
:10190000B093610284E791E090935B0280935A0266
:10191000089510928A0282E161E00E94301283E110
:1019200061E00E943012E9EBF0E080818E7F8083DD
:1019300080818D7F808388E48093B80085E48093E4
:10194000BC000895413288F590918A029923E1F70D
:1019500091E090938A029FEF909389021092670220
:10196000942F915090936802880F81608093660253
:1019700085EE8093BC0080918A028130E1F38091F2
:101980006702841710F440916702E9E6F2E0262F1F
:10199000372FD901242F30E02E0F3F1F02C0819135
:1019A0008D93E217F307D9F701C040E0842F089523
:1019B0004132B0F590918A029923E1F792E0909339
:1019C0008A029FEF90938902109267024093680207
:1019D000DB01E9E6F2E050E04E0F5F1F02C09D918F
:1019E0009193E417F507D9F790E0880F991F80933A
:1019F000660285EE8093BC00222321F080918A024A
:101A00008230E1F3809189028F3F61F080918902F9
:101A1000803251F080918902803341F483E008954F
:101A200081E0089580E0089582E0089584E00895BB
:101A30006132A0F420918A02243091F46093AF02C5
:101A4000DC01E2EBF2E070E06E0F7F1F02C08D91CF
:101A50008193E617F707D9F780E0089581E00895AC
:101A600082E00895882311F085EC01C085E8809319
:101A7000BC00089585ED8093BC008091BC0084FD7E
:101A8000FCCF10928A02089585EC8093BC001092DE
:101A90008A0208951F920F920FB60F9211242F936E
:101AA0003F934F935F936F937F938F939F93AF93E6
:101AB000BF93EF93FF938091B90090E0887F90707F
:101AC0008036910509F4C2C081369105E4F588326B
:101AD000910509F47EC089329105C4F480319105E5
:101AE00009F472C08131910544F4009709F413C1DF
:101AF0008830910509F013C167C08831910509F458
:101B000068C08032910509F00AC178C0803491051F
:101B100009F48AC0813491054CF48033910509F4AD
:101B20006FC08833910509F0FAC06EC08035910509
:101B300009F46EC08835910509F47BC0883491059D
:101B400009F0EDC0EAC08839910509F4DAC0893995
:101B50009105ECF48837910509F478C0893791052F
:101B60004CF48836910509F471C08037910509F06D
:101B7000D6C06CC08838910509F4C3C0803991057E
:101B800009F46AC08038910509F0C9C065C0803B7E
:101B9000910509F48EC0813B91054CF4803A910582
:101BA00009F46CC0883A910509F0B9C082C0803C44
:101BB000910509F4AAC0883C910509F4A6C0883BA8
:101BC000910509F0ACC08AC0809166028093BB0089
:101BD00013C09091670280916802981708F09DC029
:101BE00080916702E82FF0E0E759FD4F90819093D4
:101BF000BB008F5F8093670281E084C080E201C0F8
:101C000080E38093890289C088E3809389024EC073
:101C1000809167029091BB00E82FF0E0E759FD4FFB
:101C200090838F5F80936702909167028091680232
:101C300065C0809167029091BB00E82FF0E0E75902
:101C4000FD4F90838F5F8093670267C083E080932E
:101C50008A0210928B02D0CF80918B02803208F0E2
:101C600050C080918B029091BB00E82FF0E0E457C8
:101C7000FD4F90838F5F80938B02BECF80918B024C
:101C8000803230F4E0918B02F0E0E457FD4F108297
:101C90000E943A0D60918B02E091AC02F091AD028E
:101CA0008CE892E070E0099510928B020E94440D3E
:101CB00036C084E080938A021092AE021092AF0286
:101CC000E091B002F091B10209958091AF028823B2
:101CD00029F481E08093AF021092B2028091AE02AB
:101CE000E82FF0E0EE54FD4F90819093BB008F5FA2
:101CF0008093AE029091AE028091AF02981708F4E3
:101D00007BCF80E00E94320D0AC081E00E94320D3C
:101D100010928A0204C0109289020E943A0DFF912B
:101D2000EF91BF91AF919F918F917F916F915F9153
:101D30004F913F912F910F900FBE0F901F901895CC
:101D400020E030E040E85FE3FC0120833183428300
:101D500053830895EF92FF921F93DF93CF930F92D7
:101D6000CDB7DEB7162F8AE5E82E82E0F82EC70140
:101D70006EE170E049830E945F0CC701612F0E94F1
:101D80000A0CC7014981642F0E940A0CC7010E94F6
:101D9000620C0F90CF91DF911F91FF90EF9008950B
:101DA000462F62E070E050E00E94AA0E0895EF9284
:101DB000FF920F931F93CF93DF93EC017A018B0176
:101DC000CB01BA012EEA37E441E65FE30E94081630
:101DD000882351F488E491EEAAE3BFE388839983D2
:101DE000AA83BB8340E08FC0C801B70126E636E670
:101DF00046EA5FE30E940816882351F48FE195E8D4
:101E0000ABE6BFE388839983AA83BB8341E07BC0B1
:101E1000C801B70123E333E343EF5FE30E940816F1
:101E2000882351F486EF98E2ACE9BFE38883998375
:101E3000AA83BB8342E067C0C801B70120E030E05D
:101E400040E250E40E940816882351F48CE59FE894
:101E5000A2ECBFE388839983AA83BB8343E053C08A
:101E6000C801B70120E030E040E850E40E940816C5
:101E7000882351F48EEA97E4A1E1B0E48883998342
:101E8000AA83BB8344E03FC0C801B70126E636E61B
:101E900046E950E40E940816882351F48AE097ED41
:101EA000A3E2B0E488839983AA83BB8345E02BC077
:101EB000C801B70123E333E343EB50E40E94081663
:101EC000882351F485E89BEEA1E4B0E488839983EC
:101ED000AA83BB8346E017C0C801B7012AE939E9E4
:101EE00041E051E40E940816882351F483E393E310
:101EF000ABE8B0E488839983AA83BB8347E003C03F
:101F000081E090E009C04295440F407ECE0161E03F
:101F100070E050E00E94AA0EDF91CF911F910F91C7
:101F2000FF90EF9008959F92AF92BF92CF92DF9271
:101F3000EF92FF920F931F93DF93CF93CDB7DEB74E
:101F4000E62E8A01ADB6BEB68AE592E06EE170E09B
:101F50000E945F0C8AE592E06E2D0E940A0C8AE5D1
:101F600092E00E94620C8AE592E06EE170E00E94CD
:101F70005F0C8AE592E06EE170E0A8010E94520CCD
:101F80008DB79EB7801B910B0FB6F8949EBF0FBE06
:101F90008DBFCDB6DEB60894C11CD11C8AE592E097
:101FA0000E94AA0B7C018017910781F4992409C033
:101FB0008AE592E00E94B30BF601E00FF11F8083E7
:101FC0009394092D10E00E151F0594F38AE592E015
:101FD0000E94620CC6010FB6F894BEBE0FBEADBE25
:101FE000CF91DF911F910F91FF90EF90DF90CF90F5
:101FF000BF90AF909F900895DF93CF9300D000D013
:1020000000D0CDB7DEB763E070E046E050E00E945C
:10201000930FFC01928180E0638170E0682B792B43
:10202000948180E0458150E0482B592B218130E09C
:10203000908180E0282B392B3A8329835C834B8362
:102040007E836D833A815C817E8190E026960FB617
:10205000F894DEBF0FBECDBFCF91DF9108958F9270
:102060009F92AF92BF92CF92DF92EF92FF920F9327
:102070001F93DF93CF93CDB7DEB72C970FB6F894AD
:10208000DEBF0FBECDBF8C016B01CB010E94FC0FE8
:102090002F83388749875A876B877C87DE011196A3
:1020A000FE01379686E001900D928150E1F78B801A
:1020B0009C80AD80BE80F601C080D180E280F3803C
:1020C00069817A81882777FD8095982F0E94A716CD
:1020D000A70196010E948317F801608371838283B0
:1020E0009383B501882777FD8095982F0E94A716C6
:1020F000A70196010E948317F80160877187828784
:102100009387B401882777FD8095982F0E94A716A2
:10211000A70196010E948317F80164837583868363
:102120009783C8012C960FB6F894DEBF0FBECDBFC3
:10213000CF91DF911F910F91FF90EF90DF90CF90A3
:10214000BF90AF909F908F9008956130710519F402
:1021500020E031E002C02DE531E0C90108951F9370
:10216000CF93DF93182FEB0161E00E940C122097B0
:1021700009F44AC0CF3FD10509F449C0E12FF0E08E
:10218000E552FF4FE491E330C1F0E43028F4E13050
:1021900051F0E230B1F50CC0E63019F1E73049F109
:1021A000E43079F514C084B5806884BDC7BD33C000
:1021B00084B5806284BDC8BD2EC0809180008068D7
:1021C00080938000D0938900C093880024C08091C0
:1021D0008000806280938000D0938B00C0938A003F
:1021E0001AC08091B00080688093B000C093B300A3
:1021F00012C08091B00080628093B000C093B400A0
:102200000AC0C038D1051CF4812F60E002C0812FC4
:1022100061E00E943012DF91CF911F9108951F92CB
:102220000F920FB60F9211242F933F938F939F938A
:10223000AF93BF938091D6029091D702A091D8021C
:10224000B091D9023091DA020196A11DB11D232F60
:102250002D5F2D3720F02D570196A11DB11D209324
:10226000DA028093D6029093D702A093D802B0935B
:10227000D9028091D2029091D302A091D402B09160
:10228000D5020196A11DB11D8093D2029093D30275
:10229000A093D402B093D502BF91AF919F918F913B
:1022A0003F912F910F900FBE0F901F9018959FB7E1
:1022B000F8942091D2023091D3024091D4025091EF
:1022C000D50286B5A89B06C08F3F21F02F5F3F4FF8
:1022D0004F4F5F4F9FBF542F432F322F2227280F7E
:1022E000311D411D511D82E0220F331F441F551F18
:1022F0008A95D1F7B901CA010895EF92FF920F9321
:102300001F93CF93DF937B018C010E945711EB0148
:102310000FC00E9457116C1B7D0B83E0683E78074D
:1023200038F00894E108F10801091109C851DC4F9F
:10233000E114F1040105110561F7DF91CF911F91BF
:102340000F91FF90EF900895789484B5826084BDDA
:1023500084B5816084BD85B5826085BD85B58160A9
:1023600085BDEEE6F0E0808181608083E1E8F0E009
:102370001082808182608083808181608083E0E838
:10238000F0E0808181608083E1EBF0E08081846017
:102390008083E0EBF0E0808181608083EAE7F0E019
:1023A000808184608083808182608083808181607D
:1023B00080838081806880831092C100089583307B
:1023C00071F0843028F48130A1F0823021F514C0FE
:1023D0008630B1F08730D1F08430E9F404C08091C8
:1023E00080008F7703C0809180008F7D8093800074
:1023F000089584B58F7702C084B58F7D84BD08951C
:102400008091B0008F778093B00008958091B000E4
:102410008F7D8093B000089590E0FC01E953FF4F59
:102420002491FC01ED54FF4FE491EE23C1F0F0E064
:10243000EE0FFF1FEB56FF4F85919491DC01662351
:1024400041F49FB7F8948C91209582238C939FBF81
:1024500008959FB7F8948C91822B8C939FBF089519
:102460000F931F93DF93CF930F92CDB7DEB7282F33
:1024700030E0F901E552FF4F8491F901E953FF4F34
:1024800014912D543F4FF90104910023D9F0882372
:1024900021F069830E94DF116981E02FF0E0EE0FE7
:1024A000FF1FE156FF4F85919491DC019FB7F8948F
:1024B000662321F48C911095812302C08C91812B8D
:1024C0008C939FBF0F90CF91DF911F910F91089533
:1024D0000F931F93282F30E0F901E552FF4F8491AD
:1024E000F901E953FF4F04912D543F4FF901149125
:1024F000112391F0882311F00E94DF11E12FF0E009
:10250000EE0FFF1FE755FF4F85919491DC018C91F1
:10251000802321E030E011F420E030E0C9011F9178
:102520000F910895FC0184859585FC01E05CFF4FC7
:10253000208131818E5B9F4FFC0180819181281B1E
:10254000390B2F733070C9010895FC01848595857E
:10255000FC01E05CFF4F40815181FC01EE5BFF4FCD
:10256000208131814217530741F00190F081E02D25
:10257000E80FF91F208130E002C02FEF3FEFC901C3
:102580000895FC0184859585FC01E05CFF4F408146
:102590005181FC01EE5BFF4F2081318142175307CF
:1025A00071F0A081B181A80FB91F2C918081918118
:1025B00001968F7390709183808330E002C02FEF7B
:1025C0003FEFC9010895DC011E968D919C911F97E4
:1025D000FC01E05CFF4F8E5B9F4F40815181DC012D
:1025E0002D913C91119742175307B9F708951F9306
:1025F000FC01162F26853785D901A05CBF4F8D9130
:102600009C91019660E470E00E941418D901AE5BC1
:10261000BF4F4D915C91119784179507D1F3D90164
:10262000A05CBF4F0D90BC91A02DA20FB31F1C93B7
:10263000A685B785A05CBF4F11969C938E93A68903
:10264000B7892C9181E090E0058C02C0880F991F1A
:102650000A94E2F7282B2C9381E090E01F910895D3
:10266000FB01E05CFF4F208131812F5F3F4F2F73D3
:102670003070DB01AE5BBF4F4D915C911197241719
:10268000350739F0A081B181A60FB71F8C93318334
:102690002083089508951F920F920FB60F92112470
:1026A0002F933F934F935F936F937F938F939F935A
:1026B000AF93BF93EF93FF938091C6006BED72E0F1
:1026C0000E943013FF91EF91BF91AF919F918F9135
:1026D0007F916F915F914F913F912F910F900FBE1E
:1026E0000F901F90189583E693E00E949212009736
:1026F00011F00E944A1308951F920F920FB60F9285
:1027000011242F933F935F936F937F938F939F93A6
:10271000AF93BF93EF93FF9320915F0330916003DA
:1027200080916103909162032817390731F48091F9
:10273000C1008F7D8093C10016C0E0916103F091CC
:102740006203E15EFC4F20818091610390916203FE
:10275000019660E470E00E941418909362038093E5
:1027600061032093C600FF91EF91BF91AF919F91BC
:102770008F917F916F915F913F912F910F900FBE3D
:102780000F901F901895DF92EF92FF920F931F9377
:10279000CF93DF93EC017A018B01DD24D394403099
:1027A00081EE580780E0680780E0780749F4DD246F
:1027B000EC89FD89108260E874E88EE190E00FC03A
:1027C000EC89FD8981E090E00E8C02C0880F991F92
:1027D0000A94E2F7808360E079E08DE390E0A8015D
:1027E00097010E9427182150304040405040569594
:1027F00047953795279580E12030380710F0DD2088
:10280000B1F6E889F9893083EA89FB892083EE896A
:10281000FF89408181E090E09C010A8C02C0220F78
:10282000331F0A94E2F7422B4083EE89FF894081EF
:102830009C010B8C02C0220F331F0A94E2F7422B3B
:102840004083EE89FF8940819C010C8C02C0220FDD
:10285000331F0A94E2F7422B4083EE89FF892081DF
:102860000D8C02C0880F991F0A94E2F7809582238D
:102870008083DF91CF911F910F91FF90EF90DF90B8
:102880000895109266031092650388EE93E0A0E02D
:10289000B0E08093670390936803A0936903B093BB
:1028A0006A03E5E6F3E084E891E0929382938BED8E
:1028B00092E0958784878FE193E09787868785EC00
:1028C00090E0918B808B84EC90E0938B828B80ECFA
:1028D00090E0958B848B81EC90E0978B868B86ECD7
:1028E00090E0918F808F84E0828F83E0838F87E0F8
:1028F000848F85E0858F81E0868F0895CF93DF9365
:102900000E94A4110E940F05C3E7D3E10E94F508BD
:102910002097E1F30E947313F9CFCF92DF92EF92E9
:10292000FF920F931F93CF93DF936C017B018A017A
:10293000C0E0D0E00FC0D7016D917D01D601ED91CF
:10294000FC910190F081E02DC6010995C80FD91FB7
:10295000015010400115110571F7CE01DF91CF91A3
:102960001F910F91FF90EF90DF90CF900895DB01C2
:102970000D900020E9F7AD0141505040461B570B28
:10298000DC01ED91FC910280F381E02D0995089521
:10299000DC01ED91FC910190F081E02D0995089505
:1029A0000F931F93CF93DF93EC016DE00E94C81447
:1029B0008C01CE016AE00E94C814080F191FC801DB
:1029C000DF91CF911F910F9108950F931F93CF9394
:1029D000DF93EC010E94B7148C01CE010E94D01449
:1029E000080F191FC801DF91CF911F910F91089512
:1029F0002F923F924F925F926F927F928F929F920F
:102A0000AF92BF92CF92DF92EF92FF920F931F93FC
:102A1000DF93CF93CDB7DEB73B014C0119012A01FB
:102A20006D897E898F89988D6A197B098C099D092A
:102A3000621A730A840A950AA40193010E94E91795
:102A4000E218F30804091509A80197010E94491822
:102A50002A0D3B1D4C1D5D1DB901CA01CF91DF91AF
:102A60001F910F91FF90EF90DF90CF90BF90AF90AC
:102A70009F908F907F906F905F904F903F902F909E
:102A800008955058BB27AA270ED0FCC1EDD130F0D5
:102A9000F2D120F031F49F3F11F41EF4BDC10EF4C9
:102AA000E095E7FBB3C1E92FFED180F3BA176207C7
:102AB00073078407950718F071F49EF516C20EF49B
:102AC000E0950B2EBA2FA02D0B01B90190010C013E
:102AD000CA01A0011124FF27591B99F0593F50F456
:102AE000503E68F11A16F040A22F232F342F4427AE
:102AF000585FF3CF469537952795A795F0405395A6
:102B0000C9F77EF41F16BA0B620B730B840BBAF075
:102B10009150A1F0FF0FBB1F661F771F881FC2F7E0
:102B20000EC0BA0F621F731F841F48F487957795F4
:102B30006795B795F7959E3F08F0B3CF9395880FAB
:102B400008F09927EE0F9795879508958DD158F045
:102B500080E891E009F49EEF8ED128F040E851E042
:102B600059F45EEF09C058C1C0C1E92FE0789BD18C
:102B700068F3092E052AC1F32617370748075907B6
:102B800038F00E2E07F8E02569F0E025E0640AC071
:102B9000EF6307F8009407FADB01B9019D01DC013E
:102BA000CA01AD01EF9347D06DD10AD05F91552393
:102BB00031F02BED3FE049E450FD49EC63CF08953F
:102BC000DF93DD27B92FBF7740E85FE316161706BE
:102BD00048075B0710F4D92F8FD19F938F937F9372
:102BE0006F93F4D1E8E6F0E01AD14CD12F913F91E8
:102BF0004F915F9194D1DD2349F09058A2EA2AEDDC
:102C00003FE049EC5FE3D0785D274DDFDF913AC1CB
:102C1000D9D008F481E008950CD034C12CD140F013
:102C200023D130F021F45F3F19F0F0C051115EC1A3
:102C3000F3C039D198F39923C9F35523B1F3951B08
:102C4000550BBB27AA2762177307840738F09F5FCD
:102C50005F4F220F331F441FAA1FA9F333D00E2E3C
:102C60003AF0E0E830D091505040E695001CCAF7A9
:102C700029D0FE2F27D0660F771F881FBB1F26176E
:102C800037074807AB07B0E809F0BB0B802DBF0141
:102C9000FF2793585F4F2AF09E3F510568F0B6C05A
:102CA00025C15F3FECF3983EDCF3869577956795F9
:102CB000B795F7959F5FC9F7880F911D96958795F2
:102CC00097F90895E1E0660F771F881FBB1F621711
:102CD00073078407BA0720F0621B730B840BBA0BCF
:102CE000EE1F88F7E095089504D06894B111FEC0F6
:102CF0000895E1D088F09F5790F0B92F9927B751E8
:102D0000A0F0D1F0660F771F881F991F1AF0BA95AF
:102D1000C9F712C0B13081F0E8D0B1E00895E5C044
:102D2000672F782F8827B85F39F0B93FCCF38695A5
:102D300077956795B395D9F73EF490958095709502
:102D400061957F4F8F4F9F4F0895E89409C097FB7F
:102D50003EF490958095709561957F4F8F4F9F4F72
:102D60009923A9F0F92F96E9BB279395F6958795B6
:102D700077956795B795F111F8CFFAF4BB0F11F479
:102D800060FF1BC06F5F7F4F8F4F9F4F16C0882320
:102D900011F096E911C0772321F09EE8872F762F56
:102DA00005C0662371F096E8862F70E060E02AF097
:102DB0009A95660F771F881FDAF7880F9695879583
:102DC00097F90895990F0008550FAA0BE0E8FEEF58
:102DD00016161706E807F907C0F012161306E407DF
:102DE000F50798F0621B730B840B950B39F40A26D8
:102DF00061F0232B242B252B21F408950A2609F4B6
:102E0000A140A6958FEF811D811D089597F99F67B9
:102E100080E870E060E008959FEF80EC0895DF9314
:102E2000CF931F930F93FF92EF92DF927B018C0160
:102E3000689405C0DA2EEF0172D0FE01E894A591E6
:102E40002591359145915591AEF3EF012CDEFE01B0
:102E50009701A801DA9479F7DF90EF90FF900F9136
:102E60001F91CF91DF91089500240A94161617063A
:102E700018060906089500240A941216130614066B
:102E800005060895092E0394000C11F4882352F0CE
:102E9000BB0F40F4BF2B11F460FF04C06F5F7F4F86
:102EA0008F4F9F4F089557FD9058440F551F59F06D
:102EB0005F3F71F04795880F97FB991F61F09F3F27
:102EC00079F087950895121613061406551FF2CF50
:102ED0004695F1DF08C0161617061806991FF1CFA0
:102EE00086957105610508940895E894BB276627C7
:102EF0007727CB0197F908959B01AC0160E070E062
:102F000080E89FE389CE0BD0BDCFAEDF28F0B3DFE2
:102F100018F0952309F07ACF7FCF1124E7CFC3DFD4
:102F2000A0F3959FD1F3950F50E0551F629FF001DC
:102F3000729FBB27F00DB11D639FAA27F00DB11D35
:102F4000AA1F649F6627B00DA11D661F829F2227BE
:102F5000B00DA11D621F739FB00DA11D621F839F45
:102F6000A00D611D221F749F3327A00D611D231F1B
:102F7000849F600D211D822F762F6A2F11249F5769
:102F800050408AF0E1F088234AF0EE0FFF1FBB1F8C
:102F9000661F771F881F91505040A9F79E3F51052B
:102FA00070F034CFA3CF5F3FECF3983EDCF386950F
:102FB00077956795B795F795E7959F5FC1F7FE2BD6
:102FC000880F911D9695879597F908959B01AC01FF
:102FD0009ACF629FD001739FF001829FE00DF11D97
:102FE000649FE00DF11D929FF00D839FF00D749F83
:102FF000F00D659FF00D9927729FB00DE11DF91F2F
:10300000639FB00DE11DF91FBD01CF01112408958B
:10301000991B79E004C0991F961708F0961B881F2A
:103020007A95C9F78095089597FB092E07260AD04F
:1030300077FD04D049D006D000201AF47095619530
:103040007F4F0895F6F7909581959F4F0895A1E2DF
:103050001A2EAA1BBB1BFD010DC0AA1FBB1FEE1F12
:10306000FF1FA217B307E407F50720F0A21BB30B5D
:10307000E40BF50B661F771F881F991F1A9469F7D9
:1030800060957095809590959B01AC01BD01CF0135
:10309000089597FB092E05260ED057FD04D0D7DFE3
:1030A0000AD0001C38F450954095309521953F4F3B
:1030B0004F4F5F4F0895F6F7909580957095619505
:1030C0007F4F8F4F9F4F0895AA1BBB1B51E107C035
:1030D000AA1FBB1FA617B70710F0A61BB70B881FA8
:1030E000991F5A95A9F780959095BC01CD01089537
:1030F000EE0FFF1F0590F491E02D0994F894FFCF97
:10310000456E7465726564207363616C65207761D8
:1031100073206E6F742076616C69642C2076616C0C
:1031200069642067617573732076616C75657320BF
:103130006172653A20302E38382C20312E332C2005
:10314000312E392C20322E352C20342E302C2034A8
:103150002E372C20352E362C20382E310045727219
:103160006F72206E6F7420646566696E656400011D
:10317000000000000A0CD80BAA0BB30BC70BD70B2F
:1031800000000000F7128D149212C112A512E31272
:00000001FF
