:100000000C947B000C94A3000C94A3000C94A3000C
:100010000C94A3000C94A3000C94A3000C942A014C
:100020000C94A3000C94A3000C94A3000C946907F7
:100030000C94A3000C94A3000C94A3000C94A300B4
:100040000C94C40E0C94AD000C9400110C9431115E
:100050000C94A3000C94A3000C94A3000C94A30094
:100060000C94FF0A0C94A300084AD73B3BCE016EC8
:1000700084BCBFFDC12F3D6C74319ABD56833DDAFF
:100080003D00C77F11BED9E4BB4C3E916BAAAABE0E
:10009000000000803F00000000240027002A00002C
:1000A000000000250028002B00000000002300268F
:1000B00000290004040404040404040202020202ED
:1000C000020303030303030102040810204080011C
:1000D000020408102001020408102000000007009C
:1000E0000201000003040600000000000000000000
:1000F0005C07270AF61111241FBECFEFD8E0DEBF40
:10010000CDBF11E0A0E0B1E0EAE6FCE202C005905C
:100110000D92A039B107D9F713E0A0E9B1E001C011
:100120001D92AD36B107E1F710E0C6EFD0E004C094
:100130002297FE010E942F16C03FD107C9F70E94E7
:1001400033120C9433160C9400008CB580688CBD6F
:1001500008958CB58F778CBD08951F920F920FB6BE
:100160000F9211242F933F938F939F93AF93BF933D
:10017000EF93FF9380919E01813009F056C0E0918A
:10018000D8018EB5AE2FB0E0A455BE4F8C93EF5F73
:10019000E093D8018091B001813061F58091B10187
:1001A000813041F58091B201813021F58091B30118
:1001B000813001F51092D8018091AC018F3B21F183
:1001C00092E090939E018093D30180939F013091A0
:1001D000AD0120E08091AE0190E0822B932B9093B3
:1001E000D5018093D4018091AF018093D601109204
:1001F000D7010AC0E53008F1F0E0E555FE4F8081F7
:100200008130D9F01092D8011092AC011092AD015A
:100210001092AE011092AF011092B0011092B10194
:100220001092B2011092B30108C0823031F48EB541
:100230008F3619F481E080939E01FF91EF91BF9179
:10024000AF919F918F913F912F910F900FBE0F9083
:100250001F9018951F920F920FB60F9211248F9333
:100260009F938091CA019091CB0101969093CB010D
:100270008093CA018536910520F01092CB0110922F
:10028000CA019F918F910F900FBE0F901F901895EC
:100290001092D3011092B6011092B7011092B801DA
:1002A0001092B9011092BA011092BB011092BC01D8
:1002B0001092BD0185E060E070E00E94640E86E06F
:1002C00060E070E00E94640E80E008951F93182F94
:1002D000813A18F4833018F003C010EA01C013E02B
:1002E0008DEC91E063E070E00E94C0088DEC91E03D
:1002F000612F70E00E94FB081092D3011092B601AA
:100300001092B7011092B8011092B9011092BA017F
:100310001092BB011092BC011092BD011F91089573
:100320001F93CF93DF93182FC0EDD1E0CE0169E08A
:1003300070E00E94C008CE01612F70E00E94FB08AF
:100340001092D3011092B6011092B7011092B80129
:100350001092B9011092BA011092BB011092BC0127
:100360001092BD01DF91CF911F91089582E00E940C
:100370001D102091BE0130E082179307C1F082E08A
:100380000E941D108093BE018091B6019091B7012B
:10039000A091B801B091B901C796A11DB11D80937C
:1003A000B6019093B701A093B801B093B90184E06E
:1003B0000E941D102091BF0130E082179307C1F009
:1003C00084E00E941D108093BF018091BA0190913A
:1003D000BB01A091BC01B091BD01C796A11DB11D8B
:1003E0008093BA019093BB01A093BC01B093BD016F
:1003F00008950F931F93DF93CF9300D00F92CDB743
:10040000DEB769838A839B830E94B6018A81282F85
:100410009B81392FC901880F991F43E0220F331F99
:100420004A95E1F7820F931FA0E0B0E02091B6015A
:100430003091B7014091B8015091B90169812817F5
:1004400039074A075B0710F52091BA013091BB01CB
:100450004091BC015091BD01281739074A075B073D
:10046000A8F4062F10E0B8016A50704085E00E94A1
:10047000640E86E0B8010E94640E87E060E00E948E
:10048000E50F88E060E00E94E50F1CC085E060E0B9
:1004900070E00E94640E86E060E070E00E94640EEE
:1004A0001092D3011092B6011092B7011092B801C8
:1004B0001092B9011092BA011092BB011092BC01C6
:1004C0001092BD0160E070E0CB010F900F900F9093
:1004D000CF91DF911F910F9108950F931F93DF9399
:1004E000CF9300D00F92CDB7DEB769838A839B8309
:1004F0000E94B6018A81282F9B81392FC901880F5C
:10050000991F63E0220F331F6A95E1F7820F931F53
:10051000A0E0B0E02091B6013091B7014091B80160
:100520005091B9016981281739074A075B0710F50F
:100530002091BA013091BB014091BC015091BD01A5
:10054000281739074A075B07A8F4062F10E0B801FF
:100550006A50704085E00E94640E86E0B8010E94F7
:10056000640E87E061E00E94E50F88E061E00E9490
:10057000E50F1CC085E060E070E00E94640E86E03C
:1005800060E070E00E94640E1092D3011092B601F8
:100590001092B7011092B8011092B9011092BA01ED
:1005A0001092BB011092BC011092BD0160E070E09E
:1005B000CB010F900F900F90CF91DF911F910F9172
:1005C000089582E00E941D102091BE0130E0821744
:1005D0009307C1F082E00E941D108093BE018091BC
:1005E000B6019091B701A091B801B091B9010596FB
:1005F000A11DB11D8093B6019093B701A093B801DE
:10060000B093B90184E00E941D102091BF0130E039
:1006100082179307C1F084E00E941D108093BF01F0
:100620008091BA019091BB01A091BC01B091BD0134
:100630000596A11DB11D8093BA019093BB01A093B3
:10064000BC01B093BD010895DF92EF92FF920F932A
:100650001F937B018C01D42E0E94E1028091B60190
:100660009091B701A091B801B091B9018E159F0585
:10067000A007B10700F58091BA019091BB01A0914C
:10068000BC01B091BD018E159F05A007B10798F47C
:1006900085E06D2D70E00E94640E86E06D2D70E0A7
:1006A0000E94640E87E060E00E94E50F88E061E050
:1006B0000E94E50F40C087E061E00E94E50F88E0FE
:1006C00060E00E94E50F83EDE816F10401051105D5
:1006D00028F062E870E080E090E00FC089E1E81661
:1006E000F1040105110528F46FE070E080E090E06E
:1006F00004C068EC70E080E090E00E94320F85E07A
:1007000060E070E00E94640E86E060E070E00E94AD
:10071000640E1092D3011092B6011092B70110929C
:10072000B8011092B9011092BA011092BB01109257
:10073000BC011092BD0160E070E0CB011F910F91F0
:10074000FF90EF90DF900895DF92EF92FF920F936A
:100750001F937B018C01D42E0E94E1028091B6018F
:100760009091B701A091B801B091B9018E159F0584
:10077000A007B10700F58091BA019091BB01A0914B
:10078000BC01B091BD018E159F05A007B10798F47B
:1007900085E06D2D70E00E94640E86E06D2D70E0A6
:1007A0000E94640E87E061E00E94E50F88E060E04F
:1007B0000E94E50F40C087E060E00E94E50F88E0FE
:1007C00061E00E94E50F83EDE816F10401051105D3
:1007D00028F062E870E080E090E00FC089E1E81660
:1007E000F1040105110528F46FE070E080E090E06D
:1007F00004C068EC70E080E090E00E94320F85E079
:1008000060E070E00E94640E86E060E070E00E94AC
:10081000640E1092D3011092B6011092B70110929B
:10082000B8011092B9011092BA011092BB01109256
:10083000BC011092BD0160E070E0CB011F910F91EF
:10084000FF90EF90DF90089582E00E941D102091AC
:10085000C80130E082179307C1F082E00E941D10AA
:100860008093C8018091C0019091C101A091C20103
:10087000B091C3010196A11DB11D8093C001909359
:10088000C101A093C201B093C30184E00E941D1076
:100890002091C90130E082179307C1F084E00E94E3
:1008A0001D108093C9018091C4019091C501A09150
:1008B000C601B091C7010196A11DB11D8093C4016D
:1008C0009093C501A093C601B093C701089580E934
:1008D00091E04EEA57E461E67FE30E948C0CBC0194
:1008E000009749F080E991E00E945A0EBC018EE425
:1008F00093E00E949A1280E991E060E00E94850CEA
:10090000BC01009749F080E991E00E945A0EBC01B9
:100910008EE493E00E949A1208951F93DF93CF9381
:1009200000D000D0CDB7DEB7F8948AE08093B30052
:10093000E0EBF0E080818260808382E08093700051
:10094000E1EBF0E080818460808378948EE493E032
:1009500040E052EC61E070E00E94781185E492E0A2
:100960000E94EF09CE0101960E94550C89819A815F
:10097000AB81BC818093900190939101A0939201EF
:10098000B09393010E9467048EE091E090939701E9
:1009900080939601109299011092980110929A01F9
:1009A00010929B0110929C0111E010939D0184E034
:1009B00090E09093A6018093A50187E090E090934A
:1009C000A8018093A70188E28093A9018CE061E0EF
:1009D0000E94C10F8CB580648CBD1092B40110923E
:1009E000B5010E94A50085E061E00E94C10F86E08C
:1009F00061E00E94C10F87E061E00E94C10F88E0C2
:100A000061E00E94C10F81E061E00E94C10F82E0BD
:100A100060E00E94C10F84E060E00E94C10F85E0A9
:100A200061E00E94E50F86E061E00E94E50F87E04B
:100A300061E00E94E50F88E061E00E94E50F85E03B
:100A400060E070E00E94640E86E060E070E00E946A
:100A5000640E1092B6011092B7011092B801109274
:100A6000B9011092BA011092BB011092BC01109210
:100A7000BD011092BE011092BF011092C0011092F0
:100A8000C1011092C2011092C3011092C4011092D0
:100A9000C5011092C6011092C7011092C8011092B0
:100AA000C9011EBC1092CC011092AB011092AA0198
:100AB0001092CB011092CA011092D3011092D5016D
:100AC0001092D4011092D7011092D6011092D80141
:100AD0001092AC011092AD011092AE011092AF01D4
:100AE0001092B0011092B1011092B2011092B301B4
:100AF00010939E0110929F011093A0011092A201E9
:100B00001092A1011092A4011092A3010F900F90D6
:100B10000F900F90CF91DF911F910895DF93CF93A6
:100B2000CDB7DEB72C970FB6F894DEBF0FBECDBFA2
:100B3000CE01019660E971E00E94E40D6D817E8135
:100B40008F81988520E030E040EF52E40E94F71258
:100B500029813A814B815C810E946A1321EE3EE239
:100B600045E652E40E9438150E94291477FF03C01D
:100B700068597E4F06C081E06936780714F06856E0
:100B80007140CB012C960FB6F894DEBF0FBECDBFDF
:100B9000CF91DF9108959C016817790710F02859CB
:100BA0003E4F261B370BC9010895680F791F81E05E
:100BB0006836780710F068567140CB0108959C01A3
:100BC0006817790710F028593E4F261B370BC901CB
:100BD0000895CF92DF92EF92FF920F931F93CF93DE
:100BE000DF937C018B01EA01CA01860F971F21E088
:100BF000893692072CF49B01241B350B37FF10C05C
:100C0000C801BE010E94D505E816F90680F0C801AA
:100C1000BE010E94DF0541E08E159F0558F407C014
:100C2000E816F90634F441E02E153F051CF440E0C7
:100C300001C041E0842FDF91CF911F910F91FF9070
:100C4000EF90DF90CF900895EF92FF920F931F9354
:100C5000CF93DF930E948E058C01809394011093B3
:100C60009501E0909601F09097014091A501509177
:100C7000A601B7010E94E9058823F1F1C801B70177
:100C80000E94CB05EC01C701B8010E94CB05209161
:100C9000CA013091CB01C817D907B0F4223331050E
:100CA00058F160919B0185E070E00E94640E6091B4
:100CB0009B0186E070E00E94640E87E061E00E9484
:100CC000E50F88E060E015C022333105A8F060919F
:100CD0009B0185E070E00E94640E60919B0186E0BC
:100CE00070E00E94640E87E060E00E94E50F88E0FB
:100CF00061E00E94E50F0AC085E060E070E00E94BC
:100D0000640E86E060E070E00E94640EDF91CF9197
:100D10001F910F91FF90EF90089580919E01823076
:100D200051F580919F01893030F18091A001882395
:100D3000A1F00E948E0590939501809394011092EA
:100D4000A00160E071E00E94C9159093A201809318
:100D5000A1017093A4016093A30180919F01893048
:100D600019F48091A10105C08A3009F0A4C08091D6
:100D7000A3018EBD089580919F01893008F09BC02A
:100D80008EBD81E08093A0018091D3018D3129F443
:100D90000E94A9000E94480186C08132A9F41092E5
:100DA000C0011092C1011092C2011092C3011092B1
:100DB000C4011092C5011092C6011092C701109291
:100DC000C8011092C9016FC0813059F46091D401FB
:100DD0007091D50180E090E04091D6010E94A4037B
:100DE00062C0823059F46091D4017091D50180E0E5
:100DF00090E04091D6010E94240355C0833049F40D
:100E00008091D4019091D5016091D6010E946D022C
:100E10004AC0843049F48091D4019091D501609109
:100E2000D6010E94F9013FC0853029F48091D40198
:100E30000E94900138C0863029F48091D4010E942C
:100E4000660131C0873091F48091D4019091D50131
:100E500090939701809396018091D60180939C0195
:100E600080939B0181E080939A011DC0883079F4C2
:100E70008091D4019091D501909397018093960130
:100E800010929C0110929B0110929A010CC0893023
:100E900011F08A3041F40E948E0590939501809361
:100EA00094011092D3010E94240480919A01882316
:100EB00011F00E942406089580E991E00E94550CEB
:100EC0008DEC91E00E94270880ED91E00E942708B8
:100ED00008951F920F920FB60F9211242F933F93F4
:100EE0004F935F936F937F938F939F93AF93BF9332
:100EF000EF93FF938091FE0187FF05C0109285005C
:100F0000109284002BC02091FE01332727FD3095DD
:100F10008091D90190E02817390704F58091FE01EE
:100F2000992787FD9095FC01EE0FFF1FE80FF91F31
:100F3000E652FE4F808186FF11C08091FE01992705
:100F400087FD9095FC01EE0FFF1FE80FF91FE65299
:100F5000FE4F80818F7360E00E94E50F8091FE015B
:100F60008F5F8093FE012091FE01332727FD30958E
:100F70008091D90190E0281739070CF04EC080917C
:100F8000FE018C300CF049C0809184009091850066
:100F90002091FE01332727FD3095F901EE0FFF1F49
:100FA000E20FF31FE652FE4F21813281820F931F21
:100FB00090938900809388008091FE01992787FD96
:100FC0009095FC01EE0FFF1FE80FF91FE652FE4F50
:100FD000808186FF2BC08091FE01992787FD909527
:100FE000FC01EE0FFF1FE80FF91FE652FE4F808154
:100FF0008F7361E00E94E50F19C080E49CE905C091
:10100000809184009091850004969093890080934C
:1010100088008FEF8093FE0109C080918400909139
:1010200085002CE98434920740F3EACFFF91EF91D9
:10103000BF91AF919F918F917F916F915F914F91F0
:101040003F912F910F900FBE0F901F901895FC01AC
:101050008091D9018C3090F480838F5F8093D90187
:10106000808190E0FC01EE0FFF1FE80FF91FE652B0
:10107000FE4F88EB9BE09283818308958FEF8083FE
:101080000895DF92EF92FF920F931F93CF93DF9318
:10109000EC01D62E8A01790188818C3008F064C079
:1010A000862F61E00E94C10F4881842F90E0FC01EF
:1010B000EE0FFF1FE80FF91FE652FE4F9D2D9F73A5
:1010C0008081807C892B808380E292E0801B910B61
:1010D00024E030E0B9010E94C915698380E699E0F7
:1010E0008E199F09B9010E94C9156A83842F6CE08B
:1010F0000E94BD1590E09C01220F331F280F391F5D
:10110000220F331F220F331F40E050E0BA01620F5D
:10111000731FFB01EE0FFF1FE60FF71FE652FE4F96
:10112000608166FD15C04F5F5F4F4C30510571F710
:1011300024C01092800082E080938100109285008C
:1011400010928400B19A80916F00826080936F004A
:10115000888190E0FC01EE0FFF1FE80FF91FE652B7
:10116000FE4F8081806480838881DF91CF911F91C1
:101170000F91FF90EF90DF9008950097D1F2E8CFA4
:1011800040E252E020E639E00E9441080895FC0167
:1011900020812C3078F54181552747FD509588E80E
:1011A00090E0841B950B880F991F880F991F681773
:1011B000790784F04281552747FD509588E592E0F4
:1011C000841B950B880F991F880F991F6817790743
:1011D0000CF4CB014FB7F89430E0F901EE0FFF1F8C
:1011E000E20FF31FE652FE4F0297880F991F92837A
:1011F00081834FBF0895AF92BF92CF92DF92EF925B
:10120000FF920F931F93CF93DF93EC0182E0603244
:1012100078070CF046C077FD04C0653B710524F4E7
:1012200005C060E070E002C064EB70E000D000D068
:10123000882777FD8095982F4981552747FD509540
:1012400028E830E0241B350B220F331F220F331FF9
:101250005901CC24B7FCC094DC2C4A81552747FDAA
:10126000509528E532E0241B350B220F331F220F47
:10127000331F442737FD4095542FEDB7FEB7218328
:1012800032834383548320E030E0A901B4EBEB2E9A
:10129000F12C012D112D0E94AD120F900F900F9087
:1012A0000F90CE010E94C708DF91CF911F910F913F
:1012B000FF90EF90DF90CF90BF90AF900895209176
:1012C000200230E080911F02281B3109C9010895D6
:1012D00080911F0290912002891750F4E82FF0E0CE
:1012E000E150FE4F208130E08F5F80931F0202C0EB
:1012F0002FEF3FEFC9010895E0911F028091200276
:10130000E81730F4F0E0E150FE4F208130E002C0F9
:101310002FEF3FEFC90108950895CF92DF92EF922A
:10132000FF920F931F93CF93DF936C01CB01EA01E0
:10133000209144022223B1F0E62EF92E00E010E0C5
:101340000DC0D7016D917D01D601ED91FC91019009
:10135000F081E02DC60109950F5F1F4F0C171D0787
:1013600080F303C0642F0E94CD0ACE01DF91CF919C
:101370001F910F91FF90EF90DF90CF900895DF9332
:10138000CF930F92CDB7DEB7698320914402222319
:10139000D1F020914302203240F021E030E0FC0106
:1013A0003383228320E030E015C080914202E82F91
:1013B000F0E0EE5DFD4F998190838F5F8093420254
:1013C0008093430205C0CE01019661E00E94CD0AE0
:1013D00021E030E0C9010F90CF91DF910895109284
:1013E0001F021092200210924202109243020E94A9
:1013F0003E0A0895862F413208F040E26FEF71E017
:101400000E94570A10921F028093200208950E94A2
:10141000FA09089581E080934402609321021092BA
:1014200042021092430208950E940A0A0895809190
:10143000210262E272E04091430221E00E948D0AA3
:1014400010924202109243021092440208951092A8
:1014500048021092470288EE93E0A0E0B0E080934B
:10146000490290934A02A0934B02B0934C0283E747
:1014700091E0909346028093450208951092750280
:1014800082E161E00E94E50F83E161E00E94E50FE7
:10149000E9EBF0E080818E7F808380818D7F808387
:1014A00088E48093B80085E48093BC0008954132BD
:1014B00088F5909175029923E1F791E09093750278
:1014C0009FEF9093740210925202942F9150909338
:1014D0005302880F81608093510285EE8093BC0097
:1014E000809175028130E1F380915202841710F4EB
:1014F00040915202E4E5F2E0262F372FD901242F44
:1015000030E02E0F3F1F02C081918D93E217F30749
:10151000D9F701C040E0842F08954132B0F5909191
:1015200075029923E1F792E0909375029FEF9093F3
:1015300074021092520240935302DB01E4E5F2E0A0
:1015400050E04E0F5F1F02C09D919193E417F50785
:10155000D9F790E0880F991F8093510285EE809310
:10156000BC00222321F0809175028230E1F380914A
:1015700074028F3F61F080917402803251F080914B
:101580007402803341F483E0089581E0089580E09F
:10159000089582E0089584E008956132A0F42091D6
:1015A0007502243091F460939A02DC01EDE9F2E0D7
:1015B00070E06E0F7F1F02C08D918193E617F707D1
:1015C000D9F780E0089581E0089582E008958823A6
:1015D00011F085EC01C085E88093BC00089585ED8D
:1015E0008093BC008091BC0084FDFCCF10927502FA
:1015F000089585EC8093BC001092750208951F92A7
:101600000F920FB60F9211242F933F934F935F9336
:101610006F937F938F939F93AF93BF93EF93FF93BA
:101620008091B90090E0887F90708036910509F430
:10163000C2C081369105E4F58832910509F47EC077
:1016400089329105C4F48031910509F472C0813169
:10165000910544F4009709F413C18830910509F00D
:1016600013C167C08831910509F468C080329105C3
:1016700009F00AC178C08034910509F48AC0813428
:1016800091054CF48033910509F46FC088339105BE
:1016900009F0FAC06EC08035910509F46EC0883536
:1016A000910509F47BC08834910509F0EDC0EAC0CA
:1016B0008839910509F4DAC089399105ECF4883745
:1016C000910509F478C0893791054CF48836910565
:1016D00009F471C08037910509F0D6C06CC0883814
:1016E000910509F4C3C08039910509F46AC08038B6
:1016F000910509F0C9C065C0803B910509F48EC011
:10170000813B91054CF4803A910509F46CC0883A0C
:10171000910509F0B9C082C0803C910509F4AAC0C6
:10172000883C910509F4A6C0883B910509F0ACC03E
:101730008AC0809151028093BB0013C090915202E5
:1017400080915302981708F09DC080915202E82FB3
:10175000F0E0EC5AFD4F90819093BB008F5F809337
:10176000520281E084C080E201C080E38093740271
:1017700089C088E3809374024EC080915202909198
:10178000BB00E82FF0E0EC5AFD4F90838F5F809311
:101790005202909152028091530265C08091520290
:1017A0009091BB00E82FF0E0EC5AFD4F90838F5FE3
:1017B0008093520267C083E0809375021092760294
:1017C000D0CF80917602803208F050C080917602AE
:1017D0009091BB00E82FF0E0E958FD4F90838F5FB8
:1017E00080937602BECF80917602803230F4E09111
:1017F0007602F0E0E958FD4F10820E94EF0A6091F6
:101800007602E0919702F091980287E792E070E00B
:101810000995109276020E94F90A36C084E08093FE
:1018200075021092990210929A02E0919B02F09137
:101830009C02099580919A02882329F481E0809383
:101840009A0210929D0280919902E82FF0E0E356EF
:10185000FD4F90819093BB008F5F80939902909190
:10186000990280919A02981708F47BCF80E00E9439
:10187000E70A0AC081E00E94E70A1092750204C0DC
:10188000109274020E94EF0AFF91EF91BF91AF9105
:101890009F918F917F916F915F914F913F912F9188
:1018A0000F900FBE0F901F90189520E030E040E899
:1018B0005FE3FC0120833183428353830895EF92D9
:1018C000FF921F93DF93CF930F92CDB7DEB7162F02
:1018D00085E4E82E82E0F82EC7016EE170E04983CE
:1018E0000E94140AC701612F0E94BF09C7014981E4
:1018F000642F0E94BF09C7010E94170A0F90CF9161
:10190000DF911F91FF90EF900895462F62E070E005
:1019100050E00E945F0C0895EF92FF920F931F9387
:10192000CF93DF93EC017A018B01CB01BA012EEA50
:1019300037E441E65FE30E94BD13882351F488E455
:1019400091EEAAE3BFE388839983AA83BB8340E037
:101950008FC0C801B70126E636E646EA5FE30E947B
:10196000BD13882351F48FE195E8ABE6BFE388838C
:101970009983AA83BB8341E07BC0C801B70123E3FD
:1019800033E343EF5FE30E94BD13882351F486EFF6
:1019900098E2ACE9BFE388839983AA83BB8342E0E2
:1019A00067C0C801B70120E030E040E250E40E9487
:1019B000BD13882351F48CE59FE8A2ECBFE3888334
:1019C0009983AA83BB8343E053C0C801B70120E0D9
:1019D00030E040E850E40E94BD13882351F48EEAC1
:1019E00097E4A1E1B0E488839983AA83BB8344E0B0
:1019F0003FC0C801B70126E636E646E950E40E943A
:101A0000BD13882351F48AE097EDA3E2B0E4888304
:101A10009983AA83BB8345E02BC0C801B70123E3A8
:101A200033E343EB50E40E94BD13882351F485E86F
:101A30009BEEA1E4B0E488839983AA83BB8346E04C
:101A400017C0C801B7012AE939E941E051E40E9411
:101A5000BD13882351F483E393E3ABE8B0E48883B8
:101A60009983AA83BB8347E003C081E090E009C06B
:101A70004295440F407ECE0161E070E050E00E944C
:101A80005F0CDF91CF911F910F91FF90EF90089520
:101A90009F92AF92BF92CF92DF92EF92FF920F93FD
:101AA0001F93DF93CF93CDB7DEB7E62E8A01ADB695
:101AB000BEB685E492E06EE170E00E94140A85E40F
:101AC00092E06E2D0E94BF0985E492E00E94170A01
:101AD00085E492E06EE170E00E94140A85E492E0F1
:101AE0006EE170E0A8010E94070A8DB79EB7801BC7
:101AF000910B0FB6F8949EBF0FBE8DBFCDB6DEB66C
:101B00000894C11CD11C85E492E00E945F097C010D
:101B10008017910781F4992409C085E492E00E941E
:101B20006809F601E00FF11F80839394092D10E0FE
:101B30000E151F0594F385E492E00E94170AC60172
:101B40000FB6F894BEBE0FBEADBECF91DF911F9110
:101B50000F91FF90EF90DF90CF90BF90AF909F904C
:101B60000895DF93CF9300D000D000D0CDB7DEB77B
:101B700063E070E046E050E00E94480DFC01928175
:101B800080E0638170E0682B792B948180E045814F
:101B900050E0482B592B218130E0908180E0282BA8
:101BA000392B3A8329835C834B837E836D833A810F
:101BB0005C817E8190E026960FB6F894DEBF0FBE62
:101BC000CDBFCF91DF9108958F929F92AF92BF9238
:101BD000CF92DF92EF92FF920F931F93DF93CF93F9
:101BE000CDB7DEB72C970FB6F894DEBF0FBECDBFD2
:101BF0008C016B01CB010E94B10D2F83388749877F
:101C00005A876B877C87DE011196FE01379686E046
:101C100001900D928150E1F78B809C80AD80BE8059
:101C2000F601C080D180E280F38069817A818827C3
:101C300077FD8095982F0E945C14A70196010E9461
:101C40003815F8016083718382839383B5018827F7
:101C500077FD8095982F0E945C14A70196010E9441
:101C60003815F8016087718782879387B4018827C8
:101C700077FD8095982F0E945C14A70196010E9421
:101C80003815F8016483758386839783C8012C9681
:101C90000FB6F894DEBF0FBECDBFCF91DF911F917D
:101CA0000F91FF90EF90DF90CF90BF90AF909F90FB
:101CB0008F9008956130710519F420E031E002C081
:101CC0002DE531E0C90108951F93CF93DF93182FBD
:101CD000EB0161E00E94C10F209709F44AC0CF3F99
:101CE000D10509F449C0E12FF0E0E552FF4FE4913E
:101CF000E330C1F0E43028F4E13051F0E230B1F5E6
:101D00000CC0E63019F1E73049F1E43079F514C040
:101D100084B5806884BDC7BD33C084B5806284BD8E
:101D2000C8BD2EC080918000806880938000D093D1
:101D30008900C093880024C08091800080628093D5
:101D40008000D0938B00C0938A001AC08091B000AD
:101D500080688093B000C093B30012C08091B0003F
:101D600080628093B000C093B4000AC0C038D1052F
:101D70001CF4812F60E002C0812F61E00E94E50F1A
:101D8000DF91CF911F9108951F920F920FB60F927E
:101D900011242F933F938F939F93AF93BF93809181
:101DA000C1029091C202A091C302B091C4023091CD
:101DB000C5020196A11DB11D232F2D5F2D3720F0E7
:101DC0002D570196A11DB11D2093C5028093C1021C
:101DD0009093C202A093C302B093C4028091BD024B
:101DE0009091BE02A091BF02B091C0020196A11DC8
:101DF000B11D8093BD029093BE02A093BF02B09329
:101E0000C002BF91AF919F918F913F912F910F9001
:101E10000FBE0F901F9018959FB7F8942091BD02A8
:101E20003091BE024091BF025091C00286B5A89B7E
:101E300006C08F3F21F02F5F3F4F4F4F5F4F9FBF37
:101E4000542F432F322F2227280F311D411D511DA2
:101E500082E0220F331F441F551F8A95D1F7B90125
:101E6000CA010895EF92FF920F931F93CF93DF93D0
:101E70007B018C010E940C0FEB010FC00E940C0F24
:101E80006C1B7D0B83E0683E780738F00894E1080E
:101E9000F10801091109C851DC4FE114F1040105F1
:101EA000110561F7DF91CF911F910F91FF90EF9096
:101EB0000895789484B5826084BD84B5816084BDC2
:101EC00085B5826085BD85B5816085BDEEE6F0E0B3
:101ED000808181608083E1E8F0E01082808182600F
:101EE0008083808181608083E0E8F0E08081816090
:101EF0008083E1EBF0E0808184608083E0EBF0E0C0
:101F0000808181608083EAE7F0E080818460808363
:101F1000808182608083808181608083808180680D
:101F200080831092C1000895833071F0843028F4CA
:101F30008130A1F0823021F514C08630B1F08730B5
:101F4000D1F08430E9F404C0809180008F7703C021
:101F5000809180008F7D80938000089584B58F7775
:101F600002C084B58F7D84BD08958091B0008F77C5
:101F70008093B00008958091B0008F7D8093B00071
:101F8000089590E0FC01E953FF4F2491FC01ED54CA
:101F9000FF4FE491EE23C1F0F0E0EE0FFF1FEB5690
:101FA000FF4F85919491DC01662341F49FB7F8942B
:101FB0008C91209582238C939FBF08959FB7F894AE
:101FC0008C91822B8C939FBF08950F931F93DF9367
:101FD000CF930F92CDB7DEB7282F30E0F901E5524D
:101FE000FF4F8491F901E953FF4F14912D543F4F56
:101FF000F90104910023D9F0882321F069830E941C
:10200000940F6981E02FF0E0EE0FFF1FE156FF4FC4
:1020100085919491DC019FB7F894662321F48C910B
:102020001095812302C08C91812B8C939FBF0F90C0
:10203000CF91DF911F910F9108950F931F93282F38
:1020400030E0F901E552FF4F8491F901E953FF4F68
:1020500004912D543F4FF9011491112391F08823DD
:1020600011F00E94940FE12FF0E0EE0FFF1FE755F3
:10207000FF4F85919491DC018C91802321E030E029
:1020800011F420E030E0C9011F910F910895FC0187
:1020900084859585FC01E05CFF4F208131818E5B5A
:1020A0009F4FFC0180819181281B390B2F73307069
:1020B000C9010895FC0184859585FC01E05CFF4F12
:1020C00040815181FC01EE5BFF4F2081318142173D
:1020D000530741F00190F081E02DE80FF91F2081B6
:1020E00030E002C02FEF3FEFC9010895FC01848565
:1020F0009585FC01E05CFF4F40815181FC01EE5B66
:10210000FF4F208131814217530771F0A081B181C7
:10211000A80FB91F2C918081918101968F739070C7
:102120009183808330E002C02FEF3FEFC901089513
:10213000DC011E968D919C911F97FC01E05CFF4F86
:102140008E5B9F4F40815181DC012D913C91119715
:1021500042175307B9F708951F93FC01162F2685E0
:102160003785D901A05CBF4F8D919C91019660E4A9
:1021700070E00E94C915D901AE5BBF4F4D915C91D3
:10218000119784179507D1F3D901A05CBF4F0D902B
:10219000BC91A02DA20FB31F1C93A685B785A05C90
:1021A000BF4F11969C938E93A689B7892C9181E09D
:1021B00090E0058C02C0880F991F0A94E2F7282B43
:1021C0002C9381E090E01F910895FB01E05CFF4FAC
:1021D000208131812F5F3F4F2F733070DB01AE5B69
:1021E000BF4F4D915C9111972417350739F0A081AD
:1021F000B181A60FB71F8C93318320830895089572
:102200001F920F920FB60F9211242F933F934F936B
:102210005F936F937F938F939F93AF93BF93EF934E
:10222000FF938091C60066EC72E00E94E510FF917A
:10223000EF91BF91AF919F918F917F916F915F913E
:102240004F913F912F910F900FBE0F901F901895B7
:102250008EE493E00E944710009711F00E94FF1057
:1022600008951F920F920FB60F9211242F933F9350
:102270005F936F937F938F939F93AF93BF93EF93EE
:10228000FF9320914A0330914B0380914C0390912E
:102290004D032817390731F48091C1008F7D809359
:1022A000C10016C0E0914C03F0914D03E65FFC4F76
:1022B000208180914C0390914D03019660E470E081
:1022C0000E94C91590934D0380934C032093C60040
:1022D000FF91EF91BF91AF919F918F917F916F91FE
:1022E0005F913F912F910F900FBE0F901F90189507
:1022F000DF92EF92FF920F931F93CF93DF93EC0146
:102300007A018B01DD24D394403081EE580780E0C0
:10231000680780E0780749F4DD24EC89FD891082A4
:1023200060E874E88EE190E00FC0EC89FD8981E0FF
:1023300090E00E8C02C0880F991F0A94E2F7808308
:1023400060E079E08DE390E0A80197010E94DC1540
:10235000215030404040504056954795379527953D
:1023600080E12030380710F0DD20B1F6E889F989E6
:102370003083EA89FB892083EE89FF89408181E0EF
:1023800090E09C010A8C02C0220F331F0A94E2F7EE
:10239000422B4083EE89FF8940819C010B8C02C057
:1023A000220F331F0A94E2F7422B4083EE89FF8904
:1023B00040819C010C8C02C0220F331F0A94E2F76B
:1023C000422B4083EE89FF8920810D8C02C0880F4B
:1023D000991F0A94E2F7809582238083DF91CF9141
:1023E0001F910F91FF90EF90DF900895109251038D
:1023F0001092500388EE93E0A0E0B0E08093520387
:1024000090935303A0935403B0935503E0E5F3E096
:1024100083E891E09293829386EC92E0958784879B
:102420008AE093E09787868785EC90E0918B808B9C
:1024300084EC90E0938B828B80EC90E0958B848B86
:1024400081EC90E0978B868B86EC90E0918F808F6B
:1024500084E0828F83E0838F87E0848F85E0858F9F
:1024600081E0868F0895CF93DF930E94590F0E94D9
:102470008D04C8E2D1E10E948D062097E1F30E940D
:102480002811F9CFCF92DF92EF92FF920F931F9313
:10249000CF93DF936C017B018A01C0E0D0E00FC0D5
:1024A000D7016D917D01D601ED91FC910190F081F4
:1024B000E02DC6010995C80FD91F01501040011524
:1024C000110571F7CE01DF91CF911F910F91FF9010
:1024D000EF90DF90CF900895DB010D900020E9F799
:1024E000AD0141505040461B570BDC01ED91FC9172
:1024F0000280F381E02D09950895DC01ED91FC91B6
:102500000190F081E02D099508950F931F93CF93CB
:10251000DF93EC016DE00E947D128C01CE016AE038
:102520000E947D12080F191FC801DF91CF911F91E2
:102530000F9108950F931F93CF93DF93EC010E94A7
:102540006C128C01CE010E948512080F191FC80160
:10255000DF91CF911F910F9108952F923F924F924B
:102560005F926F927F928F929F92AF92BF92CF9223
:10257000DF92EF92FF920F931F93DF93CF93CDB72C
:10258000DEB73B014C0119012A016D897E898F89D3
:10259000988D6A197B098C099D09621A730A840A4D
:1025A000950AA40193010E949E15E218F3080409FC
:1025B0001509A80197010E94FE152A0D3B1D4C1D0F
:1025C0005D1DB901CA01CF91DF911F910F91FF905D
:1025D000EF90DF90CF90BF90AF909F908F907F90C3
:1025E0006F905F904F903F902F9008955058BB2769
:1025F000AA270ED0FCC1EDD130F0F2D120F031F499
:102600009F3F11F41EF4BDC10EF4E095E7FBB3C18A
:10261000E92FFED180F3BA17620773078407950785
:1026200018F071F49EF516C20EF4E0950B2EBA2F39
:10263000A02D0B01B90190010C01CA01A0011124C8
:10264000FF27591B99F0593F50F4503E68F11A1674
:10265000F040A22F232F342F4427585FF3CF469505
:1026600037952795A795F0405395C9F77EF41F1627
:10267000BA0B620B730B840BBAF09150A1F0FF0FF1
:10268000BB1F661F771F881FC2F70EC0BA0F621FDD
:10269000731F841F48F4879577956795B795F795CD
:1026A0009E3F08F0B3CF9395880F08F09927EE0F5F
:1026B0009795879508958DD158F080E891E009F4B9
:1026C0009EEF8ED128F040E851E059F45EEF09C04A
:1026D00058C1C0C1E92FE0789BD168F3092E052AC3
:1026E000C1F3261737074807590738F00E2E07F8A9
:1026F000E02569F0E025E0640AC0EF6307F8009484
:1027000007FADB01B9019D01DC01CA01AD01EF93BC
:1027100047D06DD10AD05F91552331F02BED3FE0CA
:1027200049E450FD49EC63CF0895DF93DD27B92FCD
:10273000BF7740E85FE31616170648075B0710F4FB
:10274000D92F8FD19F938F937F936F93F4D1E8E626
:10275000F0E01AD14CD12F913F914F915F9194D1DC
:10276000DD2349F09058A2EA2AED3FE049EC5FE30F
:10277000D0785D274DDFDF913AC1D9D008F481E0F0
:1027800008950CD034C12CD140F023D130F021F485
:102790005F3F19F0F0C051115EC1F3C039D198F319
:1027A0009923C9F35523B1F3951B550BBB27AA27D2
:1027B00062177307840738F09F5F5F4F220F331F44
:1027C000441FAA1FA9F333D00E2E3AF0E0E830D010
:1027D00091505040E695001CCAF729D0FE2F27D013
:1027E000660F771F881FBB1F261737074807AB07E1
:1027F000B0E809F0BB0B802DBF01FF2793585F4F56
:102800002AF09E3F510568F0B6C025C15F3FECF34A
:10281000983EDCF3869577956795B795F7959F5F1A
:10282000C9F7880F911D9695879597F90895E1E06E
:10283000660F771F881FBB1F621773078407BA07CD
:1028400020F0621B730B840BBA0BEE1F88F7E09528
:10285000089504D06894B111FEC00895E1D088F0C5
:102860009F5790F0B92F9927B751A0F0D1F0660F7C
:10287000771F881F991F1AF0BA95C9F712C0B13097
:1028800081F0E8D0B1E00895E5C0672F782F882760
:10289000B85F39F0B93FCCF3869577956795B395D6
:1028A000D9F73EF490958095709561957F4F8F4F45
:1028B0009F4F0895E89409C097FB3EF4909580954A
:1028C000709561957F4F8F4F9F4F9923A9F0F92FF6
:1028D00096E9BB279395F695879577956795B79574
:1028E000F111F8CFFAF4BB0F11F460FF1BC06F5F5A
:1028F0007F4F8F4F9F4F16C0882311F096E911C06C
:10290000772321F09EE8872F762F05C0662371F08C
:1029100096E8862F70E060E02AF09A95660F771FA0
:10292000881FDAF7880F9695879597F90895990F7C
:102930000008550FAA0BE0E8FEEF16161706E80789
:10294000F907C0F012161306E407F50798F0621BAA
:10295000730B840B950B39F40A2661F0232B242B7F
:10296000252B21F408950A2609F4A140A6958FEF9E
:10297000811D811D089597F99F6780E870E060E0F0
:1029800008959FEF80EC0895DF93CF931F930F93EB
:10299000FF92EF92DF927B018C01689405C0DA2EE2
:1029A000EF0172D0FE01E894A591259135914591F2
:1029B0005591AEF3EF012CDEFE019701A801DA94E8
:1029C00079F7DF90EF90FF900F911F91CF91DF91FA
:1029D000089500240A941616170618060906089585
:1029E00000240A9412161306140605060895092EEB
:1029F0000394000C11F4882352F0BB0F40F4BF2B5A
:102A000011F460FF04C06F5F7F4F8F4F9F4F089599
:102A100057FD9058440F551F59F05F3F71F047958F
:102A2000880F97FB991F61F09F3F79F08795089574
:102A3000121613061406551FF2CF4695F1DF08C093
:102A4000161617061806991FF1CF869571056105B0
:102A500008940895E894BB2766277727CB0197F958
:102A600008959B01AC0160E070E080E89FE389CEAF
:102A70000BD0BDCFAEDF28F0B3DF18F0952309F0FF
:102A80007ACF7FCF1124E7CFC3DFA0F3959FD1F397
:102A9000950F50E0551F629FF001729FBB27F00D0C
:102AA000B11D639FAA27F00DB11DAA1F649F662761
:102AB000B00DA11D661F829F2227B00DA11D621FB0
:102AC000739FB00DA11D621F839FA00D611D221F6A
:102AD000749F3327A00D611D231F849F600D211D4E
:102AE000822F762F6A2F11249F5750408AF0E1F0F1
:102AF00088234AF0EE0FFF1FBB1F661F771F881F3A
:102B000091505040A9F79E3F510570F034CFA3CFAC
:102B10005F3FECF3983EDCF3869577956795B79524
:102B2000F795E7959F5FC1F7FE2B880F911D96954E
:102B3000879597F908959B01AC019ACF629FD001C8
:102B4000739FF001829FE00DF11D649FE00DF11D68
:102B5000929FF00D839FF00D749FF00D659FF00D17
:102B60009927729FB00DE11DF91F639FB00DE11D04
:102B7000F91FBD01CF0111240895991B79E004C00C
:102B8000991F961708F0961B881F7A95C9F78095AC
:102B9000089597FB092E07260AD077FD04D049D067
:102BA00006D000201AF4709561957F4F0895F6F7CE
:102BB000909581959F4F0895A1E21A2EAA1BBB1BE9
:102BC000FD010DC0AA1FBB1FEE1FFF1FA217B307F9
:102BD000E407F50720F0A21BB30BE40BF50B661F0F
:102BE000771F881F991F1A9469F7609570958095D3
:102BF00090959B01AC01BD01CF01089597FB092E73
:102C000005260ED057FD04D0D7DF0AD0001C38F4BB
:102C100050954095309521953F4F4F4F5F4F089508
:102C2000F6F790958095709561957F4F8F4F9F4FE8
:102C30000895AA1BBB1B51E107C0AA1FBB1FA61703
:102C4000B70710F0A61BB70B881F991F5A95A9F755
:102C500080959095BC01CD010895EE0FFF1F059062
:0A2C6000F491E02D0994F894FFCFE1
:102C6A00456E7465726564207363616C6520776173
:102C7A0073206E6F742076616C69642C2076616CA7
:102C8A0069642067617573732076616C756573205A
:102C9A006172653A20302E38382C20312E332C20A0
:102CAA00312E392C20322E352C20342E302C203443
:102CBA002E372C20352E362C20382E3100457272B4
:102CCA006F72206E6F7420646566696E65640000B9
:102CDA00000000BF098D095F0968097C098C090099
:102CEA00000000AC104212471076105A10981000DB
:00000001FF
