:100000000C947A000C94A2000C94A2000C94A20010
:100010000C94A2000C94A2000C94A2000C94A200D8
:100020000C94A2000C94A2000C94A2000C94530611
:100030000C94A2000C94A2000C94A2000C94A200B8
:100040000C94E5070C94A2000C940F0A0C94400A3F
:100050000C94A2000C94A2000C94A2000C94A20098
:100060000C94A2000C94A200084AD73B3BCE016E30
:1000700084BCBFFDC12F3D6C74319ABD56833DDAFF
:100080003D00C77F11BED9E4BB4C3E916BAAAABE0E
:10009000000000803F00000000240027002A00002C
:1000A000000000250028002B00000000002300268F
:1000B00000290004040404040404040202020202ED
:1000C000020303030303030102040810204080011C
:1000D000020408102001020408102000000007009C
:1000E0000201000003040600000000000000000000
:1000F0003C01050B11241FBECFEFD8E0DEBFCDBF02
:1001000011E0A0E0B1E0E6E0FFE102C005900D9251
:10011000A031B107D9F712E0A0E1B1E001C01D9212
:10012000A931B107E1F710E0C4EFD0E004C0229795
:10013000FE010E947D0FC03FD107C9F70E94050C48
:100140000C94810F0C940000CF93DF93CAEFD1E0A1
:10015000CE0140E056E960E070E00E94870ACE01DF
:100160004AE050E060E070E00E948A0B1092340197
:1001700081E0809335011092360110923701109280
:10018000380110923901C0E1D1E0CE010E94E801AE
:10019000CE0160E070E040E050E026E930E00E94EF
:1001A000D105529A5A98DF91CF9108952F923F929C
:1001B0004F925F926F927F928F929F92AF92BF9277
:1001C000CF92DF92EF92FF920F931F938AEF91E00D
:1001D0000E94560918161906F4F58AEF91E00E945C
:1001E000010C7B018C018AEF91E00E94010C5B0104
:1001F0006C018AEF91E00E94010C1B012C018AEF37
:1002000091E00E94010C3B014C018AEF91E00E94B9
:1002100085098A309105F9F4B50188E1E816F10401
:1002200069F46A557040A1014A55504080E191E05F
:10023000930104EC19E00E94DB050DC08AE1E81689
:10024000F10449F46130710511F45A9A04C0A11403
:10025000B10409F45A981F910F91FF90EF90DF902D
:10026000CF90BF90AF909F908F907F906F905F9056
:100270004F903F902F9008958F929F92AF92BF9290
:10028000CF92DF92EF92FF920F931F9300D00F92C5
:10029000EDB7FEB7319683E0ADB7BEB711968C933C
:1002A00089E0818385E0828380E191E040E050E055
:1002B00064E373E400E010E020EA32E40F2EF0E0A3
:1002C000CF2EF0E0DF2EFCE5EF2EF3E4FF2EF02D35
:1002D0000F2EF0E08F2EF0E09F2EF8E4AF2EF2E428
:1002E000BF2EF02D0E948E010F900F900F908AE389
:1002F00091E00E9411078DE391E00E94110780E4D4
:1003000091E00E9411071F910F91FF90EF90DF90F5
:10031000CF90BF90AF909F908F9008952F923F9273
:100320004F925F926F927F928F929F92AF92BF9205
:10033000CF92DF92EF92FF920F931F93DF93CF93B1
:1003400000D000D0CDB7DEB73C01180129010396DB
:1003500049835A836B837C830E941107C3010696ED
:100360000E941107C30109960E94110749815A8111
:100370006B817C81F301428B538B648B758B268A56
:10038000378A408E518EC28ED38EE48EF58E868E45
:10039000978EA0A2B1A2898D80838A8D81838B8D57
:1003A00082830F900F900F900F90CF91DF911F914C
:1003B0000F91FF90EF90DF90CF90BF90AF909F9004
:1003C0008F907F906F905F904F903F902F90089507
:1003D000EF92FF920F931F93CF93DF938C017C01D9
:1003E000C0E0D0E0F70161917F012196CE01880F36
:1003F000991F8C0F9D1F800F911F70E00E94AA070C
:10040000C330D10579F7DF91CF911F910F91FF9004
:10041000EF9008952F923F924F925F926F927F924A
:100420008F929F92AF92BF92CF92DF92EF92FF9204
:100430000F931F93DF93CF93CDB7DEB762970FB6BD
:10044000F894DEBF0FBECDBF9A8B898B4A015B014A
:100450000D831E832F83388726013701DC015296D6
:100460006D917D918D919C9155972AE33DEC43E9E7
:100470005EEB0E944A0E69837A838B839C83E989B1
:10048000FA89668D778D80A191A12AE33DEC43E93D
:100490005EE30E944A0E9B01AC016D817E818F81DB
:1004A00098850E943E0CD62EC72E382E292EA9895B
:1004B000BA8956968D919D910D90BC91A02D8D83FA
:1004C0009E83AF83B887A989BA895A968D919D91E9
:1004D0000D90BC91A02D89879A87AB87BC87C501F9
:1004E000B401A50194010E944A0E7B018C01A60172
:1004F0009101652F742F832F922FD601F1012B2F9D
:100500003A2F4F2F5E2F0E944A0E9B01AC01C8016B
:10051000B7010E943F0C7B018C01C301B201A30112
:1005200092010E944A0E9B01AC01C801B7010E94D2
:100530003F0C7B018C016D817E818F8198859B01B1
:10054000AC010E944A0E9B01AC01C801B7010E9498
:100550003F0C7B018C0169857A858B859C859B018D
:10056000AC010E944A0E9B01AC01C801B7010E9478
:100570003E0C7B018C0159814A813B812C81652F86
:10058000742F832F922FDA01B32E822E2B2F3A2F26
:10059000482F592F0E944A0E9B01AC01C801B70198
:1005A0000E943E0C7B018C01C301B201A3019201A8
:1005B0000E943F0C9B01AC01C801B7010E94CF0C07
:1005C00069877D878E879F8759814A81652F742F20
:1005D0008B2D982DD601F1012B2F3A2F4F2F5E2F07
:1005E0000E943E0CA30192010E94CF0CF62E072F11
:1005F000182F492EB981AA812B2F3A2F4B2D582D18
:100600000E944A0E9B01AC01B985AD85EE84DF8462
:100610006B2F7A2F8E2D9D2D0E943F0CE62ED72E0C
:10062000C82EB92E662E772E882E992E6F2D702FFC
:10063000812F942D2F2D302F412F542D0E944A0EA3
:10064000562E372E282E988BC401B30190582E2D8C
:100650003D2D4C2D5B2D0E944A0E4B015C012889DB
:10066000652D732D822D922F2D813E814F815885CE
:100670000E944A0E2D813E814F8158850E943F0C79
:100680009B01AC016D817E818F8198850E944A0E0D
:100690009B01AC01C501B4010E943F0CE62ED72E90
:1006A000C82EB92E20E030E0A9010E94CB0C87FFB4
:1006B00007C0E989FA8982A193A1019693A382A335
:1006C0006E2D7D2D8C2D9B2D0E94B10E4B015C015A
:1006D00059854D853E852F85652F742F832F922F49
:1006E0002F2D302F412F542D0E944A0E9B01AC011B
:1006F000B981AA81EB80DC806B2F7A2F8E2D9D2D06
:100700000E943E0CA50194010E943E0C4B015C012D
:100710002889652D732D822D922F20E030E040E84E
:100720005FE30E943F0C9B01AC01C501B4010E9434
:10073000CF0CE62ED72EC82EB92E6F2D702F812FFD
:10074000942D2E2D3D2D4C2D5B2D0E944A0E9B018C
:10075000AC01B985AD851E850F856B2F7A2F812F52
:10076000902F0E943F0C3B014C0197FA909497F810
:10077000909459814A813B812C81652F742F832F5E
:10078000922F2E2D3D2D4C2D5B2D0E943E0C9B015A
:10079000AC01C401B3010E94CF0C0E94A30C20E065
:1007A00030E044E353E40E944A0E2BED3FE049E47D
:1007B00050E40E94CF0C162F072FF82E892E6E2D95
:1007C0007D2D8C2D9B2DB981AA81EB80DC802B2F78
:1007D0003A2F4E2D5D2D0E943F0E18162CF420E06E
:1007E00030E044E353E403C020E030E0A901D80145
:1007F0006B2F702F8F2D982D0E943F0C7B018C0149
:100800007F2D912F20E030E0A9010E943F0E1816A5
:100810006CF46E2D7F2D802F912F20E030E044EB83
:1008200052E40E943F0E18166CF017C06E2D7F2DFB
:10083000802F912F20E030E044EB52EC0E94CB0C53
:1008400087FF0BC0A989BA8992968D919C91939745
:10085000019693969C938E9392976E2D7F2D802F69
:10086000912F62960FB6F894DEBF0FBECDBFCF9129
:10087000DF911F910F91FF90EF90DF90CF90BF908D
:10088000AF909F908F907F906F905F904F903F9030
:100890002F9008952F923F924F925F926F927F9286
:1008A0008F929F92AF92BF92CF92DF92EF92FF9280
:1008B0000F931F93DF93CF93CDB7DEB72C970FB66F
:1008C000F894DEBF0FBECDBF5C01FC0113A212A2E3
:1008D00064857585882777FD8095982F0E946A0D1D
:1008E0003B014C01F50166857785882777FD80956A
:1008F000982F0E946A0D1B012C01F50160897189F6
:10090000882777FD8095982F0E946A0D6B017C01E6
:10091000C501B401A301920181010E940A02698309
:100920007A838B839C83F50164857585882777FDA1
:100930008095982F0E946A0D3B014C01F501668558
:100940007785882777FD8095982F0E946A0D7B0117
:100950008C01C401B30120E030E040E05FEB0E9475
:100960004A0E1B012C01C801B70127ED33EB4DE501
:100970005FE30E944A0E9B01AC01C201B1010E94DB
:100980003F0C1B012C01C801B70120E030E040E022
:100990005FEB0E944A0E7B018C01C401B30127ED7D
:1009A00033EB4DE55FE30E944A0E9B01AC01C801A9
:1009B000B7010E943E0C3B014C01F5016089718931
:1009C000882777FD8095982F0E946A0D6B017C0126
:1009D000C501B201A101940183010E940A026D8345
:1009E0007E838F839887F50164857585882777FDD9
:1009F0008095982F0E946A0D3B014C01F501668598
:100A00007785882777FD8095982F0E946A0D7B0156
:100A10008C01C401B30120E030E040E05FEB0E94B4
:100A20004A0E1B012C01C801B70127ED33EB4DE540
:100A30005FE30E944A0E9B01AC01C201B1010E941A
:100A40003E0C1B012C01C801B70120E030E040E062
:100A50005FEB0E944A0E7B018C01C401B30127EDBC
:100A600033EB4DE55FE30E944A0E9B01AC01C801E8
:100A7000B7010E943F0C3B014C01F501608971896F
:100A8000882777FD8095982F0E946A0D6B017C0165
:100A9000C501B201A101940183010E940A02698784
:100AA0007A878B879C87F50182A193A1009709F033
:100AB0005DC03E010894611C711CCC24DD24F3014F
:100AC00021913191419151913F0160E070E084EBBF
:100AD00092E40E943E0C20EA3AE147E151E40E9490
:100AE0004A0E20E030E842E254E40E943F0C162F08
:100AF000072FF82EE92EA8019701652F742F832F59
:100B0000922F20E030E842E254E40E94CB0C87FDB3
:100B100017C0A8019701652F742F832F922F20E013
:100B200030E046E155E40E943F0E181664F0A8013B
:100B30009701652F742F832F922F0E94370D05C0C8
:100B40006AE872E002C060E679E086010F5F1F4F3D
:100B5000C801880F991F800F911F8A0D9B1D0E944D
:100B6000B10768010330110509F0A9CFF50182A191
:100B70002C960FB6F894DEBF0FBECDBFCF91DF919C
:100B80001F910F91FF90EF90DF90CF90BF90AF90AB
:100B90009F908F907F906F905F904F903F902F909D
:100BA0000895FC017587648757874687318B208BB2
:100BB0000E944A0408956F927F928F929F92AF9203
:100BC000BF92CF92DF92EF92FF920F931F93CF933A
:100BD000DF93EC015B016A017901C80168EE73E003
:100BE0000E94320F3B01882499248C859D858A15AB
:100BF0009B052CF401969D878C8720E001C021E0A5
:100C00008C859D85A816B90624F401979D878C874D
:100C100020E08E859F858C159D0524F401969F8785
:100C20008E8720E08E859F85C816D90624F401970B
:100C30009F878E8720E0888999898E159F0524F4E7
:100C40000196998B888B20E088899989E816F906A6
:100C500024F40197998B888B02C0222391F4CE0152
:100C60000E944A04882379F487E20131180728F0AA
:100C7000C401B3010E946108B8CFC8010E9488086E
:100C8000B4CF80E001C081E0DF91CF911F910F913F
:100C9000FF90EF90DF90CF90BF90AF909F908F909C
:100CA0007F906F9008951F920F920FB60F921124AC
:100CB0002F933F934F935F936F937F938F939F9364
:100CC000AF93BF93EF93FF938091680187FF05C0B7
:100CD00010928500109284002BC020916801332768
:100CE00027FD30958091430190E02817390704F5DE
:100CF00080916801992787FD9095FC01EE0FFF1FF9
:100D0000E80FF91FEC5BFE4F808186FF11C08091D8
:100D10006801992787FD9095FC01EE0FFF1FE80FF2
:100D2000F91FEC5BFE4F80818F7360E00E941E090B
:100D3000809168018F5F809368012091680133275B
:100D400027FD30958091430190E0281739070CF07A
:100D50004EC0809168018C300CF049C080918400B5
:100D60009091850020916801332727FD3095F90186
:100D7000EE0FFF1FE20FF31FEC5BFE4F218132816C
:100D8000820F931F9093890080938800809168015F
:100D9000992787FD9095FC01EE0FFF1FE80FF91FC3
:100DA000EC5BFE4F808186FF2BC080916801992704
:100DB00087FD9095FC01EE0FFF1FE80FF91FEC5B1C
:100DC000FE4F80818F7361E00E941E0919C080E48C
:100DD0009CE905C0809184009091850004969093D1
:100DE0008900809388008FEF8093680109C080910B
:100DF0008400909185002CE98434920740F3EACF77
:100E0000FF91EF91BF91AF919F918F917F916F91E2
:100E10005F914F913F912F910F900FBE0F901F90B8
:100E20001895FC01809143018C3090F480838F5F92
:100E300080934301808190E0FC01EE0FFF1FE80FDB
:100E4000F91FEC5BFE4F88EB9BE092838183089552
:100E50008FEF80830895DF92EF92FF920F931F939D
:100E6000CF93DF93EC01D62E8A01790188818C30F3
:100E700008F064C0862F61E00E94FA084881842F40
:100E800090E0FC01EE0FFF1FE80FF91FEC5BFE4F37
:100E90009D2D9F738081807C892B808380E292E0EE
:100EA000801B910B24E030E0B9010E94460F69835A
:100EB00080E699E08E199F09B9010E94460F6A8366
:100EC000842F6CE00E94260F90E09C01220F331FBC
:100ED000280F391F220F331F220F331F40E050E02D
:100EE000BA01620F731FFB01EE0FFF1FE60FF71F22
:100EF000EC5BFE4F608166FD15C04F5F5F4F4C306D
:100F0000510571F724C01092800082E08093810027
:100F10001092850010928400B19A80916F008260D7
:100F200080936F00888190E0FC01EE0FFF1FE80FB7
:100F3000F91FEC5BFE4F8081806480838881DF91A4
:100F4000CF911F910F91FF90EF90DF900895009740
:100F5000D1F2E8CF40E252E020E639E00E942B07D0
:100F60000895FC0120812C3078F54181552747FDFB
:100F7000509588E890E0841B950B880F991F880F87
:100F8000991F6817790784F04281552747FD5095CE
:100F900088E592E0841B950B880F991F880F991F95
:100FA000681779070CF4CB014FB7F89430E0F901DA
:100FB000EE0FFF1FE20FF31FEC5BFE4F0297880F4F
:100FC000991F928381834FBF08951F920F920FB68E
:100FD0000F9211242F933F938F939F93AF93BF93BF
:100FE00080916D0190916E01A0916F01B09170019F
:100FF000309171010196A11DB11D232F2D5F2D3759
:1010000020F02D570196A11DB11D209371018093F1
:101010006D0190936E01A0936F01B0937001809168
:10102000690190916A01A0916B01B0916C010196E8
:10103000A11DB11D8093690190936A01A0936B017A
:10104000B0936C01BF91AF919F918F913F912F9180
:101050000F900FBE0F901F9018958FB7F8942091A6
:101060006D0130916E0140916F01509170018FBF01
:10107000B901CA0108959FB7F89420916901309190
:101080006A0140916B0150916C0186B5A89B06C026
:101090008F3F21F02F5F3F4F4F4F5F4F9FBF542F28
:1010A000432F322F2227280F311D411D511D82E071
:1010B000220F331F441F551F8A95D1F7B901CA016A
:1010C0000895EF92FF920F931F93CF93DF937B01CD
:1010D0008C010E943B08EB010FC00E943B086C1B77
:1010E0007D0B83E0683E780738F00894E108F1084A
:1010F00001091109C851DC4FE114F1040105110582
:1011000061F7DF91CF911F910F91FF90EF900895BC
:10111000019739F0880F991F880F991F029701973F
:10112000F1F70895789484B5826084BD84B58160B8
:1011300084BD85B5826085BD85B5816085BDEEE6DF
:10114000F0E0808181608083E1E8F0E010828081BE
:1011500082608083808181608083E0E8F0E080812C
:1011600081608083E1EBF0E0808184608083E0EB4C
:10117000F0E0808181608083EAE7F0E08081846034
:101180008083808182608083808181608083808190
:10119000806880831092C1000895833071F084309C
:1011A00028F48130A1F0823021F514C08630B1F0EE
:1011B0008730D1F08430E9F404C0809180008F77CB
:1011C00003C0809180008F7D80938000089584B556
:1011D0008F7702C084B58F7D84BD08958091B00063
:1011E0008F778093B00008958091B0008F7D8093B9
:1011F000B000089590E0FC01E953FF4F2491FC01F9
:10120000ED54FF4FE491EE23C1F0F0E0EE0FFF1F2D
:10121000EB56FF4F85919491DC01662341F49FB713
:10122000F8948C91209582238C939FBF08959FB74B
:10123000F8948C91822B8C939FBF08950F931F93EA
:10124000DF93CF930F92CDB7DEB7282F30E0F901AF
:10125000E552FF4F8491F901E953FF4F14912D544A
:101260003F4FF90104910023D9F0882321F06983CD
:101270000E94CD086981E02FF0E0EE0FFF1FE156DC
:10128000FF4F85919491DC019FB7F894662321F478
:101290008C911095812302C08C91812B8C939FBFE0
:1012A0000F90CF91DF911F910F910895FC018485DC
:1012B0009585FC01E05CFF4F208131818E5B9F4F63
:1012C000FC0180819181281B390B2F733070C9017B
:1012D0000895FC0184859585FC01E05CFF4F408109
:1012E0005181FC01EE5BFF4F208131814217530792
:1012F00041F00190F081E02DE80FF91F208130E0EE
:1013000002C02FEF3FEFC9010895FC018485958548
:10131000FC01E05CFF4F40815181FC01EE5BFF4F1F
:10132000208131814217530771F0A081B181A80F4C
:10133000B91F2C918081918101968F739070918358
:10134000808330E002C02FEF3FEFC9010895DC0138
:101350001E968D919C911F97FC01E05CFF4F8E5B68
:101360009F4F40815181DC012D913C911197421793
:101370005307B9F708951F93FC01162F268537856B
:10138000D901A05CBF4F8D919C91019660E470E003
:101390000E94460FD901AE5BBF4F4D915C911197F2
:1013A00084179507D1F3D901A05CBF4F0D90BC9174
:1013B000A02DA20FB31F1C93A685B785A05CBF4FBD
:1013C00011969C938E93A689B7892C9181E090E029
:1013D000058C02C0880F991F0A94E2F7282B2C93E2
:1013E00081E090E01F910895FB01E05CFF4F2081B8
:1013F00031812F5F3F4F2F733070DB01AE5BBF4FEA
:101400004D915C9111972417350739F0A081B18176
:10141000A60FB71F8C9331832083089508951F92E0
:101420000F920FB60F9211242F933F934F935F9318
:101430006F937F938F939F93AF93BF93EF93FF939C
:101440008091C60062E771E00E94F409FF91EF917C
:10145000BF91AF919F918F917F916F915F914F91CC
:101460003F912F910F900FBE0F901F9018958AEF0C
:1014700091E00E945609009711F00E940E0A08950B
:101480001F920F920FB60F9211242F933F935F93E9
:101490006F937F938F939F93AF93BF93EF93FF933C
:1014A0002091F6013091F7018091F8019091F901B6
:1014B0002817390731F48091C1008F7D8093C100D6
:1014C00016C0E091F801F091F901EA54FE4F208135
:1014D0008091F8019091F901019660E470E00E941A
:1014E000460F9093F9018093F8012093C600FF9175
:1014F000EF91BF91AF919F918F917F916F915F918C
:101500003F912F910F900FBE0F901F901895DF9273
:10151000EF92FF920F931F93CF93DF93EC017A0129
:101520008B01DD24D394403081EE580780E06807BA
:1015300080E0780749F4DD24EC89FD89108260E8B9
:1015400074E88EE190E00FC0EC89FD8981E090E0C5
:101550000E8C02C0880F991F0A94E2F7808360E026
:1015600079E08DE390E0A80197010E94590F215086
:10157000304040405040569547953795279580E13B
:101580002030380710F0DD20B1F6E889F989308382
:10159000EA89FB892083EE89FF89408181E090E020
:1015A0009C010A8C02C0220F331F0A94E2F7422BDF
:1015B0004083EE89FF8940819C010B8C02C0220F81
:1015C000331F0A94E2F7422B4083EE89FF89408162
:1015D0009C010C8C02C0220F331F0A94E2F7422BAD
:1015E0004083EE89FF8920810D8C02C0880F991FEE
:1015F0000A94E2F7809582238083DF91CF911F9137
:101600000F91FF90EF90DF9008951092FD011092DE
:10161000FC0188EE93E0A0E0B0E08093FE0190939F
:10162000FF01A0930002B0930102ECEFF1E084E02F
:1016300091E09293829382E791E09587848786EB8D
:1016400091E09787868785EC90E0918B808B84EC86
:1016500090E0938B828B80EC90E0958B848B81EC77
:1016600090E0978B868B86EC90E0918F808F84E062
:10167000828F83E0838F87E0848F85E0858F81E090
:10168000868F0895CF93DF93EC010E942D08688721
:1016900079878A879B87E881F9810084F185E02D2D
:1016A000CE0109959C0197FF15C00E942D08288541
:1016B00039854A855B85621B730B840B950B2C81E6
:1016C0003D814E815F81621773078407950718F388
:1016D0002FEF3FEFC901DF91CF910895CF93DF93B3
:1016E000EC01CE010E94420B9C0197FD0FC08D3290
:1016F000910561F0C0978A30910540F0E881F98149
:101700000680F781E02DCE010995EBCFC901DF916D
:10171000CF910895FC0144835583668377830895B0
:101720009F92AF92BF92CF92DF92EF92FF920F9370
:101730001F93CF93DF936C01A62E0E946E0BEC01DA
:1017400097FD4EC0EE24FF2487019924BB24A7FCFB
:10175000B094CA15DB0531F1CD32D10509F1CE01C6
:10176000C0978A309105F0F4C801B7012AE030E053
:1017700040E050E00E94070F7B018C01CE01AA27B8
:1017800097FDA095BA2FE80EF91E0A1F1B1F80EDCA
:101790009FEFAFEFBFEFE80EF91E0A1F1B1F02C03D
:1017A00099249394D601ED91FC910680F781E02D68
:1017B000C6010995C6010E94420BEC01C0978A3010
:1017C000910538F2CA15DB0521F2992061F01095D8
:1017D0000095F094E094E11CF11C011D111D03C063
:1017E000EE24FF248701B701C801DF91CF911F913B
:1017F0000F91FF90EF90DF90CF90BF90AF909F90B0
:10180000089561E00E94900B0895CF93DF930E94AA
:1018100092080E94A400C7E3DAE00E94D600209755
:10182000E1F30E94370AF9CFCF92DF92EF92FF9255
:101830000F931F93CF93DF936C017B018A01C0E06C
:10184000D0E00FC0D7016D917D01D601ED91FC91E3
:101850000190F081E02DC6010995C80FD91F0150F4
:1018600010400115110571F7CE01DF91CF911F9145
:101870000F91FF90EF90DF90CF9008955058BB27C5
:10188000AA270ED0C2C1B3D130F0B8D120F031F4C4
:101890009F3F11F41EF483C10EF4E095E7FB79C17C
:1018A000E92FC4D180F3BA1762077307840795073D
:1018B00018F071F49EF5DCC10EF4E0950B2EBA2FF2
:1018C000A02D0B01B90190010C01CA01A001112446
:1018D000FF27591B99F0593F50F4503E68F11A16F2
:1018E000F040A22F232F342F4427585FF3CF469583
:1018F00037952795A795F0405395C9F77EF41F16A5
:10190000BA0B620B730B840BBAF09150A1F0FF0F6E
:10191000BB1F661F771F881FC2F70EC0BA0F621F5A
:10192000731F841F48F4879577956795B795F7954A
:101930009E3F08F0B3CF9395880F08F09927EE0FDC
:10194000979587950895DF93DD27B92FBF7740E8F6
:101950005FE31616170648075B0710F4D92F93D1DB
:101960009F938F937F936F933AD2E8E6F0E01AD17A
:101970004CD12F913F914F915F9198D1DD2349F048
:101980009058A2EA2AED3FE049EC5FE3D0785D276A
:1019900087DFDF913AC1D9D008F481E008950CD0F7
:1019A00034C12CD140F023D130F021F45F3F19F045
:1019B000F0C051115EC1F3C039D198F39923C9F336
:1019C0005523B1F3951B550BBB27AA276217730745
:1019D000840738F09F5F5F4F220F331F441FAA1FF9
:1019E000A9F333D00E2E3AF0E0E830D091505040B9
:1019F000E695001CCAF729D0FE2F27D0660F771F67
:101A0000881FBB1F261737074807AB07B0E809F048
:101A1000BB0B802DBF01FF2793585F4F2AF09E3FDD
:101A2000510568F0B6C025C15F3FECF3983EDCF38A
:101A3000869577956795B795F7959F5FC9F7880F56
:101A4000911D9695879597F90895E1E0660F771FA8
:101A5000881FBB1F621773078407BA0720F0621B39
:101A6000730B840BBA0BEE1F88F7E095089504D032
:101A70006894B111FEC00895E1D088F09F5790F0AE
:101A8000B92F9927B751A0F0D1F0660F771F881FA3
:101A9000991F1AF0BA95C9F712C0B13081F0E8D099
:101AA000B1E00895E5C0672F782F8827B85F39F037
:101AB000B93FCCF3869577956795B395D9F73EF402
:101AC00090958095709561957F4F8F4F9F4F0895AA
:101AD000E89409C097FB3EF49095809570956195C8
:101AE0007F4F8F4F9F4F9923A9F0F92F96E9BB277E
:101AF0009395F695879577956795B795F111F8CFFA
:101B0000FAF4BB0F11F460FF1BC06F5F7F4F8F4F64
:101B10009F4F16C0882311F096E911C0772321F05A
:101B20009EE8872F762F05C0662371F096E8862FF2
:101B300070E060E02AF09A95660F771F881FDAF749
:101B4000880F9695879597F90895990F0008550F76
:101B5000AA0BE0E8FEEF16161706E807F907C0F033
:101B600012161306E407F50798F0621B730B840B3B
:101B7000950B39F40A2661F0232B242B252B21F415
:101B800008950A2609F4A140A6958FEF811D811DB5
:101B9000089597F99F6780E870E060E008959FEFEF
:101BA00080EC0895DF93CF931F930F93FF92EF92F2
:101BB000DF927B018C01689405C0DA2EEF0176D0AC
:101BC000FE01E894A5912591359145915591AEF38B
:101BD000EF0166DEFE019701A801DA9479F7DF9044
:101BE000EF90FF900F911F91CF91DF910895002406
:101BF0000A941616170618060906089500240A9472
:101C000012161306140605060895092E0394000CF7
:101C100011F4882352F0BB0F40F4BF2B11F460FF86
:101C200004C06F5F7F4F8F4F9F4F089557FD9058AF
:101C3000440F551F59F05F3F71F04795880F97FB90
:101C4000991F61F09F3F79F087950895121613064A
:101C50001406551FF2CF4695F1DF08C01616170679
:101C60001806991FF1CF86957105610508940895AE
:101C7000E894BB2766277727CB0197F9089565DF9E
:101C800008F48FEF08959B01AC0160E070E080E8FC
:101C90009FE385CE0BD0B9CFAADF28F0AFDF18F0D5
:101CA000952309F076CF7BCF1124E3CFBFDFA0F3DC
:101CB000959FD1F3950F50E0551F629FF001729FE1
:101CC000BB27F00DB11D639FAA27F00DB11DAA1F00
:101CD000649F6627B00DA11D661F829F2227B00D4D
:101CE000A11D621F739FB00DA11D621F839FA00DD8
:101CF000611D221F749F3327A00D611D231F849F28
:101D0000600D211D822F762F6A2F11249F5750407E
:101D10008AF0E1F088234AF0EE0FFF1FBB1F661F19
:101D2000771F881F91505040A9F79E3F510570F0D2
:101D300030CF9FCF5F3FECF3983EDCF386957795ED
:101D40006795B795F795E7959F5FC1F7FE2B880FCD
:101D5000911D9695879597F9089511F40EF41FCF6C
:101D600041C06CDFD0F39923D9F3CEF39F57550BC5
:101D700087FF46D00024A0E640EA9001805856959F
:101D8000979528F4805C660F771F881F20F0261730
:101D90003707480730F4621B730B840B2029312965
:101DA0004A2BA69517940794202531254A2758F7E2
:101DB000660F771F881F20F026173707480730F473
:101DC000620B730B840B200D311D411DA09581F713
:101DD000B901842F9158880F9695879508959B0196
:101DE000AC0158CF9F3F31F0915020F48795779503
:101DF0006795B795880F911D9695879597F90895E2
:101E000091505040660F771F881FD2F70895629F48
:101E1000D001739FF001829FE00DF11D649FE00DE2
:101E2000F11D929FF00D839FF00D749FF00D659F43
:101E3000F00D9927729FB00DE11DF91F639FB00D42
:101E4000E11DF91FBD01CF0111240895991B79E00F
:101E500004C0991F961708F0961B881F7A95C9F73A
:101E600080950895AA1BBB1B51E107C0AA1FBB1F89
:101E7000A617B70710F0A61BB70B881F991F5A9516
:101E8000A9F780959095BC01CD01089597FB092E87
:101E900007260AD077FD04D0E5DF06D000201AF42B
:101EA000709561957F4F0895F6F7909581959F4FB6
:101EB0000895A1E21A2EAA1BBB1BFD010DC0AA1F8B
:101EC000BB1FEE1FFF1FA217B307E407F50720F0A3
:101ED000A21BB30BE40BF50B661F771F881F991F1E
:101EE0001A9469F760957095809590959B01AC0167
:101EF000BD01CF010895EE0FFF1F0590F491E02D75
:061F00000994F894FFCFE4
:101F060000000000BB09140C560985096909A709D8
:040000050080013442
:00000001FF
